:020000022000DC
:106000000000012009FC020049FC02004BFC0200D8
:106010004DFC02004FFC020051FC02000000000099
:1060200000000000000000000000000085FB0200EE
:1060300055FC020000000000A5FB020059FC020014
:106040005BFC02005BFC0200A9D702003D88020055
:106050005BFC02005BFC02005BFC02005BFC0200DC
:106060005BFC02005BFC02005BFC02005BFC0200CC
:106070005BFC02005BFC02005BFC02005BFC0200BC
:106080005BFC020011F90200C1CD02005BFC0200C2
:106090005BFC02005BFC02005BFC02005BFC02009C
:1060A0005BFC02005BFC02005BFC02005BFC02008C
:1060B0005BFC02005BFC020000000000000000002E
:1060C0005BFC02005BFC02005BFC02005BFC02006C
:1060D0005BFC02005BFC02005BFC020000000000B5
:1060E00000000000000000000000000000000000B0
:1060F00000000000000000000000000000000000A0
:10610000000000000000000000000000000000008F
:10611000000000000000000000000000000000007F
:10612000000000000000000000000000000000006F
:10613000000000000000000000000000000000005F
:10614000000000000000000000000000000000004F
:10615000000000000000000000000000000000003F
:10616000000000000000000000000000000000002F
:10617000000000000000000000000000000000001F
:10618000000000000000000000000000000000000F
:1061900000000000000000000000000000000000FF
:1061A00000000000000000000000000000000000EF
:1061B00000000000000000000000000000000000DF
:1061C00000000000000000000000000000000000CF
:1061D00000000000000000000000000000000000BF
:1061E00000000000000000000000000000000000AF
:1061F000000000000000000000000000000000009F
:10620000F1EE103A43F08073E1EE103A704700BFB0
:1062100010B5054C237833B9044B13B10448AFF3E0
:1062200000800123237010BDA83B00200000000067
:10623000C06B030008B5034B1BB103490348AFF320
:10624000008008BD00000000AC3B0020C06B0300D4
:10625000154B002B08BF134B9D46A3F5803A002138
:106260008B460F461348144A121A0DF07DF90F4B56
:10627000002B00D098470E4B002B00D098470020F1
:10628000002104000D000D48002802D00C48AFF397
:1062900000800DF0FFF82000290009F003FD0DF04B
:1062A000E5F800BF00000800000001200000000029
:1062B00000000000A83B0020DC4D00200000000092
:1062C0000000000000207047002070470023437248
:1062D000704700BF0020704743685B6953F8210096
:1062E000704700BF4368B3F910007047C069036886
:1062F0001B681847406903681B68184740690368B2
:10630000DB681847406903685B69184740690368A0
:106310001B691847406903689B691847807C704770
:10632000837CD9071CD413F0060F0ED11A0722D490
:10633000DB062BD5174AD0F81230126803F0EF03B2
:106340005268C0F81230507A7047124AD0F81230B2
:10635000126803F0F9035268C0F81230D078704721
:106360000C4AD0F81230126803F0FE035268C0F8ED
:10637000123050797047074AD0F81230126803F093
:10638000F7035268C0F81230D07970474FF0FF30F1
:10639000704700BF64390020704700BF002070477D
:1063A000406A03681B68184730B4012BD0E90940E4
:1063B0009DF8085001EB810106D00A4430F81230F4
:1063C000E382A38230BC70472A44114400EB4101B0
:1063D0008B88E382A38230BC704700BF2DE9F04771
:1063E000C4689DF8248024689DF820E034F8325079
:1063F00004EBC20207469488406AB2F902A0B7F8DB
:106400001A90B7F91C60D7F828C007680AEB010298
:106410002C4412FB06F215FB09F514FB09F4B8F144
:10642000010F29B2FF6B9DF8285012B224B203EB82
:10643000830309D09E443CF81E30BC46CDE9086376
:106440002346BDE8F0476047AE449E440CEB4E0C3B
:10645000BCF80430BC46CDE908632346BDE8F047EC
:10646000604700BF2DE9F043C568BDF920602F6883
:10647000BDF91C5037F931E0044607EBC107406A0B
:10648000B4F81A80B4F81C90D4F828C004680EEB55
:106490000201B7F902209DF82CE0A76C9DF824407A
:1064A0001A4411FB08F115FB08F312FB09F216FB65
:1064B00009F6BEF1010F12B236B209B21BB29DF855
:1064C00028509DF8308004EB840408D02C443CF81C
:1064D0001440BC46CDE90764BDE8F043604745443D
:1064E00025440CEB450CBCF80440BC46CDE90764E0
:1064F000BDE8F043604700BF2DE9F043C568BDF932
:1065000020602F68BDF91C5037F931E0044607EBD5
:10651000C107406AB4F81A80B4F81C90D4F828C0B7
:1065200004680EEB0201B7F902209DF82CE0E76B3E
:106530009DF824401A4411FB08F115FB08F312FBE7
:1065400009F216FB09F6BEF1010F12B236B209B21A
:106550001BB29DF828509DF8308004EB840408D0CD
:106560002C443CF81440BC46CDE90764BDE8F04338
:106570006047454425440CEB450CBCF80440BC4640
:10658000CDE90764BDE8F043604700BFF0B5C268DD
:10659000836A1568B3F804C00E4683B0044635F824
:1065A0003110406AB4F81CE0076805EBC605AB88FB
:1065B0006A88CDF804C0ED88B4F81AC015FB0EF552
:1065C0002DB2009512FB0EF213FB0CF311FB0CF134
:1065D000FD6B12B21BB209B2A847E3685B680022E8
:1065E00043F8262003B0F0BDF0B4C568078C2D68D1
:1065F000848B05EBC30635F93350B6F90260438B43
:10660000406A3244294414FB027413FB01F34482B0
:106610000382F0BC704700BFF0B4C468BDF91450E9
:106620002768836A466A07EBC50403EB4202B4F9A4
:10663000024037F83550BB88B2F82CC0B0F91C7056
:10664000408B21443468CDF814C00497A46C11FB2E
:1066500007F213FB00F315FB00F1A446304612B21B
:106660001BB209B2F0BC604790ED000B704700BF51
:1066700008B500680CF04AFB41EC100B08BD00BFE8
:1066800000207047436918680368DB68184700BF3B
:10669000436910B5044618680368DB68984758B921
:1066A0004FF0FF30074B1A6882421ABF4FF0FF329B
:1066B0001A604FF0FF3010BD6369186803681B69EA
:1066C0009847EFE7043600204369186803689B6920
:1066D000184700BF43685B6900221B8842728381B0
:1066E000704700BF437A33B9436880895B691B8870
:1066F0001B1A18BF01231846704700BF4368D88B88
:10670000003018BF0120704742685169138B088818
:10671000984203D3538B834228BF03460B807047B4
:10672000174B1B681B7A70B403B14942827A4368E5
:106730008AB1DA8B5C69012600292588467210DD52
:10674000598B481B904208DA9A7BD00700D5198BE9
:10675000218070BC70479A8BECE72A44228070BC81
:106760007047198B681A904205DA9A7BD20748BFA6
:10677000598B2180EDE7AA1A228070BC704700BFB8
:106780006439002043685B6900224272D3E9002328
:10679000C0E90423704700BF416810B50022002300
:1067A000D1E90C010CF084FD20B14FF0000404F09D
:1067B000010010BD4FF0010404F0010010BD00BF46
:1067C0002DE9F84346687769D6E90645D7E9008997
:1067D00022462B46404649460CF074FD40B9D6E9A6
:1067E000084542464B46204629460CF075FD18B137
:1067F000C7E90045BDE8F88344464D46C7E9004572
:10680000BDE8F8832DE9F84F2A4B1B681B7A03B1CA
:106810004942837AD0F804A003B3DAE90C67DAF8C6
:1068200014B001230029DBE90045437223DDDAE9D6
:10683000088922462B46404649460CF019F9324653
:106840003B460CF03FFD60B19AF80E30DA0701D5F7
:10685000DAE90689CBE90089BDE8F88FDAE90A6749
:10686000DDE722462B46304639460CF003F9CBE9EA
:106870000001BDE8F88FDAE90689204642464B461A
:1068800029460CF0F5F832463B460CF01BFD30B1C2
:106890009AF80E30DB07DDD5DAE90889DAE7324607
:1068A0003B46204629460CF0E3F8CBE90001BDE861
:1068B000F88F00BF6439002043685B6900221B68C1
:1068C0004272C360704700BF437A63B94368D0ED3A
:1068D000037A5B6993ED007AB4EE677AF1EE10FA11
:1068E00014BF012300231846704700BF4368D3ED4F
:1068F000097AF5EE407AF1EE10FA14BF012000207B
:10690000704700BF43685A69D3ED067A92ED007A6A
:10691000B4EEE77AF1EE10FA08D4D3ED077AF4EE8C
:10692000C77AF1EE10FA88BFF0EE477AC2ED007A2E
:10693000704700BF234B1B681B7A10B403B1494258
:10694000827A4368DAB1D3ED097A5A6901240029C1
:1069500092ED007A44721CDDD3ED076A36EEC76A09
:10696000B4EEE76AF1EE10FA0CD5997BC80701D5B1
:10697000D3ED066AC2ED006A5DF8044B7047D3EDB3
:10698000087AE2E777EE877A5DF8044BC2ED007A89
:106990007047D3ED066A37EE666AB4EEE76AF1EE49
:1069A00010FA07D5997BC90748BFD3ED076AC2ED36
:1069B000006AE1E777EE677A5DF8044BC2ED007A92
:1069C000704700BF6439002043685B6900221B6880
:1069D0004272C360704700BF437A33B94368C068EE
:1069E0005B691B681B1A18BF01231846704700BF5C
:1069F0004368586A003018BF012070474268D2E9E6
:106A000005130868984203DBD3698342A8BF034695
:106A10000B607047174B1B681B7A70B403B1494277
:106A2000827A43688AB15A6A5C690126002925681E
:106A3000467210DDD969481B904208DA9A7BD0076C
:106A400000D59969216070BC70471A6AECE72A4446
:106A5000226070BC70479969681A904205DA9A7B87
:106A6000D20748BFD9692160EDE7AA1A226070BC3D
:106A7000704700BF6439002038B503680D469B6934
:106A800004469847012D0ED007D3022D03D120468E
:106A9000084906F0C3FA002038BD2046064906F032
:106AA000BDFA002038BD2046044906F0B7FA0020A0
:106AB00038BD00BF10590300EC5803000059030013
:106AC00038B5B0F92030002B0446154603DB93425D
:106AD00001D006F09BFA258438BD00BF38B50546C5
:106AE0000C4606F093FAEB685B68002243F824201A
:106AF00038BD00BF4FF6FF730384C06906F086BA45
:106B000010B5044606F082FAE0680021BDE81040A6
:106B100005F03EBA70B505460C4604F0FFFA6B6905
:106B2000186803682146DB69BDE87040184700BF5C
:106B300008B50B460A22C168184606F0B5F900B23E
:106B400008BD00BF08B50B460A228189184606F029
:106B5000ABF900B208BD00BFF0B52DED028B136894
:106B600083B005465B6910460E4614469847C1B28D
:106B70002D292CD0344B18680DF054FA00284CD035
:106B8000237C002B34D0B7EE008A2046012200215E
:106B900006F0DAFA20EE080AD5E90032BCEEC00AA7
:106BA000022152698DF8041010EE104A4FF6FF7161
:106BB000ADF80610DB6914800120019AA8723146F5
:106BC000284603B0BDEC028BBDE8F04018472368AF
:106BD00020461B69984723681B4A5B691768204653
:106BE0009847014638460DF01DFA50B3237C8BB907
:106BF00007212B688DF804104FF6FF72ADF80620C0
:106C0000019ADB693146284603B0BDEC028BBDE832
:106C1000F0401847BFEE008AB7E723682A681B696F
:106C2000D76920469847C1B2304605F0BFF93146D2
:106C300002463B46284603B0BDEC028BBDE8F0405F
:106C400018470421D5E700BF60390020F0B52DEDCD
:106C5000028B136883B005465B6910460E461446E6
:106C60009847C1B22D292DD0344B18680DF0DAF9B0
:106C700000284DD0237C002B35D0B7EE008A20466B
:106C80000122002106F060FA60EE087A6B6817EEC8
:106C9000900A5C690CF04CF802238DF804304FF632
:106CA000FF73ADF806302B68019ADB69C4E9000177
:106CB0000120A8723146284603B0BDEC028BBDE826
:106CC000F0401847236820461B69984723681B4AF1
:106CD0005B69176820469847014638460DF0A2F9CF
:106CE00050B3237C8BB907212B688DF804104FF625
:106CF000FF72ADF80620019ADB693146284603B0E1
:106D0000BDEC028BBDE8F0401847BFEE008AB6E745
:106D100023682A681B69D76920469847C1B2304664
:106D200005F044F9314602463B46284603B0BDEC27
:106D3000028BBDE8F04018470421D5E760390020F8
:106D4000F0B52DED028B136883B005465B691046E4
:106D50000E4614469847C1B22D2928D0324B1868E8
:106D60000DF060F9002848D0237C8BB3B7EE008A81
:106D700020460122002106F0E7F9D5E9003220EE95
:106D8000080A5269DB6982ED000A02204FF6FF71A2
:106D90008DF80400ADF806100120019AA872314662
:106DA000284603B0BDEC028BBDE8F04018472368CD
:106DB00020461B69984723681B4A5B691768204671
:106DC0009847014638460DF02DF950B3237C8BB916
:106DD00007212B688DF804104FF6FF72ADF80620DE
:106DE000019ADB693146284603B0BDEC028BBDE851
:106DF000F0401847BFEE008ABAE723682A681B698B
:106E0000D76920469847C1B2304605F0CFF83146E1
:106E100002463B46284603B0BDEC028BBDE8F0407D
:106E200018470421D5E700BF60390020F0B52DEDEB
:106E3000028B136883B005465B6910460E46144604
:106E40009847C1B22D292BD0334B18680DF0EAF8C2
:106E500000284BD0237C002B33D0B7EE008A20468D
:106E60000122002106F070F9D5E9003220EE080A6F
:106E7000022152698DF80410BDEEC00A4FF6FF7171
:106E8000ADF80610DB6982ED000A0120019AA872B4
:106E90003146284603B0BDEC028BBDE8F0401847F0
:106EA000236820461B69984723681B4A5B6917685B
:106EB00020469847014638460DF0B4F850B3237C7D
:106EC0008BB907212B688DF804104FF6FF72ADF8CF
:106ED0000620019ADB693146284603B0BDEC028BDF
:106EE000BDE8F0401847BFEE008AB8E723682A687B
:106EF0001B69D76920469847C1B2304605F056F85D
:106F0000314602463B46284603B0BDEC028BBDE845
:106F1000F04018470421D5E760390020F0B44568F7
:106F2000BDF910606F69BDF914503F88BDF9184074
:106F30008781CDE904650694F0BC03F0BFBC00BFB7
:106F4000F0B44668BDF910507669D6E9006704953B
:106F5000BDF914500595BDF918500695C0E90467B0
:106F6000F0BC03F0ABBC00BF70B44668BDF90C5078
:106F70007669BDF9144036680395BDF91050C660B6
:106F8000CDE9045470BC03F099BC00BFF0B445686F
:106F9000BDF910606F69BDF914503F68BDF9184024
:106FA000C760CDE904650694F0BC03F087BC00BF60
:106FB00010B5C0680C460BF0BBFE41EC100B204630
:106FC000022106F00DF800B210BD00BF08B50B4657
:106FD00090ED040B0221184606F002F800B208BD3D
:106FE000436910B5044618680368DB68984730B1F8
:106FF000636918680368BDE810405B6918474FF083
:10700000FF3010BD032914D004290AD0022900D072
:1070100070470C4AD2F8123043F00103C2F8123024
:107020007047084AD2F8123043F00403C2F8123015
:107030007047044AD2F8123043F00203C2F812300B
:10704000704700BF5C3F002038B5447A5CB94368A4
:107050005969D0E90423D1E900014FF001050CF092
:1070600027F910B9ECB2204638BD2546FAE700BF33
:107070000268074952698A4208B504D1807C003011
:1070800018BF012008BD9047003018BF012008BD7F
:107090001D630200F0B50021044683B0C06804F00F
:1070A00077FFD4E90902036891881B6C984723682D
:1070B000174A1D6A954218D1E268658B1268A78B42
:1070C00051881288268C606A12FB05F25D6A114BAA
:1070D000028211FB07619D42418210D1D4E909323D
:1070E000D289DA829A8203B0F0BD00231A4619468B
:1070F0002046A84723685D6A064B9D42EED00022D9
:107100000123204600921946A84703B0F0BD00BFF6
:10711000E9650200A96302002DE9F04FDFF878A3CA
:10712000B74AB84BB0A7D7E90067DAE900454FF096
:1071300000084FF0000987B0C2E90089C3E9006781
:107140002046294632463B460CF0DAF8002800F08B
:107150001C81CAE9006734463D46DFF840A30FF2C0
:107160008829D9E90089DAE9006742464B4630466A
:1071700039460CF0C5F850B94FF000084FF000093F
:107180003046394642464B460CF09CF808B1CAE9F5
:1071900000899D4BDFF808931868DFF808B30BF0FF
:1071A000B5FD9A4B4FF00008C3E9008990A3D3E9DD
:1071B000002306460F460BF013FEDFF8EC82DFF8E3
:1071C000EC923B46CBE9000132468BA1D1E90001AC
:1071D0000BF030FF98F80030C9E90001002B00F0F7
:1071E000E2808B4B8B4F8C48012439210026C3E968
:1071F000006788F8004001F05FFA0023864A87485C
:10720000392101F0CFFB6421844801F0EDFD40F20B
:10721000E731824801F0FCFD0921804801F00EFEB3
:107220007E4801F079FD00217C4801F011FC2146E7
:10723000112009F071FA02211B2009F06DFA784B38
:1072400078491A68784813895160C3F30E0343F4F0
:107250009B73234313811E214FF0FF330B2205F054
:1072600051FD2146704805F091FD6F4805F07AFD0B
:10727000234621463C2200946C4802F0D9FD6B481D
:1072800003F056F8642006F0F9FA684803F060F855
:10729000674B684903F5007243F8041B9A42FBD11F
:1072A000654B664A5B6866495B6966489C68D3E9DA
:1072B0000065002333722B722372516101F0C8F80C
:1072C000502008F02DFD0546044600F150062046EA
:1072D000103401F0B1F8B442F9D102AC5A4B00932A
:1072E00020465A4B5A4A5B495B4E5C4F01F0A8F866
:1072F00094E80F00009685E80F002046534B584A4B
:10730000584901F09DF894E80F0005F1100686E851
:107310000F00554B00932046544B554A554901F0F8
:107320008FF894E80F0005F1200686E80F00524B15
:1073300000932046454B514A514901F081F894E8A9
:107340000F0005F1300686E80F004E4B00933A46D9
:1073500020463E4B4C4901F073F894E80F0005F1CC
:10736000400484E80F004FF4487600232A46CDE914
:10737000003646493348052300F0B0FE00220023C2
:10738000C7E9002307B0BDE8F08F42464B462046D0
:1073900029460BF097FF00283FF4DFAECAE90089C9
:1073A00044464D46D9E63A4A3A4BD2E900010EA787
:1073B000D7E90067C3E9000132463B46204629462B
:1073C0000BF09EFF58B9002600272046294632467A
:1073D0003B460BF077FF10B9CAE9004501E7CAE95F
:1073E0000067FEE6AFF300800000000000E06F40A1
:1073F0002D431CEBE2364A3F000000000070B7400E
:10740000103F0020083F002008360020A03D00204B
:10741000E83B002000003E40E0410020B83C002056
:10742000E43C002005700200BC420020043D002026
:10743000C03F00200000C842AC3C0020C43D0020FA
:10744000796A0200343F0020E05A030069660200B6
:10745000C0410020D05A0300F45A0300C83B00206A
:10746000C8410020E85A0300045B03007166020073
:10747000D0410020FC5A0300145B0300D8410020D7
:107480000C5B0300285B03001C5B0300305B030004
:10749000D83B0020A83D0020E03B0020D03B00204E
:1074A00000002240983D0020883D0020903D0020B3
:1074B0002DE9F04F2DED028BDB4BDC4D1868DC4CD9
:1074C000DFF8C4A389B00BF033FC06460F46324602
:1074D0003B460020D7490BF0CBFA80462868894606
:1074E0000BF026FC02460B46404649460BF078FC62
:1074F000D4E9002380468946304639460BF070FCBB
:1075000002460B46404649460BF0B4FA0BF04AFFE0
:10751000286006F0A7F9C84ADAF800301268C31AE2
:10752000934216DDC54F06464FF4FE72391D3846AC
:107530000CF001F8C24BC34A5968286849691368BE
:107540004968C7F8FC0101200344CAF8006048728A
:10755000136006F087F90646022008F0E1FF0C20D0
:1075600008F0D8FF9FEDB88A14251F2009F008F80D
:1075700007EE900A013DF8EE677A15F0FF0538EE48
:10758000278AF2D1284608F0CBFF0A2008F0C2FF74
:10759000AE4AAF4D1368DFEDAF7AAF49F31AB3F5DA
:1075A000FA6F2B6828BF166028EE278AF31A4A2B39
:1075B00081ED008A00F20382DFF8D08208F128050D
:1075C000C1464646042008F0DBFF46F8040BB542EE
:1075D000F8D1D9ED007A99ED027A9FEDA06AA04D1D
:1075E000A04FDFF8ACA2F8EEE76AD9ED017AF8EE29
:1075F000E77AB8EEC77A76EEA76AD9ED037A77EE26
:10760000266AF8EEE77A99ED047A77EEA67AB8EE74
:10761000C77AD9ED056A37EE277AF8EEE66AD9ED32
:10762000067A36EE877AF8EEE76AD9ED077A76EED3
:10763000876AF8EEE77A99ED087A77EEA66AB8EEEF
:10764000C77AD9ED097A37EE267AF8EEE77AB7EEFF
:10765000008A77EE877A86EE270A30EE480A88EEAF
:10766000000A0BF03DF9DFED807A60EE277A17EE25
:10767000900A0BF05DFB68A3D3E900230BF0FAF945
:107680000BF090FE07EE900AC8EE277A17EE900AEC
:107690000BF04EFB62A3D3E900230BF0E9F90BF0EA
:1076A00081FE0BF045FBC4E90001D5E900010BF0B8
:1076B00031FE0023642219460092FF2206F0C2F830
:1076C0000BF024FB97ED007B684BCAE9000183EDCA
:1076D000007B042008F054FF48F8040BB045F8D1B3
:1076E000D9ED017ADFED5D5ADFF8A881604EB8EE82
:1076F000E77AD9ED007AF8EEE76AD9ED027A37EE4B
:10770000267AF8EEE77AD9ED036A77EE877AF8EE13
:10771000E66A99ED047A76EEA77AF8EEC76A99EDF3
:10772000057A76EEA76AB8EEC76AD9ED067A36EE24
:10773000266AB8EEE77AD9ED077A37EE066AF8EEF0
:10774000E76A99ED087AD9ED097A76EE866AB8EE9D
:10775000C77AF8EEE77A37EE267AB7EE008A77EE48
:10776000877A85EEA70A30EE480A88EE000A0BF009
:10777000B7F8DFED3D7A60EE277A17EE900A0BF04E
:10778000D7FA25A3D3E900230BF074F90BF00AFE16
:1077900007EE900AC8EE277A17EE900A0BF0C8FAA7
:1077A0001FA3D3E900230BF063F90BF0FBFD07EEF9
:1077B000900AFDEEE77AD4E90023C8ED007AD7E914
:1077C00000010BF055F92B4B1B78C6E90001002B8B
:1077D00074D1D5E90067394630460BF0C3FD014648
:1077E000102008F00FFE2448244D05F037FA244AF3
:1077F000244B16881C8806F035F83319B0FBF3F1DA
:1078000001FB1301B1422CBF00210121112008F01E
:10781000C5FF41E0AFF3008083DBB5DCE1796B3F6E
:10782000666666666612714058390020BC3F0020CB
:10783000D83B00200000F03F54390020C03F00201A
:10784000483F00201C3E002000000000543F002064
:10785000583F002035805738E03C002000D81F46B4
:10786000E03B0020E83B00202CBB8439C8410020CD
:10787000D8410020883D0020E43C0020C43D002089
:107880005E3900205C390020B03D0020703F0020B0
:10789000C0410020D0410020544800F04BFD6968F1
:1078A000284604F033FC284604F07CFC504809B01C
:1078B000BDEC028BBDE8F04F02F04ABDDFF85CA1E1
:1078C00005F0D0FF4B4ADAF800301268C31A934231
:1078D0008346FFF67EAF94ED007BD7E9000153ECC1
:1078E000172B8DED027B0BF0C3F8434B434CD3E9D0
:1078F000002306460F460BF073FAD4E900230BF081
:10790000B9F83F4BD3E90089C4E9000142464B4630
:10791000CDE904010BF0F4FC002862D1394B93ED62
:10792000007BDDE9040153EC172B8DED067B0BF09A
:10793000C9FC28B19DED067B84ED007B8DED047BB9
:10794000314B324C30463946D3E900230BF048FA2C
:10795000D4E9002306460F46DDE902010BF088F862
:107960002B4BD3E900230BF03BFA02460B46304683
:1079700039460BF07DF8DDE904230BF07BF8064671
:107980000F4640464946C5E9006732463B460BF084
:1079900099FC48B91B4BD3E9008930463946424629
:1079A0004B460BF08FFC18B1C5E9008946464F469F
:1079B0009DED027BCAF800B084ED007B0BE7154813
:1079C00005F0EAF940B2002809D0134AD2F8123083
:1079D000CCBF43F0080343F01003C2F812302E600E
:1079E000EAE5C4E90089CDE90489A9E7343F00202C
:1079F000043D002008360020983D0020D03B0020A8
:107A0000083F0020103F0020A03D0020A83D00209E
:107A1000903D0020BC4200205C3F0020B43D00208F
:107A20002DE9F04FD54CD64EDFF82494D54FDFF832
:107A300024A4DFF8248485B0204600F0A9FF324654
:107A40002046D1490AF046FF002301221B21CF48DE
:107A500004F0F0FFDFF804C4CD4B019301240025AE
:107A60004FF01F0E4FF47A7BCA49CB4A02914FF078
:107A7000FF3300934846CCF800208CF811E0CCE9A5
:107A8000015B8CF81040C54B4022802102F0E0F8E9
:107A90003246C34948460AF01DFF384600F0EEFA68
:107AA00032463846BF49C04EC04F0AF013FFC04AA5
:107AB000C049C148C14B147254729572136056602C
:107AC000BF4BDFF89CC34860062232710271BD4E85
:107AD000BD48C7F804A08AF80420C3F804C01C728B
:107AE0005C729D721860DFF87CA3B84BDFF878E316
:107AF0003C727C72BD72C7F800A07360B44FB54B86
:107B00003472747233600326DFF860A30C724C7217
:107B10008D720860CEF80470AF493E71AF4F8CF89B
:107B200004208EF80840DFF848C38EF80940CEF8EC
:107B30000070DFF840E3C1F804A08AF80420DFF801
:107B400038A38CF80420CEF804C00C72DFF82CC3E4
:107B50004C728D72C1F800A0A149CCF804100A71D2
:107B6000A0498CF808408CF80940CCF800A08EF8A9
:107B700008408EF809408EF80A50CEF800A08CF824
:107B80000A50DFF8FCE2DFF8FCC2C1F804E00C7236
:107B90004C728D72C1F800A093498EF804208CF8C5
:107BA00008408CF80940CCF80410DFF8DCE2CCF88F
:107BB0000030DFF8D8C28D498EF80460CCF804E0BC
:107BC0008CF80840DFF8C8E28CF80940CCF8007067
:107BD000DFF8C0C20C724C72C1F804C00B6084495B
:107BE000CEF804108349DFF8B0C20C724C72C1F8B1
:107BF00004C00B608049DFF8A4C20C724C72C1F85B
:107C000004C00B607D49DFF898C20C724C72C1F859
:107C100004C00B607A49DFF88CC20C724C72C1F858
:107C200004C00B607749DFF880C20C724C72C1F857
:107C300004C0CEF800308EF808408EF809400B6082
:107C4000DFF868E27049DFF868C28EF80460C1F8B6
:107C500004E0DFF860E20C724C720F60CCF804E0D4
:107C60008EF80420DFF850E2CCF800008CF80840D1
:107C70008CF80940CEF800308CF80A50634BDFF8DE
:107C80003CC26348CEF804306249634BCCF8043000
:107C9000624B0A71416004724472C0F800A0604AED
:107CA000DFF81CA25F498572CCF800305E485F4B5C
:107CB0008CF808408CF80940CCE90355DFF804C281
:107CC0008EF808408EF809401671CAF804200E712B
:107CD000416004722946447207608AF808404046B1
:107CE0008AF80940CAF80070C8F800C0C8E9013431
:107CF00004F04EF94E4B4F4AC3F82490C3F80C8061
:107D0000DFF8C491DFF8C481C3F80890C3F81A8083
:107D10004FF00119DFF8B881C3F81E90C3F8008056
:107D2000DFF8B09144485D604FF002085D611D7658
:107D3000C3F8289083F81080404BD3605146404BE5
:107D4000DFF894913F4E404FDFF890C1DFF890E1AB
:107D5000C2F808904FF0FF3AA2F820A0D361436127
:107D60004FF0040A394BDFF87C9155605561157668
:107D700082F810A0C2F80090B6E000BFB83C002026
:107D800000360020343F0020A1890200E43C00209E
:107D9000801A0600A086010054570300E04100202D
:107DA000A99C02009580020060370020683C0020FA
:107DB000583C0020783C0020B0370020E8570300F2
:107DC000903C0020A03E002058580300E8380020D6
:107DD00050360020E0600300F03B0020B456030062
:107DE000C4360020203C0020483800202C3E0020D3
:107DF00068380020443E0020503E00205C3E0020B9
:107E0000683E0020743E0020AC3C0020D8380020A2
:107E1000483C002040370020C8380020C8570300E5
:107E20002038002000390020483F0020A83C0020D6
:107E3000B43E0020E03E0020983F0020B0420020E9
:107E4000C8420020C43D0020703D0020F8380020CA
:107E5000043D002088370020183F00205C3F0020B0
:107E6000E837002020580300F43C0020843600202E
:107E7000A4360020003C002090580300103C002055
:107E8000E4360020203E002028390020B03F0020AA
:107E9000383E0020583800207838002088380020EC
:107EA00098380020A8380020B83800201836002064
:107EB000303C002008370020943E0020803E002007
:107EC000B83D002010360020243F002005000900A6
:107ED00080570300EC5903002C3F0020F83D0020A0
:107EE000AC3E0020E0560300DFF874A01B4ADFF828
:107EF00074900474C0E9015BC0F800A07A61304658
:107F0000CEE90083DFF860A0C7F808B07D603C745C
:107F1000C7F80090ACF80050ACF80C50ACF8185012
:107F2000C6E902C8C6E900E734747574C6E90655A7
:107F300086F8205086F8214086F82250B484C6E99D
:107F40000A5586F83040C6F814A004F0CFF8414630
:107F5000304605B0BDE8F04F04F0B6B80C3600204E
:107F600028570300C8580300A9B002002DE9F04FBC
:107F70002DED028BDC68996A2468DFF8F880C6680A
:107F8000066185B001EB4202BDF94850D289A8F8DC
:107F9000162004EBC501A8F81420B1F90260BDF960
:107FA0004010B3F91C200E44023602FB06F6002EE8
:107FB00056DBB8F90C10B01A814251DB34F9355058
:107FC000A94247DD0393294BDFF8ACA0DFED288AF7
:107FD000029603EB8509B7EE008AC3460BE0CDF8A5
:107FE00000E001F0C5FBB8F90C300135AB4231DDE2
:107FF000039BB3F91C20B9EC017ADAF8006007EEB4
:10800000902AF8EEE77AF0EE486A67EEA87A4FF029
:10801000010EE7EE276A029A2E44FDEEE67A29B2B7
:1080200017EE904A7445B8BF7446171B631E07EBE2
:108030000E02B60758461BB212B2D0D123B229B2F3
:10804000CDF800E03AB201F093FBB8F90C300135FD
:10805000AB42CDDC012005B0BDEC028BBDE8F08F5A
:10806000002005B0BDEC028BBDE8F08FC03F0020C2
:108070006F12833B043D00201C3E002010B50023FE
:10808000C0E9033303608360044605F0EBFB6060E6
:10809000204610BD70B5C4682568064655B91BE07A
:1080A000184607F05DFE204607F04AFE2B6853B1E4
:1080B0002C461D4663692046002BF1D107F040FE97
:1080C0002B68002BF4D1686908B107F049FE2846F7
:1080D00007F036FE304670BD2546F4E72DE9F04244
:1080E000044618200D4617461E469DF8189007F0C6
:1080F00007FE0799E2688660002380F80490C0E9D3
:1081000003154761036052B1236918602061236839
:108110000133236005F0A6FB6060BDE8F082C4E98E
:108120000300F4E72DE9F0410C460546704971481B
:1081300004F0A4FE64BB6F486F49704F064604F01C
:108140009DFE6F49304604F099FE6E49304604F0BA
:1081500095FEAB6800249C4214DA6B6903EB0413B0
:10816000D3E9020290470821304604F039FFAB689A
:1081700001349C42EFDA3946304604F07FFEAB68AA
:108180009C42EADB60495B48BDE8F04104F076BE02
:1081900058485949DFF8648106460F4604F06EFEE0
:1081A0005A49304604F06AFE5949304604F066FEEA
:1081B0003946304604F062FE2969304604F05EFE1E
:1081C0003946304604F05AFE5249304604F056FE15
:1081D0005149304604F052FE4D49304604F04EFEFF
:1081E0000A222979304604F05FFE4A49304604F0FD
:1081F00045FE4A49304604F041FE4549304604F008
:108200003DFE0A22E968304604F04EFE4149304600
:1082100004F034FE4249304604F030FE3C4930461A
:1082200004F02CFE0A22A968304604F03DFE3949CC
:10823000304604F023FE3B49304604F01FFE31492E
:10824000304604F01BFEAB6800249C4239463046A1
:1082500018DA04F013FE23016A693046D15804F09D
:108260000DFE3946304604F009FEAB6801349C42ED
:10827000EBDA4146304604F001FEAB689C423946D9
:108280003046E6DB1B4828491B4FDFF87080064666
:1082900004F0F4FD2549304604F0F0FD194930465C
:1082A00004F0ECFDAB6800249C423946304619DAF4
:1082B00004F0E4FD6B6903EB04133046596804F0E5
:1082C000DDFD3946304604F0D9FDAB6801349C42EF
:1082D000EADA4146304604F0D1FDAB689C423946AB
:1082E0003046E5DB1249034804F0C8FD23E700BF30
:1082F000485B0300C84200204C5B0300705B030036
:10830000805B03006C5B0300845B0300505B030035
:10831000545B0300585B03005C5B0300605B03007D
:10832000645B0300685B0300745B0300785B03001D
:108330007C5B03002DE9F041064633493348B468BD
:1083400004F09CFD3249314804F098FD31492F4832
:1083500004F094FD05F086FAB4FA84F501460A2289
:108360002A486D0904F00EFE5CB32B49274804F03F
:1083700085FD2A49254804F081FD2949234804F058
:108380007DFDF4686CB1DFF8AC80204F20462946B3
:10839000FFF7C8FE24684146384614B104F06EFD6C
:1083A000F4E72049194804F069FD1F49174804F013
:1083B00035FEB3680133312BC8BF0023B360BDE87D
:1083C000F0811549114804F059FD18490F4804F08F
:1083D00055FD10490D4804F051FD0A2231680B4843
:1083E00004F062FD0C49094804F048FD10490748B3
:1083F00004F044FD0749054804F040FD0A22716875
:10840000024804F0BFFDB0E7345B0300C84200201F
:10841000505B0300545B0300585B0300405B0300A8
:108420006C5B0300845B0300445B0300385B030068
:108430003C5B0300705B03000022C0E9022270472E
:1084400030B4029D45600160C0E9022330BC704732
:1084500010B54FF4E1310446034804F0ABFF05F0DA
:1084600001FA606010BD00BFC8420020704700BF25
:10847000203004F015BE00BF203004F003BE00BF62
:10848000203004F013BE00BF38B5437F0BB9002085
:1084900038BD00F1680420460D4604F00FFE0028A8
:1084A000F5D12046294604F0DBFD012038BD00BF90
:1084B0002DE9F0475AB30646DFF8588033681B6849
:1084C0004D1E434517464FF0000400F1680915F8AA
:1084D00001AF16D1737F13B92046BDE8F087484637
:1084E00004F0ECFD0028F7D15146484604F0B8FDF1
:1084F0000134A742F0D0336815F801AF1B6843453B
:10850000E8D05146304698470028F1D1E4E71446B8
:10851000E2E700BF8984020030B4827E4FF0A043BE
:1085200002F5E07240F20C640121C17643F822406A
:10853000427E02F5E0724FF0CC7543F822400369A9
:10854000C3F8245503690622C3F800250369827E17
:10855000C3F808250369427EC3F80C2590F918304A
:10856000002B13DA124A03F00F031A446023137628
:1085700090F91830002B07DB0E4903F01F00012291
:108580005B09824041F8232030BC70475C096034AD
:1085900003F01F03074A01FA03F342F8243090F96D
:1085A0001830002BDEDB1344602283F80023DFE762
:1085B000FCEC00E000E100E0C37EE3B10E4B026999
:1085C00010B499424FF00004C2F8004510D90B4B8B
:1085D000994294BF4FF080614FF0C86103695DF824
:1085E000044BC3F8241503690622C3F8002570471D
:1085F0004FF0CC71F2E77047A086010090D00300E5
:108600000AB9104670472DE9F041054600F12008EF
:10861000404614461E460F4604F030FD2B69C3F851
:1086200088752A69012313622A69C2F834852A6988
:10863000C2F838452A6913602A6902E0D2F8243169
:108640001BB9D2F84C110029F8D00023C2F84C31E4
:108650002A6902E0D2F8241119B9D2F85C11002974
:10866000F8D00023C2F85C312B696EB9D3F824210D
:1086700052B90122DA612A69D2F84831002BFBD0C5
:108680000023C2F8483109E001225A612A69D2F870
:108690000431002BFBD00023C2F804312B69D3F83E
:1086A00024211AB10022C3F824212B69D3F83C05F8
:1086B0002866C0B2BDE8F08110B50446683084F881
:1086C000B01004F0DBFC0123637710BDF8B504465D
:1086D0000020236994F8B0206077C3F888252369C7
:1086E00001271F62236904F16806C3F84465304618
:1086F0000D4604F0D5FC2369C3F8480523699F6043
:10870000236902E0D3F824211AB9D3F85021002AB2
:10871000F8D00022C3F85021304604F0C1FC236990
:1087200040BB0022C3F86021236915B9D3F8242186
:108730002AB301225A612269D2F80431002BFBD0FE
:108740000023C2F804312369D3F8240168B1002260
:10875000C3F824212369D3F8C404C3F8C40402284D
:1087600003D0042814BF04200320F8BDD3F824212B
:10877000002AD6D1D3F86021002AF7D0D1E7012210
:10878000DA612269D2F84831002BFBD00023C2F80D
:108790004831D8E770B5036990F8B02000214177DF
:1087A000C3F88825036901261E62036900F1680584
:1087B0000446C3F84455284604F072FC2369C3F804
:1087C000480523699E60236902E0D3F824211AB981
:1087D000D3F85021002AF8D00022C3F850212846AF
:1087E00004F05EFC236918BB0022C3F860212369F2
:1087F00001225A612269D2F80431002BFBD00021FA
:10880000C2F804112369D3F8240160B1C3F824111C
:108810002369D3F8C404C3F8C404022803D004288D
:1088200014BF0420032070BDD3F82421002ADBD11B
:10883000D3F86021002AF7D0D6E700BF70B5294CE5
:108840006369D3F86421002A3AD1D3F86821E2B9E8
:10885000D3F8042162B1227F0021C3F804113AB198
:10886000D4F8B820D3F83C0520660AB19047636974
:10887000D3F8242142B10022C3F82421D3F8D02414
:10888000C3F8D02401225A6170BD0022C3F86821C8
:10889000154822770123637704F0F0FBD4F8B43055
:1088A00003B1984763691048C3F844050023637710
:1088B00004F0F6FB63690122C3F848055A63C7E771
:1088C000002204F12006C3F86421012530462577F3
:1088D00004F0D4FB63694022C3F83465C3F838253B
:1088E0001D63B2E7E04100204842002038B50E4C3D
:1088F0000E4A20464FF47A7340F8202B0025C4E935
:10890000015304F0A3FB04F1680004F09FFB084A44
:10891000084B6577D2E91912032020766176A2769A
:10892000C4E9043338BD00BFE0410020905B030080
:108930008461030000300040F0B591B001240025AF
:1089400081680194234692220646009504A808F007
:1089500047FA04A808F0BAFA10EA040702D0284639
:1089600011B0F0BDB1682346CDE900740AA8802299
:1089700008F036FA0AA93B46224602A808F00EFB88
:10898000214602A808F080FB204611B0F0BD00BFD0
:10899000024A02600022027182607047B45B0300E9
:1089A000704700BF2DE9F0410446806890B00E4644
:1089B0001746984608B107F0C3F9102007F0A0F950
:1089C0003A460546314608F049FCA5602846012193
:1089D00008F04EFC054618B9284610B0BDE8F081F5
:1089E00023681A4A1B6893422AD101260027A168EE
:1089F00001963346922204A8009708F0F1F904A8E2
:108A000008F064FA10EA060804D03D46284610B083
:108A1000BDE8F081A1683346CDE900860AA880222E
:108A200008F0DEF90AA94346324602A808F0B6FA71
:108A3000314602A808F028FB284610B0BDE8F081B6
:108A40004146204698470546C6E700BF39890200DF
:108A5000F0B583689BB00124002605460F467022BE
:108A6000194608A823460194009608F0B9F908A908
:108A70002246032302A808F091FAA968234674222B
:108A8000CDE900640EA808F0ABF90EA92246072331
:108A900004A808F083FAA9682346A922CDE9006456
:108AA00014A808F09DF9224614A9042306A808F08A
:108AB00075FA214606A808F0E7FA394602A808F038
:108AC000E3FAB8B90646A9680124002523460194B3
:108AD0000095A92214A808F083F9224614A90423BA
:108AE00006A808F05BFA294606A808F0CDFA304639
:108AF0001BB0F0BD394604A808F0C6FA0646E2E706
:108B000070B588B0002401250646816801952B4682
:108B1000224602A8009408F063F9224602A83021F8
:108B200008F06EF9B1682B462A46CDE9004502A847
:108B300008F056F92246294602A808F061F9B16802
:108B40002B46CDE9004502A8022208F049F9224649
:108B5000214602A808F054F9B1682B46CDE900453A
:108B600002A8032208F03CF92246214602A808F098
:108B700047F9B1682B46CDE9004502A8042208F068
:108B80002FF92246214602A808F03AF9B1682B468F
:108B9000CDE9004502A8052208F022F9224602A8E4
:108BA000422108F02DF9B1682B46CDE9004502A815
:108BB000062208F015F92246214602A808F020F9FD
:108BC000B1682B46CDE9004502A8072208F008F954
:108BD0002246214602A808F013F9B1682B46CDE9D8
:108BE000004502A8082208F0FBF8224602A85021FE
:108BF00008F006F9B1682B46CDE9004502A8092224
:108C000008F0EEF82246214602A808F0F9F8B1680B
:108C10002B46CDE9004502A80A2208F0E1F82246D9
:108C2000214602A808F0ECF8B1682B46CDE90045D2
:108C300002A80B2208F0D4F82246214602A808F028
:108C4000DFF8B1682B46CDE9004502A80C2208F0F8
:108C5000C7F8224602A8202108F0D2F8B1682B46B6
:108C6000CDE9004502A80D2208F0BAF8224602A874
:108C7000042108F0C5F8B1682B46CDE9004502A8EB
:108C80000E2208F0ADF82246214602A808F0B8F8F6
:108C9000B1682B46CDE9004502A80F2208F0A0F8E4
:108CA000224602A8302108F0ABF8B1682B46CDE986
:108CB000004502A8102208F093F82246294602A88F
:108CC00008F09EF8B1682B46CDE9004502A81122B4
:108CD00008F086F8224602A8502108F091F8B16801
:108CE0002B46CDE9004502A8122208F079F8224669
:108CF000214602A808F084F8B1682B46CDE900456A
:108D000002A8132208F06CF8224602A8062108F0F7
:108D100077F808B070BD00BF70B58AB00124002696
:108D2000816880F8246005462346019480220096DD
:108D300004A808F055F82346224604A902A808F022
:108D40002DF9314602A808F09FF9A9682346CDE91C
:108D50000064AF2204A808F043F80323022204A908
:108D600002A808F01BF9022102A808F08DF9284694
:108D7000FFF7C6FEA9682346CDE90064802204A857
:108D800008F02EF8224604A9042302A808F006F9E8
:108D9000214602A808F078F940F2E93405E0013CE8
:108DA0004FF0010006D004F069FD02A808F0FEF8BB
:108DB0000028F4D101240022A968009223460194DE
:108DC000802204A808F00CF82346224604A902A831
:108DD00008F0E4F8214602A808F056F9204685F884
:108DE00024400AB070BD00BF30B5826889B001234D
:108DF00000240D46CDE90043114602A8812207F068
:108E0000EFFF2246294602A807F0FAFF09B030BD5D
:108E100030B5826889B0002401230D46CDE90043B6
:108E20001146022302A8CA2207F0DAFF2246294689
:108E300002A807F0E5FF09B030BD00BF30B5826879
:108E400089B0012300240D46CDE90043114602A854
:108E5000AA2207F0C5FF2246294602A807F0D0FF44
:108E600009B030BD002929DB30B4B0F90C408C4288
:108E700022DD002A20DBB0F90E4094421CDD847E06
:108E8000022C4BD0032C43D0012C18D0012B2ED018
:108E90001BD3022B10D1002A0489C06A1346B8BF25
:108EA000D31DDB1013FB041102F00702445C012305
:108EB00003FA02F26240425430BC704770470489A2
:108EC000D24314440A4621B2E0E7002A0489C06A6A
:108ED0001346B8BFD31DDB1013FB041102F00704C7
:108EE000435C0122A24023EA02034354E4E7002A40
:108EF0000489C06A1346B8BFD31DDB1013FB0411ED
:108F000002F00702445C0123934023434354D3E718
:108F10004489013C641A114622B2B7E704894589A5
:108F2000D243013C2A44611A12B209B2AEE700BF33
:108F3000F8B50446806A0D4668B394F83010FFF720
:108F4000BBFBA06A036800211B689847A36A2F1D1A
:108F500001261A6815F8011B126818469047013659
:108F6000BD42B6B212D0A36A3F2E1846F1D1FFF728
:108F700011FC94F83010A06AFFF79EFBA06A03680A
:108F800000211B6898470126A36AE2E7A06ABDE8B2
:108F9000F840FFF7FFBB226C216D136823EA010341
:108FA00013602E1D04E007F0D1FEB54200F09A8058
:108FB000606A15F8011B0028F5D1D4E90E23A06CD6
:108FC000176811F0800F0CBF27EA000038431060CB
:108FD0001868E76C384318601868E76C20EA0700E7
:108FE00018601768A06C11F0400F0CBF27EA000052
:108FF000384310601868E76C384318601868E76CED
:1090000020EA070018601768A06C11F0200F0CBF51
:1090100027EA0000384310601868E76C384318608E
:109020001868E76C20EA070018601768A06C11F058
:10903000100F0CBF27EA0000384310601868E76C77
:10904000384318601868E76C20EA07001860176852
:10905000A06C11F0080F0CBF27EA00003843106025
:109060001868E76C384318601868E76C20EA070056
:1090700018601768A06C11F0040F0CBF27EA0000FD
:10908000384310601868E76C384318601868E76C5C
:1090900020EA070018601768A06C11F0020F0CBFDF
:1090A00027EA0000384310601868E76C38431860FE
:1090B0001868E76C20EA0700186011F0010FA06C37
:1090C000116814BF084321EA000010601A68E16CBF
:1090D0000A431A601A68E16CB54222EA01021A607A
:1090E0007FF466AFF8BD00BF2DE9F041847EBDF886
:1090F0001850022C7AD0032C73D0012C07D0002AF0
:1091000003DBB0F90A4094427BDCBDE8F0810489BE
:10911000D243224412B2002AF7DBB0F9086096422B
:10912000F3DD0029BEBF5B1800211BB2B0F90A7045
:109130000C461C44BC42C4BF7B1A1BB2002BE4DDAE
:10914000C9B2CC08D0F82CC016FB042211F00701DC
:10915000DBB20CEB020721D0C1F10801CCB2C3494C
:10916000A342095D80F07681A4EB030EFF2646FA48
:109170000EF6012D01EA060100F0FC81C0F000822C
:10918000022DC2D11CF8026071400CF80210A342FB
:10919000BBD3B0F908201B1BDBB21744072B11D936
:1091A000022D00F0F481002D14BFFF2400241A4684
:1091B0003C70083AB0F90810D2B2072A0F44F7D829
:1091C00003F00703002BA0D0A94A012DD35C00F0C7
:1091D000F581C0F0EE81022D97D13A7853403B7073
:1091E00093E744891944611A09B294E746890489CE
:1091F000D2433244194412B2611A002A09B280DA09
:1092000083E70029BEBF5B181BB20021B0F90840FC
:109210005E18A642C4BF631A1BB2002B8E467FF7AE
:1092200074AF002A1646B8BFD61DF1104FF0010CDE
:10923000C76A02F0070214FB01E60CFA02F2654568
:10924000D2B207EB060100F01581C0F08380022D39
:109250007FF45BAF9BB24C425D1E04F00304ADB2E1
:10926000E01C85420FFA85FC48D3002C00F0AA814F
:10927000B85DA3F1020C5040012CB8550FFA8CFCDC
:1092800001F1010813D04878A3F1030C5040032CDE
:1092900048700FFA8CFC01F1020808D18878A3F11C
:1092A000040C5040887001F103080FFA8CFC4FF059
:1092B000000E62F3070E181BA11962F30F2E86B27F
:1092C0007B1862F3174E62F31F6EB7081C1F002055
:1092D00054F8041F013085B28EEA0101AF4243F811
:1092E000041BF5D826F003039BB2ACEB030C9E42A3
:1092F0000FFA8CFC08EB03013FF407AF0B781FFA61
:109300008CF05340441E0B70A4B2BCF1000F3FF42C
:10931000FCAE4D78831E55404D709BB2002C3FF43F
:10932000F4AE8D78C41E55408D70A4B2002B3FF46E
:10933000ECAECB785340CB70002C3FF4E6AE0B790B
:10934000042883EA02030B713FF4DFAE4B795A40E5
:109350004A71DAE69BB248425C1E00F00300A4B2F8
:10936000C51CD243AC425FFA82FC22B243D3002830
:1093700000F02C81BC5D9A1E0CEA04040128BC5547
:1093800012B201F1010E11D04C78DA1E0CEA04047D
:1093900003284C7012B201F1020E07D18C781A1F0B
:1093A0000CEA04048C7001F1030E12B24FF00008B5
:1093B0006CF3070881191B1A6CF30F2839449EB20D
:1093C0006CF317486CF31F68B7080C1F002054F8A3
:1093D000043F013085B208EA0303AF4241F8043B81
:1093E000F5D826F003039BB2D21AB34212B20EEBA9
:1093F00003013FF48AAE0B7890B20CEA0303441EDB
:109400000B70A4B2002A3FF480AE4A78831E0CEAA7
:1094100002024A709BB2002C3FF477AE8C78C21ED9
:109420000CEA04048C7092B2002B3FF46EAECB7841
:109430000CEA0303CB70002A3FF467AE0B790428D3
:109440000CEA03030B713FF460AE4B790CEA0303A3
:109450004B715AE6012D00F08D80C0F09180022DF5
:109460003FF490AE1B1BDBB2374497E6AC600300C1
:10947000B46003009BB24C42581E04F0030480B257
:10948000E51C85420FFA80FC48D8002C00F09C8037
:10949000B85DA3F1020C1043012CB8550FFA8CFCF7
:1094A00001F1010E13D04878A3F1030C1043032CF3
:1094B00048700FFA8CFC01F1020E08D18878A3F1F4
:1094C000040C1043887001F1030E0FFA8CFC4FF06E
:1094D000000862F30708A1191B1B62F30F28394427
:1094E0009EB262F3174862F31F68B7080C1F002092
:1094F00054F8043F013085B248EA0303AF4241F813
:10950000043BF5D826F003039BB2ACEB030C9E4260
:109510000FFA8CFC0EEB03013FF4F7AD0B781FFA4A
:109520008CF01343441E0B70A4B2BCF1000F3FF447
:10953000ECAD4D78831E15434D709BB2002C3FF46B
:10954000E4AD8D78C41E15438D70A4B2002B3FF49A
:10955000DCADCB781343CB70002C3FF4D6AD0B7948
:10956000042843EA02030B713FF4CFAD4B791A4351
:109570004A71CAE51CF8026031430CF8021006E695
:109580001CF8026026EA01010CF80210FFE51A46F9
:109590003978C9433970083AB0F90810D2B2072AAD
:1095A0000F44F5D813F007033FF4AFAD084AD35C7E
:1095B00013E63A7822EA03033B70A6E53A781343B0
:1095C0003B70A2E5884672E68E4680E78E46EDE661
:1095D000B460030038B50446806A0D46002800F0E8
:1095E000B580A16DFEF7E8FFA06A002D0CBFA6258F
:1095F000A725002840F08A80226C216D1368606ADC
:1096000023EA01031360002876D1A26BA06C1168D5
:10961000E36B014311601968E06C0143196019683C
:10962000E06C21EA000119601168A06C21EA0001D8
:1096300011601968E06C014319601968E06C21EA57
:10964000000119601168A06C014311601968E06C99
:10965000014319601968E06C21EA00011960116882
:10966000A06C21EA000111601968E06C01431960E7
:109670001968E06C21EA000119601168A06C21EA08
:10968000000111601968E06C014319601968E06C11
:1096900021EA000119601168A06C0143116019688A
:1096A000E06C014319601968E06C21EA000119605F
:1096B0001168A06C014311601968E06C01431960E6
:1096C0001968E06C21EA000119601068A16CA62DF0
:1096D00014BF014320EA010111601A68E06C616C5B
:1096E00002431A601A68E06C22EA00021A60626D96
:1096F0000B6813430B6038BD294607F027FBA06AAF
:10970000C0B1E16DBDE83840FEF756BF94F83010A7
:10971000FEF7D2FFA06A036800211B689847A06A81
:10972000036829461B689847A06AFFF733F8A06AC8
:109730000028E6D1626C616D1368606A0B431360A8
:109740000028D8D0BDE8384007F0FABA626A3AB1CA
:1097500004F16403104693E8060007F0A3FAA06A38
:10976000626C616D136823EA010313603DE700BF7B
:109770002DE9F041857EBDF81860022D00F00B81C7
:10978000032D00F00381012D54D0002950DBB0F9E6
:1097900008708F424CDD002ABEBF9B1800221BB20E
:1097A000B0F90A5014461C44AC42C4BFAB1A1BB2F9
:1097B000002B3DDDD2B2D408D0F82CC017FB041129
:1097C00012F00702DBB20CEB010521D0C2F1080256
:1097D000D4B2C64AA342125D80F07B81A4EB030E93
:1097E000FF2747FA0EF7012E02EA070200F0FF8179
:1097F000C0F00382022E1BD11CF801707A400CF8D5
:109800000120A34214D3B0F908201B1BDBB215447E
:10981000072B00F2CC805BB1B54A012ED35C00F07F
:109820000A82C0F00382022E02D12A7853402B70A4
:10983000BDE8F08104891A44A21A12B20029F7DBAC
:10984000B0F90A408C42F3DD002ABEBF9B181BB260
:109850000022B0F908409F18A7421546C4BFA21ABB
:1098600013B2002BE4DD0029C76A0846B8BFC81D43
:10987000C21001F007000121814014FB0252012EA9
:10988000C9B207EB020000F03581C0F0A380022EC0
:10989000CED11FFA83F8444208F1FF3504F00304E7
:1098A000ADB2E31C9D422EB246D3002C00F0CB811A
:1098B000BB5CA8F102064B40012CBB5436B200F150
:1098C000010E11D04378A8F103064B40032C4370DE
:1098D00036B200F1020E07D18378A8F104064B409E
:1098E000837000F1030E36B24FF0000C61F3070CE9
:1098F000A8EB0408224461F30F2CBB181FFA88F868
:1099000061F3174C61F31F6C4FEA98071C1F00208E
:1099100054F8042F013085B28CEA0202AF4243F8BA
:10992000042BF5D828F003039BB2F61A984536B2FB
:109930000EEB03003FF47CAF0378B4B24B40621EE1
:10994000037092B2002E3FF473AF4578A31E4D40D2
:1099500045709BB2002A3FF46BAF8578E21E4D4004
:10996000857092B2002B3FF463AFC3784B40C37055
:10997000002A3FF45DAF0379042C83EA01030371ED
:109980003FF456AF43795940417151E74489C94387
:10999000214409B252E704894589C94321441A4444
:1099A00009B2AA1A002912B2BFF6F1AE40E7022EA0
:1099B00000F02A81002E14BFFF24002419462C70C9
:1099C0000839B0F90820C9B207291544F7D803F0BF
:1099D000070320E71FFA83F8444208F1FF3504F03B
:1099E0000304ADB2E31CC9439D42C9B22EB246D3B3
:1099F000002C00F02481BB5CA8F102060B40012C76
:109A0000BB5436B200F1010C11D04378A8F1030623
:109A10000B40032C437036B200F1020C07D183785F
:109A2000A8F104060B40837000F1030C36B24FF02E
:109A3000000E61F3070EA8EB0408224461F30F2E19
:109A40003A441FFA88F861F3174E61F31F6E4FEA2C
:109A50009807141F002054F8043F013085B20EEA25
:109A60000303AF4242F8043BF5D828F003039BB24E
:109A7000F61A434536B20CEB03003FF4D9AE037837
:109A8000B4B20B40621E037092B2002E3FF4D0AE0F
:109A90004578A31E0D4045709BB2002A3FF4C8AE26
:109AA0008578E21E0D40857092B2002B3FF4C0AE67
:109AB000C3780B40C370002A3FF4BAAE0379042C7C
:109AC00003EA010303713FF4B3AE437919404171D6
:109AD000AEE6012E00F08B80C0F08F80022E3FF4A6
:109AE0008BAE1B1BDBB23D4492E600BFAC600300B3
:109AF000B46003001FFA83F8454208F1FF3405F013
:109B00000305A4B2EB1C9C4226B246D3002D00F004
:109B10009880BB5CA8F102060B43012DBB5436B202
:109B200000F1010C11D04378A8F103060B43032D7B
:109B3000437036B200F1020C07D18378A8F1040615
:109B40000B43837000F1030C36B24FF0000E61F34B
:109B5000070EA8EB05082A4461F30F2E3A441FFABA
:109B600088F861F3174E61F31F6E4FEA9807141FD0
:109B7000002054F8043F013085B24EEA0303AF429F
:109B800042F8043BF5D828F003039BB2F61A984537
:109B900036B20CEB03003FF44BAE0378B4B20B4388
:109BA000621E037092B2002E3FF442AE4578A31EAF
:109BB0000D4345709BB2002A3FF43AAE8578E21E11
:109BC0000D43857092B2002B3FF432AEC3780B4345
:109BD000C370002A3FF42CAE0379042C43EA01033E
:109BE00003713FF425AE43791943417120E61CF817
:109BF00001703A430CF8012003E61CF8017027EAD3
:109C000002020CF80120FCE51A462978C9432970A4
:109C1000083AB0F90810D2B2072A0D44F5D813F06B
:109C200007033FF405AE094AD35CFEE52A7822EA31
:109C300003032B70FCE52A7813432B70F8E5844668
:109C4000F5E6844681E786464EE600BFB460030031
:109C50002DE9F041079F9DF91880104E04461D46DE
:109C600008F048FA0E4B0F49A7654FF0FF304FF44C
:109C70008072002D08BF1D46089FC4F833000023E2
:109C800084F837806166A4F86820E765A5622660DD
:109C90006362E3622046BDE8F08100BF60600300BC
:109CA000E041002000093D0010B50446C06A034BA6
:109CB000236008B109F01AFC204610BD6060030063
:109CC000836A70B50A46002B40F09B80046C066DD9
:109CD0002368456A23EA06032360002D40F08C8048
:109CE000D0E90E13846C0D68160654BF25EA0404EF
:109CF0002C430C601C68C56C2C431C601C68C56C34
:109D000024EA05041C600D68846C560654BF25EADD
:109D100004042C430C601C68C56C2C431C601C683C
:109D2000C56C24EA05041C600D68846C960654BF5B
:109D300025EA04042C430C601C68C56C2C431C6091
:109D40001C68C56C24EA05041C600D68846CD6068A
:109D500054BF25EA04042C430C601C68C56C2C43DA
:109D60001C601C68C56C24EA05041C600D68846CCA
:109D7000160754BF25EA04042C430C601C68C56C0C
:109D80002C431C601C68C56C24EA05041C600D682B
:109D9000846C560754BF25EA04042C430C601C68ED
:109DA000C56C2C431C601C68C56C24EA05041C604F
:109DB0000D68846C960754BF25EA04042C430C609C
:109DC0001C68C56C2C431C601C68C56C24EA050427
:109DD0001C6012F0010F846C0A6814BF144322EA5D
:109DE00004040C601A68C16C0A431A60C16C1A68DA
:109DF00022EA01021A6070BD2846BDE8704006F0F4
:109E0000A5BF04460D46184694F83010FEF754FCE2
:109E1000A06A036800211B689847A06A0368294666
:109E20001B689847A06ABDE87040FEF7B3BC00BF4E
:109E30002DE9F0430E46B0F90A1004461F46CB1D2B
:109E400085B048BF01F10E03B4F90890C06A9DF8CF
:109E50003080DB10154609FB03F9002800F015825D
:109E60004A46002109F080FBB4F90A20B4F9081031
:109E7000202A00F3D3800120203A73394FF0200CC0
:109E8000029002EBD272732001EBD171CDE9000C8C
:109E90009F4B204642F34F0241F34F0108F046F931
:109EA000A06A84F83160002800F0D380002D40F0D3
:109EB000DF81B4F90A30202B14BF3D253C2584F8FE
:109EC0003050B8F1000F40F0DA81002F00F0F88038
:109ED00094F93700002817DB012106F01DFC012151
:109EE00094F9370006F05AFC012003F0C7FC00216A
:109EF00094F9370006F052FC0A2003F0BFFC012160
:109F000094F9370006F04AFCA06A002840F0D88097
:109F1000606A28B104F1640393E8060006F0C2FE0B
:109F2000626C616D136823EA01031360794920466E
:109F3000FEF7FEFFA17A0139C9B22046FFF7C0FE45
:109F400075492046FEF7F4FF94F93130012B14BF18
:109F5000142110212046FFF7B3FE70492046FEF77A
:109F6000E7FFA3686E4A8F21934284F8601008D0FF
:109F700002F50012934200F090816A4A934200F089
:109F80009A810225DA212046FFF79AFE29462046CB
:109F9000FFF796FE81212046FFF792FE94F86010AD
:109FA0002046FFF78DFED9212046FFF789FE94F960
:109FB0003130012B204614BFF1212221FFF780FE12
:109FC000A06A002800F09B8094F83010564FFEF7EE
:109FD00073FBA06A036800211B689847A36ABE1D33
:109FE00001251A6817F8011B1268184690470135B9
:109FF000B742ADB268D0A36A3F2D1846F1D1FEF743
:10A00000C9FB94F83010A06AFEF756FBA06A0368FB
:10A0100000211B6898470125A36AE2E70120403A26
:10A0200052394FF0400C029002EBD272522001EBF9
:10A03000D171CDE9000C3D4B204642F34F0241F374
:10A040004F0108F073F8A06A84F8316000287FF4AB
:10A050002DAF012194F93500354D364E06F05CFBED
:10A0600094F93600012106F057FB94F93530314A56
:10A0700055F8233022641F2B88BF203B012202FAAF
:10A0800003F394F93620236555F82220294B6364A5
:10A090001F2A88BF203A0123934063653268606AB3
:10A0A00013433360002800F01681B8F1000F40F030
:10A0B0000C81002F7FF40CAFA06A00283FF428AF7A
:10A0C000A16DFEF779FA31E7A06AFEF763FBA06A9B
:10A0D00030B1E16DFEF770FA012005B0BDE8F08304
:10A0E000626C616D1368606A0B431360002800F0B6
:10A0F000DE8006F025FE012005B0BDE8F083226C6D
:10A10000216D1368084D23EA01031360AE1D17E0AB
:10A11000785E0300BC600300C0600300C4600300FD
:10A120008000200060001000C8600300B85B0300DE
:10A13000846103000405005006F008FEB542C6D055
:10A14000606A15F8011B0028F6D1D4E90E23A06C33
:10A15000176811F0800F0CBF27EA00003843106029
:10A160001868E76C384318601868E76C20EA070045
:10A1700018601768A06C11F0400F0CBF27EA0000B0
:10A18000384310601868E76C384318601868E76C4B
:10A1900020EA070018601768A06C11F0200F0CBFB0
:10A1A00027EA0000384310601868E76C38431860ED
:10A1B0001868E76C20EA070018601768A06C11F0B7
:10A1C000100F0CBF27EA0000384310601868E76CD6
:10A1D000384318601868E76C20EA070018601768B1
:10A1E000A06C11F0080F0CBF27EA00003843106084
:10A1F0001868E76C384318601868E76C20EA0700B5
:10A2000018601768A06C11F0040F0CBF27EA00005B
:10A21000384310601868E76C384318601868E76CBA
:10A2200020EA070018601768A06C11F0020F0CBF3D
:10A2300027EA0000384310601868E76C384318605C
:10A240001868E76C20EA0700186011F0010FA06C95
:10A25000116814BF084321EA000010601A68E16C1D
:10A260000A431A601A68E16C22EA01021A6065E783
:10A270006DB284F83050B8F1000F3FF426AEFEF70F
:10A280004BF9002F3FF418AF22E6484609F026F9B3
:10A29000E06200287FF4E4AD1FE794F93130012B30
:10A2A00014BFCF239F2384F8603012256AE6012073
:10A2B00005B0BDE8F08394F93130012B14BFAF2312
:10A2C000102384F8603002255CE606F093FC002F32
:10A2D0003FF4F2AEFCE5012194F9330006F01CFADC
:10A2E000012194F9340006F017FA94F933300F493C
:10A2F00055F82320A6631F2A88BF203A01239340E4
:10A3000094F93420A36455F82220084BE3631F2AF4
:10A3100088BF203A01239340E3640A6822EA0303DA
:10A320000B60002F3FF4C8AED2E500BF040500501B
:10A33000B0F90A20D31D48BF02F10E03B0F908207E
:10A34000C06ADB1002FB03F2002109F00DB900BF67
:10A35000F8B50446806A002800F08A80A16DFEF7F7
:10A360002BF9A06A002800F0978094F830109F4FD6
:10A37000FEF7A2F9A06A036800211B689847A36A48
:10A380007E1D01251A6817F8011B126818469047B0
:10A390000135B742ADB212D0A36A3F2D1846F1D1B4
:10A3A000FEF7F8F994F83010A06AFEF785F9A06A74
:10A3B000036800211B6898470125A36AE2E7A06AA9
:10A3C000FEF7E8F9217A01392046C9B2FFF778FC97
:10A3D000B4F90A202689D31D48BF02F10E03D4E93F
:10A3E0000A05DB1016FB03F6B6B2002856D094F827
:10A3F0003010FEF761F9A06A036840211B68771EE0
:10A400009847BFB2F6B10137A06A2F44012603680E
:10A4100015F8011B1B6898470136BD42B6B211D032
:10A420003F2EA06AF3D1FEF7B5F994F83010A06A78
:10A43000FEF742F9A06A036840211B68984701268D
:10A44000A06AE4E7A06AFEF7A5F9A06A58B9626CB1
:10A45000616D1368606A0B43136018B1BDE8F84082
:10A4600006F06EBCF8BDE16DBDE8F840FEF7A4B89B
:10A47000606A002800F0BC8004F1640393E80600E1
:10A4800006F010FC626C616D1368A06A23EA010398
:10A49000136000287FF469AF606AAFE0226C216D21
:10A4A00013680B432E441360B542CED0606A15F892
:10A4B000011B40B106F04AFCB542C6D0606A15F8EF
:10A4C000011B0028F6D1D4E90E23A06C176811F007
:10A4D000800F0CBF27EA0000384310601868E76C53
:10A4E000384318601868E76C20EA0700186017689E
:10A4F000A06C11F0400F0CBF27EA00003843106039
:10A500001868E76C384318601868E76C20EA0700A1
:10A5100018601768A06C11F0200F0CBF27EA00002C
:10A52000384310601868E76C384318601868E76CA7
:10A5300020EA070018601768A06C11F0100F0CBF1C
:10A5400027EA0000384310601868E76C3843186049
:10A550001868E76C20EA070018601768A06C11F013
:10A56000080F0CBF27EA0000384310601868E76C3A
:10A57000384318601868E76C20EA0700186017680D
:10A58000A06C11F0040F0CBF27EA000038431060E4
:10A590001868E76C384318601868E76C20EA070011
:10A5A00018601768A06C11F0020F0CBF27EA0000BA
:10A5B000384310601868E76C384318601868E76C17
:10A5C00020EA0700186011F0010FA06C116814BF99
:10A5D000084321EA000010601A68E16C0A431A601F
:10A5E0001A68E16C22EA01021A605DE7D06003009C
:10A5F000626C616D136823EA01031360226C216DA4
:10A600001368514D23EA010313606E1D05E006F047
:10A610009DFBB5423FF4D6AE606A15F8011B0028D9
:10A62000F5D1D4E90E23A06C176811F0800F0CBF90
:10A6300027EA0000384310601868E76C3843186058
:10A640001868E76C20EA070018601768A06C11F022
:10A65000400F0CBF27EA0000384310601868E76C11
:10A66000384318601868E76C20EA0700186017681C
:10A67000A06C11F0200F0CBF27EA000038431060D7
:10A680001868E76C384318601868E76C20EA070020
:10A6900018601768A06C11F0100F0CBF27EA0000BB
:10A6A000384310601868E76C384318601868E76C26
:10A6B00020EA070018601768A06C11F0080F0CBFA3
:10A6C00027EA0000384310601868E76C38431860C8
:10A6D0001868E76C20EA070018601768A06C11F092
:10A6E000040F0CBF27EA0000384310601868E76CBD
:10A6F000384318601868E76C20EA0700186017688C
:10A70000A06C11F0020F0CBF27EA00003843106064
:10A710001868E76C384318601868E76C20EA07008F
:10A72000186011F0010FA06C116814BF084321EAF2
:10A73000000010601A68E16C0A431A601A68E16C44
:10A7400022EA01021A6064E7D0600300407A704791
:10A7500010B4446824680346084611461A46234646
:10A760005DF8044B184700BF84B0084611460192BB
:10A7700004B001F02FBF00BF70B513680446006835
:10A780001B69C66982B010460D469847C1B228467B
:10A7900001F00CFC294602463346204602B0BDE8D3
:10A7A0007040184730B5D3B285B0013B04460D4622
:10A7B0000192062B0AD8DFE803F0271D420409099D
:10A7C000270003684FF0FF319B6A9847637A7BB19B
:10A7D000AB68B5F9002093F82230002B0CBF0221A2
:10A7E0004FF48071284605B0BDE8304001F044BC0C
:10A7F00005B030BD827A03683AB98A6892F82020A1
:10A800001AB91B6A984710BB23685B6A00210122B2
:10A81000A172627220469847AB68B5F9002093F8A0
:10A820002230002B0CBF02214FF48071284601F02A
:10A8300023FCA86805B0BDE8304001F0D5BC036832
:10A8400001219B6A9847637A002BC1D1D0E701238D
:10A85000A3726372BCE700BF2DE9F0411D46436857
:10A86000BDF91C20BDF9208004460E462846996893
:10A8700000F02CFC63681B7903F01503152B0746C9
:10A8800002D03846BDE8F081B6F90E10B36801EB8E
:10A89000410103EB81014B689C4208D028464346A6
:10A8A0002246314600F0A6FD3846BDE8F08142461A
:10A8B000284600F00FFF3846BDE8F0812DE9F0474B
:10A8C00082B00446BDF92C704068BDF930A08846BE
:10A8D000914681683A4618461E4600F0F7FB6368C9
:10A8E0001B7903F01503152B05462FD0AF4229DD48
:10A8F000D8F81CA054453BD0202101351FFA85F81B
:10A9000030460FFA88F502F0CBFAAF421ADDA4EB1D
:10A910000A0ABAFA8AFA3268237A4FEA5A1ACDF842
:10A9200000A0556A02214A463046A84723683146AE
:10A93000DB6A2046984780441FFA88F80FFA88F5AA
:10A94000AF421EDC284602B0BDE8F087B8F90E1011
:10A95000D8F8083001EB410103EB81014B689C42C0
:10A9600024D0534622464146304600F043FDBDE721
:10A97000B9F1000FC0D0A37A002B14BF3E213A21B9
:10A98000BBE73168237ACDF800A04A464D6A3046CD
:10A990000321A84763683A461969304600F096FBE0
:10A9A000404405B2284602B0BDE8F0875246304622
:10A9B00000F090FE9AE700BF2DE9F04F85B0684D9A
:10A9C0009DF838A0044688469146667A002E40D10C
:10A9D00061680A7912F0140F40D0DFF88CB102964A
:10A9E0003546574617E06368B3F91000A8424FF0A8
:10A9F00000034A4641461ADD2068066A59488642E5
:10AA00001AD16068406950F8250006680097F6681A
:10AA1000B047F0B9013523681B685B45E3D0204699
:10AA20009847A8424FF000034A464146E4DC029EA4
:10AA3000304605B0BDE8F08F29B22046B047036824
:10AA40000097D3F80CA04A4600234146D04700287F
:10AA5000E0D00126304605B0BDE8F08FD8F80400FC
:10AA6000A042F7D1002BF5D0D8F808C0BCF90E00F1
:10AA7000DCF808E000EB400752074FEA87074DD4A7
:10AA8000D9F80C308A7B1B68B3F806B093075AD507
:10AA90000BF1FF3B1FFA8BFB7744D9F808307A683B
:10AAA0005268127902F01402002A18BF01380FFA16
:10AAB0008BF2002A029233F91070CBDDDFF8A8B0D8
:10AAC000039600251BE06368B3F91000B04223DD54
:10AAD0002368244A1B6A93421AD163685B6953F85E
:10AAE00026000268CDF800A0D66800234A464146F9
:10AAF000B04701350028ACD1029B9D420CD02368A1
:10AB00001B687E195B4536B2DDD020469847DDE7ED
:10AB1000314620469847E4E7039E9BE70C3F0EEB47
:10AB20000708D8F804402268D668AE423FF44DAF1B
:10AB30004A46414620460123B446CDF838A005B028
:10AB4000BDE8F04F60479CF81030002BA4D082F095
:10AB50000403C3F38003ABEB030B1FFA8BFB9BE7F0
:10AB60006DAB0200D9620200E56202002DE9F04FF0
:10AB700090F8098085B09DF838A0B8F1000F3CD15D
:10AB800045680E46297911F0140F174604463AD04D
:10AB9000DFF88CB145461BE06368B3F91000A842AA
:10ABA0004FF000033A46314629DD2068D0F8209066
:10ABB0005948814513D16068406950F82500D0F8A4
:10ABC00000C0CDF800A0DCF80C90C847A8B901354A
:10ABD00023681B685B45DFD020469847DFE729B232
:10ABE0002046C8470368CDF800A0D3F80C903A4639
:10ABF00000233146C8470028E9D04FF001084046FD
:10AC000005B0BDE8F08F70688442F8D1002BF6D013
:10AC1000D6F808C0BCF90E00DCF808E000EB4003F1
:10AC200049074FEA830352D4D268A97B1268B2F86D
:10AC300006B08A075BD50BF1FF3B1FFA8BFB734411
:10AC4000BA685B685B681B7903F01403002B18BFBC
:10AC500001380FFA8BF3002B029332F91020CEDD6E
:10AC60003B46CDF80C805746DFF8B4B0002590463F
:10AC7000B1469A461AE06368B3F91000B04223DD8A
:10AC80002368254A1B6A93421AD163685B6953F8AB
:10AC9000260002680097D668002352464946B0470E
:10ACA00001350028A9D1029B9D420DD023681B6865
:10ACB00008EB05065B4536B2DDD020469847DDE758
:10ACC000314620469847E4E7DDF80C8097E70C3BD7
:10ACD0000EEB0301114B48680468E4689C4213D1F1
:10ACE000CDF800A00123FFF767FE804687E79CF8B8
:10ACF0001020002AA3D081F00402C2F38002ABEB43
:10AD0000020B1FFA8BFB9AE70123A446CDF838A06B
:10AD100005B0BDE8F04F6047D96202006DAB02009C
:10AD2000E56202002DE9F04FD0F804E0002587B07D
:10AD3000044645729EF804009DF84060039610F0AA
:10AD4000140C0F46164629D0DFF89491DFF8948151
:10AD500014E06368B3F91000A84217DD23681B6A8A
:10AD6000434517D163685B6953F8250002680023E7
:10AD7000D2F804A0394632460135D04723681B6813
:10AD80004B45E6D020469847A842E7DC002007B0B4
:10AD9000BDE8F08F29B220469847E7E7D1F808A030
:10ADA000BAF90E50DAF8081005EB45084007994645
:10ADB0004FEA880869D4F3689EF80E201B68900754
:10ADC000DB8851D5013B9BB2B9F1000F59D01BB2C2
:10ADD000002B059355DD4144B2684B68DFF80091C4
:10ADE0005B68DFF800A11B7903F01403002B18BF88
:10ADF000013D4FF0000832F91530049329E06368F3
:10AE0000B3F91000A8423CDD23681B6A534559D1B1
:10AE100063685B6953F8250003683246D3F804B0D1
:10AE200039460023D84723681B6A534546D16368D7
:10AE30005B6953F825000368039A0092DD68324687
:10AE400000233946A847E0B9059B08F101084345AE
:10AE500017D02368049A1B6802EB08054B452DB2F6
:10AE6000CDD020469847CDE79AF810000028ABD007
:10AE700082F00402C2F380029B1A9BB2B9F1000F68
:10AE8000A5D1012007B0BDE8F08FA8F10C0001EBBF
:10AE9000000BDFF854E0DBF804000168D1F804A0EF
:10AEA000F24513D15946CDF800C0FFF73BFFD7F864
:10AEB00008A0D4F804E0DAF808107CE72946204618
:10AEC0009847B8E7294620469847A5E75946D0470E
:10AED000D7F808A0D4F804E0DAF808106BE700BF50
:10AEE000E5620200D9620200EDAE02002DE9F04FEA
:10AEF000D0F804C00025044645729CF8040010F008
:10AF0000140A85B00F46164628D0DFF88891DFF87E
:10AF1000888114E06368B3F91000A84217DD236844
:10AF20001B6A434516D163685B6953F825000268C4
:10AF30000023D2F804A0394632460135D0472368B1
:10AF40001B684B45E6D020469847A842E7DC05B091
:10AF5000BDE8F08F29B220469847E8E7D1F808E02D
:10AF6000BEF90E50DEF8081005EB4508400799467B
:10AF70004FEA880864D4F3689CF80E201B68900799
:10AF8000DB8852D5013B9BB2B9F1000FDFD01BB279
:10AF9000002B0393DBDD4144B2684B68DFF8F4908B
:10AFA0005B68DFF8F4A01B7903F01403002B18BFD3
:10AFB000013D4FF0000832F9153002932AE0636832
:10AFC000B3F91000A842C2DD23681B6A534554D16F
:10AFD00063685B6953F8250003683246D3F804B010
:10AFE00039460023D84723681B6A534541D163681B
:10AFF0005B6953F82500036800220092DD6839463A
:10B0000013463246A8470028A1D1039B08F1010846
:10B0100098459CD02368029A1B6802EB08054B45B3
:10B020002DB2CCD020469847CCE79EF810000028DF
:10B03000AAD082F00402C2F380029B1A9BB2A3E75B
:10B04000A8F10C0001EB000EDFF850C0DEF80400A0
:10B050000168D1F804B0E34513D17146CDF800A0E2
:10B06000FFF760FED7F808E0D4F804C0DEF8081057
:10B0700081E7294620469847BDE72946204698475C
:10B08000AAE77146D847D7F808E0D4F804C0DEF83C
:10B09000081070E7E5620200D9620200EDAE02001E
:10B0A00000207047012070470020704708B5024912
:10B0B00001F0E4FE002008BDF8600300014B024AE5
:10B0C0001A6070479C420020A1B002000368DB6850
:10B0D000184700BF054B064A5A6042F63E50002111
:10B0E0000122188019725A72704700BFA0420020D6
:10B0F00044610300064B074A10B4074C1A60012252
:10B10000C3E90142184600215DF8044B00F040BF3E
:10B11000B042002068390020AC420020704700BFD8
:10B1200000207047704700BF2DE9F041884609783C
:10B1300008F1010479B10546164692B16FEA080795
:10B1400005E02B681B68984714F8011B19B1E31937
:10B15000B3422846F5DBA4EB0800013800B2BDE895
:10B16000F0812B6828461B68984714F8011B0029BA
:10B17000F7D1F0E7704700BF00207047704700BF6D
:10B1800003682DE9F04105461C6A0E461346174632
:10B190000A460021A047EB681B68B3F90430002B76
:10B1A0000BDD00242021284601F07AFEEB681B68A5
:10B1B000B3F904300134A342F4DC29680C6A3B463D
:10B1C00032462846A4460021BDE8F041604700BF52
:10B1D00010B5064A9DF80840036805495B68002CD5
:10B1E00008BF114601229847012010BD6461030089
:10B1F0006061030070B586B09DF82840BDF930103D
:10B2000014B9002006B070BD0468084DE46BAC4270
:10B21000F7D000260125013A12B20596CDE9026663
:10B220000495CDE90055A047EBE700BF7DB10200D2
:10B230002DE9F0410168144F4D6A82B0BD420446C9
:10B240009DF820C01646984618D10B6886B10F4A63
:10B250001268B8F1000F05D01178204602B0BDE8A1
:10B26000F04118475178204602B0BDE8F041184738
:10B270002021204602B0BDE8F04118470421CDF856
:10B2800000C0A8472168E0E775B1020064390020DA
:10B2900010B50268074B546A9C4282B002D100206C
:10B2A00002B010BD012300931A461946A0470020A2
:10B2B00002B010BD75B10200F0B587B09DF8304006
:10B2C000BDF9341014B9002007B0F0BD04680E4F6A
:10B2D000A66BBE4205460AD1646A0C4B9C42F2D072
:10B2E00000220123284600921946A047EBE70124DB
:10B2F0000027013A0494CDE9004412B20597CDE944
:10B300000277B0472C68E7E77DB1020075B1020013
:10B3100010B5064A9DF80840036805495B68002C93
:10B3200008BF114601229847012010BD5C6103004F
:10B330005861030000293BD02DE9F0479946036886
:10B34000002B32DD88461646074600240BE01DD34D
:10B35000022E05D128463146C047012822D03B683D
:10B3600001349C4221DA7D68012E55F82450EED13B
:10B370002A7CD10704D4B9F1000FF1D09207EFD5A0
:10B38000284643460121BDE8F047184700212846DA
:10B39000C04738B92B7CD807E1D428460121C047E3
:10B3A0000128DCD10120BDE8F0870020BDE8F0874E
:10B3B000002070470168002909DD4368043B03EB66
:10B3C0008101002053F8042F99425061FAD170474F
:10B3D00038B50368002B0BDD054600246B6853F875
:10B3E000240003689B6998472B680134A342F5DC6D
:10B3F00038BD00BF2DE9F04F0568B14E6F6A89B0C6
:10B40000B742044607911546984640F052816B6852
:10B410001F794FEAC80317F0100705937FD0A94B97
:10B4200006930027A9461A463DE0D9F80430B3F93F
:10B430001000B84240DDD9F80030A34A1B6A93429D
:10B440000FFA87FA3BD1D9F8043022685B69D2F849
:10B4500024B053F82750B3452B7A3AD1D2F828B00C
:10B460009A498B4541D1D2F824B0B34550D11368E5
:10B470002021204698472368D3F824B0B34540D113
:10B48000E3682A68CDF808801B6805990B442846B4
:10B49000B3F904300799CDE900A32346956800224B
:10B4A000A847069A0137D9F800301B689342BCD0F0
:10B4B00048469847B842BEDC09B0BDE8F08F514617
:10B4C000484698472268D2F824B00546B3452B7AFF
:10B4D000C4D00022009201212046D84722687B492F
:10B4E000D2F828B02B7A8B45BDD00022CDF804804D
:10B4F000009251462046D8472368D3F824B0B3457C
:10B50000BED000222B7A009201212046D847B7E70F
:10B510000022009204212046D8472268A7E723682A
:10B520004146DB692046984722684346D2F820907E
:10B5300039463A462046C847E368059A1B681344D3
:10B54000B3F90630002BB7DDA9465E4B0693D9F858
:10B550000030069A1B68DFF870B193427AD1D9F8AF
:10B560000430B3F91000B842A6DDD9F800301B6AE8
:10B570005B457CD1D9F804305B6953F827502368C8
:10B58000534AD3F814A0924567D1D3F820A03A4685
:10B59000434600212046D047E3681B68B3F90430D6
:10B5A000002B0DDD4FF0000A2021204601F078FC31
:10B5B000E3681B68B3F904300AF1010A5345F3DC70
:10B5C00022684346D2F820A000213A462046D047C0
:10B5D00022684346D2F820A000213A462046D047B0
:10B5E00022682B7AD2F824A0B24553D1D2F828A0F1
:10B5F00036498A4547D1D2F824A0B24552D11368C2
:10B600002021204698472368D3F824A0B24533D19F
:10B61000E3682A68CDF808801B6805990B44284622
:10B62000B3F904300799CDE90073234695680022E9
:10B63000A847E36805991B680B440137B3F9063046
:10B640003FB2BB427FF738AFD9F80030069A1B688B
:10B65000934284D04846984785E7002302932A7A8C
:10B660003946CDE9003220464246D047B0E7394658
:10B6700048469847054682E700222B7A009201212E
:10B680002046D047C4E70022CDE9002839462046AD
:10B69000D047B8E70022009201212046D047226817
:10B6A0002B7AA3E70022009204212046D04722688B
:10B6B000A5E70022012300921946B847A7E600BF7C
:10B6C00075B10200E5620200D962020031B20200E7
:10B6D00081B102002DE9F04F8C688146E069436832
:10B6E0001B7993B013F005038A46079200F085801A
:10B6F000B4F90E30002B6DD19846DAF80400D9F871
:10B700000C7043681A799B7B02F0100113F002055C
:10B710000491394640F08480247C002C7ED153076C
:10B7200000F18D80079D3B68D9F8086099F818E012
:10B7300036F908B0BAF900200994ED0003EB050CC6
:10B740000E95BCF9063006EB0805BEF1000F00F0BF
:10B750008180BCF802502B441BB21B1B92FBF3F5FB
:10B7600003FB1523D31A1BB226F8083099F81020D2
:10B77000D6070AD49B4508D1D9F81430834200F08B
:10B78000CD82079B0994DB000E930B680E9A13443D
:10B79000B3F904300F93002C40F0558203680094F5
:10B7A000DD684A4623465146A8470446002800F073
:10B7B0009480049B002B40F09680D9F800300799C4
:10B7C000DB69484698470A94D9F8083033F90830BD
:10B7D000069390E04FEA4308A26808EB030102EBEE
:10B7E0008102526852681279550786D503F1FF38F5
:10B7F0000FFA88F84FEA48087FE715460268009379
:10B80000D4684A46A047002840F00682DAF80400CF
:10B81000C9F81400002013B0BDE8F08F5C0717D4FE
:10B82000049BABB9079C3B6803EBC403B3F9064028
:10B83000012CD4BF0024012453077FF573AF99F87E
:10B840001020D3079DD4D9F81430834299D165E2F2
:10B85000002464E75B44A1188B4200F370820BF173
:10B86000010189B20BB22B80BAF90020BCF9066045
:10B8700002EB040E1E440131B64589B2F2DACDF86E
:10B8800014B0B64EDDF838B012E04268B2F910C01C
:10B890003A685A44ACEB030CB2F90620121B9445EB
:10B8A000BE4680F23782013B1BB22B80BAF90020E2
:10B8B0009A42F8DB002B00F0288202681268B2423C
:10B8C000E3D09047D9F80850D9F80C7035F9083012
:10B8D00084464544DAF80400DAE701230A93049B1E
:10B8E000002B00F0258201230A939D49484601F070
:10B8F000C5FA00230693079B013310934FF000080D
:10B900009B001193C34678E0DAF80410BAF90030CE
:10B910000593091BB1FA81F149090B910999D9F8ED
:10B92000002018463944301AB0FA80F00C9104997E
:10B93000237A40090890002900F0AC80556A894AB2
:10B94000954240F0E580DAF8083093F83030002B6B
:10B9500000F09280049B002B40F0928099F8103008
:10B96000580700F136810F9DD9F800307E4AD3F890
:10B970002880217A0D91904540F01481D3F82480DD
:10B98000784A904540F01B81059A1B68964240F02A
:10B99000E380764A0D991268002900F00E81117833
:10B9A00048469847D9F80030D3F824806D4B013DC4
:10B9B00098452DB240F0EE80002D18DD079A2368DF
:10B9C000DAF808100097CDE9015220469D68089AE0
:10B9D0004B46A84700280ADD049B43B16449654BE8
:10B9E000059A4846964208BF194601F047FA059B5A
:10B9F0009E4200F094800BF1010B049B0FFA8BF731
:10BA00005BB9D9F80C300E9A1B681344099AB3F944
:10BA100006309B1ABB427FF7F9AEDAF80400069AAB
:10BA20000368D6191B684D4A934240F0AB804368C7
:10BA3000B3F910309E42BFF6EBAE069A036802EBF4
:10BA40000B011B6A4C4A934209B240F0A080436844
:10BA50005B6953F821400A9B002B7FF455AF1A46CF
:10BA600023680092DD685146134620464A46A8479F
:10BA700000287FF449AFBEE7049B002B3FF473AF6F
:10BA8000059B9E427FF46FAF3C49484601F0F6F9B2
:10BA90000F9D87E7D2F814803949BDF930508845A9
:10BAA00040F0AF80D2F82080079B04992A46484690
:10BAB000C047D9F80C301B68B3F90430002B0EDDF9
:10BAC000DDF810802021484601F0EAF9D9F80C3061
:10BAD0001B68B3F9043008F101084345F2DCD9F8DA
