:020000022000DC
:10600000000001200DFD02004DFD02004FFD0200C9
:1060100051FD020053FD020055FD0200000000008A
:1060200000000000000000000000000089FC0200E9
:1060300059FD020000000000A9FC02005DFD020005
:106040005FFD02005FFD020001D80200258502000D
:106050005FFD02005FFD02005FFD02005FFD0200C8
:106060005FFD02005FFD02005FFD02005FFD0200B8
:106070005FFD02005FFD02005FFD02005FFD0200A8
:106080005FFD020015FA020015CE02005FFD02005E
:106090005FFD02005FFD02005FFD02005FFD020088
:1060A0005FFD02005FFD02005FFD02005FFD020078
:1060B0005FFD02005FFD0200000000000000000024
:1060C0005FFD02005FFD02005FFD02005FFD020058
:1060D0005FFD02005FFD02005FFD020000000000A6
:1060E00000000000000000000000000000000000B0
:1060F00000000000000000000000000000000000A0
:10610000000000000000000000000000000000008F
:10611000000000000000000000000000000000007F
:10612000000000000000000000000000000000006F
:10613000000000000000000000000000000000005F
:10614000000000000000000000000000000000004F
:10615000000000000000000000000000000000003F
:10616000000000000000000000000000000000002F
:10617000000000000000000000000000000000001F
:10618000000000000000000000000000000000000F
:1061900000000000000000000000000000000000FF
:1061A00000000000000000000000000000000000EF
:1061B00000000000000000000000000000000000DF
:1061C00000000000000000000000000000000000CF
:1061D00000000000000000000000000000000000BF
:1061E00000000000000000000000000000000000AF
:1061F000000000000000000000000000000000009F
:10620000F1EE103A43F08073E1EE103A704700BFB0
:1062100010B5054C237833B9044B13B10448AFF3E0
:1062200000800123237010BD203C002000000000EE
:10623000806D030008B5034B1BB103490348AFF35E
:10624000008008BD00000000243C0020806D030099
:10625000154B002B08BF134B9D46A3F5803A002138
:106260008B460F461348144A121A0DF0FFF90F4BD4
:10627000002B00D098470E4B002B00D098470020F1
:10628000002104000D000D48002802D00C48AFF397
:1062900000800DF081F92000290009F085FD0DF046
:1062A00067F900BF000008000000012000000000A6
:1062B00000000000203C0020344D002000000000C1
:1062C0000000000000207047002070470023437248
:1062D000704700BF0020704743685B6953F8210096
:1062E000704700BF4368B3F910007047C069036886
:1062F0001B681847406903681B68184740690368B2
:10630000DB681847406903685B69184740690368A0
:106310001B691847406903689B691847807C704770
:10632000837CD9071CD413F0060F0ED11A0722D490
:10633000DB062BD5174AD0F81230126803F0EF03B2
:106340005268C0F81230507A7047124AD0F81230B2
:10635000126803F0F9035268C0F81230D078704721
:106360000C4AD0F81230126803F0FE035268C0F8ED
:10637000123050797047074AD0F81230126803F093
:10638000F7035268C0F81230D07970474FF0FF30F1
:10639000704700BFDC390020704700BF0020704705
:1063A000406A03681B68184730B4012BD0E90940E4
:1063B0009DF8085001EB810106D00A4430F81230F4
:1063C000E382A38230BC70472A44114400EB4101B0
:1063D0008B88E382A38230BC704700BF2DE9F04771
:1063E000C4689DF8248024689DF820E034F8325079
:1063F00004EBC20207469488406AB2F902A0B7F8DB
:106400001A90B7F91C60D7F828C007680AEB010298
:106410002C4412FB06F215FB09F514FB09F4B8F144
:10642000010F29B2FF6B9DF8285012B224B203EB82
:10643000830309D09E443CF81E30BC46CDE9086376
:106440002346BDE8F0476047AE449E440CEB4E0C3B
:10645000BCF80430BC46CDE908632346BDE8F047EC
:10646000604700BF2DE9F043C568BDF920602F6883
:10647000BDF91C5037F931E0044607EBC107406A0B
:10648000B4F81A80B4F81C90D4F828C004680EEB55
:106490000201B7F902209DF82CE0A76C9DF824407A
:1064A0001A4411FB08F115FB08F312FB09F216FB65
:1064B00009F6BEF1010F12B236B209B21BB29DF855
:1064C00028509DF8308004EB840408D02C443CF81C
:1064D0001440BC46CDE90764BDE8F043604745443D
:1064E00025440CEB450CBCF80440BC46CDE90764E0
:1064F000BDE8F043604700BF2DE9F043C568BDF932
:1065000020602F68BDF91C5037F931E0044607EBD5
:10651000C107406AB4F81A80B4F81C90D4F828C0B7
:1065200004680EEB0201B7F902209DF82CE0E76B3E
:106530009DF824401A4411FB08F115FB08F312FBE7
:1065400009F216FB09F6BEF1010F12B236B209B21A
:106550001BB29DF828509DF8308004EB840408D0CD
:106560002C443CF81440BC46CDE90764BDE8F04338
:106570006047454425440CEB450CBCF80440BC4640
:10658000CDE90764BDE8F043604700BFF0B5C268DD
:10659000836A1568B3F804C00E4683B0044635F824
:1065A0003110406AB4F81CE0076805EBC605AB88FB
:1065B0006A88CDF804C0ED88B4F81AC015FB0EF552
:1065C0002DB2009512FB0EF213FB0CF311FB0CF134
:1065D000FD6B12B21BB209B2A847E3685B680022E8
:1065E00043F8262003B0F0BDF0B4C568078C2D68D1
:1065F000848B05EBC30635F93350B6F90260438B43
:10660000406A3244294414FB027413FB01F34482B0
:106610000382F0BC704700BFF0B4C468BDF91450E9
:106620002768836A466A07EBC50403EB4202B4F9A4
:10663000024037F83550BB88B2F82CC0B0F91C7056
:10664000408B21443468CDF814C00497A46C11FB2E
:1066500007F213FB00F315FB00F1A446304612B21B
:106660001BB209B2F0BC604790ED000B704700BF51
:1066700008B500680CF0CCFB41EC100B08BD00BF66
:1066800000207047436918680368DB68184700BF3B
:10669000436910B5044618680368DB68984758B921
:1066A0004FF0FF30074B1A6882421ABF4FF0FF329B
:1066B0001A604FF0FF3010BD6369186803681B69EA
:1066C0009847EFE7043600204369186803689B6920
:1066D000184700BF43685B6900224272D3E9002378
:1066E000C0E90423704700BF416810B500220023B1
:1066F000D1E90C010CF05EFE20B14FF0000404F073
:10670000010010BD4FF0010404F0010010BD00BFF6
:106710002DE9F84346687769D6E90645D7E9008947
:1067200022462B46404649460CF04EFE40B9D6E97B
:10673000084542464B46204629460CF04FFE18B10C
:10674000C7E90045BDE8F88344464D46C7E9004522
:10675000BDE8F8832DE9F84F2A4B1B681B7A03B17B
:106760004942837AD0F804A003B3DAE90C67DAF877
:1067700014B001230029DBE90045437223DDDAE987
:10678000088922462B46404649460CF0F3F932462A
:106790003B460CF019FE60B19AF80E30DA0701D5CD
:1067A000DAE90689CBE90089BDE8F88FDAE90A67FA
:1067B000DDE722462B46304639460CF0DDF9CBE9C1
:1067C0000001BDE8F88FDAE90689204642464B46CB
:1067D00029460CF0CFF932463B460CF0F5FD30B1BE
:1067E0009AF80E30DB07DDD5DAE90889DAE73246B8
:1067F0003B46204629460CF0BDF9CBE90001BDE837
:10680000F88F00BFDC39002043685B6900221B68F9
:106810004272C360704700BF437A63B94368D0EDEA
:10682000037A5B6993ED007AB4EE677AF1EE10FAC1
:1068300014BF012300231846704700BF4368D3EDFF
:10684000097AF5EE407AF1EE10FA14BF012000202B
:10685000704700BF43685A69D3ED067A92ED007A1B
:10686000B4EEE77AF1EE10FA08D4D3ED077AF4EE3D
:10687000C77AF1EE10FA88BFF0EE477AC2ED007ADF
:10688000704700BF234B1B681B7A10B403B1494209
:10689000827A4368DAB1D3ED097A5A690124002972
:1068A00092ED007A44721CDDD3ED076A36EEC76ABA
:1068B000B4EEE76AF1EE10FA0CD5997BC80701D562
:1068C000D3ED066AC2ED006A5DF8044B7047D3ED64
:1068D000087AE2E777EE877A5DF8044BC2ED007A3A
:1068E0007047D3ED066A37EE666AB4EEE76AF1EEFA
:1068F00010FA07D5997BC90748BFD3ED076AC2EDE7
:10690000006AE1E777EE677A5DF8044BC2ED007A42
:10691000704700BFDC39002043685B6900221B8898
:1069200042728381704700BF437A33B943688089DC
:106930005B691B881B1A18BF01231846704700BFEC
:106940004368D88B003018BF0120704742685169F6
:10695000138B0888984203D3538B834228BF034686
:106960000B807047174B1B681B7A70B403B1494208
:10697000827A43688AB1DA8B5C690126002925880E
:10698000467210DD598B481B904208DA9A7BD0077B
:1069900000D5198B218070BC70479A8BECE72A4494
:1069A000228070BC7047198B681A904205DA9A7B76
:1069B000D20748BF598B2180EDE7AA1A228070BC0C
:1069C000704700BFDC390020074A38B51378074C00
:1069D00083F001031946002511201370257009F07A
:1069E0005FFF012038BD00BF853E0020843E0020AF
:1069F00010B5074C04F1180006F0ACFF04F10C00D0
:106A000006F0A8FF2046BDE8104006F0A3BF00BF77
:106A1000A83C002038B5054CA4F1480520460C3CA4
:106A200006F098FFAC42F9D138BD00BF9C3C002075
:106A300070B505460C4604F0E5F96B691868036803
:106A40002146DB69BDE87040184700BFF0B4BDF9CE
:106A50001050BDF91460BDF91870002D07DB1C46FD
:106A60001B680649DB6832462046F0BC1847CDE972
:106A700005670495F0BC03F063BD00BF905C0300A4
:106A800010B5C0680C460CF0D5F941EC100B20464F
:106A9000022106F0CFFA00B210BD00BF08B50B46C8
:106AA00090ED040B0221184606F0C4FA00B208BDAE
:106AB000F0B52DED028B136883B005465B69104677
:106AC0000E4614469847C1B22D292DD0344B186874
:106AD0000DF032FB00284DD0237C002B35D0B7EED3
:106AE000008A20460122002106F05AFB60EE087A57
:106AF0006B6817EE900A5C690CF09CF902238DF824
:106B000004304FF6FF73ADF806302B68019ADB694D
:106B1000C4E900010120A8723146284603B0BDEC4B
:106B2000028BBDE8F0401847236820461B69984750
:106B300023681B4A5B691768204698470146384618
:106B40000DF0FAFA50B3237C8BB907212B688DF82E
:106B500004104FF6FF72ADF80620019ADB6931464A
:106B6000284603B0BDEC028BBDE8F0401847BFEEED
:106B7000008AB6E723682A681B69D76920469847C8
:106B8000C1B2304605F086F8314602463B462846FB
:106B900003B0BDEC028BBDE8F04018470421D5E7F7
:106BA000D8390020F0B52DED028B136883B005466F
:106BB0005B6910460E4614469847C1B22D2928D06D
:106BC000324B18680DF0B8FA002848D0237C8BB3FC
:106BD000B7EE008A20460122002106F0E1FAD5E94D
:106BE000003220EE080A5269DB6982ED000A0220B9
:106BF0004FF6FF718DF80400ADF806100120019AE0
:106C0000A8723146284603B0BDEC028BBDE8F040C7
:106C10001847236820461B69984723681B4A5B690D
:106C2000176820469847014638460DF085FA50B35C
:106C3000237C8BB907212B688DF804104FF6FF7267
:106C4000ADF80620019ADB693146284603B0BDEC59
:106C5000028BBDE8F0401847BFEE008ABAE7236810
:106C60002A681B69D76920469847C1B2304605F0AB
:106C700011F8314602463B46284603B0BDEC028B74
:106C8000BDE8F04018470421D5E700BFD8390020FF
:106C9000F0B52DED028B136883B005465B69104695
:106CA0000E4614469847C1B22D292CD0344B186893
:106CB0000DF042FA00284CD0237C002B34D0B7EEE4
:106CC000008A20460122002106F06AFA20EE080A16
:106CD000D5E90032BCEEC00A022152698DF80410D9
:106CE00010EE104A4FF6FF71ADF80610DB69148004
:106CF0000120019AA8723146284603B0BDEC028BF0
:106D0000BDE8F0401847236820461B699847236870
:106D10001B4A5B69176820469847014638460DF0C4
:106D20000BFA50B3237C8BB907212B688DF8041024
:106D30004FF6FF72ADF80620019ADB69314628460E
:106D400003B0BDEC028BBDE8F0401847BFEE008AEF
:106D5000B7E723682A681B69D76920469847C1B2FC
:106D6000304604F097FF314602463B46284603B0C2
:106D7000BDEC028BBDE8F04018470421D5E700BF09
:106D8000D8390020F0B44668BDF910507669D6E9CC
:106D900000670495BDF914500595BDF91850069586
:106DA000C0E90467F0BC03F0FDBB00BF70B44668E7
:106DB000BDF90C507669BDF9144036680395BDF9EC
:106DC0001050C660CDE9045470BC03F0EBBB00BFAB
:106DD000F0B44568BDF910606F69BDF914503F8883
:106DE000BDF918408781CDE904650694F0BC03F035
:106DF000D9BB00BF08B50B460A228189184606F0A8
:106E00007DF800B208BD00BF70B50D4A0D4910787D
:106E100084B01C46BDF924601B6800EB400001EB08
:106E2000800101A8DD6806F06DFD3246019920461B
:106E3000A847044601A806F08DFD204604B070BDA9
:106E4000FA3D0020603C002038B5B0F92030002B1E
:106E50000446154603DB934201D006F001F9258470
:106E600038BD00BF38B505460C4606F0F9F8EB68AA
:106E70005B68002243F8242038BD00BF10B50446EB
:106E800006F0EEF8E0680021BDE8104004F0F4BE22
:106E90004FF6FF730384C06906F0E2B8436910B58A
:106EA000044618680368DB68984730B1636918685E
:106EB0000368BDE810405B6918474FF0FF3010BD14
:106EC000032914D004290AD0022900D070470C4AA3
:106ED000D2F8123043F00103C2F812307047084A6A
:106EE000D2F8123043F00403C2F812307047044A5B
:106EF000D2F8123043F00203C2F81230704700BFDC
:106F0000AC40002038B5447A5CB943685969D0E98F
:106F10000423D1E900014FF001050CF04BFA10B940
:106F2000ECB2204638BD2546FAE700BF02680749A3
:106F300052698A4208B504D1807C003018BF012014
:106F400008BD9047003018BF012008BD1D63020036
:106F5000F0B50021044683B0C06804F08DFED4E98A
:106F60000902036891881B6C98472368174A1D6AB9
:106F7000954218D1E268658B1268A78B51881288F8
:106F8000268C606A12FB05F25D6A114B028211FBCE
:106F900007619D42418210D1D4E90932D289DA8257
:106FA0009A8203B0F0BD00231A4619462046A8472E
:106FB00023685D6A064B9D42EED0002201232046E5
:106FC00000921946A84703B0F0BD00BFE965020072
:106FD000A963020000000000F0B59FED651B87B0BB
:106FE0009FED650B6648674D05F038FE012164484A
:106FF00005F07EFE644B654800243921C3E9004555
:1070000001F0CEF90023614A6148392101F03EFBCD
:1070100064215F4801F05CFD40F2E7315C4801F01B
:107020006BFD09215A4801F07DFD594801F0E8FC4B
:107030000021574801F080FB0121112009F0EEFBEF
:10704000544B55491A6813895160C3F30E0343F436
:107050009B7343F00103138102211B2009F0DEFB27
:107060004FF0FF330B221E214C4805F075FE012125
:107070004A4805F0B5FE494805F09EFE01230093FD
:1070800019463C22464802F047FD454802F0C4FF3D
:10709000642006F075FC424802F0CEFF414801F042
:1070A0004BF8502008F0BEFE0546044600F150069D
:1070B0002046103401F034F8B442F9D102AC3A4B16
:1070C00000932046394B3A4A3A493B4E3B4F01F038
:1070D0002BF894E80F00009685E80F002046334B0C
:1070E000374A384901F020F894E80F0005F11006FE
:1070F00086E80F00344B00932046344B344A354920
:1071000001F012F894E80F0005F1200686E80F0060
:10711000314B00932046254B304A314901F004F8A9
:1071200094E80F0005F1300686E80F002D4B009320
:107130003A4620461D4B2C4900F0F6FF94E80F001C
:1071400005F1400484E80F004FF4487600232A46F6
:10715000CDE9003625491348052300F033FE00220F
:107160000023C7E9002307B0F0BD00BFAFF30080E4
:107170000000000000E06F40000000000000000080
:10718000983E002000003940583C00203841002043
:10719000B03D0020DC3D0020C16E02001442002002
:1071A000003E002084400020AC5C030069660200C1
:1071B000184100209C5C0300C05C0300403C0020A0
:1071C00020410020B45C0300D05C03007166020023
:1071D00028410020C85C0300E05C0300304100202F
:1071E000D85C0300F45C0300E85C0300FC5C030073
:1071F0002DE9F04FE04BE14E5B685B692DED028BB2
:10720000DB68012283B05A7206F1280437463546FE
:10721000042009F037FA45F8040BAC42F8D1D7ED59
:10722000007A9FEDD76ADFF89C839FEDD68AB8EE8F
:10723000E77AD7ED017AF8EEE76AD7ED027A37EE12
:10724000267AF8EEE77AD7ED036A77EE877AF8EEDA
:10725000E66A97ED047A76EEA76AB8EEC77AD7EDBC
:10726000057A77EE266AB8EEE77AD7ED067A37EE3A
:10727000267AF8EEE77AD7ED076A77EE877AF8EEA6
:10728000E66A97ED087A76EEA76AB8EEC77AD7ED88
:10729000097A37EE267AF8EEE77AF7EE008A77EE8B
:1072A000877A142486EE270A30EE680A88EE800A70
:1072B0000BF098FBDFEDB47A60EE277A17EE900AB8
:1072C0000BF0B8FDA8A3D3E900230BF055FC0CF09C
:1072D000EBF807EE900AC8EEA77A17EE900A0BF0CB
:1072E000A9FDA3A3D3E900230BF044FC0CF0DCF8C8
:1072F00007EE900AFCEEE77A17EE900AA8F8000075
:1073000006F032FB8046022009F08CF90C2009F0CF
:1073100083F91F2009F0B6F907EE900A601EF8EE17
:10732000677A10F0FF0438EE278AF2D1204609F080
:1073300079F90A2009F070F9DFED947A9449954BB8
:1073400095480A7828EE278A042A83ED008A036884
:1073500088BF0C70A8EB030388BF2246B3F5FA7F01
:1073600003D301320A70C0F800808C4C2368A8EB6C
:1073700003034A2B00F26581804C042009F082F956
:1073800044F8040BA542F8D1D7ED007A9FED7C6A52
:10739000DFF83482824DDFF83492B8EEE77AD7ED29
:1073A000017AF8EEE76AD7ED027A37EE267AF8EE40
:1073B000E77AD7ED036A77EE877AF8EEE66A97ED1B
:1073C000047A76EEA76AB8EEC77AD7ED057A77EE3B
:1073D000266AB8EEE77AD7ED067A37EE267AF8EE27
:1073E000E77AD7ED076A77EE877AF8EEE66A97EDE7
:1073F000087A76EEA76AB8EEC77AD7ED097A37EE43
:10740000267AF8EEE77AB7EE008A77EE877A86EE8C
:10741000270A30EE480A88EE000A0BF0E3FADFEDA7
:107420005A7A60EE277A17EE900A0BF003FD4EA30E
:10743000D3E900230BF0A0FB0CF036F807EE900A1E
:10744000C8EE277A17EE900A0BF0F4FC48A3D3E9B4
:1074500000230BF08FFB0CF027F80BF0EBFC514BEB
:10746000C8E9000118880BF0C3FC4F4B1B78C5E935
:10747000000153B14D4805F039FBD9E900010BF08B
:10748000F3FF0146102009F03FF8D9E900010BF0A5
:10749000C3FF0023642219460092FF2206F0FEF982
:1074A0000BF0B6FCD5E900AB414A424BC2E9000102
:1074B000C3E900AB042009F0E5F846F8040BA64246
:1074C000F8D197ED007AD7ED017AD7ED026ADFEDBA
:1074D0002C5A394E394CB8EEC77AF8EEE77AB8EE46
:1074E000E66A77EE877A97ED037A36EE276AF8EE4A
:1074F000C76AD7ED047A36EE866AF8EEE76AD7ED0A
:10750000057A76EE866AB8EEE77AD7ED067A37EE38
:10751000267AB8EEE76AD7ED077A36EE076AF8EE14
:10752000E76A97ED087AD7ED097A254F76EE866AF5
:10753000B8EEC77AF8EEE77A37EE267AB7EE008A29
:1075400077EE877A85EEA70A30EE480A88EE000AC1
:107550000BF048FADFED0C7A60EE277A17EE900A0E
:107560000BF068FC34E000BF83DBB5DCE1796B3FF6
:10757000666666666612714098400020C040002032
:1075800000D81F46000000002CBB843935805738D6
:10759000FA3D0020D83D0020A4400020A840002053
:1075A000583C0020A8390020843E0020983E00204E
:1075B000184100202041002030410020103F0020D1
:1075C00028410020FC3D0020483C0020503C002089
:1075D0002AA3D3E900230BF0CFFA0BF065FF07EEE7
:1075E000900AC8EE277A17EE900A0BF023FC25A329
:1075F000D3E900230BF0BEFA0BF056FF07EE900A1A
:10760000FDEEE77AD8E90023C7ED007AD5E900015D
:107610000BF0B0FAC6E90001134800F0FFFC134874
:1076200005F090F96168204604F0E4FB204604F080
:107630002DFC0F4803B0BDEC028BBDE8F04F02F00B
:10764000FBBC0C4805F0D2FB40B2002809D00A4A26
:10765000D2F81230CCBF43F0080343F01003C2F855
:107660001230C4F8008087E684400020DC3D002012
:10767000003E002014420020AC40002083DBB5DC3B
:10768000E1796B3F66666666661271402DE9F04FE0
:10769000D24CD34DDFF82494DFF82484D14EDFF8A8
:1076A00024B4DFF824A485B0204600F0E5FF20468E
:1076B000CD4ACE49CE4C0BF08FF9002301221B217D
:1076C000CC4805F02BF8CC49CC48DFF800C4C0F812
:1076D00000C095ED002B94ED001B0025012491EDD9
:1076E000000B4FF47A771F210095C54BC54A4174B2
:1076F0004560C54987600474C448C54F05F078F9F2
:10770000484600F02FFBB84AC24948460BF064F9DE
:10771000C14BC24A02924FF0FF39CDE90093404677
:10772000BF4B4022802102F007F9AF4ABD494046D5
:107730000BF052F93046BC4906F0BEF806F10C00D9
:10774000BA4906F0B9F806F11800B94906F0B4F8DC
:1077500006F12400B74906F0AFF806F13000B6494B
:1077600006F0AAF8594606F13C0006F0A5F89E4A34
:10777000B249B34E28460BF02FF95046B14906F0F6
:107780009BF80AF10C00B04906F096F859460AF148
:10779000180006F091F8944AAC49DFF834A3DFF8FA
:1077A00034B328460BF018F9A94B7B60A94BAA4AC1
:1077B000AA483C727C723B60A94FDFF81CC377601B
:1077C000A849DFF818E33360032734727472A64EB9
:1077D00007711472547216605060A44EA448CAF81F
:1077E000041006220A718EF80420A249CCF804E0A5
:1077F000DFF8ECE28AF808408AF809408AF80A5073
:10780000CAF800108CF80840DFF8D8A28CF80940BC
:107810008CF80A50CCF800E03271DFF8CCC2466038
:10782000954EDFF8C8E204724472857206608AF8E9
:1078300004209248CCE9006A914E8CF808408CF8FC
:1078400009408CF80A50DFF8A8C2CEF800308EF854
:1078500008408EF80940CEF804C07060DFF894E26A
:10786000DFF894A207718748347274723060DFF8D1
:107870008CC2854E8AF80420CEF804A08EF8084009
:107880008EF809408EF80A50CEF80010DFF870A28A
:10789000DFF870E28CF80420C6F804C03472DFF818
:1078A00068C27472B5723160784E8AF80420CEF8DE
:1078B00004A08EF80840DFF854A28EF809408EF834
:1078C0000A50CEF80010DFF848E28CF80420C6F821
:1078D00004C0347274723160B572DFF838C26C4E15
:1078E000CEF804A08AF80420DFF82CA28EF8084015
:1078F000CEF800108CF80420C6F804C03472DFF80B
:107900001CC2747231608EF809408EF80A50B5724C
:10791000DFF80CE25F4ECAF804605F4E8EF8047028
:10792000CCF804E08CF80840DFF8F8E18CF8094066
:10793000CCF80000DFF8F0C1336034727472C6F81E
:1079400004C0564ECEF80460554EDFF8E0C1CAF8C8
:1079500000308AF808408AF80940CEF800308EF8E6
:1079600008408EF80940C6F804C03360347274725F
:107970004C4EDFF8BCC1C6F804C033603472747278
:10798000494EDFF8B0C1C6F804C033603472747277
:10799000464EDFF8A4C1C6F804C033603472747276
:1079A000434EDFF898C1C6F804C033603472747275
:1079B000DFF88CC13F4E8CF80470C6F804C0DFF8C5
:1079C00084E1DFF884C13472747230608EF8042070
:1079D000394ECCF804E08CF80840B7E0B03D002008
:1079E00030380020603C00200036002089860200EC
:1079F00038380020DC3D002040380020AC4000201A
:107A0000583C0020503C0020483C0020983E00207C
:107A1000F83F00207D7D0200801A0600A08601004C
:107A20003841002091990200105A0300205A0300A7
:107A3000305A0300405A0300545A0300156A0200EA
:107A400004400020645A0300745A0300F1690200E4
:107A500020390020A86203000C410020AC3900202E
:107A600030390020B037002018590300F8370020C3
:107A7000883D002044590300B459030048360020D3
:107A8000EC3D0020E4570300F83C0020183D0020A6
:107A9000383D0020803800208C3F0020A038002096
:107AA000A43F0020B03F0020BC3F0020C83F002082
:107AB000D43F0020A43D00209037002084400020C7
:107AC000003E0020A85C0300A83C0020845803006E
:107AD000683D0020883E0020783D0020D0370020FF
:107AE0007C59030078360020D03C0020743F0020F1
:107AF00070380020E83C0020B0360020D03600204E
:107B0000F0360020083D00201037002030370020DC
:107B1000283D002050370020803F002000410020F9
:107B200074390020983F002090380020B0380020A1
:107B3000C0380020D0380020E0380020F038002085
:107B40001436002070370020483D0020DFF8CCE1DB
:107B50008CF809408CF80A50CCF80010DFF8C0C14E
:107B60003271CCF804605F4ECEF800305E4B8CF87A
:107B700008408CF80940CCF800108CF80A505B4A99
:107B8000DFF8A0C1CEF80430594B7360594BDFF8D1
:107B900098A133601771CCF80420574B574A3472C0
:107BA0007472574E8CF808408AE81C0029468CF8FD
:107BB0000940CCF80000CBF800008BF80840504694
:107BC0008BF80940CBF804608EF808408EF8094025
:107BD000377104F051F84B4B4B4AC3F82480DFF85F
:107BE0004C81C3F80880A2F82090DFF84481DFF8C8
:107BF0004491C3F81A80C2F808904FF00118DFF8DA
:107C00003891C3F81E80C2F80C90DFF83081C3F8B9
:107C100000804FF0040982F81090DFF82481DFF82B
:107C200024913A48DFF820E1C3F82880C2F8009098
:107C30004FF00208DFF81491354EDFF814C15D6093
:107C40005946C3F80CA05D611D7683F8108055601D
:107C5000304B55611576C2F81C90DFF8F8B0CEF8BD
:107C600000804FF47A72C0F814904560826004740A
:107C7000C0F800B0DFF8E0A0DFF8E080DFF8E090C7
:107C8000CEF804A04FF47A70CCF80800224ACCF861
:107C9000045030468CF81040CCF80080CCF814909A
:107CA0001D809D811D839D84C6E90237C6E900ECD5
:107CB00034747574C6E9065586F8205086F821405C
:107CC00086F82250B484C6E90A5586F830407261BD
:107CD00004F080F83946304605B0BDE8F04F04F0B6
:107CE00067B800BFE03F002010390020483900206D
:107CF00000390020F8580300A03D00200C36002079
:107D0000483800201840002044400020E84000206F
:107D1000103F0020443F002091AD0200EC3F0020C6
:107D2000583D00209840002068400020744000200A
:107D3000050009007C40002008420020B0580300E4
:107D4000A05B0300105803001040002020420020D8
:107D50006C3E00205858030040390020EC590300C5
:107D60000836002010B50023C0E9033303608360A8
:107D7000044605F0F9FD6060204610BD70B5C4688A
:107D80002568064655B91BE0184608F06BF82046F2
:107D900008F058F82B6853B12C461D4663692046FD
:107DA000002BF1D108F04EF82B68002BF4D1686954
:107DB00008B108F057F8284608F044F8304670BD7E
:107DC0002546F4E72DE9F042044618200D461746F3
:107DD0001E469DF8189008F015F80799E26886602D
:107DE000002380F80490C0E903154761036052B195
:107DF00023691860206123680133236005F0B4FD16
:107E00006060BDE8F082C4E90300F4E72DE9F041C9
:107E10000C4605467049714805F05AF864BB6F4836
:107E20006F49704F064605F053F86F49304605F02C
:107E30004FF86E49304605F04BF8AB6800249C4281
:107E400014DA6B6903EB0413D3E9020290470821AB
:107E5000304605F0EFF8AB6801349C42EFDA394662
:107E6000304605F035F8AB689C42EADB60495B4878
:107E7000BDE8F04105F02CB858485949DFF8648155
:107E800006460F4605F024F85A49304605F020F81A
:107E90005949304605F01CF83946304605F018F8C7
:107EA0002969304605F014F83946304605F010F8D7
:107EB0005249304605F00CF85149304605F008F8B3
:107EC0004D49304605F004F80A222979304605F07C
:107ED00015F84A49304604F0FBFF4A49304604F0A1
:107EE000F7FF4549304604F0F3FF0A22E9683046BF
:107EF00005F004F84149304604F0EAFF42493046B3
:107F000004F0E6FF3C49304604F0E2FF0A22A9688B
:107F1000304604F0F3FF3949304604F0D9FF3B49BD
:107F2000304604F0D5FF3149304604F0D1FFAB684C
:107F300000249C423946304618DA04F0C9FF230178
:107F40006A693046D15804F0C3FF3946304604F020
:107F5000BFFFAB6801349C42EBDA4146304604F087
:107F6000B7FFAB689C4239463046E6DB1B482849E0
:107F70001B4FDFF87080064604F0AAFF2549304603
:107F800004F0A6FF1949304604F0A2FFAB680024B4
:107F90009C423946304619DA04F09AFF6B6903EBCC
:107FA00004133046596804F093FF3946304604F014
:107FB0008FFFAB6801349C42EADA4146304604F058
:107FC00087FFAB689C4239463046E5DB12490348DF
:107FD00004F07EFF23E700BF145D03002042002071
:107FE000185D0300385D0300485D0300345D030045
:107FF0004C5D03001C5D0300205D0300245D030055
:10800000285D03002C5D0300305D03003C5A030033
:108010003C5D0300405D0300445D03002DE9F04139
:10802000064633493348B46804F052FF32493148B8
:1080300004F04EFF31492F4804F04AFF05F094FC4C
:10804000B4FA84F501460A222A486D0904F0C4FFF7
:108050005CB32B49274804F03BFF2A49254804F02C
:1080600037FF2949234804F033FFF4686CB1DFF887
:10807000AC80204F20462946FFF7C8FE24684146C1
:10808000384614B104F024FFF4E72049194804F0FD
:108090001FFF1F49174804F0EBFFB3680133312B72
:1080A000C8BF0023B360BDE8F0811549114804F052
:1080B0000FFF18490F4804F00BFF10490D4804F05A
:1080C00007FF0A2231680B4804F018FF0C490948E1
:1080D00004F0FEFE1049074804F0FAFE074905487F
:1080E00004F0F6FE0A227168024804F075FFB0E75A
:1080F000005D0300204200201C5D0300205D0300A2
:10810000245D03000C5D0300345D03004C5D03003F
:10811000105D0300045D0300085D0300385D03008B
:108120000022C0E90222704730B4029D4560016020
:10813000C0E9022330BC704710B54FF4E13104466A
:10814000034805F063F905F00FFC606010BD00BF47
:1081500020420020704700BF203004F0CBBF00BF9A
:10816000203004F0B9BF00BF203004F0C9BF00BF09
:1081700038B5437F0BB9002038BD00F168042046B4
:108180000D4604F0C5FF0028F5D12046294604F02D
:1081900091FF012038BD00BF2DE9F0475AB30646D4
:1081A000DFF8588033681B684D1E434517464FF073
:1081B000000400F1680915F801AF16D1737F13B9F7
:1081C0002046BDE8F087484604F0A2FF0028F7D11A
:1081D0005146484604F06EFF0134A742F0D03368A0
:1081E00015F801AF1B684345E8D051463046984723
:1081F0000028F1D1E4E71446E2E700BF71810200F4
:1082000030B4827E4FF0A04302F5E07240F20C647D
:108210000121C17643F82240427E02F5E0724FF020
:10822000CC7543F822400369C3F82455036906223C
:10823000C3F800250369827EC3F808250369427EDE
:10824000C3F80C2590F91830002B13DA124A03F00A
:108250000F031A446023137690F91830002B07DBC4
:108260000E4903F01F0001225B09824041F82320E0
:1082700030BC70475C09603403F01F03074A01FA01
:1082800003F342F8243090F91830002BDEDB13445E
:10829000602283F80023DFE7FCEC00E000E100E06F
:1082A000C37EE3B10E4B026910B499424FF0000453
:1082B000C2F8004510D90B4B994294BF4FF0806132
:1082C0004FF0C86103695DF8044BC3F824150369D6
:1082D0000622C3F8002570474FF0CC71F2E77047D3
:1082E000A086010090D003000AB9104670472DE91E
:1082F000F041054600F12008404614461E460F4650
:1083000004F0E6FE2B69C3F888752A69012313621D
:108310002A69C2F834852A69C2F838452A69136087
:108320002A6902E0D2F824311BB9D2F84C11002995
:10833000F8D00023C2F84C312A6902E0D2F82411A7
:1083400019B9D2F85C110029F8D00023C2F85C31C9
:108350002B696EB9D3F8242152B90122DA612A6956
:10836000D2F84831002BFBD00023C2F8483109E095
:1083700001225A612A69D2F80431002BFBD0002374
:10838000C2F804312B69D3F824211AB10022C3F8B2
:1083900024212B69D3F83C052866C0B2BDE8F081E2
:1083A00010B50446683084F8B01004F091FE012343
:1083B000637710BDF8B504460020236994F8B02017
:1083C0006077C3F88825236901271F62236904F1B8
:1083D0006806C3F8446530460D4604F08BFE2369F9
:1083E000C3F8480523699F60236902E0D3F824217C
:1083F0001AB9D3F85021002AF8D00022C3F850212E
:10840000304604F077FE236940BB0022C3F86021A8
:10841000236915B9D3F824212AB301225A612269AC
:10842000D2F80431002BFBD00023C2F804312369B9
:10843000D3F8240168B10022C3F824212369D3F8BA
:10844000C404C3F8C404022803D0042814BF0420C1
:108450000320F8BDD3F82421002AD6D1D3F8602117
:10846000002AF7D0D1E70122DA612269D2F8483137
:10847000002BFBD00023C2F84831D8E770B5036960
:1084800090F8B02000214177C3F8882503690126C0
:108490001E62036900F168050446C3F84455284686
:1084A00004F028FE2369C3F8480523699E60236908
:1084B00002E0D3F824211AB9D3F85021002AF8D0C9
:1084C0000022C3F85021284604F014FE236918BB8B
:1084D0000022C3F86021236901225A612269D2F87F
:1084E0000431002BFBD00021C2F804112369D3F81A
:1084F000240160B1C3F824112369D3F8C404C3F87C
:10850000C404022803D0042814BF0420032070BD33
:10851000D3F82421002ADBD1D3F86021002AF7D038
:10852000D6E700BF70B5294C6369D3F86421002AEF
:108530003AD1D3F86821E2B9D3F8042162B1227F9D
:108540000021C3F804113AB1D4F8B820D3F83C059F
:1085500020660AB190476369D3F8242142B1002212
:10856000C3F82421D3F8D024C3F8D02401225A61BF
:1085700070BD0022C3F86821154822770123637774
:1085800004F0A6FDD4F8B43003B1984763691048ED
:10859000C3F844050023637704F0ACFD636901224E
:1085A000C3F848055A63C7E7002204F12006C3F860
:1085B000642101253046257704F08AFD6369402255
:1085C000C3F83465C3F838251D63B2E7384100208D
:1085D000A041002038B50E4C0E4A20464FF47A7365
:1085E00040F8202B0025C4E9015304F059FD04F1A3
:1085F000680004F055FD084A084B6577D2E9191266
:10860000032020766176A276C4E9043338BD00BF2A
:1086100038410020585D03004C63030000300040E7
:10862000F0B591B00124002581680194234692227F
:108630000646009504A808F055FC04A808F0C8FCFC
:1086400010EA040702D0284611B0F0BDB1682346F5
:10865000CDE900740AA8802208F044FC0AA93B4630
:10866000224602A808F01CFD214602A808F08EFD53
:10867000204611B0F0BD00BF024A02600022027124
:10868000826070477C5D0300704700BF2DE9F041B8
:108690000446806890B00E461746984608B107F029
:1086A000D1FB102007F0AEFB3A460546314608F0F4
:1086B00057FEA5602846012108F05CFE054618B962
:1086C000284610B0BDE8F08123681A4A1B6893421F
:1086D0002AD101260027A16801963346922204A8D8
:1086E000009708F0FFFB04A808F072FC10EA0608E7
:1086F00004D03D46284610B0BDE8F081A16833465D
:10870000CDE900860AA8802208F0ECFB0AA94346BE
:10871000324602A808F0C4FC314602A808F036FD33
:10872000284610B0BDE8F0814146204698470546EE
:10873000C6E700BF21860200F0B583689BB0012424
:10874000002605460F467022194608A823460194C4
:10875000009608F0C7FB08A92246032302A808F0E8
:108760009FFCA96823467422CDE900640EA808F096
:10877000B9FB0EA92246072304A808F091FCA968BA
:108780002346A922CDE9006414A808F0ABFB2246D9
:1087900014A9042306A808F083FC214606A808F0C3
:1087A000F5FC394602A808F0F1FCB8B90646A968FC
:1087B00001240025234601940095A92214A808F05D
:1087C00091FB224614A9042306A808F069FC294657
:1087D00006A808F0DBFC30461BB0F0BD394604A803
:1087E00008F0D4FC0646E2E770B588B00024012505
:1087F0000646816801952B46224602A8009408F09F
:1088000071FB224602A8302108F07CFBB1682B46A0
:108810002A46CDE9004502A808F064FB2246294615
:1088200002A808F06FFBB1682B46CDE9004502A80D
:10883000022208F057FB2246214602A808F062FBFC
:10884000B1682B46CDE9004502A8032208F04AFB97
:108850002246214602A808F055FBB1682B46CDE917
:10886000004502A8042208F03DFB2246214602A84A
:1088700008F048FBB1682B46CDE9004502A8052267
:1088800008F030FB224602A8422108F03BFBB16809
:108890002B46CDE9004502A8062208F023FB22461C
:1088A000214602A808F02EFBB1682B46CDE9004511
:1088B00002A8072208F016FB2246214602A808F06B
:1088C00021FBB1682B46CDE9004502A8082208F03B
:1088D00009FB224602A8502108F014FBB1682B4680
:1088E000CDE9004502A8092208F0FCFA22462146FB
:1088F00002A808F007FBB1682B46CDE9004502A8A5
:108900000A2208F0EFFA2246214602A808F0FAFAF5
:10891000B1682B46CDE9004502A80B2208F0E2FA27
:108920002246214602A808F0EDFAB1682B46CDE9AF
:10893000004502A80C2208F0D5FA224602A8202100
:1089400008F0E0FAB1682B46CDE9004502A80D22F7
:1089500008F0C8FA224602A8042108F0D3FAB16848
:108960002B46CDE9004502A80E2208F0BBFA2246AC
:10897000214602A808F0C6FAB1682B46CDE90045A9
:1089800002A80F2208F0AEFA224602A8302108F011
:10899000B9FAB1682B46CDE9004502A8102208F0CB
:1089A000A1FA2246294602A808F0ACFAB1682B4683
:1089B000CDE9004502A8112208F094FA224602A847
:1089C000502108F09FFAB1682B46CDE9004502A876
:1089D000122208F087FA2246214602A808F092FAED
:1089E000B1682B46CDE9004502A8132208F07AFAB7
:1089F000224602A8062108F085FA08B070BD00BF23
:108A000070B58AB001240026816880F8246005468C
:108A1000234601948022009604A808F063FA2346B6
:108A2000224604A902A808F03BFB314602A808F040
:108A3000ADFBA9682346CDE90064AF2204A808F085
:108A400051FA0323022204A902A808F029FB0221FB
:108A500002A808F09BFB2846FFF7C6FEA96823463C
:108A6000CDE90064802204A808F03CFA224604A95B
:108A7000042302A808F014FB214602A808F086FB94
:108A800040F2E93405E0013C4FF0010006D004F06B
:108A900077FF02A808F00CFB0028F4D10124002283
:108AA000A968009223460194802204A808F01AFACB
:108AB0002346224604A902A808F0F2FA214602A899
:108AC00008F064FB204685F824400AB070BD00BF62
:108AD00030B5826889B0012300240D46CDE90043FA
:108AE000114602A8812208F0FDF92246294602A873
:108AF00008F008FA09B030BD30B5826889B00024AA
:108B000001230D46CDE900431146022302A8CA22E3
:108B100008F0E8F92246294602A808F0F3F909B05E
:108B200030BD00BF30B5826889B0012300240D46F6
:108B3000CDE90043114602A8AA2208F0D3F9224643
:108B4000294602A808F0DEF909B030BD002929DB6A
:108B500030B4B0F90C408C4222DD002A20DBB0F9A1
:108B60000E4094421CDD847E022C4BD0032C43D05B
:108B7000012C18D0012B2ED01BD3022B10D1002A90
:108B80000489C06A1346B8BFD31DDB1013FB041160
:108B900002F00702445C012303FA02F262404254ED
:108BA00030BC704770470489D24314440A4621B24E
:108BB000E0E7002A0489C06A1346B8BFD31DDB1062
:108BC00013FB041102F00704435C0122A24023EAD4
:108BD00002034354E4E7002A0489C06A1346B8BF7D
:108BE000D31DDB1013FB041102F00702445C0123C8
:108BF000934023434354D3E74489013C641A11460C
:108C000022B2B7E704894589D243013C2A44611A5C
:108C100012B209B2AEE700BFF8B50446806A0D464D
:108C200068B394F83010FFF7BBFBA06A036800211B
:108C30001B689847A36A2F1D01261A6815F8011BA7
:108C40001268184690470136BD42B6B212D0A36AE8
:108C50003F2E1846F1D1FFF711FC94F83010A06AAE
:108C6000FFF79EFBA06A036800211B689847012656
:108C7000A36AE2E7A06ABDE8F840FFF7FFBB226CF9
:108C8000216D136823EA010313602E1D04E008F030
:108C9000DFF8B54200F09A80606A15F8011B0028E1
:108CA000F5D1D4E90E23A06C176811F0800F0CBF2A
:108CB00027EA0000384310601868E76C38431860F2
:108CC0001868E76C20EA070018601768A06C11F0BC
:108CD000400F0CBF27EA0000384310601868E76CAB
:108CE000384318601868E76C20EA070018601768B6
:108CF000A06C11F0200F0CBF27EA00003843106071
:108D00001868E76C384318601868E76C20EA0700B9
:108D100018601768A06C11F0100F0CBF27EA000054
:108D2000384310601868E76C384318601868E76CBF
:108D300020EA070018601768A06C11F0080F0CBF3C
:108D400027EA0000384310601868E76C3843186061
:108D50001868E76C20EA070018601768A06C11F02B
:108D6000040F0CBF27EA0000384310601868E76C56
:108D7000384318601868E76C20EA07001860176825
:108D8000A06C11F0020F0CBF27EA000038431060FE
:108D90001868E76C384318601868E76C20EA070029
:108DA000186011F0010FA06C116814BF084321EA8C
:108DB000000010601A68E16C0A431A601A68E16CDE
:108DC000B54222EA01021A607FF466AFF8BD00BF27
:108DD0002DE9F041847EBDF81850022C7AD0032C86
:108DE00073D0012C07D0002A03DBB0F90A4094426B
:108DF0007BDCBDE8F0810489D243224412B2002A10
:108E0000F7DBB0F908609642F3DD0029BEBF5B18BE
:108E100000211BB2B0F90A700C461C44BC42C4BF0E
:108E20007B1A1BB2002BE4DDC9B2CC08D0F82CC0F1
:108E300016FB042211F00701DBB20CEB020721D074
:108E4000C1F10801CCB2C349A342095D80F076812B
:108E5000A4EB030EFF2646FA0EF6012D01EA0601E9
:108E600000F0FC81C0F00082022DC2D11CF802602B
:108E700071400CF80210A342BBD3B0F908201B1BB1
:108E8000DBB21744072B11D9022D00F0F481002D1D
:108E900014BFFF2400241A463C70083AB0F90810A9
:108EA000D2B2072A0F44F7D803F00703002BA0D053
:108EB000A94A012DD35C00F0F581C0F0EE81022DAE
:108EC00097D13A7853403B7093E744891944611A2B
:108ED00009B294E746890489D2433244194412B254
:108EE000611A002A09B280DA83E70029BEBF5B1845
:108EF0001BB20021B0F908405E18A642C4BF631A35
:108F00001BB2002B8E467FF774AF002A1646B8BFFF
:108F1000D61DF1104FF0010CC76A02F0070214FBD6
:108F200001E60CFA02F26545D2B207EB060100F049
:108F30001581C0F08380022D7FF45BAF9BB24C4261
:108F40005D1E04F00304ADB2E01C85420FFA85FCFF
:108F500048D3002C00F0AA81B85DA3F1020C504068
:108F6000012CB8550FFA8CFC01F1010813D0487898
:108F7000A3F1030C5040032C48700FFA8CFC01F154
:108F8000020808D18878A3F1040C5040887001F1E0
:108F900003080FFA8CFC4FF0000E62F3070E181B4B
:108FA000A11962F30F2E86B27B1862F3174E62F39B
:108FB0001F6EB7081C1F002054F8041F013085B233
:108FC0008EEA0101AF4243F8041BF5D826F00303F3
:108FD0009BB2ACEB030C9E420FFA8CFC08EB030136
:108FE0003FF407AF0B781FFA8CF05340441E0B7010
:108FF000A4B2BCF1000F3FF4FCAE4D78831E554087
:109000004D709BB2002C3FF4F4AE8D78C41E5540D9
:109010008D70A4B2002B3FF4ECAECB785340CB70F4
:10902000002C3FF4E6AE0B79042883EA02030B71AF
:109030003FF4DFAE4B795A404A71DAE69BB24842C0
:109040005C1E00F00300A4B2C51CD243AC425FFA20
:1090500082FC22B243D3002800F02C81BC5D9A1E12
:109060000CEA04040128BC5512B201F1010E11D022
:109070004C78DA1E0CEA040403284C7012B201F199
:10908000020E07D18C781A1F0CEA04048C7001F1CF
:10909000030E12B24FF000086CF3070881191B1A77
:1090A0006CF30F2839449EB26CF317486CF31F68B9
:1090B000B7080C1F002054F8043F013085B208EABD
:1090C0000303AF4241F8043BF5D826F003039BB2FB
:1090D000D21AB34212B20EEB03013FF48AAE0B7800
:1090E00090B20CEA0303441E0B70A4B2002A3FF4B2
:1090F00080AE4A78831E0CEA02024A709BB2002CB2
:109100003FF477AE8C78C21E0CEA04048C7092B2E5
:10911000002B3FF46EAECB780CEA0303CB70002A31
:109120003FF467AE0B7904280CEA03030B713FF49C
:1091300060AE4B790CEA03034B715AE6012D00F047
:109140008D80C0F09180022D3FF490AE1B1BDBB2EE
:10915000374497E6746203007C6203009BB24C4282
:10916000581E04F0030480B2E51C85420FFA80FC0F
:1091700048D8002C00F09C80B85DA3F1020C10438D
:10918000012CB8550FFA8CFC01F1010E13D0487870
:10919000A3F1030C1043032C48700FFA8CFC01F16F
:1091A000020E08D18878A3F1040C1043887001F1F5
:1091B000030E0FFA8CFC4FF0000862F30708A119A8
:1091C0001B1B62F30F2839449EB262F3174862F307
:1091D0001F68B7080C1F002054F8043F013085B207
:1091E00048EA0303AF4241F8043BF5D826F00303F5
:1091F0009BB2ACEB030C9E420FFA8CFC0EEB03010E
:109200003FF4F7AD0B781FFA8CF01343441E0B703C
:10921000A4B2BCF1000F3FF4ECAD4D78831E1543B2
:109220004D709BB2002C3FF4E4AD8D78C41E154305
:109230008D70A4B2002B3FF4DCADCB781343CB7020
:10924000002C3FF4D6AD0B79042843EA02030B71DE
:109250003FF4CFAD4B791A434A71CAE51CF802605E
:1092600031430CF8021006E61CF8026026EA010100
:109270000CF80210FFE51A463978C9433970083AEC
:10928000B0F90810D2B2072A0F44F5D813F007033B
:109290003FF4AFAD084AD35C13E63A7822EA030301
:1092A0003B70A6E53A7813433B70A2E5884672E628
:1092B0008E4680E78E46EDE67C62030038B50446B4
:1092C000806A0D46002800F0B580A16DFEF7E8FF2A
:1092D000A06A002D0CBFA625A725002840F08A8093
:1092E000226C216D1368606A23EA01031360002871
:1092F00076D1A26BA06C1168E36B01431160196811
:10930000E06C014319601968E06C21EA0001196002
:109310001168A06C21EA000111601968E06C01433A
:1093200019601968E06C21EA000119601168A06CED
:10933000014311601968E06C014319601968E06C21
:1093400021EA000119601168A06C21EA0001116096
:109350001968E06C014319601968E06C21EA0001AA
:1093600019601168A06C21EA000111601968E06CB5
:10937000014319601968E06C21EA00011960116865
:10938000A06C014311601968E06C01431960196811
:10939000E06C21EA000119601168A06C01431160C2
:1093A0001968E06C014319601968E06C21EA00015A
:1093B00019601068A16CA62D14BF014320EA0101B9
:1093C00011601A68E06C616C02431A601A68E06C04
:1093D00022EA00021A60626D0B6813430B6038BD0D
:1093E000294607F035FDA06AC0B1E16DBDE83840FF
:1093F000FEF756BF94F83010FEF7D2FFA06A03685C
:1094000000211B689847A06A036829461B68984793
:10941000A06AFFF733F8A06A0028E6D1626C616D9C
:109420001368606A0B4313600028D8D0BDE8384049
:1094300007F008BD626A3AB104F16403104693E88C
:10944000060007F0B1FCA06A626C616D136823EA44
:10945000010313603DE700BF2DE9F041857EBDF8B3
:109460001860022D00F00B81032D00F00381012D07
:1094700054D0002950DBB0F908708F424CDD002A2F
:10948000BEBF9B1800221BB2B0F90A5014461C4400
:10949000AC42C4BFAB1A1BB2002B3DDDD2B2D40824
:1094A000D0F82CC017FB041112F00702DBB20CEB52
:1094B000010521D0C2F10802D4B2C64AA342125D0E
:1094C00080F07B81A4EB030EFF2747FA0EF7012EF5
:1094D00002EA070200F0FF81C0F00382022E1BD1D6
:1094E0001CF801707A400CF80120A34214D3B0F9A3
:1094F00008201B1BDBB21544072B00F2CC805BB1AC
:10950000B54A012ED35C00F00A82C0F00382022E1D
:1095100002D12A7853402B70BDE8F08104891A44A7
:10952000A21A12B20029F7DBB0F90A408C42F3DD2F
:10953000002ABEBF9B181BB20022B0F908409F183A
:10954000A7421546C4BFA21A13B2002BE4DD0029BE
:10955000C76A0846B8BFC81DC21001F00700012144
:10956000814014FB0252012EC9B207EB020000F049
:109570003581C0F0A380022ECED11FFA83F8444279
:1095800008F1FF3504F00304ADB2E31C9D422EB296
:1095900046D3002C00F0CB81BB5CA8F102064B4007
:1095A000012CBB5436B200F1010E11D04378A8F162
:1095B00003064B40032C437036B200F1020E07D174
:1095C0008378A8F104064B40837000F1030E36B295
:1095D0004FF0000C61F3070CA8EB0408224461F380
:1095E0000F2CBB181FFA88F861F3174C61F31F6C3E
:1095F0004FEA98071C1F002054F8042F013085B251
:109600008CEA0202AF4243F8042BF5D828F003039A
:109610009BB2F61A984536B20EEB03003FF47CAFCE
:109620000378B4B24B40621E037092B2002E3FF436
:1096300073AF4578A31E4D4045709BB2002A3FF49E
:109640006BAF8578E21E4D40857092B2002B3FF4DF
:1096500063AFC3784B40C370002A3FF45DAF03791A
:10966000042C83EA010303713FF456AF4379594058
:10967000417151E74489C943214409B252E7048941
:109680004589C94321441A4409B2AA1A002912B2D1
:10969000BFF6F1AE40E7022E00F02A81002E14BF83
:1096A000FF24002419462C700839B0F90820C9B2EB
:1096B00007291544F7D803F0070320E71FFA83F8BA
:1096C000444208F1FF3504F00304ADB2E31CC94382
:1096D0009D42C9B22EB246D3002C00F02481BB5C5F
:1096E000A8F102060B40012CBB5436B200F1010C6C
:1096F00011D04378A8F103060B40032C437036B217
:1097000000F1020C07D18378A8F104060B408370A6
:1097100000F1030C36B24FF0000E61F3070EA8EB18
:109720000408224461F30F2E3A441FFA88F861F3CB
:10973000174E61F31F6E4FEA9807141F002054F86C
:10974000043F013085B20EEA0303AF4242F8043B06
:10975000F5D828F003039BB2F61A434536B20CEB5A
:1097600003003FF4D9AE0378B4B20B40621E03701D
:1097700092B2002E3FF4D0AE4578A31E0D40457046
:109780009BB2002A3FF4C8AE8578E21E0D4085707A
:1097900092B2002B3FF4C0AEC3780B40C370002AD6
:1097A0003FF4BAAE0379042C03EA010303713FF4DA
:1097B000B3AE437919404171AEE6012E00F08B80C3
:1097C000C0F08F80022E3FF48BAE1B1BDBB23D44FA
:1097D00092E600BF746203007C6203001FFA83F804
:1097E000454208F1FF3405F00305A4B2EB1C9C428E
:1097F00026B246D3002D00F09880BB5CA8F102068B
:109800000B43012DBB5436B200F1010C11D043784B
:10981000A8F103060B43032D437036B200F1020C8E
:1098200007D18378A8F104060B43837000F1030C81
:1098300036B24FF0000E61F3070EA8EB05082A447C
:1098400061F30F2E3A441FFA88F861F3174E61F363
:109850001F6E4FEA9807141F002054F8043F013090
:1098600085B24EEA0303AF4242F8043BF5D828F034
:1098700003039BB2F61A984536B20CEB03003FF493
:109880004BAE0378B4B20B43621E037092B2002E4B
:109890003FF442AE4578A31E0D4345709BB2002AAB
:1098A0003FF43AAE8578E21E0D43857092B2002BEC
:1098B0003FF432AEC3780B43C370002A3FF42CAEA2
:1098C0000379042C43EA010303713FF425AE437985
:1098D0001943417120E61CF801703A430CF801204D
:1098E00003E61CF8017027EA02020CF80120FCE5EF
:1098F0001A462978C9432970083AB0F90810D2B23B
:10990000072A0D44F5D813F007033FF405AE094AC2
:10991000D35CFEE52A7822EA03032B70FCE52A7863
:1099200013432B70F8E58446F5E6844681E78646C6
:109930004EE600BF7C6203002DE9F041079F9DF9D0
:109940001880104E04461D4608F056FC0E4B0F4979
:10995000A7654FF0FF304FF48072002D08BF1D4601
:10996000089FC4F83300002384F837806166A4F8A8
:109970006820E765A56226606362E3622046BDE871
:10998000F08100BF286203003841002000093D003B
:1099900010B50446C06A034B236008B109F028FEE5
:1099A000204610BD28620300836A70B50A46002B6A
:1099B00040F09B80046C066D2368456A23EA060329
:1099C0002360002D40F08C80D0E90E13846C0D686C
:1099D000160654BF25EA04042C430C601C68C56CB1
:1099E0002C431C601C68C56C24EA05041C600D68CF
:1099F000846C560654BF25EA04042C430C601C6892
:109A0000C56C2C431C601C68C56C24EA05041C60F2
:109A10000D68846C960654BF25EA04042C430C6040
:109A20001C68C56C2C431C601C68C56C24EA0504CA
:109A30001C600D68846CD60654BF25EA04042C43D0
:109A40000C601C68C56C2C431C601C68C56C24EA47
:109A500005041C600D68846C160754BF25EA0404D5
:109A60002C430C601C68C56C2C431C601C68C56CC6
:109A700024EA05041C600D68846C560754BF25EA6F
:109A800004042C430C601C68C56C2C431C601C68CF
:109A9000C56C24EA05041C600D68846C960754BFED
:109AA00025EA04042C430C601C68C56C2C431C6024
:109AB0001C68C56C24EA05041C6012F0010F846C5C
:109AC0000A6814BF144322EA04040C601A68C16CCB
:109AD0000A431A60C16C1A6822EA01021A6070BD5A
:109AE0002846BDE8704007F0B3B904460D46184655
:109AF00094F83010FEF754FCA06A036800211B683C
:109B00009847A06A036829461B689847A06ABDE881
:109B10007040FEF7B3BC00BF2DE9F0430E46B0F92C
:109B20000A1004461F46CB1D85B048BF01F10E0345
:109B3000B4F90890C06A9DF83080DB10154609FB27
:109B400003F9002800F015824A46002109F08EFD35
:109B5000B4F90A20B4F90810202A00F3D3800120B8
:109B6000203A73394FF0200C029002EBD27273202E
:109B700001EBD171CDE9000C9F4B204642F34F021F
:109B800041F34F0108F054FBA06A84F831600028CB
:109B900000F0D380002D40F0DF81B4F90A30202B93
:109BA00014BF3D253C2584F83050B8F1000F40F03B
:109BB000DA81002F00F0F88094F93700002817DBD5
:109BC000012106F02BFE012194F9370006F068FE12
:109BD000012003F0D5FE002194F9370006F060FE65
:109BE0000A2003F0CDFE012194F9370006F058FE5B
:109BF000A06A002840F0D880606A28B104F16403AC
:109C000093E8060007F0D0F8626C616D136823EAF0
:109C10000103136079492046FEF7FEFFA17A01395E
:109C2000C9B22046FFF7C0FE75492046FEF7F4FF93
:109C300094F93130012B14BF142110212046FFF775
:109C4000B3FE70492046FEF7E7FFA3686E4A8F21F6
:109C5000934284F8601008D002F50012934200F09D
:109C600090816A4A934200F09A810225DA212046C7
:109C7000FFF79AFE29462046FFF796FE81212046EF
:109C8000FFF792FE94F860102046FFF78DFED92171
:109C90002046FFF789FE94F93130012B204614BF8E
:109CA000F1212221FFF780FEA06A002800F09B80AE
:109CB00094F83010564FFEF773FBA06A036800213A
:109CC0001B689847A36ABE1D01251A6817F8011B77
:109CD0001268184690470135B742ADB268D0A36A02
:109CE0003F2D1846F1D1FEF7C9FB94F83010A06A59
:109CF000FEF756FBA06A036800211B689847012500
:109D0000A36AE2E70120403A52394FF0400C02903A
:109D100002EBD272522001EBD171CDE9000C3D4B28
:109D2000204642F34F0241F34F0108F081FAA06A46
:109D300084F8316000287FF42DAF012194F93500BB
:109D4000354D364E06F06AFD94F93600012106F0D5
:109D500065FD94F93530314A55F8233022641F2BC4
:109D600088BF203B012202FA03F394F936202365D1
:109D700055F82220294B63641F2A88BF203A01230B
:109D8000934063653268606A13433360002800F0D3
:109D90001681B8F1000F40F00C81002F7FF40CAF5A
:109DA000A06A00283FF428AFA16DFEF779FA31E7E9
:109DB000A06AFEF763FBA06A30B1E16DFEF770FAAE
:109DC000012005B0BDE8F083626C616D1368606AC4
:109DD0000B431360002800F0DE8007F033F8012009
:109DE00005B0BDE8F083226C216D1368084D23EAAD
:109DF00001031360AE1D17E040600300846203009E
:109E0000886203008C620300800020006000100064
:109E100090620300805D03004C6303000405005062
:109E200007F016F8B542C6D0606A15F8011B002885
:109E3000F6D1D4E90E23A06C176811F0800F0CBF87
:109E400027EA0000384310601868E76C3843186050
:109E50001868E76C20EA070018601768A06C11F01A
:109E6000400F0CBF27EA0000384310601868E76C09
:109E7000384318601868E76C20EA07001860176814
:109E8000A06C11F0200F0CBF27EA000038431060CF
:109E90001868E76C384318601868E76C20EA070018
:109EA00018601768A06C11F0100F0CBF27EA0000B3
:109EB000384310601868E76C384318601868E76C1E
:109EC00020EA070018601768A06C11F0080F0CBF9B
:109ED00027EA0000384310601868E76C38431860C0
:109EE0001868E76C20EA070018601768A06C11F08A
:109EF000040F0CBF27EA0000384310601868E76CB5
:109F0000384318601868E76C20EA07001860176883
:109F1000A06C11F0020F0CBF27EA0000384310605C
:109F20001868E76C384318601868E76C20EA070087
:109F3000186011F0010FA06C116814BF084321EAEA
:109F4000000010601A68E16C0A431A601A68E16C3C
:109F500022EA01021A6065E76DB284F83050B8F168
:109F6000000F3FF426AEFEF74BF9002F3FF418AF79
:109F700022E6484609F034FBE06200287FF4E4ADB5
:109F80001FE794F93130012B14BFCF239F2384F8AE
:109F9000603012256AE6012005B0BDE8F08394F92F
:109FA0003130012B14BFAF23102384F86030022519
:109FB0005CE606F0A1FE002F3FF4F2AEFCE50121C5
:109FC00094F9330006F02AFC012194F9340006F0DC
:109FD00025FC94F933300F4955F82320A6631F2A36
:109FE00088BF203A0123934094F93420A36455F8A4
:109FF0002220084BE3631F2A88BF203A01239340A5
:10A00000E3640A6822EA03030B60002F3FF4C8AE42
:10A01000D2E500BF04050050B0F90A20D31D48BFA7
:10A0200002F10E03B0F90820C06ADB1002FB03F254
:10A03000002109F01BBB00BFF8B50446806A002868
:10A0400000F08A80A16DFEF72BF9A06A002800F0CD
:10A05000978094F830109F4FFEF7A2F9A06A03682A
:10A0600000211B689847A36A7E1D01251A6817F80E
:10A07000011B1268184690470135B742ADB212D0A5
:10A08000A36A3F2D1846F1D1FEF7F8F994F8301085
:10A09000A06AFEF785F9A06A036800211B6898474B
:10A0A0000125A36AE2E7A06AFEF7E8F9217A0139FF
:10A0B0002046C9B2FFF778FCB4F90A202689D31DDF
:10A0C00048BF02F10E03D4E90A05DB1016FB03F6C4
:10A0D000B6B2002856D094F83010FEF761F9A06AA5
:10A0E000036840211B68771E9847BFB2F6B101375D
:10A0F000A06A2F440126036815F8011B1B689847C6
:10A100000136BD42B6B211D03F2EA06AF3D1FEF7A0
:10A11000B5F994F83010A06AFEF742F9A06A036816
:10A1200040211B6898470126A06AE4E7A06AFEF771
:10A13000A5F9A06A58B9626C616D1368606A0B4337
:10A14000136018B1BDE8F84006F07CBEF8BDE16DC3
:10A15000BDE8F840FEF7A4B8606A002800F0BC80B3
:10A1600004F1640393E8060006F01EFE626C616D64
:10A170001368A06A23EA0103136000287FF469AF23
:10A18000606AAFE0226C216D13680B432E441360AC
:10A19000B542CED0606A15F8011B40B106F058FEFA
:10A1A000B542C6D0606A15F8011B0028F6D1D4E983
:10A1B0000E23A06C176811F0800F0CBF27EA000077
:10A1C000384310601868E76C384318601868E76C0B
:10A1D00020EA070018601768A06C11F0400F0CBF50
:10A1E00027EA0000384310601868E76C38431860AD
:10A1F0001868E76C20EA070018601768A06C11F077
:10A20000200F0CBF27EA0000384310601868E76C85
:10A21000384318601868E76C20EA07001860176870
:10A22000A06C11F0100F0CBF27EA0000384310603B
:10A230001868E76C384318601868E76C20EA070074
:10A2400018601768A06C11F0080F0CBF27EA000017
:10A25000384310601868E76C384318601868E76C7A
:10A2600020EA070018601768A06C11F0040F0CBFFB
:10A2700027EA0000384310601868E76C384318601C
:10A280001868E76C20EA070018601768A06C11F0E6
:10A29000020F0CBF27EA0000384310601868E76C13
:10A2A000384318601868E76C20EA0700186011F05E
:10A2B000010FA06C116814BF084321EA0000106070
:10A2C0001A68E16C0A431A601A68E16C22EA01021A
:10A2D0001A605DE798620300626C616D136823EA9F
:10A2E00001031360226C216D1368514D23EA0103B1
:10A2F00013606E1D05E006F0ABFDB5423FF4D6AE2F
:10A30000606A15F8011B0028F5D1D4E90E23A06C72
:10A31000176811F0800F0CBF27EA00003843106067
:10A320001868E76C384318601868E76C20EA070083
:10A3300018601768A06C11F0400F0CBF27EA0000EE
:10A34000384310601868E76C384318601868E76C89
:10A3500020EA070018601768A06C11F0200F0CBFEE
:10A3600027EA0000384310601868E76C384318602B
:10A370001868E76C20EA070018601768A06C11F0F5
:10A38000100F0CBF27EA0000384310601868E76C14
:10A39000384318601868E76C20EA070018601768EF
:10A3A000A06C11F0080F0CBF27EA000038431060C2
:10A3B0001868E76C384318601868E76C20EA0700F3
:10A3C00018601768A06C11F0040F0CBF27EA00009A
:10A3D000384310601868E76C384318601868E76CF9
:10A3E00020EA070018601768A06C11F0020F0CBF7C
:10A3F00027EA0000384310601868E76C384318609B
:10A400001868E76C20EA0700186011F0010FA06CD3
:10A41000116814BF084321EA000010601A68E16C5B
:10A420000A431A601A68E16C22EA01021A6064E7C2
:10A4300098620300407A704710B444682468034669
:10A44000084611461A4623465DF8044B184700BFDC
:10A4500084B008461146019204B001F02FBF00BF3E
:10A4600070B51368044600681B69C66982B010465F
:10A470000D469847C1B2284601F00CFC2946024619
:10A480003346204602B0BDE87040184730B5D3B21D
:10A4900085B0013B04460D460192062B0AD8DFE841
:10A4A00003F0271D42040909270003684FF0FF311C
:10A4B0009B6A9847637A7BB1AB68B5F9002093F843
:10A4C0002230002B0CBF02214FF48071284605B0CA
:10A4D000BDE8304001F044BC05B030BD827A03686D
:10A4E0003AB98A6892F820201AB91B6A984710BBBB
:10A4F00023685B6A00210122A1726272204698479C
:10A50000AB68B5F9002093F82230002B0CBF022174
:10A510004FF48071284601F023FCA86805B0BDE81F
:10A52000304001F0D5BC036801219B6A9847637AEB
:10A53000002BC1D1D0E70123A3726372BCE700BF37
:10A540002DE9F0411D464368BDF91C20BDF920806E
:10A5500004460E462846996800F02CFC63681B7977
:10A5600003F01503152B074602D03846BDE8F081ED
:10A57000B6F90E10B36801EB410103EB81014B68A2
:10A580009C4208D0284643462246314600F0A6FDAC
:10A590003846BDE8F0814246284600F00FFF3846B5
:10A5A000BDE8F0812DE9F04782B00446BDF92C707A
:10A5B0004068BDF930A08846914681683A46184601
:10A5C0001E4600F0F7FB63681B7903F01503152B9B
:10A5D00005462FD0AF4229DDD8F81CA054453BD00A
:10A5E000202101351FFA85F830460FFA88F502F070
:10A5F00081FCAF421ADDA4EB0A0ABAFA8AFA326881
:10A60000237A4FEA5A1ACDF800A0556A02214A4629
:10A610003046A84723683146DB6A20469847804485
:10A620001FFA88F80FFA88F5AF421EDC284602B000
:10A63000BDE8F087B8F90E10D8F8083001EB4101F9
:10A6400003EB81014B689C4224D05346224641468D
:10A65000304600F043FDBDE7B9F1000FC0D0A37A4A
:10A66000002B14BF3E213A21BBE73168237ACDF895
:10A6700000A04A464D6A30460321A84763683A461F
:10A680001969304600F096FB404405B2284602B0F6
:10A69000BDE8F0875246304600F090FE9AE700BFD2
:10A6A0002DE9F04F85B0684D9DF838A004468846E6
:10A6B0009146667A002E40D161680A7912F0140F33
:10A6C00040D0DFF88CB102963546574617E06368F4
:10A6D000B3F91000A8424FF000034A4641461ADD84
:10A6E0002068066A594886421AD16068406950F865
:10A6F000250006680097F668B047F0B90135236871
:10A700001B685B45E3D020469847A8424FF0000302
:10A710004A464146E4DC029E304605B0BDE8F08F73
:10A7200029B22046B04703680097D3F80CA04A46E8
:10A7300000234146D0470028E0D00126304605B02E
:10A74000BDE8F08FD8F80400A042F7D1002BF5D077
:10A75000D8F808C0BCF90E00DCF808E000EB4007B0
:10A7600052074FEA87074DD4D9F80C308A7B1B6813
:10A77000B3F806B093075AD50BF1FF3B1FFA8BFBDA
:10A780007744D9F808307A685268127902F01402D6
:10A79000002A18BF01380FFA8BF2002A029233F90F
:10A7A0001070CBDDDFF8A8B0039600251BE06368CE
:10A7B000B3F91000B04223DD2368244A1B6A934298
:10A7C0001AD163685B6953F826000268CDF800A0CF
:10A7D000D66800234A464146B04701350028ACD12F
:10A7E000029B9D420CD023681B687E195B4536B2E4
:10A7F000DDD020469847DDE7314620469847E4E71C
:10A80000039E9BE70C3F0EEB0708D8F80440226834
:10A81000D668AE423FF44DAF4A464146204601233A
:10A82000B446CDF838A005B0BDE8F04F60479CF8BD
:10A830001030002BA4D082F00403C3F38003ABEBF1
:10A84000030B1FFA8BFB9BE755A80200D96202009D
:10A85000E56202002DE9F04F90F8098085B09DF87F
:10A8600038A0B8F1000F3CD145680E46297911F0A7
:10A87000140F174604463AD0DFF88CB145461BE06A
:10A880006368B3F91000A8424FF000033A4631461E
:10A8900029DD2068D0F820905948814513D160689F
:10A8A000406950F82500D0F800C0CDF800A0DCF8D1
:10A8B0000C90C847A8B9013523681B685B45DFD0F9
:10A8C00020469847DFE729B22046C8470368CDF8FD
:10A8D00000A0D3F80C903A4600233146C847002820
:10A8E000E9D04FF00108404605B0BDE8F08F706830
:10A8F0008442F8D1002BF6D0D6F808C0BCF90E007F
:10A90000DCF808E000EB400349074FEA830352D428
:10A91000D268A97B1268B2F806B08A075BD50BF142
:10A92000FF3B1FFA8BFB7344BA685B685B681B795B
:10A9300003F01403002B18BF01380FFA8BF3002B20
:10A94000029332F91020CEDD3B46CDF80C805746FD
:10A95000DFF8B4B000259046B1469A461AE0636825
:10A96000B3F91000B04223DD2368254A1B6A9342E5
:10A970001AD163685B6953F8260002680097D668AD
:10A98000002352464946B04701350028A9D1029B11
:10A990009D420DD023681B6808EB05065B4536B267
:10A9A000DDD020469847DDE7314620469847E4E76A
:10A9B000DDF80C8097E70C3B0EEB0301114B486868
:10A9C0000468E4689C4213D1CDF800A00123FFF78E
:10A9D00067FE804687E79CF81020002AA3D081F00C
:10A9E0000402C2F38002ABEB020B1FFA8BFB9AE767
:10A9F0000123A446CDF838A005B0BDE8F04F60476C
:10AA0000D962020055A80200E56202002DE9F04F6C
:10AA1000D0F804E0002587B0044645729EF8040093
:10AA20009DF84060039610F0140C0F46164629D08E
:10AA3000DFF89491DFF8948114E06368B3F91000B3
:10AA4000A84217DD23681B6A434517D163685B6919
:10AA500053F8250002680023D2F804A03946324694
:10AA60000135D04723681B684B45E6D02046984700
:10AA7000A842E7DC002007B0BDE8F08F29B22046ED
:10AA80009847E7E7D1F808A0BAF90E50DAF80810AD
:10AA900005EB4508400799464FEA880869D4F368F2
:10AAA0009EF80E201B689007DB8851D5013B9BB2B6
:10AAB000B9F1000F59D01BB2002B059355DD41446D
:10AAC000B2684B68DFF800915B68DFF800A11B7982
:10AAD00003F01403002B18BF013D4FF0000832F9BA
:10AAE0001530049329E06368B3F91000A8423CDDF7
:10AAF00023681B6A534559D163685B6953F8250085
:10AB000003683246D3F804B039460023D847236897
:10AB10001B6A534546D163685B6953F82500036897
:10AB2000039A0092DD68324600233946A847E0B90F
:10AB3000059B08F10108434517D02368049A1B6858
:10AB400002EB08054B452DB2CDD020469847CDE706
:10AB50009AF810000028ABD082F00402C2F3800201
:10AB60009B1A9BB2B9F1000FA5D1012007B0BDE837
:10AB7000F08FA8F10C0001EB000BDFF854E0DBF8DC
:10AB800004000168D1F804A0F24513D15946CDF86C
:10AB900000C0FFF73BFFD7F808A0D4F804E0DAF8CC
:10ABA00008107CE7294620469847B8E72946204602
:10ABB0009847A5E75946D047D7F808A0D4F804E04D
:10ABC000DAF808106BE700BFE5620200D962020004
:10ABD000D5AB02002DE9F04FD0F804C000250446A3
:10ABE00045729CF8040010F0140A85B00F46164612
:10ABF00028D0DFF88891DFF8888114E06368B3F922
:10AC00001000A84217DD23681B6A434516D163680C
:10AC10005B6953F8250002680023D2F804A0394686
:10AC200032460135D04723681B684B45E6D02046A5
:10AC30009847A842E7DC05B0BDE8F08F29B220466E
:10AC40009847E8E7D1F808E0BEF90E50DEF80810A2
:10AC500005EB4508400799464FEA880864D4F36835
:10AC60009CF80E201B689007DB8852D5013B9BB2F5
:10AC7000B9F1000FDFD01BB2002B0393DBDD4144A1
:10AC8000B2684B68DFF8F4905B68DFF8F4A01B79DA
:10AC900003F01403002B18BF013D4FF0000832F9F8
:10ACA000153002932AE06368B3F91000A842C2DDB0
:10ACB00023681B6A534554D163685B6953F82500C8
:10ACC00003683246D3F804B039460023D8472368D6
:10ACD0001B6A534541D163685B6953F825000368DB
:10ACE00000220092DD68394613463246A847002804
:10ACF000A1D1039B08F1010898459CD02368029AD2
:10AD00001B6802EB08054B452DB2CCD02046984776
:10AD1000CCE79EF810000028AAD082F00402C2F30B
:10AD200080029B1A9BB2A3E7A8F10C0001EB000E76
:10AD3000DFF850C0DEF804000168D1F804B0E34544
:10AD400013D17146CDF800A0FFF760FED7F808E0F8
:10AD5000D4F804C0DEF8081081E729462046984759
:10AD6000BDE7294620469847AAE77146D847D7F855
:10AD700008E0D4F804C0DEF8081070E7E5620200CD
:10AD8000D9620200D5AB0200002070470120704755
:10AD90000020704708B5024902F09AF8002008BD6B
:10ADA000C0620300014B024A1A607047F441002060
:10ADB00089AD02000368DB68184700BF054B064AEF
:10ADC0005A6042F63E5000210122188019725A72D0
:10ADD000704700BFF84100200C630300064B074A90
:10ADE00010B4074C1A600122C3E901421846002141
:10ADF0005DF8044B00F040BF08420020E03900201D
:10AE000004420020704700BF00207047704700BF19
:10AE10002DE9F0418846097808F1010479B1054629
:10AE2000164692B16FEA080705E02B681B68984741
:10AE300014F8011B19B1E319B3422846F5DBA4EB62
:10AE40000800013800B2BDE8F0812B6828461B6875
:10AE5000984714F8011B0029F7D1F0E7704700BFAD
:10AE600000207047704700BF03682DE9F041054698
:10AE70001C6A0E46134617460A460021A047EB6897
:10AE80001B68B3F90430002B0BDD00242021284679
:10AE900002F030F8EB681B68B3F904300134A342C8
:10AEA000F4DC29680C6A3B4632462846A446002159
:10AEB000BDE8F041604700BF10B5064A9DF8084064
:10AEC000036805495B68002C08BF114601229847BA
:10AED000012010BD2C6303002863030070B586B009
:10AEE0009DF82840BDF9301014B9002006B070BD9F
:10AEF0000468084DE46BAC42F7D000260125013A06
:10AF000012B20596CDE902660495CDE90055A04739
:10AF1000EBE700BF65AE02002DE9F0410168144F78
:10AF20004D6A82B0BD4204469DF820C01646984640
:10AF300018D10B6886B10F4A1268B8F1000F05D01E
:10AF40001178204602B0BDE8F041184751782046FC
:10AF500002B0BDE8F04118472021204602B0BDE80C
:10AF6000F04118470421CDF800C0A8472168E0E768
:10AF70005DAE0200DC39002010B50268074B546A50
:10AF80009C4282B002D1002002B010BD0123009388
:10AF90001A461946A047002002B010BD5DAE02005F
:10AFA000F0B587B09DF83040BDF9341014B90020D9
:10AFB00007B0F0BD04680E4FA66BBE4205460AD12D
:10AFC000646A0C4B9C42F2D0002201232846009276
:10AFD0001946A047EBE701240027013A0494CDE984
:10AFE000004412B20597CDE90277B0472C68E7E735
:10AFF00065AE02005DAE020010B5064A9DF808403D
:10B00000036805495B68002C08BF11460122984778
:10B01000012010BD246303002063030000293BD0FE
:10B020002DE9F04799460368002B32DD8846164625
:10B03000074600240BE01DD3022E05D128463146D9
:10B04000C047012822D03B6801349C4221DA7D6848
:10B05000012E55F82450EED12A7CD10704D4B9F141
:10B06000000FF1D09207EFD5284643460121BDE8F5
:10B07000F047184700212846C04738B92B7CD8072D
:10B08000E1D428460121C0470128DCD10120BDE8D8
:10B09000F0870020BDE8F087002070470168002994
:10B0A00009DD4368043B03EB8101002053F8042FC2
:10B0B00099425061FAD1704738B50368002B0BDD17
:10B0C000054600246B6853F8240003689B69984781
:10B0D0002B680134A342F5DC38BD00BF2DE9F04FE9
:10B0E0000568B14E6F6A89B0B742044607911546AC
:10B0F000984640F052816B681F794FEAC80317F0F9
:10B10000100705937FD0A94B06930027A9461A463E
:10B110003DE0D9F80430B3F91000B84240DDD9F869
:10B120000030A34A1B6A93420FFA87FA3BD1D9F841
:10B13000043022685B69D2F824B053F82750B34535
:10B140002B7A3AD1D2F828B09A498B4541D1D2F81E
:10B1500024B0B34550D11368202120469847236876
:10B16000D3F824B0B34540D1E3682A68CDF808800D
:10B170001B6805990B442846B3F904300799CDE9BB
:10B1800000A3234695680022A847069A0137D9F8FC
:10B1900000301B689342BCD048469847B842BEDC9A
:10B1A00009B0BDE8F08F5146484698472268D2F86A
:10B1B00024B00546B3452B7AC4D000220092012169
:10B1C0002046D84722687B49D2F828B02B7A8B4595
:10B1D000BDD00022CDF80480009251462046D847C9
:10B1E0002368D3F824B0B345BED000222B7A009256
:10B1F00001212046D847B7E70022009204212046CB
:10B20000D8472268A7E723684146DB69204698476C
:10B2100022684346D2F8209039463A462046C8472D
:10B22000E368059A1B681344B3F90630002BB7DDB9
:10B23000A9465E4B0693D9F80030069A1B68DFF8E2
:10B2400070B193427AD1D9F80430B3F91000B84202
:10B25000A6DDD9F800301B6A5B457CD1D9F80430F3
:10B260005B6953F827502368534AD3F814A09245DA
:10B2700067D1D3F820A03A46434600212046D04764
:10B28000E3681B68B3F90430002B0DDD4FF0000AB2
:10B290002021204601F02EFEE3681B68B3F904303C
:10B2A0000AF1010A5345F3DC22684346D2F820A094
:10B2B00000213A462046D04722684346D2F820A0D3
:10B2C00000213A462046D04722682B7AD2F824A0A3
:10B2D000B24553D1D2F828A036498A4547D1D2F891
:10B2E00024A0B24552D113682021204698472368F4
:10B2F000D3F824A0B24533D1E3682A68CDF808809A
:10B300001B6805990B442846B3F904300799CDE929
:10B310000073234695680022A847E36805991B68D7
:10B320000B440137B3F906303FB2BB427FF738AF69
:10B33000D9F80030069A1B68934284D04846984753
:10B3400085E7002302932A7A3946CDE90032204668
:10B350004246D047B0E7394648469847054682E717
:10B3600000222B7A009201212046D047C4E7002218
:10B37000CDE9002839462046D047B8E700220092A0
:10B3800001212046D04722682B7AA3E700220092B1
:10B3900004212046D0472268A5E70022012300921D
:10B3A0001946B847A7E600BF5DAE0200E56202009D
:10B3B000D962020019AF020069AE02002DE9F04F18
:10B3C0008C688146E06943681B7993B013F00503EC
:10B3D0008A46079200F08580B4F90E30002B6DD1BB
:10B3E0009846DAF80400D9F80C7043681A799B7B08
:10B3F00002F0100113F002050491394640F08480F8
:10B40000247C002C7ED1530700F18D80079D3B6882
:10B41000D9F8086099F818E036F908B0BAF90020B0
:10B420000994ED0003EB050C0E95BCF9063006EB14
:10B430000805BEF1000F00F08180BCF802502B44DB
:10B440001BB21B1B92FBF3F503FB1523D31A1BB294
:10B4500026F8083099F81020D6070AD49B4508D161
:10B46000D9F81430834200F0CD82079B0994DB00A9
:10B470000E930B680E9A1344B3F904300F93002C0B
:10B4800040F0558203680094DD684A4623465146E1
:10B49000A8470446002800F09480049B002B40F04D
:10B4A0009680D9F800300799DB69484698470A9496
:10B4B000D9F8083033F90830069390E04FEA430892
:10B4C000A26808EB030102EB81025268526812790C
:10B4D000550786D503F1FF380FFA88F84FEA480878
:10B4E0007FE7154602680093D4684A46A0470028C3
:10B4F00040F00682DAF80400C9F81400002013B006
:10B50000BDE8F08F5C0717D4049BABB9079C3B6880
:10B5100003EBC403B3F90640012CD4BF002401247B
:10B5200053077FF573AF99F81020D3079DD4D9F84E
:10B530001430834299D165E2002464E75B44A1188A
:10B540008B4200F370820BF1010189B20BB22B80A8
:10B55000BAF90020BCF9066002EB040E1E4401316A
:10B56000B64589B2F2DACDF814B0B64EDDF838B08F
:10B5700012E04268B2F910C03A685A44ACEB030CCE
:10B58000B2F90620121B9445BE4680F23782013B79
:10B590001BB22B80BAF900209A42F8DB002B00F096
:10B5A000288202681268B242E3D09047D9F8085066
:10B5B000D9F80C7035F9083084464544DAF80400AF
:10B5C000DAE701230A93049B002B00F02582012374
:10B5D0000A939D49484601F07BFC00230693079B94
:10B5E000013310934FF000089B001193C34678E09D
:10B5F000DAF80410BAF900300593091BB1FA81F1A9
:10B6000049090B910999D9F8002018463944301A94
:10B61000B0FA80F00C910499237A4009089000292F
:10B6200000F0AC80556A894A954240F0E580DAF82E
:10B63000083093F83030002B00F09280049B002BF0
:10B6400040F0928099F81030580700F136810F9D34
:10B65000D9F800307E4AD3F82880217A0D919045A0
:10B6600040F01481D3F82480784A904540F01B8143
:10B67000059A1B68964240F0E380764A0D9912685D
:10B68000002900F00E81117848469847D9F800301B
:10B69000D3F824806D4B013D98452DB240F0EE80EB
:10B6A000002D18DD079A2368DAF808100097CDE915
:10B6B000015220469D68089A4B46A84700280ADD9B
:10B6C000049B43B16449654B059A4846964208BFBE
:10B6D000194601F0FDFB059B9E4200F094800BF1A2
:10B6E000010B049B0FFA8BF75BB9D9F80C300E9A5B
:10B6F0001B681344099AB3F906309B1ABB427FF7C3
:10B70000F9AEDAF80400069A0368D6191B684D4AA8
:10B71000934240F0AB804368B3F910309E42BFF6CD
:10B72000EBAE069A036802EB0B011B6A4C4A93428C
:10B7300009B240F0A08043685B6953F821400A9B3E
:10B74000002B7FF455AF1A4623680092DD685146FE
:10B75000134620464A46A84700287FF449AFBEE773
:10B76000049B002B3FF473AF059B9E427FF46FAFA9
:10B770003C49484601F0ACFB0F9D87E7D2F81480A6
:10B780003949BDF93050884540F0AF80D2F820806B
:10B79000079B04992A464846C047D9F80C301B68D5
:10B7A000B3F90430002B0EDDDDF81080202148466F
:10B7B00001F0A0FBD9F80C301B68B3F9043008F194
:10B7C00001084345F2DCD9F80020079BD2F820801D
:10B7D00000212A464846C047D9F800302A460021B1
:10B7E0001D6A079B4846A847D9F80020237A556A66
:10B7F000164A95423FF41BAF0B9A00920121089A1A
:10B800004846A84713E7D9F80C301099B3F9082037
:10B810008A427FF764AF62681279D10702D5D206F7
:10B8200040F1D8805B68119A9B58002B3FF457AFCA
:10B83000D9F80030BDF94010DB69484698474EE71B
:10B84000202121E7E5620200306303005DAE0200C3
:10B8500019AF0200DC390020A85C03002C63030050
:10B86000D96202002463030069AE020098470346D0
:10B87000DAF8040052E79847044660E70B9A237A07
:10B8800000920121089A4846C04709E7079B0193A7
:10B890000B9B0093BDF930100D9B089A4846C0479A
:10B8A000F4E65178F0E60B9B0093089A0B46484665
:10B8B0000421C047D9F80030DAE6069B03F13105D0
:10B8C0005D445B21EDB2484601F014FB3A2D34BFD4
:10B8D00029462D21484601F00DFB5D21484601F027
:10B8E00009FB0F9BDD1E2DB2B2E6049ACDE90132B1
:10B8F000089B0093294613464846079AC0476BE7C2
:10B90000DAF80810D9F80C30C869BAF900400268B2
:10B9100002951B6803EBC503B3F90430CDE900437E
:10B920004B4694680122A047DAF80400E4E5049B42
:10B93000002B7FF44CAED9F800300799DB690A94EC
:10B9400048469847D9F80030694C5D6AA54276D1DF
:10B950005D69684A954268D100221D6A079B1146BD
:10B960004846A847D9F80C301B68B3F90430002BBF
:10B970000CDD00252021484601F0BCFAD9F80C3036
:10B980001B68B3F904300135AB42F3DCD9F8003061
:10B9900000221D6A079B11464846A847D9F8003087
:10B9A0005D6AA54254D1079D1C6A002211462B46B0
:10B9B0004846A0470F9BDAE90101023B1BB24FF05A
:10B9C000FF3402680295CDE900434B46946801229A
:10B9D000A0476DE52246BDF94030DAF80810484628
:10B9E000FFF77CFBD9F80C30119A5B6843F802A092
:10B9F00075E6DDF814B0D9F80C102BE5DDF814B0BD
:10BA0000394627E54B68079D53F82530534529D023
:10BA1000EB000E9309942CE5D9F800300799DB6907
:10BA20004846984744E55B469DE500210123CDE962
:10BA3000001302910523079A4846A847AEE7002263
:10BA40000123009205214846A847D9F800307FE736
:10BA500001230022009205211A464846A847D9F83A
:10BA60000030A0E712F0020231D00023427A1343E3
:10BA700013F0FF030A9335D199F810309D077FF535
:10BA80003DADD9F80C30079A1B680994D2001344D5
:10BA90000E92B3F904300F9324B1049B002B3FF4B2
:10BAA00051AF96E503680094DD684A462346514647
:10BAB000A8470A9030B1049B002B3FF4F8AC099BD7
:10BAC0000A9386E5049B83B1099B069387E5036887
:10BAD0000092DD684A4601235146A8470346DAF83A
