:020000022000DC
:1060000000000120490F0300890F03008B0F0300DC
:106010008D0F03008F0F0300910F0300000000009D
:10602000000000000000000000000000C50E03009A
:10603000950F030000000000E50E0300990F030018
:106040009B0F03009B0F030029E902007D900200D3
:106050009B0F03009B0F03009B0F03009B0F03008C
:106060009B0F03009B0F03009B0F03009B0F03007C
:106070009B0F03009B0F03009B0F03009B0F03006C
:106080009B0F0300510C03007DDE02009B0F0300F9
:106090009B0F03009B0F03009B0F03009B0F03004C
:1060A0009B0F03009B0F03009B0F03009B0F03003C
:1060B0009B0F03009B0F0300000000000000000086
:1060C0009B0F03009B0F03009B0F03009B0F03001C
:1060D0009B0F03009B0F03009B0F030000000000B9
:1060E00000000000000000000000000000000000B0
:1060F00000000000000000000000000000000000A0
:10610000000000000000000000000000000000008F
:10611000000000000000000000000000000000007F
:10612000000000000000000000000000000000006F
:10613000000000000000000000000000000000005F
:10614000000000000000000000000000000000004F
:10615000000000000000000000000000000000003F
:10616000000000000000000000000000000000002F
:10617000000000000000000000000000000000001F
:10618000000000000000000000000000000000000F
:1061900000000000000000000000000000000000FF
:1061A00000000000000000000000000000000000EF
:1061B00000000000000000000000000000000000DF
:1061C00000000000000000000000000000000000CF
:1061D00000000000000000000000000000000000BF
:1061E00000000000000000000000000000000000AF
:1061F000000000000000000000000000000000009F
:10620000F1EE103A43F08073E1EE103A704700BFB0
:1062100010B5054C237833B9044B13B10448AFF3E0
:1062200000800123237010BD083F00200000000003
:106230003083030008B5034B1BB103490348AFF398
:10624000008008BD000000000C3F002030830300E8
:10625000154B002B08BF134B9D46A3F5803A002138
:106260008B460F461348144A121A0EF005FC0F4BCA
:10627000002B00D098470E4B002B00D098470020F1
:10628000002104000D000D48002802D00C48AFF397
:1062900000800EF087FB200029000AF0A3FE0EF01C
:1062A0006DFB00BF0000080000000120000000009E
:1062B00000000000083F00200C51002000000000FA
:1062C0000000000000207047002070470023437248
:1062D000704700BF0020704743685B6953F8210096
:1062E000704700BF4368B3F910007047807C704767
:1062F000837CD9071CD413F0060F0ED11A0722D4C1
:10630000DB062BD5174AD0F81230126803F0EF03E2
:106310005268C0F81230507A7047124AD0F81230E2
:10632000126803F0F9035268C0F81230D078704751
:106330000C4AD0F81230126803F0FE035268C0F81D
:10634000123050797047074AD0F81230126803F0C3
:10635000F7035268C0F81230D07970474FF0FF3021
:10636000704700BFD03C0020704700BF002070473E
:10637000406A03681B68184730B4012BD0E9094014
:106380009DF8085001EB810106D00A4430F8123024
:10639000E382A38230BC70472A44114400EB4101E0
:1063A0008B88E382A38230BC704700BF2DE9F047A1
:1063B000C4689DF8248024689DF820E034F83250A9
:1063C00004EBC20207469488406AB2F902A0B7F80B
:1063D0001A90B7F91C60D7F828C007680AEB0102C9
:1063E0002C4412FB06F215FB09F514FB09F4B8F175
:1063F000010F29B2FF6B9DF8285012B224B203EBB3
:10640000830309D09E443CF81E30BC46CDE90863A6
:106410002346BDE8F0476047AE449E440CEB4E0C6B
:10642000BCF80430BC46CDE908632346BDE8F0471C
:10643000604700BF2DE9F043C568BDF920602F68B3
:10644000BDF91C5037F931E0044607EBC107406A3B
:10645000B4F81A80B4F81C90D4F828C004680EEB85
:106460000201B7F902209DF82CE0A76C9DF82440AA
:106470001A4411FB08F115FB08F312FB09F216FB95
:1064800009F6BEF1010F12B236B209B21BB29DF885
:1064900028509DF8308004EB840408D02C443CF84C
:1064A0001440BC46CDE90764BDE8F043604745446D
:1064B00025440CEB450CBCF80440BC46CDE9076410
:1064C000BDE8F043604700BF2DE9F043C568BDF962
:1064D00020602F68BDF91C5037F931E0044607EB06
:1064E000C107406AB4F81A80B4F81C90D4F828C0E8
:1064F00004680EEB0201B7F902209DF82CE0E76B6F
:106500009DF824401A4411FB08F115FB08F312FB17
:1065100009F216FB09F6BEF1010F12B236B209B24A
:106520001BB29DF828509DF8308004EB840408D0FD
:106530002C443CF81440BC46CDE90764BDE8F04368
:106540006047454425440CEB450CBCF80440BC4670
:10655000CDE90764BDE8F043604700BFF0B5C2680D
:10656000836A1568B3F804C00E4683B0044635F854
:106570003110406AB4F81CE0076805EBC605AB882B
:106580006A88CDF804C0ED88B4F81AC015FB0EF582
:106590002DB2009512FB0EF213FB0CF311FB0CF164
:1065A000FD6B12B21BB209B2A847E3685B68002218
:1065B00043F8262003B0F0BDF0B4C568078C2D6801
:1065C000848B05EBC30635F93350B6F90260438B73
:1065D000406A3244294414FB027413FB01F34482E1
:1065E0000382F0BC704700BFF0B4C468BDF914501A
:1065F0002768836A466A07EBC50403EB4202B4F9D5
:10660000024037F83550BB88B2F82CC0B0F91C7086
:10661000408B21443468CDF814C00497A46C11FB5E
:1066200007F213FB00F315FB00F1A446304612B24B
:106630001BB209B2F0BC6047024A13680133136011
:10664000704700BF1042002090ED000B704700BF64
:1066500008B500680DF0E2FD41EC100B08BD00BF6D
:1066600000207047436918680368DB68184700BF5B
:10667000436910B5044618680368DB68984758B941
:106680004FF0FF30074B1A6882421ABF4FF0FF32BB
:106690001A604FF0FF3010BD6369186803681B690A
:1066A0009847EFE7043600204369186803689B6940
:1066B000184700BF43685B6900221B684272C360D1
:1066C000704700BF437A63B94368D0ED037A5B69D2
:1066D00093ED007AB4EE677AF1EE10FA14BF01235D
:1066E00000231846704700BF4368D3ED097AF5EEE2
:1066F000407AF1EE10FA14BF01200020704700BF6D
:1067000043685A69D3ED067A92ED007AB4EEE77ADF
:10671000F1EE10FA08D4D3ED077AF4EEC77AF1EE71
:1067200010FA88BFF0EE477AC2ED007A704700BFDA
:10673000234B1B681B7A10B403B14942827A436829
:10674000DAB1D3ED097A5A690124002992ED007A71
:1067500044721CDDD3ED076A36EEC76AB4EEE76A11
:10676000F1EE10FA0CD5997BC80701D5D3ED066A76
:10677000C2ED006A5DF8044B7047D3ED087AE2E79A
:1067800077EE877A5DF8044BC2ED007A7047D3ED5F
:10679000066A37EE666AB4EEE76AF1EE10FA07D5DC
:1067A000997BC90748BFD3ED076AC2ED006AE1E7EC
:1067B00077EE677A5DF8044BC2ED007A704700BF50
:1067C000D03C002043685B6900221B684272C360B2
:1067D000704700BF437A33B94368C0685B691B6880
:1067E0001B1A18BF01231846704700BF4368586A38
:1067F000003018BF012070474268D2E905130868CD
:10680000984203D3D369834228BF03460B60704785
:10681000174B1B681B7A70B403B14942827A4368F4
:106820008AB15A6A5C69012600292568467210DD22
:10683000D969481B904208D29A7BD00700D5996944
:10684000216070BC70471A6AECE72A44226070BC71
:1068500070479969681A904205D29A7BD20748BF5F
:10686000D9692160EDE7AA1A226070BC704700BFA9
:10687000D03C002043685B6900224272D3E90023C8
:10688000C0E90423704700BF416810B5002200230F
:10689000D1E90C010DF094FF20B14FF0000404F099
:1068A000010010BD4FF0010404F0010010BD00BF55
:1068B0002DE9F84346687769D6E90645D7E90089A6
:1068C00022462B46404649460DF084FF40B9D6E9A2
:1068D000084542464B46204629460DF085FF18B133
:1068E000C7E90045BDE8F88344464D46C7E9004581
:1068F000BDE8F8832DE9F84F2A4B1B681B7A03B1DA
:106900004942837AD0F804A003B3DAE90C67DAF8D5
:1069100014B001230029DBE90045437223DDDAE9E5
:10692000088922462B46404649460DF029FB32464F
:106930003B460DF04FFF60B19AF80E30DA0701D5F3
:10694000DAE90689CBE90089BDE8F88FDAE90A6758
:10695000DDE722462B46304639460DF013FBCBE9E6
:106960000001BDE8F88FDAE90689204642464B4629
:1069700029460DF005FB32463B460DF02BFF30B1AA
:106980009AF80E30DB07DDD5DAE90889DAE7324616
:106990003B46204629460DF0F3FACBE90001BDE85D
:1069A000F88F00BFD03C0020436800225B69427230
:1069B0001B78C372704700BF437A33B94368C07A0B
:1069C0005B691B781B1A18BF01231846704700BF6C
:1069D0004368D87E003018BF012070474268516973
:1069E000137E0878984203D3537E834228BF034620
:1069F0000B707047194B1B681B7A30B403B14942C6
:106A0000827A43688AB101250029DC7E5A69457281
:106A100011DD587E1178451AA54217DA997BCC070B
:106A200000D5187E107030BC7047012500299C7E6F
:106A30005A694572EDDC1178187E0D1AA54209DA03
:106A4000997BC90748BF587E1070ECE70C4414705E
:106A500030BC70470C1B147030BC7047D03C002019
:106A600043685B6900221B8842728381704700BFC4
:106A7000437A33B9436880895B691B881B1A18BF46
:106A800001231846704700BF4368D88B003018BFF9
:106A90000120704742685169138B0888984203D3DC
:106AA000538B834228BF03460B807047174B1B68EC
:106AB0001B7A70B403B14942827A43688AB1DA8B97
:106AC0005C69012600292588467210DD598B481B18
:106AD000904208DA9A7BD00700D5198B218070BCD0
:106AE00070479A8BECE72A44228070BC7047198B60
:106AF000681A904205DA9A7BD20748BF598B2180E9
:106B0000EDE7AA1A228070BC704700BFD03C00207D
:106B1000054A08B5137883F0010319461120137054
:106B20000BF088F8012008BDA442002008B50B46F0
:106B30000A22C168184607F0B3FA00B208BD00BFC8
:106B400010B5074C04F1180007F098FF04F10C0091
:106B500007F094FF2046BDE8104007F08FBF00BF4C
:106B6000C43F002038B5054CA4F1480520460C3C34
:106B700007F084FFAC42F9D138BD00BFB83F002018
:106B800070B505460C4605F047F96B69186803684F
:106B90002146DB69BDE87040184700BF70B50D4A5B
:106BA0000D49107884B01C46BDF924601B6800EBC9
:106BB000400001EB800101A8DD6807F037FF324695
:106BC00001992046A847044601A807F057FF204630
:106BD00004B070BD064200207C3F002010B5C068A4
:106BE0000C460DF02DFB41EC100B2046022107F066
:106BF00085FA00B210BD00BF08B50B4690ED040B3E
:106C00000221184607F07AFA00B208BDF0B52DED62
:106C1000028B136883B005465B6910460E46144626
:106C20009847C1B22D2928D0324B18680EF08AFC43
:106C3000002848D0237C8BB3B7EE008A204601227F
:106C4000002107F041FBD5E9003220EE080A526925
:106C5000DB6982ED000A02204FF6FF718DF8040017
:106C6000ADF806100120019AA8723146284603B0FB
:106C7000BDEC028BBDE8F0401847236820461B6935
:106C8000984723681B4A5B69176820469847014666
:106C900038460EF057FC50B3237C8BB907212B6884
:106CA0008DF804104FF6FF72ADF80620019ADB69EB
:106CB0003146284603B0BDEC028BBDE8F0401847D2
:106CC000BFEE008ABAE723682A681B69D7692046A5
:106CD0009847C1B2304605F0C1FF314602463B46F7
:106CE000284603B0BDEC028BBDE8F04018470421F4
:106CF000D5E700BFCC3C0020F0B52DED028B13682A
:106D000083B005465B6910460E4614469847C1B2EB
:106D10002D292BD0334B18680EF014FC00284BD0D3
:106D2000237C002B33D0B7EE008A204601220021BD
:106D300007F0CAFAD5E9003220EE080A02215269AA
:106D40008DF80410BCEEC00A4FF6FF71ADF80610C6
:106D5000DB6982ED000A0120019AA87231462846BB
:106D600003B0BDEC028BBDE8F04018472368204615
:106D70001B69984723681B4A5B6917682046984738
:106D8000014638460EF0DEFB50B3237C8BB9072159
:106D90002B688DF804104FF6FF72ADF80620019AAB
:106DA000DB693146284603B0BDEC028BBDE8F040FC
:106DB0001847BFEE008AB8E723682A681B69D769BD
:106DC00020469847C1B2304605F048FF314602469A
:106DD0003B46284603B0BDEC028BBDE8F0401847A7
:106DE0000421D5E7CC3C0020F0B52DED028B1368D3
:106DF00083B005465B6910460E4614469847C1B2FB
:106E00002D292DD0344B18680EF09CFB00284DD056
:106E1000237C002B35D0B7EE008A204601220021CA
:106E200007F052FA60EE087A6B6817EE900A5C6918
:106E30000DF006FA02238DF804304FF6FF73ADF81B
:106E400006302B68019ADB69C4E900010120A872B1
:106E50003146284603B0BDEC028BBDE8F040184730
:106E6000236820461B69984723681B4A5B6917689B
:106E700020469847014638460EF064FB50B3237C09
:106E80008BB907212B688DF804104FF6FF72ADF80F
:106E90000620019ADB693146284603B0BDEC028B1F
:106EA000BDE8F0401847BFEE008AB6E723682A68BD
:106EB0001B69D76920469847C1B2304605F0CEFE1F
:106EC000314602463B46284603B0BDEC028BBDE886
:106ED000F04018470421D5E7CC3C0020F0B52DED5B
:106EE000028B136883B005465B6910460E46144654
:106EF0009847C1B22D292CD0344B18680EF022FBD4
:106F000000284CD0237C002B34D0B7EE008A2046DA
:106F10000122002107F0D8F920EE080A6B68FCEE88
:106F2000C07A596917EE903A02220B708DF804204E
:106F30002B684FF6FF72ADF806200120DB69019A3D
:106F4000A8723146284603B0BDEC028BBDE8F04084
:106F50001847236820461B69984723681B4A5B69CA
:106F6000176820469847014638460EF0EBFA50B3B2
:106F7000237C8BB907212B688DF804104FF6FF7224
:106F8000ADF80620019ADB693146284603B0BDEC16
:106F9000028BBDE8F0401847BFEE008AB7E72368D0
:106FA0002A681B69D76920469847C1B2304605F068
:106FB00055FE314602463B46284603B0BDEC028BE7
:106FC000BDE8F04018470421D5E700BFCC3C0020C5
:106FD000F0B52DED028B136883B005465B69104652
:106FE0000E4614469847C1B22D292CD0344B186850
:106FF0000EF0A8FA00284CD0237C002B34D0B7EE3A
:10700000008A20460122002107F05EF920EE080ADE
:10701000D5E90032BCEEC00A022152698DF8041095
:1070200010EE104A4FF6FF71ADF80610DB691480C0
:107030000120019AA8723146284603B0BDEC028BAC
:10704000BDE8F0401847236820461B69984723682D
:107050001B4A5B69176820469847014638460EF080
:1070600071FA50B3237C8BB907212B688DF804107B
:107070004FF6FF72ADF80620019ADB6931462846CB
:1070800003B0BDEC028BBDE8F0401847BFEE008AAC
:10709000B7E723682A681B69D76920469847C1B2B9
:1070A000304605F0DBFD314602463B46284603B03C
:1070B000BDEC028BBDE8F04018470421D5E700BFC6
:1070C000CC3C002070B44668BDF90C507669BDF91F
:1070D000144036680395BDF91050C660CDE90454DC
:1070E00070BC04F07DBA00BFF0B44568BDF9106013
:1070F0006F69BDF914503F68BDF91840C760CDE90C
:1071000004650694F0BC04F06BBA00BFF0B44668A6
:10711000BDF910507669D6E900670495BDF91450A1
:107120000595BDF918500695C0E90467F0BC04F058
:1071300057BA00BFF0B44568BDF910606F69BDF97A
:1071400014503F78C772BDF918400694CDE9046524
:10715000F0BC04F045BA00BFF0B44568BDF910605A
:107160006F69BDF914503F88BDF918408781CDE99A
:1071700004650694F0BC04F033BA00BF08B50B46B2
:107180000A22C17A184606F0EDFE00B208BD00BF23
:1071900008B50B460A228189184606F013FF00B293
:1071A00008BD00BF436910B5044618680368DB6872
:1071B000984730B1636918680368BDE810405B699F
:1071C00018474FF0FF3010BDF0B589B0BDF9385009
:1071D000BDF93C60BDF94070002D17DB1C46104B1B
:1071E00010491B78226803EB430301EB830105A8D8
:1071F000D56807F01BFC324605992046A84704468F
:1072000005A807F03BFC204609B0F0BDCDE90167B9
:10721000009504F0B3F90446204609B0F0BD00BF64
:10722000A4420020C43F0020032914D004290AD01E
:10723000022900D070470C4AD2F8123043F0010303
:10724000C2F812307047084AD2F8123043F00403F3
:10725000C2F812307047044AD2F8123043F00203E9
:10726000C2F81230704700BFA044002038B5447AFD
:107270005CB943685969D0E90423D1E900014FF0B2
:1072800001050DF09DFA10B9ECB2204638BD254637
:10729000FAE700BF0268074952698A4208B504D17B
:1072A000807C003018BF012008BD9047003018BF17
:1072B000012008BDED620200F0B50021044683B054
:1072C000C06805F0BDFCD4E90902036891881B6C15
:1072D00098472368174A1D6A954218D1E268658B62
:1072E0001268A78B51881288268C606A12FB05F2FF
:1072F0005D6A114B028211FB07619D42418210D1F0
:10730000D4E90932D289DA829A8203B0F0BD00232F
:107310001A4619462046A84723685D6A064B9D42D7
:10732000EED000220123204600921946A84703B060
:10733000F0BD00BFB96502007963020000000000E3
:107340002DE9F843B44CB54D23782DED028B2BB1CC
:10735000B34B2A881B889A42C0F0A6800021B1480E
:10736000B14EB24F01F098FFB1480AF035FAB1487A
:10737000B14900220023C6E90023C0E90023AF4E33
:10738000AF4A00230B701320012123702B803B6038
:10739000336013600AF04EFCAA49AB4806F0C4FE05
:1073A000AA4D2C4605F1280604200AF035FB44F8C6
:1073B000040BB442F8D1D5ED017A95ED066AD5ED0E
:1073C000076A95ED087A9FEDA24AA24CB8EEE75AFB
:1073D000D5ED007AF8EEE74AD5ED027A35EE245A7B
:1073E000F8EEE75AD5ED037A75EE855AF8EEE74ADE
:1073F000D5ED047A74EEA54AB8EEE75AD5ED055AF4
:10740000D5ED097A35EE245AF8EEE55AB8EEC66A9B
:1074100075EE855AF8EEE66A36EE256AB8EEC77A5A
:1074200076EE866AF8EEE77A37EE267AB7EE008ACD
:1074300077EE877A84EE270A30EE480A88EE000A53
:107440000CF0D6FCDFED847A60EE277A17EE900A16
:107450000CF0F6FE6CA3D3E900230CF093FD0DF0C5
:1074600029FA07EE900AC8EE277A17EE900A0CF078
:10747000E7FE67A3D3E900230CF082FD0DF01AFAB2
:107480000CF0DEFEC4E90001744806F063FB744BA7
:10749000D3E900010DF0EEF9BDEC028B0146BDE829
:1074A000F84310200AF0FAB90C215E486D4F5E4C8B
:1074B000614E01F049FF01215A4801F0EDFE388884
:1074C0000CF09CFEC4E9000167495F4806F034FDFA
:1074D000347814BB654A664B584D12881B683A8055
:1074E0002A68524993420B6026D262495648544F4B
:1074F00006F01AFE214613200AF09CFB4C480AF0C5
:107500006BF9337850482C600133DBB219460A22FC
:1075100033703C6006F020FE42E7012C45D0022C7F
:107520001ED0032C62D0042C00F0C8802B880022CF
:1075300001332B80327033E74F4B504A1888118843
:1075400000F048F9014613200AF074FB29683E4810
:107550000A2206F0A5FD4A493B4806F0E5FD1FE773
:10756000434B324A354C9B684049136022688988F6
:107570003980934280F08E8042493348304D06F086
:10758000D3FD002113200AF055FB29480AF024F905
:1075900033782D480133DBB2194633700A220023B9
:1075A0002B60236006F0D8FDFAE6314B1F4A234CCE
:1075B0005B682E491360226849883980934201D262
:1075C0003149DAE72C4B2D4A1888118800F002F96E
:1075D000014613200AF02EFB21681B480A2206F000
:1075E0005FFD2A49184806F09FFDD9E6204B0F4A57
:1075F000124CDB681D4913602268C98839809342A8
:1076000080F09F802249B8E783DBB5DCE1796B3FEE
:107610006666666666127140A4420020044200203D
:10762000843C0020BC410020683F00201442002020
:10763000F44400201842002006420020104200209E
:107640009C4400204C6F0300F8450020B444002007
:1076500000D81F46503F00202CBB8439B842002080
:10766000583F0020863C0020986E0300A83C002074
:10767000B83C0020A86E0300B43C0020B23C0020BF
:10768000B86E0300F06E0300CC6E0300DC6E0300E6
:107690000C6F03003F4B404A1888118800F09AF89D
:1076A000014613200AF0C6FA21683C480A2206F077
:1076B000F7FC3B49394806F037FD71E6394A3A4B49
:1076C0003A4C12891B693A802268394993420B600F
:1076D0004BD238493148384F06F026FD002113209F
:1076E0000AF0A8FA35480AF077F8354A35480023F9
:1076F0001360236002F006FA0321324801F0C8FD4E
:107700000CF07CFD304BC3E90001D7E900230CF0FD
:1077100039FC80462888013089460CF07FFD0246FE
:107720000B46404649460CF00DFF33780133DBB27F
:10773000C7E900010A2219461848337006F00CFD0B
:107740002EE6144B144A1888118800F043F80146BD
:1077500013200AF06FFA216810480A2206F0A0FCF4
:107760001A490E4806F0E0FC1AE60A4B0A4A188845
:10777000118800F02FF8014613200AF05BFA216807
:1077800006480A2206F08CFC1149044806F0CCFC9D
:1077900006E600BFB43C0020B23C0020F8450020C3
:1077A000FC6E0300A83C0020B83C002010420020E2
:1077B00014420020306F030018420020F4440020DF
:1077C0009C440020BC410020483F00201C6F030067
:1077D0003C6F030038B505460C4607F059F92919E6
:1077E000B0FBF1F303FB1100A8422CBF00200120E5
:1077F00038BD00BF000000002DE9F04F2DED028BD9
:10780000DFF87883CA4E83B0D8E900010DF00AF89A
:107810000023642219460092FF2207F0D3F8C54BDB
:107820001870FFF78DFDC44B5B685A69D2E90054AC
:10783000D2E9020101236B726372437210694B72C9
:10784000D2E9051206F12804437237464B723546D9
:10785000537204200AF0E0F845F8040BAC42F8D16A
:10786000D7ED007A9FEDB56ADFF814A3DFF8149323
:107870009FEDB38AB8EEE77AD7ED017AF8EEE76AC2
:10788000D7ED027A37EE267AF8EEE77AD7ED036A7B
:1078900077EE877AF8EEE66A97ED047A76EEA76AD5
:1078A000B8EEC77AD7ED057A77EE266AB8EEE77AB2
:1078B000D7ED067A37EE267AF8EEE77AD7ED076A43
:1078C00077EE877AF8EEE66A97ED087A76EEA76AA1
:1078D000B8EEC77AD7ED097A37EE267AF8EEE77A6E
:1078E000F7EE008A77EE877A142486EE270A30EEC8
:1078F000680A88EE800A0CF07BFADFED927A60EE7F
:10790000277A17EE900A0CF09BFC85A3D3E900239D
:107910000CF038FB0CF0CEFF07EE900AC8EEA77A09
:1079200017EE900A0CF08CFC7FA3D3E900230CF037
:1079300027FB0CF0BFFF07EE900AFCEEE77A17EE8C
:10794000900AAAF8000007F0A3F8C9F80000022086
:107950000AF032F80C200AF029F81F200AF05CF82F
:1079600007EE900A601EF8EE677A10F0FF0438EE1A
:10797000278AF2D12046744C0AF01EF80A200AF039
:1079800015F8DFED727A2168D9F80030704A28EED8
:10799000278A5B1A4A2B82ED008A00F27C816D4BAC
:1079A0001B78002B40F0F280DFF8DC916A4C00225B
:1079B0000023C9E90023C4E90023D8E900010CF041
:1079C00031FF0023642219460092FF2206F0FAFFDD
:1079D0000CF024FCD4E900AB604A614BC2E9000121
:1079E000C3E900AB04200AF017F846F8040BAE42D6
:1079F000F8D197ED007AD7ED017AD7ED026ADFED85
:107A00004F5A584E584DB8EEC77AF8EEE77AB8EEAE
:107A1000E66A77EE877A97ED037A36EE276AF8EE14
:107A2000C76AD7ED047A36EE866AF8EEE76AD7EDD4
:107A3000057A76EE866AB8EEE77AD7ED067A37EE03
:107A4000267AB8EEE76AD7ED077A36EE076AF8EEDF
:107A5000E76A97ED087AD7ED097A444F76EE866AA1
:107A6000B8EEC77AF8EEE77A37EE267AB7EE008AF4
:107A700077EE877A85EEA70A30EE480A88EE000A8C
:107A80000CF0B6F9DFED2F7A60EE277A17EE900A48
:107A90000CF0D6FB22A3D3E900230CF073FA0CF010
:107AA00009FF07EE900AC8EE277A17EE900A0CF04D
:107AB000C7FB1DA3D3E900230CF062FA0CF0FAFE19
:107AC00007EE900AFDEEE77AD9E90023C7ED007AC8
:107AD000D4E900010CF054FAC6E90001244801F091
:107AE00049F8244805F064FF6968284605F066F9FE
:107AF0002B685B682846196805F036FD20B903B08D
:107B0000BDEC028BBDE8F08F284605F0A3F91A48BA
:107B100003B0BDEC028BBDE8F04F03F0ABBA00BF81
:107B200083DBB5DCE1796B3F6666666666127140A1
:107B3000B4440020603F00208C44002000D81F4641
:107B4000000000002CBB8439984400203580573851
:107B5000E4410020A4420020683F002000450020AE
:107B60000845002018450020304300201045002023
:107B700078440020E841002020420020583F0020A7
:107B8000084200200C420020503F0020504C0420AE
:107B900009F042FF44F8040BA542F8D1D7ED007A72
:107BA0009FED4C6ADFF848914B4CB8EEE77AD7ED81
:107BB000017AF8EEE76AD7ED027A37EE267AF8EE28
:107BC000E77AD7ED036A77EE877AF8EEE66A97ED03
:107BD000047A76EEA76AB8EEC77AD7ED057A77EE23
:107BE000266AB8EEE77AD7ED067A37EE267AF8EE0F
:107BF000E77AD7ED076A77EE877AF8EEE66A97EDCF
:107C0000087A76EEA76AB8EEC77AD7ED097A37EE2A
:107C1000267AF8EEE77AB7EE008A77EE877A86EE74
:107C2000270A30EE480A88EE000A0CF0E1F8DFED92
:107C30002B7A60EE277A17EE900A0CF001FB20A356
:107C4000D3E900230CF09EF90CF034FE07EE900A05
:107C5000C8EE277A17EE900A0CF0F2FA1AA3D3E9CD
:107C600000230CF08DF90CF025FE0CF0E9FA1C4B0A
:107C7000C9E9000118880CF0C1FAC4E900011948EB
:107C800005F068FFD8E900010CF0F4FD0146102072
:107C900009F004FE91E6144806F0DCF840B2002832
:107CA00009D0124AD2F81230CCBF43F0080343F097
:107CB0001003C2F81230D9F8003023606FE600BF1D
:107CC00083DBB5DCE1796B3F666666666612714000
:107CD000B444002000D81F46683F00202CBB8439E4
:107CE000863C0020B8420020EC450020A044002043
:107CF000503F00202DE9F04FDD4CDE4DDFF830B471
:107D0000DFF83094DC4FDFF83084DFF830A485B042
:107D1000204601F05DFA2046D84AD949D94C0CF0EA
:107D200061F8002301221B21D74805F02DFDD7481B
:107D3000DFF80CC4DFF80CE4CCF800E095ED002B84
:107D400094ED001B0025012490ED000B4FF47A7692
:107D50001F20CF4B0095CF4A8CF81100CCF804506F
:107D6000CCF808608CF81040CB49CC48CC4E05F0DC
:107D700073FE584600F0A2FDC04ACA4958460CF0AE
:107D800031F8484609F0D8FCBC4AC74948460CF0CF
:107D900029F8C64BC64A02934FF0FF33CDE90032B3
:107DA0008021C44BC448DFF8A093402202F0E2FDDA
:107DB000B24AC249C0480CF015F83846C04906F02E
:107DC0000FFE07F10C00BF4906F00AFE07F118008C
:107DD000BD4906F005FE07F12400BC4906F000FE8F
:107DE00007F13000BA4906F0FBFD07F13C00B94944
:107DF000B94F06F0F5FDA14AB84928460BF0F2FF4D
:107E00004046B74906F0ECFD08F10C00B54906F014
:107E1000E7FD08F11800B449DFF8308306F0E0FD13
:107E2000964AB24928460BF0DDFFB148B149B24A43
:107E30004160B249DFF818E3047244720160B04B4C
:107E4000B04850604FF0030BAF4811601472547289
:107E5000CEF8043083F804B0AC4ADFF8F8C28EF8EC
:107E6000084006238EF80940CEF8002089F8043037
:107E7000DFF8E4E2A64AC0F80490DFF8E092776009
:107E80003B710472A34F44728572C0F800901720B2
:107E900034727472B572376088F804309E4ECCF834
:107EA00004808CF80840DFF8B8828CF809408CF820
:107EB0000A50CCF800701071CEF80420974ACEF822
:107EC00000208EF808408EF80940DFF898C2DFF8ED
:107ED00098E2C8F804603371914E8CF80430CEF803
:107EE00004C088F80840DFF884C288F8094088F8A0
:107EF0000A50C8F80060DFF878828EF808408EF8E3
:107F000009408EF80A50CEF8006088F80400CCF8DA
:107F10000480DFF860E2DFF86082CCF800208EF8A1
:107F200004308CF808408CF80940C8F804E0DFF809
:107F30004CC2DFF84CE288F8084088F8094088F81D
:107F40000A50C8F800708CF80430DFF83882CEF898
:107F500004C0DFF834C28EF808408EF809408EF86D
:107F60000A50CEF8007088F80400DFF820E2CCF860
:107F70000480DFF81C828EF80400C8F804E0CCF816
:107F80000020DFF810E28CF808408CF80940DFF898
:107F900008C2C8F8002088F8084088F809406148FD
:107FA000DFF8F881CEF804C08CF80430DFF8F0C1B7
:107FB0008EF808408EF809408EF80A500371C8F810
:107FC0000400CEF800C05848DFF8D8E188F808402F
:107FD0008EF8043088F8094088F80A50C8F800C0C4
:107FE000C0F804E0DFF8C081DFF8C0E188F80430B1
:107FF000CEF80480DFF8B88104724472857207609D
:108000008EF8084049488EF809408EF80A50CEF89C
:108010000080DFF8A081DFF8A0E1C0F8048088F8D4
:108020000430C0F80090DFF89481DFF89491CEF826
:1080300004908EF808408EF809408EF80A50CEF869
:108040000060DFF880E189F80430C8F80010DFF83C
:10805000789188F8084088F80940C8F804E004726C
:10806000DFF8688144728572DFF864E1B2E000BF36
:10807000BC410020F03A00207C3F00200036002068
:10808000E1910200F83A0020E8410020003B002086
:10809000683F0020583F0020503F0020B842002099
:1080A00080410020D5880200E9160300A086010067
:1080B000801A06002045002020420020CDA90200A1
:1080C0000C6E03001C6E03002C6E03003C6E03005C
:1080D000506E0300606E0300903A0020656B020052
:1080E000706E0300846E030028720300416B02006F
:1080F00018440020E03B0020244400204078030086
:10810000883C0020F03B0020A0410020A46C03002C
:1081100068360020D06C0300F8360020E46B0300C2
:10812000406D0300D03700205840002078400020E8
:1081300078440020F4440020C43F00206444002020
:10814000A0440020106C0300D03A0020B03A002078
:10815000E844002090410020703F0020086D03009B
:10816000E83F002030370020004000203C3F002046
:10817000483600206837002018400020883700204B
:108180002840002008360020243F00202036002010
:10819000303F002038400020A83700204840002011
:1081A000786D0300F8370020183800206840002060
:1081B000B06D030040380020884000209443002028
:1081C00060380020303B0020F8410020A040002013
:1081D00098380020DE48C9F8040080F804B089F817
:1081E000084089F80940C9F80020DA48DFF8CC9344
:1081F0008EF80430C8F804E088F80840DFF8C0E3DF
:1082000088F8094088F80A50C8F80070DFF8B4838D
:108210000371C9F8040089F80840CF4889F809407B
:1082200089F80A50C9F80070DFF89C938EF8043082
:10823000C8F804E088F8084088F8094088F80A502F
:10824000C8F80070DFF884E3DFF884830371C9F8AD
:10825000040089F8084089F8094089F80A50C9F8EB
:1082600000708EF80430DFF86C93C8F804E088F8EA
:10827000084088F8094088F80A50C8F80070B748E4
:10828000DFF85483DFF854E30371C9F8040089F878
:108290000840B34889F8094089F80A50C9F800C075
:1082A0008EF80430DFF83893C8F804E0DFF834E3E0
:1082B00088F8084088F8094088F80A50C8F800C0D3
:1082C0000371C9F8040089F80840C9F800C089F8AA
:1082D000094089F80A50CEF80070DFF80C93A14FDE
:1082E000DFF80883A048C9F800C0C7F800C0DFF86D
:1082F00000C3CEF8048088F804300371C9F8040084
:10830000DFF8F08299488EF808408EF80940CCF8E2
:1083100000208EF80A5089F80840DFF8DCE289F87E
:10832000094089F80A50CCF80400DFF8D0928CF8A4
:1083300008408CF80940DFF8C8C23C727C72BD72FC
:10834000C7F8048088F80430894FDFF8B882CEF887
:108350000010C9E9001C8EF808408EF80940CEF8DC
:10836000047080F804B0834F89F8084089F8094008
:10837000DFF89492DFF894E2C8F8001088F808401B
:1083800088F80940C8F80490DFF884827A48C7F872
:108390000480DFF88082DFF880C2CEF80480DFF846
:1083A0007C8239603C727C72C0F80480734FDFF8C5
:1083B0007082016004724472CCF804807048DFF867
:1083C00064828CF80840CEF800108EF808408EF8D1
:1083D0000940CCF80010DFF850E28CF80940396011
:1083E000DFF848C23C727C72C7F80480654F0260B7
:1083F000C0F804E0047244726348DFF834828EF8F7
:1084000004B08CF80840CCF804008CF809403960BE
:108410005E495F48DFF81C92DFF81CE2CCF80010E0
:108420005C493C727C727960C8F804905A4F88F8B5
:10843000084088F80940C8F8006088F80A50DFF85A
:10844000FC81DFF8FCC189F804308EF80430C0F8F4
:1084500004E0524BDFF8ECE1DFF8EC9104722946BE
:10846000447285720660C7F804C050463C727C7244
:1084700088F8084088F80940C8F80430CAF808406D
:10848000CAE900E98CF804B03A60C8F8002083F823
:1084900004B004F0D5FB424B424E43484349444AA2
:1084A000444FDFF8A8C15962C3F80CA04146986058
:1084B000DFF89C91DFF89CE13F485D604FF00118C8
:1084C0004FF0020A5D611D7683F810A0C3F81A9080
:1084D000C3F81E80C3F800E09862DFF87CE1DFF8A3
:1084E0007CA1DFF87C91DFF87C81147430464FF476
:1084F0007A73C2E90153C2F800A0C2F81490726006
:10850000CCF80040C6F800C0CCF804E0C6F80CB0C7
:1085100034747574C6E9065586F82050C6F8148080
:108520003D80BD813D83BD84B76086F8214086F8DB
:108530002250B484C6E90A5586F8304004F02EFC77
:108540005946304605B0BDE8F04F04F015BC00BFF9
:10855000CC360020B8380020F83800203839002008
:108560008839002030410020B03900203C3C0020F8
:10857000403B0020C4430020DC430020F4430020A3
:10858000B04100200C440020C03B0020846C03005C
:1085900068410020D03B00208C440020083B002094
:1085A0003844002030430020704400202042002046
:1085B0008C420020644300202C710300B040002056
:1085C000D8380020C0400020D040002018390020BA
:1085D000E0400020F04000200041002060390020F1
:1085E000104100204041002020410020003A00209E
:1085F000DC440020D8390020A0430020AC430020F8
:10860000503B0020B8430020603B0020D0430020B6
:10861000703B0020803B0020E8430020903B00207E
:10862000A03B0020B03B00209836002000440020F2
:1086300050410020203A0020583A0020A842002053
:10864000043C002090360020AC4100203044002043
:10865000050009003C6C0300003C0020E86D0300AD
:108660008C360020CDBD02002DE9F0434FF4E131FE
:1086700087B07348734D05F05DFF9FED6D1B9FED57
:108680006E0B714805F01EFB01216F4805F064FB7D
:108690006E4B6F4800243921C3E9004500F02CFCE3
:1086A00000236B4A6B48392100F09CFD6421694826
:1086B00001F02CFA40F2E731664801F03BFA08215C
:1086C000644801F04DFA634800F096FF00216148CC
:1086D00000F0E2FD0121112009F06AFA01211320C6
:1086E00009F066FA5C4B5D491A6813895160C3F35F
:1086F0000E0343F49B7343F00103138102211B20FB
:1087000009F056FA4FF0FF330B221E21544805F0B2
:1087100057FB0121524805F097FB514805F080FBBB
:108720000123009319463C224E4802F013FA4D48AB
:1087300002F090FC642006F0B7F94A4802F09AFC77
:10874000494800F0A5FA502008F08AFC0546044686
:1087500000F150062046103400F08EFAB442F9D1F0
:1087600002AC424B00932046414B424A4249434EA1
:10877000434F00F085FA94E80F00009685E80F005B
:1087800020463B4B3F4A404900F07AFA94E80F00FC
:1087900005F1100686E80F003C4B009320463C4B49
:1087A0003C4A3D4900F06CFA94E80F0005F12006C0
:1087B00086E80F00394B009320462D4B384A394943
:1087C00000F05EFA94E80F0005F1300686E80F002D
:1087D000354B00933A462046254B344900F050FA79
:1087E00094E80F0005F1400484E80F004FF4487648
:1087F00000242A46CDE9004605232D491A4800F0F9
:108800008DF84FF000084FF0000901220092234636
:10881000284A29484FF47A71C7E9008908F094FF83
:10882000254808F0A5FF07B0BDE8F083AFF300804E
:108830000000000000E06F400000000000000000A9
:10884000F845002000003940B8420020683F002071
:1088500020450020BC410020E84100202972020090
:10886000EC45002020420020784400202C720300B8
:1088700049660200004500201C720300407203009C
:10888000483F002008450020347203005072030066
:108890005166020010450020487203006072030018
:1088A00018450020587203007872030068720300B4
:1088B0008072030039660200F444002010B50023E2
:1088C000C0E9033303608360044606F0E1F86060AA
:1088D000204610BD70B5C4682568064655B91BE032
:1088E000184608F0DDFB204608F0CAFB2B6853B1A0
:1088F0002C461D4663692046002BF1D108F0C0FBD1
:108900002B68002BF4D1686908B108F0C9FB284630
:1089100008F0B6FB304670BD2546F4E72DE9F0427D
:10892000044618200D4617461E469DF8189008F07C
:1089300087FB0799E2688660002380F80490C0E90D
:1089400003154761036052B12369186020612368F1
:108950000133236006F09CF86060BDE8F082C4E952
:108960000300F4E72DE9F0410C46054670497148D3
:1089700005F0E2FA64BB6F486F49704F064605F098
:10898000DBFA6F49304605F0D7FA6E49304605F0FC
:10899000D3FAAB6800249C4214DA6B6903EB04132E
:1089A000D3E9020290470821304605F0A7FBAB68E7
:1089B00001349C42EFDA3946304605F0BDFAAB6827
:1089C0009C42EADB60495B48BDE8F04105F0B4BA7F
:1089D00058485949DFF8648106460F4605F0ACFA5D
:1089E0005A49304605F0A8FA5949304605F0A4FA2C
:1089F0003946304605F0A0FA2969304605F09CFA60
:108A00003946304605F098FA5249304605F094FA56
:108A10005149304605F090FA4D49304605F08CFA40
:108A20000A222979304605F0CDFA4A49304605F048
:108A300083FA4A49304605F07FFA4549304605F049
:108A40007BFA0A22E968304605F0BCFA4149304613
:108A500005F072FA4249304605F06EFA3C4930465C
:108A600005F06AFA0A22A968304605F0ABFA3949DE
:108A7000304605F061FA3B49304605F05DFA314970
:108A8000304605F059FAAB6800249C42394630461E
:108A900018DA05F051FA23016A693046D15805F019
:108AA0004BFA3946304605F047FAAB6801349C4230
:108AB000EBDA4146304605F03FFAAB689C42394656
:108AC0003046E6DB1B4828491B4FDFF8708006461E
:108AD00005F032FA2549304605F02EFA194930469C
:108AE00005F02AFAAB6800249C423946304619DA70
:108AF00005F022FA6B6903EB04133046596805F060
:108B00001BFA3946304605F017FAAB6801349C422F
:108B1000EADA4146304605F00FFAAB689C42394626
:108B20003046E5DB1249034805F006FA23E700BFAB
:108B300098720300F84500209C720300BC72030089
:108B4000CC720300B8720300D0720300A07203005D
:108B5000A4720300A8720300AC720300B072030099
:108B6000B4720300386E0300C0720300C4720300C5
:108B7000C87203002DE9F041064633493348B46812
:108B800005F0DAF93249314805F0D6F931492F4874
:108B900005F0D2F905F07CFFB4FA84F501460A220B
:108BA0002A486D0905F07CFA5CB32B49274805F08B
:108BB000C3F92A49254805F0BFF92949234805F09A
:108BC000BBF9F4686CB1DFF8AC80204F2046294631
:108BD000FFF7C8FE24684146384614B105F0ACF9E9
:108BE000F4E72049194805F0A7F91F49174805F08F
:108BF0009BFAB3680133312BC8BF0023B360BDE8D3
:108C0000F0811549114805F097F918490F4805F00A
:108C100093F910490D4805F08FF90A2231680B4885
:108C200005F0D0F90C49094805F086F910490748C4
:108C300005F082F90749054805F07EF90A227168B6
:108C4000024805F02DFAB0E784720300F8450020D1
:108C5000A0720300A4720300A872030090720300C4
:108C6000B8720300D072030094720300887203008C
:108C70008C720300BC7203000022C0E9022270471C
:108C800030B4029D45600160C0E9022330BC7047EA
:108C900010B54FF4E1310446034805F04BFC05F0F4
:108CA000F7FE606010BD00BFF8450020704700BFB0
:108CB000203005F0B5BA00BF203005F0A3BA00BFE0
:108CC000203005F0B3BA00BF38B5437F0BB90020A0
:108CD00038BD00F1680420460D4605F0AFFA0028C3
:108CE000F5D12046294605F07BFA012038BD00BFAA
:108CF0002DE9F0475AB30646DFF8588033681B6801
:108D00004D1E434517464FF0000400F1680915F861
:108D100001AF16D1737F13B92046BDE8F0874846EE
:108D200005F08CFA0028F7D15146484605F058FA6C
:108D30000134A742F0D0336815F801AF1B684345F2
:108D4000E8D05146304698470028F1D1E4E7144670
:108D5000E2E700BFC98C020030B4827E4FF0A0432E
:108D600002F5E07240F20C640121C17643F8224022
:108D7000427E02F5E0724FF0CC7543F82240036961
:108D8000C3F8245503690622C3F800250369827ECF
:108D9000C3F808250369427EC3F80C2590F9183002
:108DA000002B13DA124A03F00F031A4460231376E0
:108DB00090F91830002B07DB0E4903F01F00012249
:108DC0005B09824041F8232030BC70475C09603465
:108DD00003F01F03074A01FA03F342F8243090F925
:108DE0001830002BDEDB1344602283F80023DFE71A
:108DF000FCEC00E000E100E0C37EE3B10E4B026951
:108E000010B499424FF00004C2F8004510D90B4B42
:108E1000994294BF4FF080614FF0C86103695DF8DB
:108E2000044BC3F8241503690622C3F800257047D4
:108E30004FF0CC71F2E77047A086010090D003009C
:108E40000AB9104670472DE9F041054600F12008A7
:108E5000404614461E460F4605F0D0F92B69C3F86C
:108E600088752A69012313622A69C2F834852A6940
:108E7000C2F838452A6913602A6902E0D2F8243121
:108E80001BB9D2F84C110029F8D00023C2F84C319C
:108E90002A6902E0D2F8241119B9D2F85C1100292C
:108EA000F8D00023C2F85C312B696EB9D3F82421C5
:108EB00052B90122DA612A69D2F84831002BFBD07D
:108EC0000023C2F8483109E001225A612A69D2F828
:108ED0000431002BFBD00023C2F804312B69D3F8F6
:108EE00024211AB10022C3F824212B69D3F83C05B0
:108EF0002866C0B2BDE8F08110B50446683084F839
:108F0000B01005F07BF90123637710BDF8B5044676
:108F10000020236994F8B0206077C3F8882523697E
:108F200001271F62236904F16806C3F844653046CF
:108F30000D4605F075F92369C3F8480523699F605C
:108F4000236902E0D3F824211AB9D3F85021002A6A
:108F5000F8D00022C3F85021304605F061F92369AA
:108F600040BB0022C3F86021236915B9D3F824213E
:108F70002AB301225A612269D2F80431002BFBD0B6
:108F80000023C2F804312369D3F8240168B1002218
:108F9000C3F824212369D3F8C404C3F8C404022805
:108FA00003D0042814BF04200320F8BDD3F82421E3
:108FB000002AD6D1D3F86021002AF7D0D1E70122C8
:108FC000DA612269D2F84831002BFBD00023C2F8C5
:108FD0004831D8E770B5036990F8B0200021417797
:108FE000C3F88825036901261E62036900F168053C
:108FF0000446C3F84455284605F012F92369C3F81E
:10900000480523699E60236902E0D3F824211AB938
:10901000D3F85021002AF8D00022C3F85021284666
:1090200005F0FEF8236918BB0022C3F8602123690C
:1090300001225A612269D2F80431002BFBD00021B1
:10904000C2F804112369D3F8240160B1C3F82411D4
:109050002369D3F8C404C3F8C404022803D0042845
:1090600014BF0420032070BDD3F82421002ADBD1D3
:10907000D3F86021002AF7D0D6E700BF70B5294C9D
:109080006369D3F86421002A3AD1D3F86821E2B9A0
:10909000D3F8042162B1227F0021C3F804113AB150
:1090A000D4F8B820D3F83C0520660AB1904763692C
:1090B000D3F8242142B10022C3F82421D3F8D024CC
:1090C000C3F8D02401225A6170BD0022C3F8682180
:1090D000154822770123637705F090F8D4F8B4306F
:1090E00003B1984763691048C3F8440500236377C8
:1090F00005F096F863690122C3F848055A63C7E78B
:10910000002204F12006C3F86421012530462577AA
:1091100005F074F863694022C3F83465C3F8382554
:109120001D63B2E7204500208845002038B50E4C6D
:109130000E4A20464FF47A7340F8202B0025C4E9EC
:10914000015305F043F804F1680005F03FF8084AC0
:10915000084B6577D2E91912032020766176A27652
:10916000C4E9043338BD00BF20450020DC72030091
:10917000E478030000300040F0B591B001240025F0
:1091800081680194234692220646009504A809F0BE
:1091900073F804A809F0E6F810EA040702D028469C
:1091A00011B0F0BDB1682346CDE900740AA8802251
:1091B00009F062F80AA93B46224602A809F076F9AE
:1091C000214602A809F0E8F9204611B0F0BD00BF21
:1091D000024A02600022027182607047007303003D
:1091E000704700BF2DE9F0410446806890B00E46FC
:1091F0001746984608B107F043FF102007F020FFFC
:109200003A460546314609F0B1FAA56028460121E3
:1092100009F0B6FA054618B9284610B0BDE8F08145
:1092200023681A4A1B6893422AD101260027A168A5
:1092300001963346922204A8009709F01DF804A86D
:1092400009F090F810EA060804D03D46284610B010
:10925000BDE8F081A1683346CDE900860AA88022E6
:1092600009F00AF80AA94346324602A809F01EF995
:10927000314602A809F090F9284610B0BDE8F08107
:109280004146204698470546C6E700BF799102004F
:1092900000EB410188897047F0B583689BB00124D9
:1092A000002605460F467022194608A82346019459
:1092B000009608F0E1FF08A92246032302A809F05E
:1092C000F5F8A96823467422CDE900640EA808F0D9
:1092D000D3FF0EA92246072304A809F0E7F8A968DE
:1092E0002346A922CDE9006414A808F0C5FF224650
:1092F00014A9042306A809F0D9F8214606A809F004
:109300004BF9394602A809F047F9B8B90646A968E9
:1093100001240025234601940095A92214A808F0F1
:10932000ABFF224614A9042306A809F0BFF829467A
:1093300006A809F031F930461BB0F0BD394604A843
:1093400009F02AF90646E2E7F0B5B1F5817F93B05E
:1093500042D80125002706460C462B468168019518
:109360000CA80097A92208F087FF2A460CA904231D
:1093700006A809F09BF8294606A809F00DF9B1687E
:109380002B46CDE9007506A8742208F075FF3B4610
:1093900006A9072202A809F089F8042C214638BF43
:1093A00004210439294102A809F0F6F8B1680446FD
:1093B0002B46CDE900750CA8A92208F05DFF2A46CE
:1093C0000CA9042304A809F071F8394604A809F08F
:1093D000E3F8204613B0F0BD0024204613B0F0BDE2
:1093E00070B588B0002401250646816801952B469A
:1093F000224602A8009408F03FFF224602A830212E
:1094000008F04AFFB1682B462A46CDE9004502A87C
:1094100008F032FF2246294602A808F03DFFB16855
:109420002B46CDE9004502A8022208F025FF22467E
:10943000214602A808F030FFB1682B46CDE900456F
:1094400002A8032208F018FF2246214602A808F0CD
:1094500023FFB1682B46CDE9004502A8042208F09D
:109460000BFF2246214602A808F016FFB1682B46E2
:10947000CDE9004502A8052208F0FEFE224602A81A
:10948000422108F009FFB1682B46CDE9004502A84A
:10949000062208F0F1FE2246214602A808F0FCFE52
:1094A000B1682B46CDE9004502A8072208F0E4FE8A
:1094B0002246214602A808F0EFFEB1682B46CDE90E
:1094C000004502A8082208F0D7FE224602A8502133
:1094D00008F0E2FEB1682B46CDE9004502A809225A
:1094E00008F0CAFE2246214602A808F0D5FEB1685F
:1094F0002B46CDE9004502A80A2208F0BDFE22460F
:10950000214602A808F0C8FEB1682B46CDE9004507
:1095100002A80B2208F0B0FE2246214602A808F05D
:10952000BBFEB1682B46CDE9004502A80C2208F02D
:10953000A3FE224602A8202108F0AEFEB1682B4609
:10954000CDE9004502A80D2208F096FE224602A8A9
:10955000042108F0A1FEB1682B46CDE9004502A820
:109560000E2208F089FE2246214602A808F094FE49
:10957000B1682B46CDE9004502A80F2208F07CFE19
:10958000224602A8302108F087FEB1682B46CDE9BB
:10959000004502A8102208F06FFE2246294602A8C4
:1095A00008F07AFEB1682B46CDE9004502A81122E9
:1095B00008F062FE224602A8502108F06DFEB16854
:1095C0002B46CDE9004502A8122208F055FE22469E
:1095D000214602A808F060FEB1682B46CDE900459F
:1095E00002A8132208F048FE224602A8062108F02D
:1095F00053FE08B070BD00BF70B58AB001240026CC
:10960000816880F8246005462346019480220096F4
:1096100004A808F031FE2346224604A902A808F057
:1096200045FF314602A808F0B7FFA9682346CDE9F7
:109630000064AF2204A808F01FFE0323022204A93D
:1096400002A808F033FF022102A808F0A5FF28466F
:10965000FFF7C6FEA9682346CDE90064802204A86E
:1096600008F00AFE224604A9042302A808F01EFFFF
:10967000214602A808F090FF40F2E93405E0013CE1
:109680004FF0010006D005F00FFA02A808F016FF0F
:109690000028F4D101240022A968009223460194F5
:1096A000802204A808F0E8FD2346224604A902A867
:1096B00008F0FCFE214602A808F06EFF204685F85F
:1096C00024400AB070BD00BF70B588B000240125E9
:1096D0000646816801952B46224602A8009408F0B0
:1096E000CBFD2246214602A808F0D6FDB1682B46E4
:1096F0002A46CDE9004502A808F0BEFD22462146D3
:1097000002A808F0C9FDB1682B46CDE9004502A8C2
:10971000022208F0B1FD2246214602A808F0BCFD55
:10972000B1682B46CDE9004502A8032208F0A4FD4C
:10973000224602A8402108F0AFFDB1682B46CDE9D2
:10974000004502A8042208F097FD224602A8022143
:1097500008F0A2FDB1682B46CDE9004502A805221C
:1097600008F08AFD2246214602A808F095FDB1685E
:109770002B46CDE9004502A8062208F07DFD2246D1
:1097800002A8102108F088FDB1682B46CDE90045FC
:1097900002A8072208F070FD224602A8032108F063
:1097A0007BFDB1682B46CDE9004502A8082208F0F0
:1097B00063FD224602A8502108F06EFDB1682B46D9
:1097C000CDE9004502A8092208F056FD224602A86C
:1097D000102108F061FDB1682B46CDE9004502A8D3
:1097E0000A2208F049FD224602A8032108F054FD90
:1097F000B1682B46CDE9004502A80B2208F03CFDDC
:109800002246214602A808F047FDB1682B46CDE963
:10981000004502A80C2208F02FFD2246214602A88E
:1098200008F03AFDB1682B46CDE9004502A80D22AB
:1098300008F022FD2246214602A808F02DFDB1685D
:109840002B46CDE9004502A80E2208F015FD224660
:1098500002A8242108F020FDB1682B46CDE900457F
:1098600002A80F2208F008FD2246214602A808F0AF
:1098700013FDB1682B46CDE9004502A8102208F07F
:10988000FBFC2246214602A808F006FDB1682B46E3
:10989000CDE9004502A8112208F0EEFC224602A8FC
:1098A000502108F0F9FCB1682B46CDE9004502A82B
:1098B000122208F0E1FC2246214602A808F0ECFC46
:1098C000B1682B46CDE9004502A8132208F0D4FC6C
:1098D000224602A8062108F0DFFC08B070BD00BFD8
:1098E0002DE9F041836890B00124002605460194DB
:1098F00080220F460AA819460096234608F0BCFCB1
:10990000234622460AA904A808F0D0FD314604A83F
:1099100008F042FEA9682346CDE90064AF220AA8F8
:1099200008F0AAFC032302220AA904A808F0BEFD3D
:10993000022104A808F030FE2846FFF751FDA9686F
:109940002346CDE9006480220AA808F095FC22464F
:109950000AA9042304A808F0A9FD214604A808F0D8
:109960001BFE40F2E93405E0013C4FF0010006D057
:1099700005F09AF804A808F0A1FD0028F4D101240C
:109980000022A96800922346802201940AA808F0C8
:1099900073FC234622460AA904A808F087FD214645
:1099A00004A808F0F9FD564B43EA040802E04FF41E
:1099B000C850C0470026A96801940123A32200963D
:1099C0000AA808F059FC062301220AA904A808F0F5
:1099D0006DFD04A808F072FD0028E8D0A9680223F4
:1099E000CDE90064952204A808F046FC0C22394613
:1099F00004A808F01FFDA9680123CDE900648022B6
:109A000080460AA808F038FC01231A460AA902A8D1
:109A100008F04CFD314602A808F0BEFDA9680123FC
:109A2000CDE90064AF220AA808F026FC0323022235
:109A30000AA902A808F03AFD022102A808F0ACFD2C
:109A40002846FFF741FEA9680123CDE90064802282
:109A50000AA808F011FC042301220AA902A808F0B0
:109A600025FD02A8012108F097FD40F2E93405E048
:109A7000013C4FF0010006D005F016F802A808F0EE
:109A80001DFD0028F4D101240022A968009223467C
:109A9000802201940AA808F0EFFB194E23462246C3
:109AA0000AA902A808F002FD214602A808F074FDE8
:109AB000264302E04FF4C850B0470023A968009342
:109AC000A322012301940AA808F0D6FB0623012251
:109AD0000AA902A808F0EAFC02A808F0EFFC002896
:109AE000E8D0B8F1000F06D007F10C0104A80C2251
:109AF00008F0A0FC8046404610B0BDE8F08100BFF1
:109B00001073030000F10C01FFF7EABE30B5826864
:109B100089B0012300240D46CDE90043114602A877
:109B2000812208F0A9FB2246294602A808F0B4FBCE
:109B300009B030BD30B5826889B0002401230D46DC
:109B4000CDE900431146022302A8CA2208F094FB83
:109B50002246294602A808F09FFB09B030BD00BF8D
:109B600030B5826889B0012300240D46CDE9004359
:109B7000114602A8AA2208F07FFB2246294602A825
:109B800008F08AFB09B030BD002929DB30B4B0F9F8
:109B90000C408C4222DD002A20DBB0F90E409442BA
:109BA0001CDD847E022C4BD0032C43D0012C18D01A
:109BB000012B2ED01BD3022B10D1002A0489C06A9E
:109BC0001346B8BFD31DDB1013FB041102F00702CC
:109BD000445C012303FA02F26240425430BC7047F5
:109BE00070470489D24314440A4621B2E0E7002AB0
:109BF0000489C06A1346B8BFD31DDB1013FB0411E0
:109C000002F00704435C0122A24023EA020343540A
:109C1000E4E7002A0489C06A1346B8BFD31DDB10ED
:109C200013FB041102F00702445C01239340234319
:109C30004354D3E74489013C641A114622B2B7E782
:109C400004894589D243013C2A44611A12B209B2FF
:109C5000AEE700BFF8B50446806A0D4668B394F8D5
:109C60003010FFF749F9A06A036800211B68984784
:109C7000A36A2F1D01261A6815F8011B12681846E1
:109C800090470136BD42B6B212D0A36A3F2E1846A5
:109C9000F1D1FFF79FF994F83010A06AFFF72CF983
:109CA000A06A036800211B6898470126A36AE2E7BF
:109CB000A06ABDE8F840FFF78DB9226C216D1368EA
:109CC00023EA010313602E1D04E008F08BFAB5426D
:109CD00000F09A80606A15F8011B0028F5D1D4E9DC
:109CE0000E23A06C176811F0800F0CBF27EA00004C
:109CF000384310601868E76C384318601868E76CE0
:109D000020EA070018601768A06C11F0400F0CBF24
:109D100027EA0000384310601868E76C3843186081
:109D20001868E76C20EA070018601768A06C11F04B
:109D3000200F0CBF27EA0000384310601868E76C5A
:109D4000384318601868E76C20EA07001860176845
:109D5000A06C11F0100F0CBF27EA00003843106010
:109D60001868E76C384318601868E76C20EA070049
:109D700018601768A06C11F0080F0CBF27EA0000EC
:109D8000384310601868E76C384318601868E76C4F
:109D900020EA070018601768A06C11F0040F0CBFD0
:109DA00027EA0000384310601868E76C38431860F1
:109DB0001868E76C20EA070018601768A06C11F0BB
:109DC000020F0CBF27EA0000384310601868E76CE8
:109DD000384318601868E76C20EA0700186011F033
:109DE000010FA06C116814BF084321EA0000106045
:109DF0001A68E16C0A431A601A68E16CB54222EAFB
:109E000001021A607FF466AFF8BD00BF2DE9F04192
:109E1000847EBDF81850022C7AD0032C73D0012C0C
:109E200007D0002A03DBB0F90A4094427BDCBDE88E
:109E3000F0810489D243224412B2002AF7DBB0F940
:109E400008609642F3DD0029BEBF5B1800211BB2FB
:109E5000B0F90A700C461C44BC42C4BF7B1A1BB24A
:109E6000002BE4DDC9B2CC08D0F82CC016FB0422CC
:109E700011F00701DBB20CEB020721D0C1F10801A0
:109E8000CCB2C349A342095D80F07681A4EB030EF6
:109E9000FF2646FA0EF6012D01EA060100F0FC81CC
:109EA000C0F00082022DC2D11CF8026071400CF893
:109EB0000210A342BBD3B0F908201B1BDBB217442E
:109EC000072B11D9022D00F0F481002D14BFFF24BF
:109ED00000241A463C70083AB0F90810D2B2072A9A
:109EE0000F44F7D803F00703002BA0D0A94A012D97
:109EF000D35C00F0F581C0F0EE81022D97D13A7865
:109F000053403B7093E744891944611A09B294E7BE
:109F100046890489D2433244194412B2611A002A94
:109F200009B280DA83E70029BEBF5B181BB20021AB
:109F3000B0F908405E18A642C4BF631A1BB2002BDA
:109F40008E467FF774AF002A1646B8BFD61DF110B3
:109F50004FF0010CC76A02F0070214FB01E60CFA8D
:109F600002F26545D2B207EB060100F01581C0F0A0
:109F70008380022D7FF45BAF9BB24C425D1E04F0E8
:109F80000304ADB2E01C85420FFA85FC48D3002CD7
:109F900000F0AA81B85DA3F1020C5040012CB85525
:109FA0000FFA8CFC01F1010813D04878A3F1030CDF
:109FB0005040032C48700FFA8CFC01F1020808D1C4
:109FC0008878A3F1040C5040887001F103080FFA5F
:109FD0008CFC4FF0000E62F3070E181BA11962F300
:109FE0000F2E86B27B1862F3174E62F31F6EB7080E
:109FF0001C1F002054F8041F013085B28EEA0101B5
:10A00000AF4243F8041BF5D826F003039BB2ACEB38
:10A01000030C9E420FFA8CFC08EB03013FF407AFE0
:10A020000B781FFA8CF05340441E0B70A4B2BCF1A5
:10A03000000F3FF4FCAE4D78831E55404D709BB22F
:10A04000002C3FF4F4AE8D78C41E55408D70A4B240
:10A05000002B3FF4ECAECB785340CB70002C3FF498
:10A06000E6AE0B79042883EA02030B713FF4DFAEFE
:10A070004B795A404A71DAE69BB248425C1E00F0C6
:10A080000300A4B2C51CD243AC425FFA82FC22B2E8
:10A0900043D3002800F02C81BC5D9A1E0CEA040416
:10A0A0000128BC5512B201F1010E11D04C78DA1E14
:10A0B0000CEA040403284C7012B201F1020E07D11D
:10A0C0008C781A1F0CEA04048C7001F1030E12B292
:10A0D0004FF000086CF3070881191B1A6CF30F2866
:10A0E00039449EB26CF317486CF31F68B7080C1F15
:10A0F000002054F8043F013085B208EA0303AF4260
:10A1000041F8043BF5D826F003039BB2D21AB342C0
:10A1100012B20EEB03013FF48AAE0B7890B20CEA58
:10A120000303441E0B70A4B2002A3FF480AE4A78A9
:10A13000831E0CEA02024A709BB2002C3FF477AEF9
:10A140008C78C21E0CEA04048C7092B2002B3FF48F
:10A150006EAECB780CEA0303CB70002A3FF467AEF7
:10A160000B7904280CEA03030B713FF460AE4B79C2
:10A170000CEA03034B715AE6012D00F08D80C0F00C
:10A180009180022D3FF490AE1B1BDBB2374497E663
:10A190000C780300147803009BB24C42581E04F064
:10A1A000030480B2E51C85420FFA80FC48D8002CDD
:10A1B00000F09C80B85DA3F1020C1043012CB8554F
:10A1C0000FFA8CFC01F1010E13D04878A3F1030CB7
:10A1D0001043032C48700FFA8CFC01F1020E08D1D9
:10A1E0008878A3F1040C1043887001F1030E0FFA74
:10A1F0008CFC4FF0000862F30708A1191B1B62F3E7
:10A200000F2839449EB262F3174862F31F68B708FB
:10A210000C1F002054F8043F013085B248EA0303C4
:10A22000AF4241F8043BF5D826F003039BB2ACEBF8
:10A23000030C9E420FFA8CFC0EEB03013FF4F7ADCA
:10A240000B781FFA8CF01343441E0B70A4B2BCF1C0
:10A25000000F3FF4ECAD4D78831E15434D709BB25B
:10A26000002C3FF4E4AD8D78C41E15438D70A4B26C
:10A27000002B3FF4DCADCB781343CB70002C3FF4C4
:10A28000D6AD0B79042843EA02030B713FF4CFAD3E
:10A290004B791A434A71CAE51CF8026031430CF845
:10A2A000021006E61CF8026026EA01010CF8021012
:10A2B000FFE51A463978C9433970083AB0F90810F1
:10A2C000D2B2072A0F44F5D813F007033FF4AFAD1D
:10A2D000084AD35C13E63A7822EA03033B70A6E50A
:10A2E0003A7813433B70A2E5884672E68E4680E7D3
:10A2F0008E46EDE61478030038B50446806A0D46B4
:10A30000002800F0B580A16DFEF776FDA06A002D53
:10A310000CBFA625A725002840F08A80226C216D5D
:10A320001368606A23EA01031360002876D1A26BE8
:10A33000A06C1168E36B014311601968E06C014384
:10A3400019601968E06C21EA000119601168A06CBD
:10A3500021EA000111601968E06C01431960196875
:10A36000E06C21EA000119601168A06C01431160E2
:10A370001968E06C014319601968E06C21EA00017A
:10A3800019601168A06C21EA000111601968E06C85
:10A39000014319601968E06C21EA00011960116835
:10A3A000A06C21EA000111601968E06C014319609A
:10A3B0001968E06C21EA000119601168A06C014382
:10A3C00011601968E06C014319601968E06C21EABA
:10A3D000000119601168A06C014311601968E06CFC
:10A3E000014319601968E06C21EA000119601068E6
:10A3F000A16CA62D14BF014320EA010111601A6867
:10A40000E06C616C02431A601A68E06C22EA000298
:10A410001A60626D0B6813430B6038BD294607F064
:10A42000E1FEA06AC0B1E16DBDE83840FEF7E4BCD2
:10A4300094F83010FEF760FDA06A036800211B68E5
:10A440009847A06A036829461B689847A06AFEF7E8
:10A45000C1FDA06A0028E6D1626C616D1368606A74
:10A460000B4313600028D8D0BDE8384007F0B4BED5
:10A47000626A3AB104F16403104693E8060007F0FB
:10A480005DFEA06A626C616D136823EA01031360CC
:10A490003DE700BF2DE9F041857EBDF81860022D33
:10A4A00000F00B81032D00F00381012D54D0002911
:10A4B00050DBB0F908708F424CDD002ABEBF9B18FC
:10A4C00000221BB2B0F90A5014461C44AC42C4BF6F
:10A4D000AB1A1BB2002B3DDDD2B2D408D0F82CC091
:10A4E00017FB041112F00702DBB20CEB010521D0BF
:10A4F000C2F10802D4B2C64AA342125D80F07B8149
:10A50000A4EB030EFF2747FA0EF7012E02EA07021B
:10A5100000F0FF81C0F00382022E1BD11CF80170F5
:10A520007A400CF80120A34214D3B0F908201B1B79
:10A53000DBB21544072B00F2CC805BB1B54A012E8B
:10A54000D35C00F00A82C0F00382022E02D12A7886
:10A5500053402B70BDE8F08104891A44A21A12B24C
:10A560000029F7DBB0F90A408C42F3DD002ABEBFB8
:10A570009B181BB20022B0F908409F18A74215464D
:10A58000C4BFA21A13B2002BE4DD0029C76A084633
:10A59000B8BFC81DC21001F007000121814014FBA3
:10A5A0000252012EC9B207EB020000F03581C0F063
:10A5B000A380022ECED11FFA83F8444208F1FF3562
:10A5C00004F00304ADB2E31C9D422EB246D3002C2E
:10A5D00000F0CB81BB5CA8F102064B40012CBB54C0
:10A5E00036B200F1010E11D04378A8F103064B40BA
:10A5F000032C437036B200F1020E07D18378A8F124
:10A6000004064B40837000F1030E36B24FF0000C8D
:10A6100061F3070CA8EB0408224461F30F2CBB186C
:10A620001FFA88F861F3174C61F31F6C4FEA980723
:10A630001C1F002054F8042F013085B28CEA02025E
:10A64000AF4243F8042BF5D828F003039BB2F61A67
:10A65000984536B20EEB03003FF47CAF0378B4B2FA
:10A660004B40621E037092B2002E3FF473AF4578E8
:10A67000A31E4D4045709BB2002A3FF46BAF857816
:10A68000E21E4D40857092B2002B3FF463AFC37859
:10A690004B40C370002A3FF45DAF0379042C83EA7A
:10A6A000010303713FF456AF43795940417151E7BB
:10A6B0004489C943214409B252E704894589C94301
:10A6C00021441A4409B2AA1A002912B2BFF6F1AE07
:10A6D00040E7022E00F02A81002E14BFFF24002440
:10A6E00019462C700839B0F90820C9B20729154459
:10A6F000F7D803F0070320E71FFA83F8444208F174
:10A70000FF3504F00304ADB2E31CC9439D42C9B256
:10A710002EB246D3002C00F02481BB5CA8F10206C7
:10A720000B40012CBB5436B200F1010C11D0437820
:10A73000A8F103060B40032C437036B200F1020C63
:10A7400007D18378A8F104060B40837000F1030C55
:10A7500036B24FF0000E61F3070EA8EB0408224456
:10A7600061F30F2E3A441FFA88F861F3174E61F334
:10A770001F6E4FEA9807141F002054F8043F013061
:10A7800085B20EEA0303AF4242F8043BF5D828F045
:10A7900003039BB2F61A434536B20CEB03003FF4B9
:10A7A000D9AE0378B4B20B40621E037092B2002E91
:10A7B0003FF4D0AE4578A31E0D4045709BB2002AF1
:10A7C0003FF4C8AE8578E21E0D40857092B2002B32
:10A7D0003FF4C0AEC3780B40C370002A3FF4BAAE5A
:10A7E0000379042C03EA010303713FF4B3AE437908
:10A7F00019404171AEE6012E00F08B80C0F08F80D1
:10A80000022E3FF48BAE1B1BDBB23D4492E600BF31
:10A810000C780300147803001FFA83F8454208F10E
:10A82000FF3405F00305A4B2EB1C9C4226B246D3CC
:10A83000002D00F09880BB5CA8F102060B43012DAF
:10A84000BB5436B200F1010C11D04378A8F10306D5
:10A850000B43032D437036B200F1020C07D183780D
:10A86000A8F104060B43837000F1030C36B24FF0DD
:10A87000000E61F3070EA8EB05082A4461F30F2EC2
:10A880003A441FFA88F861F3174E61F31F6E4FEADE
:10A890009807141F002054F8043F013085B24EEA97
:10A8A0000303AF4242F8043BF5D828F003039BB200
:10A8B000F61A984536B20CEB03003FF44BAE037822
:10A8C000B4B20B43621E037092B2002E3FF442AE4C
:10A8D0004578A31E0D4345709BB2002A3FF43AAE63
:10A8E0008578E21E0D43857092B2002B3FF432AEA4
:10A8F000C3780B43C370002A3FF42CAE0379042CB9
:10A9000043EA010303713FF425AE437919434171D2
:10A9100020E61CF801703A430CF8012003E61CF80D
:10A92000017027EA02020CF80120FCE51A4629789A
:10A93000C9432970083AB0F90810D2B2072A0D4469
:10A94000F5D813F007033FF405AE094AD35CFEE5E2
:10A950002A7822EA03032B70FCE52A7813432B7034
:10A96000F8E58446F5E6844681E786464EE600BF74
:10A97000147803002DE9F041079F9DF91880104ECF
:10A9800004461D4608F03EFE0E4B0F49A7654FF0EA
:10A99000FF304FF48072002D08BF1D46089FC4F899
:10A9A0003300002384F837806166A4F86820E765E7
:10A9B000A56226606362E3622046BDE8F08100BFC5
:10A9C000C07703002045002000093D0010B5044673
:10A9D000C06A034B236008B10AF010F8204610BD8E
:10A9E000C0770300836A70B50A46002B40F09B8055
:10A9F000046C066D2368456A23EA06032360002D74
:10AA000040F08C80D0E90E13846C0D68160654BF9C
:10AA100025EA04042C430C601C68C56C2C431C60A4
:10AA20001C68C56C24EA05041C600D68846C56061D
:10AA300054BF25EA04042C430C601C68C56C2C43ED
:10AA40001C601C68C56C24EA05041C600D68846CDD
:10AA5000960654BF25EA04042C430C601C68C56CA0
:10AA60002C431C601C68C56C24EA05041C600D683E
:10AA7000846CD60654BF25EA04042C430C601C6881
:10AA8000C56C2C431C601C68C56C24EA05041C6062
:10AA90000D68846C160754BF25EA04042C430C602F
:10AAA0001C68C56C2C431C601C68C56C24EA05043A
:10AAB0001C600D68846C560754BF25EA04042C43BF
:10AAC0000C601C68C56C2C431C601C68C56C24EAB7
:10AAD00005041C600D68846C960754BF25EA0404C5
:10AAE0002C430C601C68C56C2C431C601C68C56C36
:10AAF00024EA05041C6012F0010F846C0A6814BF7C
:10AB0000144322EA04040C601A68C16C0A431A60F8
:10AB1000C16C1A6822EA01021A6070BD2846BDE8BD
:10AB2000704007F05FBB04460D46184694F830109D
:10AB3000FEF7E2F9A06A036800211B689847A06A43
:10AB4000036829461B689847A06ABDE87040FEF775
:10AB500041BA00BF2DE9F0430E46B0F90A10044691
:10AB60001F46CB1D85B048BF01F10E03B4F9089014
:10AB7000C06A9DF83080DB10154609FB03F90028F8
:10AB800000F015824A46002109F076FFB4F90A2048
:10AB9000B4F90810202A00F3D3800120203A733939
:10ABA0004FF0200C029002EBD272732001EBD171B6
:10ABB000CDE9000C9F4B204642F34F0241F34F0179
:10ABC00008F03CFDA06A84F83160002800F0D380D2
:10ABD000002D40F0DF81B4F90A30202B14BF3D2551
:10ABE0003C2584F83050B8F1000F40F0DA81002F96
:10ABF00000F0F88094F93700002817DB012106F0F7
:10AC0000D7FF012194F9370007F014F8012003F071
:10AC10004BFF002194F9370007F00CF80A2003F0ED
:10AC200043FF012194F9370007F004F8A06A0028D7
:10AC300040F0D880606A28B104F1640393E806000C
:10AC400007F07CFA626C616D136823EA01031360FC
:10AC500079492046FEF7FEFFA17A0139C9B22046A4
:10AC6000FFF7C0FE75492046FEF7F4FF94F9313036
:10AC7000012B14BF142110212046FFF7B3FE7049A9
:10AC80002046FEF7E7FFA3686E4A8F21934284F8BF
:10AC9000601008D002F50012934200F090816A4AD9
:10ACA000934200F09A810225DA212046FFF79AFEAE
:10ACB00029462046FFF796FE81212046FFF792FEA7
:10ACC00094F860102046FFF78DFED9212046FFF74B
:10ACD00089FE94F93130012B204614BFF121222145
:10ACE000FFF780FEA06A002800F09B8094F83010E7
:10ACF000564FFEF701F9A06A036800211B689847C8
:10AD0000A36ABE1D01251A6817F8011B12681846B0
:10AD100090470135B742ADB268D0A36A3F2D1846BF
:10AD2000F1D1FEF757F994F83010A06AFEF7E4F875
:10AD3000A06A036800211B6898470125A36AE2E71F
:10AD40000120403A52394FF0400C029002EBD2728F
:10AD5000522001EBD171CDE9000C3D4B204642F36E
:10AD60004F0241F34F0108F069FCA06A84F831609A
:10AD700000287FF42DAF012194F93500354D364E72
:10AD800006F016FF94F93600012106F011FF94F940
:10AD90003530314A55F8233022641F2B88BF203BC1
:10ADA000012202FA03F394F93620236555F8222094
:10ADB000294B63641F2A88BF203A012393406365AF
:10ADC0003268606A13433360002800F01681B8F1DE
:10ADD000000F40F00C81002F7FF40CAFA06A002818
:10ADE0003FF428AFA16DFEF707F831E7A06AFEF740
:10ADF000F1F8A06A30B1E16DFDF7FEFF012005B06A
:10AE0000BDE8F083626C616D1368606A0B43136088
:10AE1000002800F0DE8007F0DFF9012005B0BDE872
:10AE2000F083226C216D1368084D23EA010313603F
:10AE3000AE1D17E0D87503001C78030020780300CE
:10AE400024780300800020006000100028780300B0
:10AE500018730300E47803000405005007F0C2F9FA
:10AE6000B542C6D0606A15F8011B0028F6D1D4E9B6
:10AE70000E23A06C176811F0800F0CBF27EA0000AA
:10AE8000384310601868E76C384318601868E76C3E
:10AE900020EA070018601768A06C11F0400F0CBF83
:10AEA00027EA0000384310601868E76C38431860E0
:10AEB0001868E76C20EA070018601768A06C11F0AA
:10AEC000200F0CBF27EA0000384310601868E76CB9
:10AED000384318601868E76C20EA070018601768A4
:10AEE000A06C11F0100F0CBF27EA0000384310606F
:10AEF0001868E76C384318601868E76C20EA0700A8
:10AF000018601768A06C11F0080F0CBF27EA00004A
:10AF1000384310601868E76C384318601868E76CAD
:10AF200020EA070018601768A06C11F0040F0CBF2E
:10AF300027EA0000384310601868E76C384318604F
:10AF40001868E76C20EA070018601768A06C11F019
:10AF5000020F0CBF27EA0000384310601868E76C46
:10AF6000384318601868E76C20EA0700186011F091
:10AF7000010FA06C116814BF084321EA00001060A3
:10AF80001A68E16C0A431A601A68E16C22EA01024D
:10AF90001A6065E76DB284F83050B8F1000F3FF4E5
:10AFA00026AEFDF7D9FE002F3FF418AF22E6484643
:10AFB00009F01CFDE06200287FF4E4AD1FE794F97E
:10AFC0003130012B14BFCF239F2384F8603012252A
:10AFD0006AE6012005B0BDE8F08394F93130012B19
:10AFE00014BFAF23102384F8603002255CE607F01D
:10AFF0004DF8002F3FF4F2AEFCE5012194F9330047
:10B0000006F0D6FD012194F9340006F0D1FD94F943
:10B0100033300F4955F82320A6631F2A88BF203AF2
:10B020000123934094F93420A36455F82220084B5F
:10B03000E3631F2A88BF203A01239340E3640A6830
:10B0400022EA03030B60002F3FF4C8AED2E500BF35
:10B0500004050050B0F90A20D31D48BF02F10E03C9
:10B06000B0F90820C06ADB1002FB03F2002109F0EE
:10B0700003BD00BFF8B50446806A002800F08A804E
:10B08000A16DFDF7B9FEA06A002800F0978094F842
:10B0900030109F4FFDF730FFA06A036800211B6846
:10B0A0009847A36A7E1D01251A6817F8011B1268CC
:10B0B000184690470135B742ADB212D0A36A3F2D72
:10B0C0001846F1D1FDF786FF94F83010A06AFDF71D
:10B0D00013FFA06A036800211B6898470125A36A33
:10B0E000E2E7A06AFDF776FF217A01392046C9B26E
:10B0F000FFF778FCB4F90A202689D31D48BF02F176
:10B100000E03D4E90A05DB1016FB03F6B6B20028DD
:10B1100056D094F83010FDF7EFFEA06A0368402186
:10B120001B68771E9847BFB2F6B10137A06A2F445B
:10B130000126036815F8011B1B6898470136BD42BC
:10B14000B6B211D03F2EA06AF3D1FDF743FF94F8B9
:10B150003010A06AFDF7D0FEA06A036840211B688A
:10B1600098470126A06AE4E7A06AFDF733FFA06ACA
:10B1700058B9626C616D1368606A0B43136018B153
:10B18000BDE8F84007F028B8F8BDE16DBDE8F8402B
:10B19000FDF732BE606A002800F0BC8004F1640351
:10B1A00093E8060006F0CAFF626C616D1368A06A3E
:10B1B00023EA0103136000287FF469AF606AAFE0FF
:10B1C000226C216D13680B432E441360B542CED020
:10B1D000606A15F8011B40B107F004F8B542C6D00B
:10B1E000606A15F8011B0028F6D1D4E90E23A06C83
:10B1F000176811F0800F0CBF27EA00003843106079
:10B200001868E76C384318601868E76C20EA070094
:10B2100018601768A06C11F0400F0CBF27EA0000FF
:10B22000384310601868E76C384318601868E76C9A
:10B2300020EA070018601768A06C11F0200F0CBFFF
:10B2400027EA0000384310601868E76C384318603C
:10B250001868E76C20EA070018601768A06C11F006
:10B26000100F0CBF27EA0000384310601868E76C25
:10B27000384318601868E76C20EA07001860176800
:10B28000A06C11F0080F0CBF27EA000038431060D3
:10B290001868E76C384318601868E76C20EA070004
:10B2A00018601768A06C11F0040F0CBF27EA0000AB
:10B2B000384310601868E76C384318601868E76C0A
:10B2C00020EA070018601768A06C11F0020F0CBF8D
:10B2D00027EA0000384310601868E76C38431860AC
:10B2E0001868E76C20EA0700186011F0010FA06CE5
:10B2F000116814BF084321EA000010601A68E16C6D
:10B300000A431A601A68E16C22EA01021A605DE7DA
:10B3100030780300626C616D136823EA01031360E7
:10B32000226C216D1368514D23EA010313606E1DD9
:10B3300005E006F057FFB5423FF4D6AE606A15F857
:10B34000011B0028F5D1D4E90E23A06C176811F079
:10B35000800F0CBF27EA0000384310601868E76CC4
:10B36000384318601868E76C20EA0700186017680F
:10B37000A06C11F0400F0CBF27EA000038431060AA
:10B380001868E76C384318601868E76C20EA070013
:10B3900018601768A06C11F0200F0CBF27EA00009E
:10B3A000384310601868E76C384318601868E76C19
:10B3B00020EA070018601768A06C11F0100F0CBF8E
:10B3C00027EA0000384310601868E76C38431860BB
:10B3D0001868E76C20EA070018601768A06C11F085
:10B3E000080F0CBF27EA0000384310601868E76CAC
:10B3F000384318601868E76C20EA0700186017687F
:10B40000A06C11F0040F0CBF27EA00003843106055
:10B410001868E76C384318601868E76C20EA070082
:10B4200018601768A06C11F0020F0CBF27EA00002B
:10B43000384310601868E76C384318601868E76C88
:10B4400020EA0700186011F0010FA06C116814BF0A
:10B45000084321EA000010601A68E16C0A431A6090
:10B460001A68E16C22EA01021A6064E7307803008E
:10B47000407A704710B44468246803460846114671
:10B480001A4623465DF8044B184700BF84B00846AF
:10B490001146019204B001F0F5BE00BF70B513680B
:10B4A000044600681B69C66982B010460D4698477D
:10B4B000C1B2284601F0D2FB294602463346204657
:10B4C00002B0BDE87040184730B5D3B285B0013B3B
:10B4D00004460D460192062B0AD8DFE803F0271D2B
:10B4E00042040909270003684FF0FF319B6A98471F
:10B4F000637A7BB1AB68B5F9002093F82230002B5A
:10B500000CBF02214FF48071284605B0BDE83040E1
:10B5100001F00ABC05B030BD827A03683AB98A6886
:10B5200092F820201AB91B6A984710BB23685B6AFF
:10B5300000210122A172627220469847AB68B5F9DA
:10B54000002093F82230002B0CBF02214FF48071B1
:10B55000284601F0E9FBA86805B0BDE8304001F0DD
:10B560009BBC036801219B6A9847637A002BC1D179
:10B57000D0E70123A3726372BCE700BF2DE9F0415D
:10B580001D464368BDF91C20BDF9208004460E46C7
:10B590002846996800F02CFC63681B7903F01503BA
:10B5A000152B074602D03846BDE8F081B6F90E10DB
:10B5B000B36801EB410103EB81014B689C4208D069
:10B5C000284643462246314600F06CFD3846BDE829
:10B5D000F0814246284600F0D5FE3846BDE8F081AD
:10B5E0002DE9F04782B00446BDF92C704068BDF9E2
:10B5F00030A08846914681683A4618461E4600F0BB
:10B60000F7FB63681B7903F01503152B05462FD054
:10B61000AF4229DDD8F81CA054453BD0202101358C
:10B620001FFA85F830460FFA88F502F097FCAF4212
:10B630001ADDA4EB0A0ABAFA8AFA3268237A4FEAC8
:10B640005A1ACDF800A0556A02214A463046A8474A
:10B6500023683146DB6A2046984780441FFA88F801
:10B660000FFA88F5AF421EDC284602B0BDE8F0872D
:10B67000B8F90E10D8F8083001EB410103EB810155
:10B680004B689C4224D0534622464146304600F047
:10B6900009FDBDE7B9F1000FC0D0A37A002B14BF9C
:10B6A0003E213A21BBE73168237ACDF800A04A4613
:10B6B0004D6A30460321A84763683A461969304607
:10B6C00000F096FB404405B2284602B0BDE8F08782
:10B6D0005246304600F056FE9AE700BF2DE9F04F83
:10B6E00085B0684D9DF838A0044688469146667A34
:10B6F000002E40D161680A7912F0140F40D0DFF8B3
:10B700008CB102963546574617E06368B3F91000CE
:10B71000A8424FF000034A4641461ADD2068066AF7
:10B72000594886421AD16068406950F82500066879
:10B730000097F668B047F0B9013523681B685B4590
:10B74000E3D020469847A8424FF000034A464146BE
:10B75000E4DC029E304605B0BDE8F08F29B22046F9
:10B76000B04703680097D3F80CA04A46002341462F
:10B77000D0470028E0D00126304605B0BDE8F08F64
:10B78000D8F80400A042F7D1002BF5D0D8F808C0B3
:10B79000BCF90E00DCF808E000EB400752074FEA66
:10B7A00087074DD4D9F80C308A7B1B68B3F806B0F4
:10B7B00093075AD50BF1FF3B1FFA8BFB7744D9F85F
:10B7C00008307A685268127902F01402002A18BF11
:10B7D00001380FFA8BF2002A029233F91070CBDD98
:10B7E000DFF8A8B0039600251BE06368B3F91000EA
:10B7F000B04223DD2368244A1B6A93421AD163684E
:10B800005B6953F826000268CDF800A0D6680023D3
:10B810004A464146B04701350028ACD1029B9D42C3
:10B820000CD023681B687E195B4536B2DDD02046FC
:10B830009847DDE7314620469847E4E7039E9BE7BB
:10B840000C3F0EEB0708D8F804402268D668AE42D9
:10B850003FF44DAF4A46414620460123B446CDF859
:10B8600038A005B0BDE8F04F60479CF81030002BC1
:10B87000A4D082F00403C3F38003ABEB030B1FFAE5
:10B880008BFB9BE791B80200D9620200E5620200DF
:10B890002DE9F04F90F8098085B09DF838A0B8F1F7
:10B8A000000F3CD145680E46297911F0140F174658
:10B8B00004463AD0DFF88CB145461BE06368B3F923
:10B8C0001000A8424FF000033A46314629DD2068B7
:10B8D000D0F820905948814513D16068406950F8EC
:10B8E0002500D0F800C0CDF800A0DCF80C90C847C7
:10B8F000A8B9013523681B685B45DFD0204698470F
:10B90000DFE729B22046C8470368CDF800A0D3F886
:10B910000C903A4600233146C8470028E9D04FF042
:10B920000108404605B0BDE8F08F70688442F8D148
:10B93000002BF6D0D6F808C0BCF90E00DCF808E001
:10B9400000EB400349074FEA830352D4D268A97B36
:10B950001268B2F806B08A075BD50BF1FF3B1FFAFD
:10B960008BFB7344BA685B685B681B7903F0140354
:10B97000002B18BF01380FFA8BF3002B029332F91A
:10B980001020CEDD3B46CDF80C805746DFF8B4B032
:10B9900000259046B1469A461AE06368B3F9100054
:10B9A000B04223DD2368254A1B6A93421AD163689B
:10B9B0005B6953F8260002680097D6680023524658
:10B9C0004946B04701350028A9D1029B9D420DD0C0
:10B9D00023681B6808EB05065B4536B2DDD02046C0
:10B9E0009847DDE7314620469847E4E7DDF80C80CC
:10B9F00097E70C3B0EEB0301114B48680468E468C1
:10BA00009C4213D1CDF800A00123FFF767FE8046CA
:10BA100087E79CF81020002AA3D081F00402C2F32B
:10BA20008002ABEB020B1FFA8BFB9AE70123A446C3
:10BA3000CDF838A005B0BDE8F04F6047D9620200EC
:10BA400091B80200E56202002DE9F04FD0F804E061
:10BA5000002587B0044645729EF804009DF84060BA
:10BA6000039610F0140C0F46164629D0DFF8949177
:10BA7000DFF8948114E06368B3F91000A84217DD81
:10BA800023681B6A434517D163685B6953F8250037
:10BA900002680023D2F804A0394632460135D04767
:10BAA00023681B684B45E6D020469847A842E7DC50
:10BAB000002007B0BDE8F08F29B220469847E7E79D
:10BAC000D1F808A0BAF90E50DAF8081005EB4508CD
:10BAD000400799464FEA880869D4F3689EF80E201B
