:020000022000DC
:106000000000012091FD0200D1FD0200D3FD02003D
:10601000D5FD0200D7FD0200D9FD020000000000FE
:106020000000000000000000000000000DFD020064
:10603000DDFD0200000000002DFD0200E1FD020078
:10604000E3FD0200E3FD020031D902007D8502007C
:10605000E3FD0200E3FD0200E3FD0200E3FD0200B8
:10606000E3FD0200E3FD0200E3FD0200E3FD0200A8
:10607000E3FD0200E3FD0200E3FD0200E3FD020098
:10608000E3FD020099FA020045CF0200E3FD0200A1
:10609000E3FD0200E3FD0200E3FD0200E3FD020078
:1060A000E3FD0200E3FD0200E3FD0200E3FD020068
:1060B000E3FD0200E3FD020000000000000000001C
:1060C000E3FD0200E3FD0200E3FD0200E3FD020048
:1060D000E3FD0200E3FD0200E3FD0200000000001A
:1060E00000000000000000000000000000000000B0
:1060F00000000000000000000000000000000000A0
:10610000000000000000000000000000000000008F
:10611000000000000000000000000000000000007F
:10612000000000000000000000000000000000006F
:10613000000000000000000000000000000000005F
:10614000000000000000000000000000000000004F
:10615000000000000000000000000000000000003F
:10616000000000000000000000000000000000002F
:10617000000000000000000000000000000000001F
:10618000000000000000000000000000000000000F
:1061900000000000000000000000000000000000FF
:1061A00000000000000000000000000000000000EF
:1061B00000000000000000000000000000000000DF
:1061C00000000000000000000000000000000000CF
:1061D00000000000000000000000000000000000BF
:1061E00000000000000000000000000000000000AF
:1061F000000000000000000000000000000000009F
:10620000F1EE103A43F08073E1EE103A704700BFB0
:1062100010B5054C237833B9044B13B10448AFF3E0
:1062200000800123237010BD403B002000000000CF
:10623000606D030008B5034B1BB103490348AFF37E
:10624000008008BD00000000443B0020606D03009A
:10625000154B002B08BF134B9D46A3F5803A002138
:106260008B460F461348144A121A0DF07DFA0F4B55
:10627000002B00D098470E4B002B00D098470020F1
:10628000002104000D000D48002802D00C48AFF397
:1062900000800DF0FFF92000290009F0C7FD0DF086
:1062A000E5F900BF00000800000001200000000028
:1062B00000000000403B00202C4B002000000000AC
:1062C0000000000000207047002070470020704749
:1062D00043685B6953F82100704700BF4368B3F916
:1062E00010007047C06903681B681847406903685D
:1062F0001B68184740690368DB68184740690368F2
:106300005B691847406903681B691847406903685F
:106310009B691847807C7047837CD9071CD413F095
:10632000060F0ED11A0722D4DB062BD5174AD0F858
:106330001230126803F0EF035268C0F81230507A3E
:106340007047124AD0F81230126803F0F90352680D
:10635000C0F81230D07870470C4AD0F8123012686A
:1063600003F0FE035268C0F8123050797047074AB4
:10637000D0F81230126803F0F7035268C0F81230F8
:10638000D07970474FF0FF30704700BFFC380020D5
:10639000704700BF00207047406A03681B681847B9
:1063A00030B4012BD0E909409DF8085001EB810180
:1063B00006D00A4430F81230E382A38230BC704722
:1063C0002A44114400EB41018B88E382A38230BC54
:1063D000704700BF2DE9F047C4689DF82480246809
:1063E0009DF820E034F8325004EBC202074694884E
:1063F000406AB2F902A0B7F81A90B7F91C60D7F852
:1064000028C007680AEB01022C4412FB06F215FBB8
:1064100009F514FB09F4B8F1010F29B2FF6B9DF8DF
:10642000285012B224B203EB830309D09E443CF8F7
:106430001E30BC46CDE908632346BDE8F0476047FF
:10644000AE449E440CEB4E0CBCF80430BC46CDE987
:1064500008632346BDE8F047604700BF2DE9F043DD
:10646000C568BDF920602F68BDF91C5037F931E0CF
:10647000044607EBC107406AB4F81A80B4F81C90D0
:10648000D4F828C004680EEB0201B7F902209DF889
:106490002CE0A76C9DF824401A4411FB08F115FB71
:1064A00008F312FB09F216FB09F6BEF1010F12B256
:1064B00036B209B21BB29DF828509DF8308004EB2B
:1064C000840408D02C443CF81440BC46CDE9076451
:1064D000BDE8F0436047454425440CEB450CBCF84F
:1064E0000440BC46CDE90764BDE8F043604700BF07
:1064F0002DE9F043C568BDF920602F68BDF91C5037
:1065000037F931E0044607EBC107406AB4F81A8056
:10651000B4F81C90D4F828C004680EEB0201B7F957
:1065200002209DF82CE0E76B9DF824401A4411FBF3
:1065300008F115FB08F312FB09F216FB09F6BEF190
:10654000010F12B236B209B21BB29DF828509DF865
:10655000308004EB840408D02C443CF81440BC4642
:10656000CDE90764BDE8F0436047454425440CEBA2
:10657000450CBCF80440BC46CDE90764BDE8F043D7
:10658000604700BFF0B5C268836A1568B3F804C0FD
:106590000E4683B0044635F83110406AB4F81CE06A
:1065A000076805EBC605AB886A88CDF804C0ED889E
:1065B000B4F81AC015FB0EF52DB2009512FB0EF2C1
:1065C00013FB0CF311FB0CF1FD6B12B21BB209B201
:1065D000A847E3685B68002243F8262003B0F0BDBB
:1065E000F0B4C568078C2D68848B05EBC30635F9BC
:1065F0003350B6F90260438B406A3244294414FB9D
:10660000027413FB01F344820382F0BC704700BFA5
:10661000F0B4C468BDF914502768836A466A07EB72
:10662000C50403EB4202B4F9024037F83550BB8889
:10663000B2F82CC0B0F91C70408B21443468CDF8FE
:1066400014C00497A46C11FB07F213FB00F315FBB5
:1066500000F1A446304612B21BB209B2F0BC60474A
:1066600090ED000B704700BF08B500680CF04EFCC1
:1066700041EC100B08BD00BF00207047436918684B
:106680000368DB68184700BF436910B50446186803
:106690000368DB68984758B94FF0FF30074B1A681A
:1066A00082421ABF4FF0FF321A604FF0FF3010BD28
:1066B0006369186803681B699847EFE70436002090
:1066C0004369186803689B69184700BF43685B69A2
:1066D00000221B8842728381704700BF437A33B91E
:1066E000436880895B691B881B1A18BF0123184601
:1066F000704700BF4368D88B003018BF0120704737
:1067000042685169138B0888984203D3538B8342A4
:1067100028BF03460B807047174B1B681B7A70B469
:1067200003B14942827A43688AB1DA8B5C690126F7
:1067300000292588467210DD598B481B904208DAE3
:106740009A7BD00700D5198B218070BC70479A8B3B
:10675000ECE72A44228070BC7047198B681A90427B
:1067600005DA9A7BD20748BF598B2180EDE7AA1A38
:10677000228070BC704700BFFC38002043685B6912
:1067800000224272D3E90023C0E90423704700BF0E
:10679000416810B500220023D1E90C010CF088FEFD
:1067A00020B14FF0000404F0010010BD4FF00104CF
:1067B00004F0010010BD00BF2DE9F8434668776979
:1067C000D6E90645D7E9008922462B464046494688
:1067D0000CF078FE40B9D6E9084542464B462046C3
:1067E00029460CF079FE18B1C7E90045BDE8F883E9
:1067F00044464D46C7E90045BDE8F8832DE9F84F0A
:106800002A4B1B681B7A03B14942837AD0F804A053
:1068100003B3DAE90C67DAF814B001230029DBE9E5
:106820000045437223DDDAE9088922462B464046BB
:1068300049460CF01DFA32463B460CF043FE60B16F
:106840009AF80E30DA0701D5DAE90689CBE9008932
:10685000BDE8F88FDAE90A67DDE722462B463046C5
:1068600039460CF007FACBE90001BDE8F88FDAE908
:106870000689204642464B4629460CF0F9F9324635
:106880003B460CF01FFE30B19AF80E30DB07DDD529
:10689000DAE90889DAE732463B46204629460CF019
:1068A000E7F9CBE90001BDE8F88F00BFFC38002014
:1068B00043685B6900221B684272C360704700BF77
:1068C000437A63B94368D0ED037A5B6993ED007A4C
:1068D000B4EE677AF1EE10FA14BF012300231846D4
:1068E000704700BF4368D3ED097AF5EE407AF1EEC8
:1068F00010FA14BF01200020704700BF43685A6996
:10690000D3ED067A92ED007AB4EEE77AF1EE10FA62
:1069100008D4D3ED077AF4EEC77AF1EE10FA88BF07
:10692000F0EE477AC2ED007A704700BF234B1B6838
:106930001B7A10B403B14942827A4368DAB1D3EDCD
:10694000097A5A690124002992ED007A44721CDD0B
:10695000D3ED076A36EEC76AB4EEE76AF1EE10FAD5
:106960000CD5997BC80701D5D3ED066AC2ED006A44
:106970005DF8044B7047D3ED087AE2E777EE877A4B
:106980005DF8044BC2ED007A7047D3ED066A37EE2E
:10699000666AB4EEE76AF1EE10FA07D5997BC9078B
:1069A00048BFD3ED076AC2ED006AE1E777EE677A88
:1069B0005DF8044BC2ED007A704700BFFC38002040
:1069C00043685B6900221B684272C360704700BF66
:1069D000437A33B94368C0685B691B681B1A18BFE8
:1069E00001231846704700BF4368586A003018BF3B
:1069F000012070474268D2E905130868984203DB1A
:106A0000D3698342A8BF03460B607047174B1B68CE
:106A10001B7A70B403B14942827A43688AB15A6AD8
:106A20005C69012600292568467210DDD969481B7A
:106A3000904208DA9A7BD00700D59969216070BC32
:106A400070471A6AECE72A44226070BC7047996963
:106A5000681A904205DA9A7BD20748BFD96921604B
:106A6000EDE7AA1A226070BC704700BFFC38002016
:106A700070B505460C4604F013FC6B691868036892
:106A80002146DB69BDE87040184700BF08B50B46DA
:106A90000A22C168184606F0C9FA00B208BD00BF54
:106AA00008B50B460A228189184606F0BFFA00B2E3
:106AB00008BD00BFF0B52DED028B136883B005460D
:106AC0005B6910460E4614469847C1B22D292CD05A
:106AD000344B18680DF0A6FB00284CD0237C002B0B
:106AE00034D0B7EE008A20460122002106F0F0FBE8
:106AF00020EE080AD5E90032BCEEC00A0221526934
:106B00008DF8041010EE104A4FF6FF71ADF8061024
:106B1000DB6914800120019AA8723146284603B02F
:106B2000BDEC028BBDE8F0401847236820461B6986
:106B3000984723681B4A5B691768204698470146B7
:106B400038460DF06FFB50B3237C8BB907212B68BF
:106B50008DF804104FF6FF72ADF80620019ADB693C
:106B60003146284603B0BDEC028BBDE8F040184723
:106B7000BFEE008AB7E723682A681B69D7692046F9
:106B80009847C1B2304605F0D3FA314602463B463B
:106B9000284603B0BDEC028BBDE8F0401847042145
:106BA000D5E700BFF8380020F0B52DED028B136853
:106BB00083B005465B6910460E4614469847C1B23D
:106BC0002D292DD0344B18680DF02CFB00284DD00A
:106BD000237C002B35D0B7EE008A2046012200210D
:106BE00006F076FB60EE087A6B6817EE900A5C6937
:106BF0000CF09EF902238DF804304FF6FF73ADF8C8
:106C000006302B68019ADB69C4E900010120A872F3
:106C10003146284603B0BDEC028BBDE8F040184772
:106C2000236820461B69984723681B4A5B691768DD
:106C300020469847014638460DF0F4FA50B3237CBD
:106C40008BB907212B688DF804104FF6FF72ADF851
:106C50000620019ADB693146284603B0BDEC028B61
:106C6000BDE8F0401847BFEE008AB6E723682A68FF
:106C70001B69D76920469847C1B2304605F058FADB
:106C8000314602463B46284603B0BDEC028BBDE8C8
:106C9000F04018470421D5E7F8380020F0B52DED75
:106CA000028B136883B005465B6910460E46144696
:106CB0009847C1B22D2928D0324B18680DF0B2FA8E
:106CC000002848D0237C8BB3B7EE008A20460122EF
:106CD000002106F0FDFAD5E9003220EE080A5269DB
:106CE000DB6982ED000A02204FF6FF718DF8040087
:106CF000ADF806100120019AA8723146284603B06B
:106D0000BDEC028BBDE8F0401847236820461B69A4
:106D1000984723681B4A5B691768204698470146D5
:106D200038460DF07FFA50B3237C8BB907212B68CE
:106D30008DF804104FF6FF72ADF80620019ADB695A
:106D40003146284603B0BDEC028BBDE8F040184741
:106D5000BFEE008ABAE723682A681B69D769204614
:106D60009847C1B2304605F0E3F9314602463B464A
:106D7000284603B0BDEC028BBDE8F0401847042163
:106D8000D5E700BFF8380020F0B52DED028B136871
:106D900083B005465B6910460E4614469847C1B25B
:106DA0002D292BD0334B18680DF03CFA00284BD01E
:106DB000237C002B33D0B7EE008A2046012200212D
:106DC00006F086FAD5E9003220EE080A022152695F
:106DD0008DF80410BDEEC00A4FF6FF71ADF8061035
:106DE000DB6982ED000A0120019AA872314628462B
:106DF00003B0BDEC028BBDE8F04018472368204685
:106E00001B69984723681B4A5B69176820469847A7
:106E1000014638460DF006FA50B3237C8BB90721A2
:106E20002B688DF804104FF6FF72ADF80620019A1A
:106E3000DB693146284603B0BDEC028BBDE8F0406B
:106E40001847BFEE008AB8E723682A681B69D7692C
:106E500020469847C1B2304605F06AF931460246ED
:106E60003B46284603B0BDEC028BBDE8F040184716
:106E70000421D5E7F8380020F0B44568BDF910606A
:106E80006F69BDF914503F88BDF918408781CDE97D
:106E900004650694F0BC03F0D3BD00BFF0B44668AF
:106EA000BDF910507669D6E900670495BDF9145014
:106EB0000595BDF918500695C0E90467F0BC03F0CC
:106EC000BFBD00BF70B44668BDF90C507669BDF90E
:106ED000144036680395BDF91050C660CDE90454DE
:106EE00070BC03F0ADBD00BFF0B44568BDF91060E3
:106EF0006F69BDF914503F68BDF91840C760CDE90E
:106F000004650694F0BC03F09BBD00BF10B5C068DB
:106F10000C460CF00DF841EC100B2046022106F057
:106F200021F900B210BD00BF08B50B4690ED040B6F
:106F30000221184606F016F900B208BD38B5B0F9BE
:106F40002030002B0446154603DB934201D006F0A7
:106F50001FF9258438BD00BF38B505460C4606F03C
:106F600017F9EB685B68002243F8242038BD00BFA6
:106F700010B5044606F00CF9E0680021BDE81040A9
:106F800005F0C8B84FF6FF730384C06906F000B976
:106F9000436910B5044618680368DB68984730B148
:106FA000636918680368BDE810405B6918474FF0D3
:106FB000FF3010BD032914D004290AD0022900D0C3
:106FC00070470C4AD2F8123043F00103C2F8123075
:106FD0007047084AD2F8123043F00403C2F8123066
:106FE0007047044AD2F8123043F00203C2F812305C
:106FF000704700BFB03E002038B5447A5CB94368A2
:107000005969D0E90423D1E900014FF001050CF0E2
:107010004FFA10B9ECB2204638BD2546FAE700BF5A
:107020000268074952698A4208B504D1807C003061
:1070300018BF012008BD9047003018BF012008BDCF
:1070400015630200F0B50021044683B0C06805F066
:1070500061F8D4E90902036891881B6C984723689A
:10706000174A1D6A954218D1E268658B1268A78B92
:1070700051881288268C606A12FB05F25D6A114BFA
:10708000028211FB07619D42418210D1D4E909328D
:10709000D289DA829A8203B0F0BD00231A461946DB
:1070A0002046A84723685D6A064B9D42EED0002229
:1070B0000123204600921946A84703B0F0BD00BF47
:1070C000E1650200A16302002DE9F04FDFF82CA377
:1070D000A94AAA4BA2A7D7E90067DAE900454FF011
:1070E00000084FF0000987B0C2E90089C3E90067D2
:1070F0002046294632463B460CF002FA002800F0B2
:107100000181CAE9006734463D46DFF8F4A20FF278
:107110005029D9E90089DAE9006742464B463046F2
:1071200039460CF0EDF950B94FF000084FF0000966
:107130003046394642464B460CF0C4F908B1CAE91C
:1071400000898F4BDFF8BC921868DFF8BCB20BF0F7
:10715000DDFE8C4B4FF00008C3E9008982A3D3E920
:10716000002306460F460BF03BFFDFF8A082DFF856
:10717000A0923B46CBE9000132467DA1D1E9000156
:107180000CF058F898F80030C9E90001002B00F025
:10719000C7807D4B7D4F7E48012400263921C3E9FD
:1071A000006788F8004001F027F90023784A794801
:1071B000392101F097FAFE21764801F0D3FE002133
:1071C000744801F0E3FE0921724801F0F5FE7148B0
:1071D00001F046FC00216F4801F0DEFA2146112043
:1071E00009F05EFB02211B2009F05AFB6A4B6B4938
:1071F0001A686B4813895160C3F30E0343F49B7301
:107200002343138107214FF0FF331E2205F03CFE7C
:107210002146634805F07CFE614805F065FE234683
:1072200021463C2200945F4802F0C0FE5D4803F016
:107230003DF9642006F0E6FB5A4803F047F95A4846
:1072400000F0A6FF502008F02FFE0546044600F18E
:1072500050062046103400F08FFFB442F9D102AC42
:10726000524B00932046524B524A5349534E544F6F
:1072700000F086FF94E80F00009685E80F00204696
:107280004B4B504A504900F07BFF94E80F0005F14A
:107290001006009786E80F0020464C4B4C4A4D499B
:1072A0004D4F00F06DFF94E80F0005F120060097A8
:1072B00086E80F0020463E4B484A4949494F00F0B6
:1072C0005FFF94E80F0005F13006009786E80F0095
:1072D0002046374B444A454900F052FF94E80F00DE
:1072E0004FF4487705F14004002684E80F00019729
:1072F0002A46009605233E492B4800F08FFD07B033
:10730000BDE8F08F42464B46204629460CF0DAF89D
:1073100000283FF4FAAECAE9008944464D46F4E637
:10732000344A354BD2E900010DA7D7E90067C3E91C
:10733000000132463B46204629460CF0E1F858B998
:10734000002600272046294632463B460CF0BAF874
:1073500010B9CAE900451CE7CAE9006719E700BF90
:107360000000000000E06F402D431CEBE2364A3F76
:10737000000000000070B740683E0020603E002022
:1073800008360020083D0020803B002000003E40E1
:10739000303F0020283C0020543C0020B56F020004
:1073A0000C400020703C00208C3E00207C5C0300E0
:1073B00061660200103F00206C5C0300905C0300DB
:1073C000A05C0300183F0020845C03006966020093
:1073D000203F0020985C0300B05C0300283F0020A1
:1073E000A85C0300C85C0300603B0020B85C03009D
:1073F000D05C0300703B0020103D0020783B002053
:10740000683B002000002240003D0020F43C0020AA
:10741000F83C0020000000002DE9F04F2DED028B1C
:1074200089B006F0E3FA0546022009F03DF90C2088
:1074300009F034F99FEDC48A14241F2009F064F97F
:1074400007EE900A013CF8EE677A14F0FF0438EE7C
:10745000278AF2D12046BD4C09F026F90A2009F00E
:107460001DF9DFEDBB7A2368BA4A28EE278AEB1AAA
:10747000B3F57A7F82ED008A80F04E81B64E06F138
:107480002804B0463546042009F03EF945F8040BBF
:10749000AC42F8D1D8ED007A9FEDB06ADFF80493E2
:1074A000AF4CB04FDFF800A3B8EEE77AD8ED017A21
:1074B000F8EEE76AD8ED027A37EE267AF8EEE77A48
:1074C000D8ED036A77EE877AF8EEE66A98ED047AEB
:1074D00076EEA76AB8EEC77AD8ED057A37EE267A47
:1074E000F8EEE77AD8ED066A77EE877AF8EEE66A84
:1074F00098ED077A76EEA77AF8EEC76A98ED087AE3
:1075000076EEA76AB8EEC77AD8ED097A37EE267A12
:10751000F8EEE77AB7EE008A77EE877A86EE270AEA
:1075200030EE480A88EE000A0BF0DAFADFED8E7AC8
:1075300060EE277A17EE900A0BF0FAFC7EA3D3E9EF
:1075400000230BF097FB0CF02DF807EE900AC8EE25
:10755000277A17EE900A0BF0EBFC79A3D3E900230E
:107560000BF086FB0CF01EF80BF0E2FCC9E9000101
:10757000D4E900010BF0CEFF0023642219460092EB
:10758000FF2206F023FA0BF0C1FC97ED007B774B4E
:10759000CAE9000183ED007B042009F0B5F846F844
:1075A000040BAE42F8D1D8ED017A98ED007AD8ED0F
:1075B000026ADFED6A5A6E4E6E4DB8EEC77AF8EE8B
:1075C000E77AB8EEE66A77EE877A98ED037A36EED8
:1075D000276AF8EEC76AD8ED047A36EE866AF8EEC6
:1075E000E76AD8ED057A76EE866AB8EEE77AD8EDE6
:1075F000067A37EE267AB8EEE76AD8ED077A36EEE5
:10760000076AF8EEE76A98ED087AD8ED097A76EE1F
:10761000866AB8EEC77AF8EEE77A37EE267AB7EEE2
:10762000008A77EE877A85EEA70A30EE480A88EE60
:10763000000A0BF055FADFED4C7A60EE277A17EE70
:10764000900A0BF075FC3CA3D3E900230BF012FB6E
:107650000BF0A8FF07EE900AC8EE277A17EE900A03
:107660000BF066FC36A3D3E900230BF001FB0BF013
:1076700099FF07EE900AFDEEE77AD9E90023C6EDFF
:10768000007AD7E900010BF0F3FA3B4B1B78C5E910
:107690000001002B40F08A80384800F0EBFCD4E970
:1076A00000010BF05FFF0146102008F06FFF344827
:1076B00005F034FC40B2002809D0324AD2F812302A
:1076C000CCBF43F0080343F01003C2F812302E4839
:1076D0002E4D05F085FB2E4A2E4B16881C8806F091
:1076E00085F93319B0FBF3F101FB1301B1422CBF53
:1076F00000210121112009F015F96968284604F0DC
:10770000C7FD284604F010FE234809B0BDEC028BEB
:10771000BDE8F04F02F0DABE2048214E01F01EFC19
:1077200003211E4801F034F80BF0E0FB2560C6E9A8
:107730000001A3E6AFF3008083DBB5DCE1796B3FAA
:10774000666666666612714000000000AC3E00206E
:1077500035805738503C0020C43E002000D81F46DA
:10776000783B0020803B00202CBB8439183F002050
:10777000203F0020283F0020F43C00208C3E0020C9
:107780000C400020B03E0020543C0020283D00204A
:10779000F6380020F4380020703C0020283C0020FF
:1077A000603B0020703B0020103F0020424D06F05F
:1077B0001DF9424A2B681268C31A93428246FFF6AB
:1077C0006BAF99ED007BD7E9000153EC172B8DEDE2
:1077D000027B0BF04DFA3A4BDFF8F8B0D3E9002307
:1077E000CDE904010BF0FCFBDBE900230BF042FACE
:1077F000344BD3E9008906460F46CBE90067424681
:107800004B460BF07DFE002841D0CBE9008946466F
:107810004F462D4BDFF8C0B0DDE90401D3E900236A
:107820000BF0DEFBDBE90023CDE90401DDE9020119
:107830000BF01EFA254BD3E900230BF0D1FB0246D7
:107840000B46DDE904010BF013FA32463B460BF020
:1078500011FA06460F4640464946C4E900673246DB
:107860003B460BF02FFE48B9194BD3E9008930464F
:10787000394642464B460BF025FE08B1C4E9008963
:107880009DED027BC5F800A08BED007B04E7104B5B
:1078900093ED007B3046394653EC172B8DED067B7C
:1078A0000BF010FE0028B4D09DED067B8BED007B25
:1078B00057EC176BADE700BF183D002008360020DD
:1078C000003D0020603E0020083D0020F83C0020E4
:1078D000683E0020683B0020103D00202DE9F04F5D
:1078E000D04CD14EDFF82094DFF820A4CF4FDFF842
:1078F00020B485B0204600F0EBFE32462046CC494D
:107900000BF0E8F8002301221B21CA4805F054F9C6
:10791000DFF800C4C849C94B029101240025019336
:107920004FF47A78C64A1F214FF0FF330093484640
:10793000CCF800208CF81110CCE901588CF81040DC
:10794000C04B4022802102F041FA3246BE494846EF
:107950000BF0C0F8504600F031FA32465046BB49B1
:10796000BB4EDFF8B4A30BF0B5F8BA4ADFF8ACC3EE
:10797000B949DFF8ACE3B94B1472547295721360D5
:1079800051600622B64B8EF80420CCF804E0B548CE
:10799000DFF890E30A718CF80840B3498CF809408D
:1079A0008CF80A50CCF800E08AF80420DFF878E37D
:1079B000DFF878C3C6F804A0DFF874A3C3F800A00A
:1079C0001C725C729D7258600271A84B4B60032060
:1079D000A74BCEF804C08CF80400DFF858C334720B
:1079E0007472B572C6F800A00C72DFF84CA3A14EF9
:1079F0004C720B608EF808409F498EF80940CEF813
:107A000000C0DFF838E30A71CEF8041032719B49E8
:107A1000CAF804609A4E8AF808408AF809408AF841
:107A20000A50CAF80060DFF818A3C1F804A00C726D
:107A30004C728D720E608EF8084092498EF80940A3
:107A40008EF80A50CEF80060DFF8F8E28AF80420D9
:107A50008EF80420C1F804E08B4ADFF8ECE20E60F7
:107A60008A4EDFF8E8A20C724C728D72884913605E
:107A70001472547251608EF804008649C6F804E00E
:107A800034727472C6F800C0834E844ACAF8046027
:107A9000834EDFF8BCE24E60824E0B600C724C727B
:107AA00013608149147254725660804A804ECEF839
:107AB00000308EF808408EF80940CEF80420DFF838
:107AC00094E27C4A8AF808408AF80940C1F804E048
:107AD000CAF800300B60DFF880A20C724C72DFF83D
:107AE0007CE27549336034727472C6F804E0DFF8E2
:107AF00070E2724E13601472547256600871704EC8
:107B0000CAF804108AF808408AF80940CAF800C088
:107B1000DFF850A2CEF800308EF808408EF8094009
:107B2000CEF804A0674ADFF840E23360664BDFF826
:107B30003CA27360347274721071644ECEF80420EB
:107B4000634B644A8EF8084087E81C0029468EF88B
:107B500009403071CAF8046038468AF808408AF84B
:107B60000940CEF800C0CAF800C004F0D3FA5A4B5E
:107B70005A4ADF605A4F9F605A4FC3F81A704FF04D
:107B80000117C3F81E70584F1F60584F9F6202279D
:107B9000C3F824905D605D611D761F744FF0FF395E
:107BA000534B5448A2F820909360DFF8C491524E92
:107BB000DFF8C0C1DFF8C0E1C2F80C9004235146E1
:107BC0001374DFF8B8914D4BDFF8B4A155605561DF
:107BD0001576C2F80090D3614361494A494BDFF8FA
:107BE000A4910474C0E90158C0F80090CCF8088052
:107BF0003046CCF804508CF81040CCF80020CCF87B
:107C00001430DFF88491CBE9007AAEF80050AEF87A
:107C10000C50AEF81850C6E902E7C6E900BC34744F
:107C20007574B3E0283C002000360020703E002030
:107C3000E1860200543C0020A0860100801A060064
:107C400054590300303F0020259E0200D57D0200DC
:107C5000E83B0020C83B002004370020C85903003F
:107C6000003C002090370020F83D00209038002094
:107C70008062030084360020A4360020A83B002048
:107C8000705A0300B83B0020803D0020043F0020D4
:107C9000F0370020983D002000380020A43D00204F
:107CA0001038002020380020BC3D00203038002053
:107CB000C83D0020D43D0020183600206038002048
:107CC000EC3D0020A838002080380020C837002074
:107CD000183C0020103600200C3E0020383E0020CA
:107CE0007C3E002005000900805903007C5B0300F6
:107CF000843E0020EC3E0020283D0020184000205B
:107D0000A85A03000C360020703C00208C3E002056
:107D1000043E0020B03E002058370020D83B002011
:107D20002C370020005A0300643C0020503600200D
:107D3000385A0300B4580300883B0020983B0020C9
:107D4000C4360020E4360020C83800208C3D0020D6
:107D5000B03D0020403800201C3C0020503800205E
:107D6000E03D002070380020A03E00201C3D002097
:107D700000400020DC3C00205C3D0020E058030077
:107D8000A0380020285903002DB20200C6E906558C
:107D900086F8205086F8214086F82250B484C6E93F
:107DA0000A5586F83040C6F8149004F061FA394656
:107DB000304605B0BDE8F04F04F048BA10B50023D6
:107DC000C0E9033303608360044605F00FFE606082
:107DD000204610BD70B5C4682568064655B91BE03D
:107DE000184608F081F8204608F06EF82B6853B169
:107DF0002C461D4663692046002BF1D108F064F83B
:107E00002B68002BF4D1686908B108F06DF828469A
:107E100008F05AF8304670BD2546F4E72DE9F042E7
:107E2000044618200D4617461E469DF8189008F087
:107E30002BF80799E2688660002380F80490C0E977
:107E400003154761036052B12369186020612368FC
:107E50000133236005F0CAFD6060BDE8F082C4E92B
:107E60000300F4E72DE9F0410C46054670497148DE
:107E700005F0C6F864BB6F486F49704F064605F0C1
:107E8000BFF86F49304605F0BBF86E49304605F043
:107E9000B7F8AB6800249C4214DA6B6903EB041357
:107EA000D3E9020290470821304605F05BF9AB6840
:107EB00001349C42EFDA3946304605F0A1F8AB6850
:107EC0009C42EADB60495B48BDE8F04105F098B8A8
:107ED00058485949DFF8648106460F4605F090F886
:107EE0005A49304605F08CF85949304605F088F873
:107EF0003946304605F084F82969304605F080F8A7
:107F00003946304605F07CF85249304605F078F89D
:107F10005149304605F074F84D49304605F070F887
:107F20000A222979304605F081F84A49304605F0A1
:107F300067F84A49304605F063F84549304605F090
:107F40005FF80A22E968304605F070F8414930468A
:107F500005F056F84249304605F052F83C493046A3
:107F600005F04EF80A22A968304605F05FF8394955
:107F7000304605F045F83B49304605F041F83149B7
:107F8000304605F03DF8AB6800249C423946304647
:107F900018DA05F035F823016A693046D15805F042
:107FA0002FF83946304605F02BF8AB6801349C4277
:107FB000EBDA4146304605F023F8AB689C4239467F
:107FC0003046E6DB1B4828491B4FDFF87080064629
:107FD00005F016F82549304605F012F819493046E3
:107FE00005F00EF8AB6800249C423946304619DA99
:107FF00005F006F86B6903EB04133046596804F08A
:10800000FFFF3946304604F0FBFFAB6801349C4269
:10801000EADA4146304604F0F3FFAB689C42394649
:108020003046E5DB1249034804F0EAFF23E700BFCE
:10803000E85C030018400020EC5C0300105D0300C6
:10804000205D03000C5D0300245D0300F05C030071
:10805000F45C0300F85C0300FC5C0300005D0300BB
:10806000045D0300085D0300145D0300185D030058
:108070001C5D03002DE9F041064633493348B468DE
:1080800004F0BEFF3249314804F0BAFF31492F48AD
:1080900004F0B6FF05F0AAFCB4FA84F501460A2202
:1080A0002A486D0905F030F85CB32B49274804F0E5
:1080B000A7FF2A49254804F0A3FF2949234804F0D3
:1080C0009FFFF4686CB1DFF8AC80204F2046294652
:1080D000FFF7C8FE24684146384614B104F090FF0B
:1080E000F4E72049194804F08BFF1F49174805F0B1
:1080F00057F8B3680133312BC8BF0023B360BDE824
:10810000F0811549114804F07BFF18490F4804F02D
:1081100077FF10490D4804F073FF0A2231680B48BD
:1081200004F084FF0C49094804F06AFF104907482D
:1081300004F066FF0749054804F062FF0A227168EF
:10814000024804F0E1FFB0E7D45C030018400020CF
:10815000F05C0300F45C0300F85C0300E05C0300E7
:108160000C5D0300245D0300E45C0300D85C0300A5
:10817000DC5C0300105D03000022C0E902227047AE
:1081800030B4029D45600160C0E9022330BC7047F5
:1081900010B54FF4E1310446034805F0CFF905F07E
:1081A00025FC606010BD00BF18400020704700BF74
:1081B000203005F037B800BF203005F025B800BFEB
:1081C000203005F035B800BF38B5437F0BB900202B
:1081D00038BD00F1680420460D4605F031F800284E
:1081E000F5D12046294604F0FDFF012038BD00BF2F
:1081F0002DE9F0475AB30646DFF8588033681B680C
:108200004D1E434517464FF0000400F1680915F86C
:1082100001AF16D1737F13B92046BDE8F0874846F9
:1082200005F00EF80028F7D15146484604F0DAFF71
:108230000134A742F0D0336815F801AF1B684345FD
:10824000E8D05146304698470028F1D1E4E714467B
:10825000E2E700BFC981020030B4827E4FF0A04344
:1082600002F5E07240F20C640121C17643F822402D
:10827000427E02F5E0724FF0CC7543F8224003696C
:10828000C3F8245503690622C3F800250369827EDA
:10829000C3F808250369427EC3F80C2590F918300D
:1082A000002B13DA124A03F00F031A4460231376EB
:1082B00090F91830002B07DB0E4903F01F00012254
:1082C0005B09824041F8232030BC70475C09603470
:1082D00003F01F03074A01FA03F342F8243090F930
:1082E0001830002BDEDB1344602283F80023DFE725
:1082F000FCEC00E000E100E0C37EE3B10E4B02695C
:1083000010B499424FF00004C2F8004510D90B4B4D
:10831000994294BF4FF080614FF0C86103695DF8E6
:10832000044BC3F8241503690622C3F800257047DF
:108330004FF0CC71F2E77047A086010090D00300A7
:108340000AB9104670472DE9F041054600F12008B2
:10835000404614461E460F4604F052FF2B69C3F8F0
:1083600088752A69012313622A69C2F834852A694B
:10837000C2F838452A6913602A6902E0D2F824312C
:108380001BB9D2F84C110029F8D00023C2F84C31A7
:108390002A6902E0D2F8241119B9D2F85C11002937
:1083A000F8D00023C2F85C312B696EB9D3F82421D0
:1083B00052B90122DA612A69D2F84831002BFBD088
:1083C0000023C2F8483109E001225A612A69D2F833
:1083D0000431002BFBD00023C2F804312B69D3F801
:1083E00024211AB10022C3F824212B69D3F83C05BB
:1083F0002866C0B2BDE8F08110B50446683084F844
:10840000B01004F0FDFE0123637710BDF8B50446FB
:108410000020236994F8B0206077C3F88825236989
:1084200001271F62236904F16806C3F844653046DA
:108430000D4604F0F7FE2369C3F8480523699F60E1
:10844000236902E0D3F824211AB9D3F85021002A75
:10845000F8D00022C3F85021304604F0E3FE23692F
:1084600040BB0022C3F86021236915B9D3F8242149
:108470002AB301225A612269D2F80431002BFBD0C1
:108480000023C2F804312369D3F8240168B1002223
:10849000C3F824212369D3F8C404C3F8C404022810
:1084A00003D0042814BF04200320F8BDD3F82421EE
:1084B000002AD6D1D3F86021002AF7D0D1E70122D3
:1084C000DA612269D2F84831002BFBD00023C2F8D0
:1084D0004831D8E770B5036990F8B02000214177A2
:1084E000C3F88825036901261E62036900F1680547
:1084F0000446C3F84455284604F094FE2369C3F8A3
:10850000480523699E60236902E0D3F824211AB943
:10851000D3F85021002AF8D00022C3F85021284671
:1085200004F080FE236918BB0022C3F86021236990
:1085300001225A612269D2F80431002BFBD00021BC
:10854000C2F804112369D3F8240160B1C3F82411DF
:108550002369D3F8C404C3F8C404022803D0042850
:1085600014BF0420032070BDD3F82421002ADBD1DE
:10857000D3F86021002AF7D0D6E700BF70B5294CA8
:108580006369D3F86421002A3AD1D3F86821E2B9AB
:10859000D3F8042162B1227F0021C3F804113AB15B
:1085A000D4F8B820D3F83C0520660AB19047636937
:1085B000D3F8242142B10022C3F82421D3F8D024D7
:1085C000C3F8D02401225A6170BD0022C3F868218B
:1085D000154822770123637704F012FED4F8B430F3
:1085E00003B1984763691048C3F8440500236377D3
:1085F00004F018FE63690122C3F848055A63C7E70F
:10860000002204F12006C3F86421012530462577B5
:1086100004F0F6FD63694022C3F83465C3F83825D9
:108620001D63B2E7303F0020983F002038B50E4C64
:108630000E4A20464FF47A7340F8202B0025C4E9F7
:10864000015304F0C5FD04F1680004F0C1FD084ABF
:10865000084B6577D2E91912032020766176A2765D
:10866000C4E9043338BD00BF303F0020305D030053
:108670002463030000300040F0B591B001240025D0
:1086800081680194234692220646009504A808F0CA
:108690006BFC04A808F0DEFC10EA040702D02846B0
:1086A00011B0F0BDB1682346CDE900740AA880225C
:1086B00008F05AFC0AA93B46224602A808F06EFDC3
:1086C000214602A808F0E0FD204611B0F0BD00BF31
:1086D000024A02600022027182607047545D03000A
:1086E000704700BF2DE9F0410446806890B00E4607
:1086F0001746984608B107F0E7FB102007F0C4FBC7
:108700003A460546314608F0A9FEA56028460121F3
:1087100008F0AEFE054618B9284610B0BDE8F08155
:1087200023681A4A1B6893422AD101260027A168B0
:1087300001963346922204A8009708F015FC04A87D
:1087400008F088FC10EA060804D03D46284610B020
:10875000BDE8F081A1683346CDE900860AA88022F1
:1087600008F002FC0AA94346324602A808F016FDAA
:10877000314602A808F088FD284610B0BDE8F08117
:108780004146204698470546C6E700BF7986020065
:1087900000EB410188897047F0B583689BB00124E4
:1087A000002605460F467022194608A82346019464
:1087B000009608F0D9FB08A92246032302A808F076
:1087C000EDFCA96823467422CDE900640EA808F0E8
:1087D000CBFB0EA92246072304A808F0DFFCA968FA
:1087E0002346A922CDE9006414A808F0BDFB224667
:1087F00014A9042306A808F0D1FC214606A808F015
:1088000043FD394602A808F03FFDB8B90646A968FD
:1088100001240025234601940095A92214A808F0FC
:10882000A3FB224614A9042306A808F0B7FC294696
:1088300006A808F029FD30461BB0F0BD394604A853
:1088400008F022FD0646E2E770B588B00024012555
:108850000646816801952B46224602A8009408F03E
:1088600083FB224602A8302108F08EFBB1682B461C
:108870002A46CDE9004502A808F076FB22462946A3
:1088800002A808F081FBB1682B46CDE9004502A89B
:10889000022208F069FB2246214602A808F074FB78
:1088A000B1682B46CDE9004502A8032208F05CFB25
:1088B0002246214602A808F067FBB1682B46CDE9A5
:1088C000004502A8042208F04FFB2246214602A8D8
:1088D00008F05AFBB1682B46CDE9004502A80522F5
:1088E00008F042FB224602A8422108F04DFBB16885
:1088F0002B46CDE9004502A8062208F035FB2246AA
:10890000214602A808F040FBB1682B46CDE900459E
:1089100002A8072208F028FB2246214602A808F0F8
:1089200033FBB1682B46CDE9004502A8082208F0C8
:108930001BFB224602A8502108F026FBB1682B46FB
:10894000CDE9004502A8092208F00EFB2246214687
:1089500002A808F019FBB1682B46CDE9004502A832
:108960000A2208F001FB2246214602A808F00CFB6F
:10897000B1682B46CDE9004502A80B2208F0F4FAB5
:108980002246214602A808F0FFFAB1682B46CDE93D
:10899000004502A80C2208F0E7FA224602A820218E
:1089A00008F0F2FAB1682B46CDE9004502A80D2285
:1089B00008F0DAFA224602A8042108F0E5FAB168C4
:1089C0002B46CDE9004502A80E2208F0CDFA22463A
:1089D000214602A808F0D8FAB1682B46CDE9004537
:1089E00002A80F2208F0C0FA224602A8302108F09F
:1089F000CBFAB1682B46CDE9004502A8102208F059
:108A0000B3FA2246294602A808F0BEFAB1682B46FE
:108A1000CDE9004502A8112208F0A6FA224602A8D4
:108A2000502108F0B1FAB1682B46CDE9004502A803
:108A3000122208F099FA2246214602A808F0A4FA68
:108A4000B1682B46CDE9004502A8132208F08CFA44
:108A5000224602A8062108F097FA08B070BD00BFB0
:108A600070B58AB001240026816880F8246005462C
:108A7000234601948022009604A808F075FA234644
:108A8000224604A902A808F089FB314602A808F092
:108A9000FBFBA9682346CDE90064AF2204A808F0D7
:108AA00063FA0323022204A902A808F077FB02213B
:108AB00002A808F0E9FB2846FFF7C6FEA96823468E
:108AC000CDE90064802204A808F04EFA224604A9E9
:108AD000042302A808F062FB214602A808F0D4FB98
:108AE00040F2E93405E0013C4FF0010006D004F00B
:108AF00089FF02A808F05AFB0028F4D101240022C3
:108B0000A968009223460194802204A808F02CFA58
:108B10002346224604A902A808F040FB214602A8E9
:108B200008F0B2FB204685F824400AB070BD00BFB3
:108B300070B588B0002401250646816801952B4652
:108B4000224602A8009408F00FFA2246214602A805
:108B500008F01AFAB1682B462A46CDE9004502A86A
:108B600008F002FA2246214602A808F00DFAB16880
:108B70002B46CDE9004502A8022208F0F5F922466D
:108B8000214602A808F000FAB1682B46CDE900455D
:108B900002A8032208F0E8F9224602A8402108F0C2
:108BA000F3F9B1682B46CDE9004502A8042208F08C
:108BB000DBF9224602A8022108F0E6F9B1682B464B
:108BC000CDE9004502A8052208F0CEF9224621464B
:108BD00002A808F0D9F9B1682B46CDE9004502A8F2
:108BE000062208F0C1F9224602A8102108F0CCF9AB
:108BF000B1682B46CDE9004502A8072208F0B4F978
:108C0000224602A8032108F0BFF9B1682B46CDE93E
:108C1000004502A8082208F0A7F9224602A8502120
:108C200008F0B2F9B1682B46CDE9004502A8092247
:108C300008F09AF9224602A8102108F0A5F9B168B7
:108C40002B46CDE9004502A80A2208F08DF92246FC
:108C500002A8032108F098F9B1682B46CDE9004538
:108C600002A80B2208F080F92246214602A808F04B
:108C70008BF9B1682B46CDE9004502A80C2208F01B
:108C800073F92246214602A808F07EF9B1682B4606
:108C9000CDE9004502A80D2208F066F922462146DA
:108CA00002A808F071F9B1682B46CDE9004502A889
:108CB0000E2208F059F9224602A8242108F064F98E
:108CC000B1682B46CDE9004502A80F2208F04CF907
:108CD0002246214602A808F057F9B1682B46CDE993
:108CE000004502A8102208F03FF92246214602A8BA
:108CF00008F04AF9B1682B46CDE9004502A81122D7
:108D000008F032F9224602A8502108F03DF9B16876
:108D10002B46CDE9004502A8122208F025F922468B
:108D2000214602A808F030F9B1682B46CDE900458C
:108D300002A8132208F018F9224602A8062108F01A
:108D400023F908B070BD00BF2DE9F041836890B0F1
:108D5000012400270546019480220E460AA81946E0
:108D60000097234608F000F9234622460AA904A8E2
:108D700008F014FA394604A808F086FAA9682346D0
:108D8000CDE90074AF220AA808F0EEF8032302220E
:108D90000AA904A808F002FA022104A808F074FA4B
:108DA0002846FFF751FDA9682346CDE900748022CB
:108DB0000AA808F0D9F822460AA9042304A808F052
:108DC000EDF9214604A808F05FFA40F2E93405E025
:108DD000013C4FF0010006D004F014FE04A808F096
:108DE000E5F90028F4D101240027A968019423465D
:108DF000802200970AA808F0B7F8234622460AA95D
:108E000004A808F0CBF9214604A808F03DFAB846BA
:108E100002E0012004F0F6FDA9680123A322CDE9B8
:108E200000840AA808F0A0F8062301220AA904A8D1
:108E300008F0B4F904A808F0B9F90028E9D0A96845
:108E40000223CDE90084952204A808F08DF80C22B5
:108E5000314604A808F066F9A9680123CDE9008429
:108E6000802207460AA808F07FF801231A460AA9BB
:108E700002A808F093F9002102A808F005FAA968F1
:108E80000123CDE90084AF220AA808F06DF803237E
:108E900002220AA902A808F081F9022102A808F01A
:108EA000F3F92846FFF744FEA9680123CDE90084C1
:108EB00080220AA808F058F8042301220AA902A86F
:108EC00008F06CF902A8012108F0DEF940F2E9345B
:108ED00005E0013C4FF0010006D004F093FD02A82C
:108EE00008F064F90028F4D101244FF00008A968C3
:108EF00001942346CDF8008080220AA808F034F8B7
:108F00000AA92346224602A808F048F9214602A8E9
:108F100008F0BAF902E0012004F074FDA968012309
:108F2000A322CDE900840AA808F01EF80623012236
:108F30000AA902A808F032F902A808F037F90028B7
:108F4000E9D037B106F10C0104A80C2208F0EAF8C8
:108F50000746384610B0BDE8F08100BF00F10C01B3
:108F6000FFF7F2BE30B5826889B0012300240D46B8
:108F7000CDE90043114602A8812207F0F5FF224601
:108F8000294602A808F000F809B030BD30B5826863
:108F900089B0002401230D46CDE900431146022388
:108FA00002A8CA2207F0E0FF2246294602A807F0DD
:108FB000EBFF09B030BD00BF30B5826889B0012336
:108FC00000240D46CDE90043114602A8AA2207F06D
:108FD000CBFF2246294602A807F0D6FF09B030BDD4
:108FE000002929DB30B4B0F90C408C4222DD002A84
:108FF00020DBB0F90E4094421CDD847E022C4BD065
:10900000032C43D0012C18D0012B2ED01BD3022BC4
:1090100010D1002A0489C06A1346B8BFD31DDB10E3
:1090200013FB041102F00702445C012303FA02F26D
:109030006240425430BC704770470489D2431444A4
:109040000A4621B2E0E7002A0489C06A1346B8BF85
:10905000D31DDB1013FB041102F00704435C012253
:10906000A24023EA02034354E4E7002A0489C06AC9
:109070001346B8BFD31DDB1013FB041102F0070227
:10908000445C0123934023434354D3E74489013C88
:10909000641A114622B2B7E704894589D243013CDC
:1090A0002A44611A12B209B2AEE700BFF8B504460D
:1090B000806A0D4668B394F83010FFF79DF9A06AF6
:1090C000036800211B689847A36A2F1D01261A68B0
:1090D00015F8011B1268184690470136BD42B6B21A
:1090E00012D0A36A3F2E1846F1D1FFF7F3F994F896
:1090F0003010A06AFFF780F9A06A036800211B689E
:1091000098470126A36AE2E7A06ABDE8F840FFF7A6
:10911000E1B9226C216D136823EA010313602E1D4F
:1091200004E007F0D7FEB54200F09A80606A15F8B7
:10913000011B0028F5D1D4E90E23A06C176811F0AB
:10914000800F0CBF27EA0000384310601868E76CF6
:10915000384318601868E76C20EA07001860176841
:10916000A06C11F0400F0CBF27EA000038431060DC
:109170001868E76C384318601868E76C20EA070045
:1091800018601768A06C11F0200F0CBF27EA0000D0
:10919000384310601868E76C384318601868E76C4B
:1091A00020EA070018601768A06C11F0100F0CBFC0
:1091B00027EA0000384310601868E76C38431860ED
:1091C0001868E76C20EA070018601768A06C11F0B7
:1091D000080F0CBF27EA0000384310601868E76CDE
:1091E000384318601868E76C20EA070018601768B1
:1091F000A06C11F0040F0CBF27EA00003843106088
:109200001868E76C384318601868E76C20EA0700B4
:1092100018601768A06C11F0020F0CBF27EA00005D
:10922000384310601868E76C384318601868E76CBA
:1092300020EA0700186011F0010FA06C116814BF3C
:10924000084321EA000010601A68E16C0A431A60C2
:109250001A68E16CB54222EA01021A607FF466AF37
:10926000F8BD00BF2DE9F041847EBDF81850022CF6
:109270007AD0032C73D0012C07D0002A03DBB0F97D
:109280000A4094427BDCBDE8F0810489D243224449
:1092900012B2002AF7DBB0F908609642F3DD00292C
:1092A000BEBF5B1800211BB2B0F90A700C461C440B
:1092B000BC42C4BF7B1A1BB2002BE4DDC9B2CC0890
:1092C000D0F82CC016FB042211F00701DBB20CEB26
:1092D000020721D0C1F10801CCB2C349A342095D04
:1092E00080F07681A4EB030EFF2646FA0EF6012DE0
:1092F00001EA060100F0FC81C0F00082022DC2D11B
:109300001CF8026071400CF80210A342BBD3B0F904
:1093100008201B1BDBB21744072B11D9022D00F0CC
:10932000F481002D14BFFF2400241A463C70083A33
:10933000B0F90810D2B2072A0F44F7D803F0070398
:10934000002BA0D0A94A012DD35C00F0F581C0F01C
:10935000EE81022D97D13A7853403B7093E74489D0
:109360001944611A09B294E746890489D243324408
:10937000194412B2611A002A09B280DA83E700297F
:10938000BEBF5B181BB20021B0F908405E18A642B0
:10939000C4BF631A1BB2002B8E467FF774AF002A3E
:1093A0001646B8BFD61DF1104FF0010CC76A02F087
:1093B000070214FB01E60CFA02F26545D2B207EB94
:1093C000060100F01581C0F08380022D7FF45BAFB1
:1093D0009BB24C425D1E04F00304ADB2E01C85421A
:1093E0000FFA85FC48D3002C00F0AA81B85DA3F1E8
:1093F000020C5040012CB8550FFA8CFC01F1010809
:1094000013D04878A3F1030C5040032C48700FFA96
:109410008CFC01F1020808D18878A3F1040C5040BB
:10942000887001F103080FFA8CFC4FF0000E62F314
:10943000070E181BA11962F30F2E86B27B1862F378
:10944000174E62F31F6EB7081C1F002054F8041F4C
:10945000013085B28EEA0101AF4243F8041BF5D812
:1094600026F003039BB2ACEB030C9E420FFA8CFC7C
:1094700008EB03013FF407AF0B781FFA8CF0534061
:10948000441E0B70A4B2BCF1000F3FF4FCAE4D784B
:10949000831E55404D709BB2002C3FF4F4AE8D7886
:1094A000C41E55408D70A4B2002B3FF4ECAECB78B7
:1094B0005340CB70002C3FF4E6AE0B79042883EACE
:1094C00002030B713FF4DFAE4B795A404A71DAE682
:1094D0009BB248425C1E00F00300A4B2C51CD243FC
:1094E000AC425FFA82FC22B243D3002800F02C8108
:1094F000BC5D9A1E0CEA04040128BC5512B201F1AD
:10950000010E11D04C78DA1E0CEA040403284C70CA
:1095100012B201F1020E07D18C781A1F0CEA040472
:109520008C7001F1030E12B24FF000086CF30708C3
:1095300081191B1A6CF30F2839449EB26CF317483B
:109540006CF31F68B7080C1F002054F8043F01306B
:1095500085B208EA0303AF4241F8043BF5D826F090
:1095600003039BB2D21AB34212B20EEB03013FF4D3
:109570008AAE0B7890B20CEA0303441E0B70A4B2BF
:10958000002A3FF480AE4A78831E0CEA02024A7039
:109590009BB2002C3FF477AE8C78C21E0CEA040418
:1095A0008C7092B2002B3FF46EAECB780CEA0303C2
:1095B000CB70002A3FF467AE0B7904280CEA030352
:1095C0000B713FF460AE4B790CEA03034B715AE622
:1095D000012D00F08D80C0F09180022D3FF490AEFF
:1095E0001B1BDBB2374497E64C6203005462030056
:1095F0009BB24C42581E04F0030480B2E51C854225
:109600000FFA80FC48D8002C00F09C80B85DA3F1D4
:10961000020C1043012CB8550FFA8CFC01F1010E1D
:1096200013D04878A3F1030C1043032C48700FFAB1
:109630008CFC01F1020E08D18878A3F1040C1043D0
:10964000887001F1030E0FFA8CFC4FF0000862F3F2
:109650000708A1191B1B62F30F2839449EB262F35D
:10966000174862F31F68B7080C1F002054F8043F26
:10967000013085B248EA0303AF4241F8043BF5D814
:1096800026F003039BB2ACEB030C9E420FFA8CFC5A
:109690000EEB03013FF4F7AD0B781FFA8CF0134388
:1096A000441E0B70A4B2BCF1000F3FF4ECAD4D783A
:1096B000831E15434D709BB2002C3FF4E4AD8D78B2
:1096C000C41E15438D70A4B2002B3FF4DCADCB78E3
:1096D0001343CB70002C3FF4D6AD0B79042843EA3A
:1096E00002030B713FF4CFAD4B791A434A71CAE5BF
:1096F0001CF8026031430CF8021006E61CF8026008
:1097000026EA01010CF80210FFE51A463978C94330
:109710003970083AB0F90810D2B2072A0F44F5D8C8
:1097200013F007033FF4AFAD084AD35C13E63A7871
:1097300022EA03033B70A6E53A7813433B70A2E5A7
:10974000884672E68E4680E78E46EDE65462030058
:1097500038B50446806A0D46002800F0B580A16D3A
:10976000FEF7CAFDA06A002D0CBFA625A72500287C
:1097700040F08A80226C216D1368606A23EA01033D
:109780001360002876D1A26BA06C1168E36B0143D3
:1097900011601968E06C014319601968E06C21EAF6
:1097A000000119601168A06C21EA000111601968BC
:1097B000E06C014319601968E06C21EA000119604E
:1097C0001168A06C014311601968E06C01431960D5
:1097D0001968E06C21EA000119601168A06C21EAA7
:1097E000000111601968E06C014319601968E06CB0
:1097F00021EA000119601168A06C21EA00011160E2
:109800001968E06C014319601968E06C21EA0001F5
:1098100019601168A06C014311601968E06C014384
:1098200019601968E06C21EA000119601168A06CE8
:10983000014311601968E06C014319601968E06C1C
:1098400021EA000119601068A16CA62D14BF014324
:1098500020EA010111601A68E06C616C02431A6031
:109860001A68E06C22EA00021A60626D0B6813430A
:109870000B6038BD294607F02DFBA06AC0B1E16D31
:10988000BDE83840FEF738BD94F83010FEF7B4FD5F
:10989000A06A036800211B689847A06A03682946EC
:1098A0001B689847A06AFEF715FEA06A0028E6D15B
:1098B000626C616D1368606A0B4313600028D8D036
:1098C000BDE8384007F000BB626A3AB104F16403B6
:1098D000104693E8060007F0A9FAA06A626C616D71
:1098E000136823EA010313603DE700BF2DE9F0414F
:1098F000857EBDF81860022D00F00B81032D00F06D
:109900000381012D54D0002950DBB0F908708F423B
:109910004CDD002ABEBF9B1800221BB2B0F90A50D2
:1099200014461C44AC42C4BFAB1A1BB2002B3DDD35
:10993000D2B2D408D0F82CC017FB041112F00702E1
:10994000DBB20CEB010521D0C2F10802D4B2C64A49
:10995000A342125D80F07B81A4EB030EFF2747FA40
:109960000EF7012E02EA070200F0FF81C0F0038229
:10997000022E1BD11CF801707A400CF80120A34282
:1099800014D3B0F908201B1BDBB21544072B00F2DF
:10999000CC805BB1B54A012ED35C00F00A82C0F0E6
:1099A0000382022E02D12A7853402B70BDE8F08149
:1099B00004891A44A21A12B20029F7DBB0F90A404E
:1099C0008C42F3DD002ABEBF9B181BB20022B0F907
:1099D00008409F18A7421546C4BFA21A13B2002B15
:1099E000E4DD0029C76A0846B8BFC81DC21001F0EF
:1099F00007000121814014FB0252012EC9B207EB7E
:109A0000020000F03581C0F0A380022ECED11FFAF3
:109A100083F8444208F1FF3504F00304ADB2E31CBF
:109A20009D422EB246D3002C00F0CB81BB5CA8F146
:109A300002064B40012CBB5436B200F1010E11D08E
:109A40004378A8F103064B40032C437036B200F173
:109A5000020E07D18378A8F104064B40837000F111
:109A6000030E36B24FF0000C61F3070CA8EB0408AC
:109A7000224461F30F2CBB181FFA88F861F3174CCE
:109A800061F31F6C4FEA98071C1F002054F8042F45
:109A9000013085B28CEA0202AF4243F8042BF5D8BC
:109AA00028F003039BB2F61A984536B20EEB03007A
:109AB0003FF47CAF0378B4B24B40621E037092B2A5
:109AC000002E3FF473AF4578A31E4D4045709BB206
:109AD000002A3FF46BAF8578E21E4D40857092B24C
:109AE000002B3FF463AFC3784B40C370002A3FF4B0
:109AF0005DAF0379042C83EA010303713FF456AF91
:109B000043795940417151E74489C943214409B21D
:109B100052E704894589C94321441A4409B2AA1A63
:109B2000002912B2BFF6F1AE40E7022E00F02A8102
:109B3000002E14BFFF24002419462C700839B0F9F8
:109B40000820C9B207291544F7D803F0070320E716
:109B50001FFA83F8444208F1FF3504F00304ADB264
:109B6000E31CC9439D42C9B22EB246D3002C00F07B
:109B70002481BB5CA8F102060B40012CBB5436B219
:109B800000F1010C11D04378A8F103060B40032C1F
:109B9000437036B200F1020C07D18378A8F10406B5
:109BA0000B40837000F1030C36B24FF0000E61F3EE
:109BB000070EA8EB0408224461F30F2E3A441FFA63
:109BC00088F861F3174E61F31F6E4FEA9807141F70
:109BD000002054F8043F013085B20EEA0303AF427F
:109BE00042F8043BF5D828F003039BB2F61A43452C
:109BF00036B20CEB03003FF4D9AE0378B4B20B409D
:109C0000621E037092B2002E3FF4D0AE4578A31EC0
:109C10000D4045709BB2002A3FF4C8AE8578E21E25
:109C20000D40857092B2002B3FF4C0AEC3780B405C
:109C3000C370002A3FF4BAAE0379042C03EA01038F
:109C400003713FF4B3AE437919404171AEE6012E82
:109C500000F08B80C0F08F80022E3FF48BAE1B1B78
:109C6000DBB23D4492E600BF4C6203005462030045
:109C70001FFA83F8454208F1FF3405F00305A4B24A
:109C8000EB1C9C4226B246D3002D00F09880BB5CB2
:109C9000A8F102060B43012DBB5436B200F1010CB2
:109CA00011D04378A8F103060B43032D437036B25D
:109CB00000F1020C07D18378A8F104060B438370EE
:109CC00000F1030C36B24FF0000E61F3070EA8EB63
:109CD00005082A4461F30F2E3A441FFA88F861F30D
:109CE000174E61F31F6E4FEA9807141F002054F8B7
:109CF000043F013085B24EEA0303AF4242F8043B11
:109D0000F5D828F003039BB2F61A984536B20CEB4F
:109D100003003FF44BAE0378B4B20B43621E0370F2
:109D200092B2002E3FF442AE4578A31E0D4345701B
:109D30009BB2002A3FF43AAE8578E21E0D4385704F
:109D400092B2002B3FF432AEC3780B43C370002AAB
:109D50003FF42CAE0379042C43EA010303713FF472
:109D600025AE43791943417120E61CF801703A434E
:109D70000CF8012003E61CF8017027EA02020CF837
:109D80000120FCE51A462978C9432970083AB0F940
:109D90000810D2B2072A0D44F5D813F007033FF498
:109DA00005AE094AD35CFEE52A7822EA03032B704C
:109DB000FCE52A7813432B70F8E58446F5E68446E3
:109DC00081E786464EE600BF546203002DE9F0416C
:109DD000079F9DF91880104E04461D4608F08AFA28
:109DE0000E4B0F49A7654FF0FF304FF48072002DE6
:109DF00008BF1D46089FC4F83300002384F837804D
:109E00006166A4F86820E765A56226606362E36284
:109E10002046BDE8F08100BF00620300303F002013
:109E200000093D0010B50446C06A034B236008B129
:109E300009F05CFC204610BD00620300836A70B527
:109E40000A46002B40F09B80046C066D2368456A2F
:109E500023EA06032360002D40F08C80D0E90E1326
:109E6000846C0D68160654BF25EA04042C430C606C
:109E70001C68C56C2C431C601C68C56C24EA050476
:109E80001C600D68846C560654BF25EA04042C43FC
:109E90000C601C68C56C2C431C601C68C56C24EAF3
:109EA00005041C600D68846C960654BF25EA040402
:109EB0002C430C601C68C56C2C431C601C68C56C72
:109EC00024EA05041C600D68846CD60654BF25EA9C
:109ED00004042C430C601C68C56C2C431C601C687B
:109EE000C56C24EA05041C600D68846C160754BF19
:109EF00025EA04042C430C601C68C56C2C431C60D0
:109F00001C68C56C24EA05041C600D68846C560747
:109F100054BF25EA04042C430C601C68C56C2C4318
:109F20001C601C68C56C24EA05041C600D68846C08
:109F3000960754BF25EA04042C430C601C68C56CCA
:109F40002C431C601C68C56C24EA05041C6012F0DC
:109F5000010F846C0A6814BF144322EA04040C60E5
:109F60001A68C16C0A431A60C16C1A6822EA0102BD
:109F70001A6070BD2846BDE8704006F0ABBF0446CD
:109F80000D46184694F83010FEF736FAA06A0368BA
:109F900000211B689847A06A036829461B689847F8
:109FA000A06ABDE87040FEF795BA00BF2DE9F04306
:109FB0000E46B0F90A1004461F46CB1D85B048BFB7
:109FC00001F10E03B4F90890C06A9DF83080DB10EF
:109FD000154609FB03F9002800F015824A460021C6
:109FE00009F0C2FBB4F90A20B4F90810202A00F3E2
:109FF000D3800120203A73394FF0200C029002EBFD
:10A00000D272732001EBD171CDE9000C9F4B204639
:10A0100042F34F0241F34F0108F088F9A06A84F837
:10A020003160002800F0D380002D40F0DF81B4F9CA
:10A030000A30202B14BF3D253C2584F83050B8F160
:10A04000000F40F0DA81002F00F0F88094F937001B
:10A05000002817DB012106F023FC012194F93700C9
:10A0600006F060FC012003F0CDFC002194F93700DC
:10A0700006F058FC0A2003F0C5FC012194F93700D2
:10A0800006F050FCA06A002840F0D880606A28B131
:10A0900004F1640393E8060006F0C8FE626C616D8B
:10A0A000136823EA0103136079492046FEF7FEFF97
:10A0B000A17A0139C9B22046FFF7C0FE7549204692
:10A0C000FEF7F4FF94F93130012B14BF1421102155
:10A0D0002046FFF7B3FE70492046FEF7E7FFA3686E
:10A0E0006E4A8F21934284F8601008D002F5001266
:10A0F000934200F090816A4A934200F09A810225CF
:10A10000DA212046FFF79AFE29462046FFF796FE01
:10A1100081212046FFF792FE94F860102046FFF759
:10A120008DFED9212046FFF789FE94F93130012BAD
:10A13000204614BFF1212221FFF780FEA06A0028EB
:10A1400000F09B8094F83010564FFEF755F9A06A46
:10A15000036800211B689847A36ABE1D01251A6881
:10A1600017F8011B1268184690470135B742ADB287
:10A1700068D0A36A3F2D1846F1D1FEF7ABF994F8E9
:10A180003010A06AFEF738F9A06A036800211B6846
:10A1900098470125A36AE2E70120403A52394FF07F
:10A1A000400C029002EBD272522001EBD171CDE94A
:10A1B000000C3D4B204642F34F0241F34F0108F0A3
:10A1C000B5F8A06A84F8316000287FF42DAF012132
:10A1D00094F93500354D364E06F062FB94F93600A1
:10A1E000012106F05DFB94F93530314A55F82330F2
:10A1F00022641F2B88BF203B012202FA03F394F94B
:10A200003620236555F82220294B63641F2A88BF16
:10A21000203A0123934063653268606A13433360D8
:10A22000002800F01681B8F1000F40F00C81002FDB
:10A230007FF40CAFA06A00283FF428AFA16DFEF7B1
:10A240005BF831E7A06AFEF745F9A06A30B1E16D2D
:10A25000FEF752F8012005B0BDE8F083626C616D35
:10A260001368606A0B431360002800F0DE8006F07C
:10A270002BFE012005B0BDE8F083226C216D136830
:10A28000084D23EA01031360AE1D17E018600300B8
:10A290005C620300606203006462030080002000CF
:10A2A0006000100068620300585D0300246303002F
:10A2B0000405005006F00EFEB542C6D0606A15F8DF
:10A2C000011B0028F6D1D4E90E23A06C176811F009
:10A2D000800F0CBF27EA0000384310601868E76C55
:10A2E000384318601868E76C20EA070018601768A0
:10A2F000A06C11F0400F0CBF27EA0000384310603B
:10A300001868E76C384318601868E76C20EA0700A3
:10A3100018601768A06C11F0200F0CBF27EA00002E
:10A32000384310601868E76C384318601868E76CA9
:10A3300020EA070018601768A06C11F0100F0CBF1E
:10A3400027EA0000384310601868E76C384318604B
:10A350001868E76C20EA070018601768A06C11F015
:10A36000080F0CBF27EA0000384310601868E76C3C
:10A37000384318601868E76C20EA0700186017680F
:10A38000A06C11F0040F0CBF27EA000038431060E6
:10A390001868E76C384318601868E76C20EA070013
:10A3A00018601768A06C11F0020F0CBF27EA0000BC
:10A3B000384310601868E76C384318601868E76C19
:10A3C00020EA0700186011F0010FA06C116814BF9B
:10A3D000084321EA000010601A68E16C0A431A6021
:10A3E0001A68E16C22EA01021A6065E76DB284F82E
:10A3F0003050B8F1000F3FF426AEFDF72DFF002FCF
:10A400003FF418AF22E6484609F068F9E0620028F8
:10A410007FF4E4AD1FE794F93130012B14BFCF2353
:10A420009F2384F8603012256AE6012005B0BDE85C
:10A43000F08394F93130012B14BFAF23102384F83B
:10A44000603002255CE606F099FC002F3FF4F2AE86
:10A45000FCE5012194F9330006F022FA012194F978
:10A46000340006F01DFA94F933300F4955F82320D3
:10A47000A6631F2A88BF203A0123934094F9342011
:10A48000A36455F82220084BE3631F2A88BF203AB3
:10A4900001239340E3640A6822EA03030B60002F60
:10A4A0003FF4C8AED2E500BF04050050B0F90A2061
:10A4B000D31D48BF02F10E03B0F90820C06ADB10BB
:10A4C00002FB03F2002109F04FB900BFF8B50446C2
:10A4D000806A002800F08A80A16DFDF70DFFA06A58
:10A4E000002800F0978094F830109F4FFDF784FF0C
:10A4F000A06A036800211B689847A36A7E1D012596
:10A500001A6817F8011B1268184690470135B742C0
:10A51000ADB212D0A36A3F2D1846F1D1FDF7DAFF94
:10A5200094F83010A06AFDF767FFA06A0368002165
:10A530001B6898470125A36AE2E7A06AFDF7CAFFF6
:10A54000217A01392046C9B2FFF778FCB4F90A2014
:10A550002689D31D48BF02F10E03D4E90A05DB109A
:10A5600016FB03F6B6B2002856D094F83010FDF76B
:10A5700043FFA06A036840211B68771E9847BFB25B
:10A58000F6B10137A06A2F440126036815F8011BB4
:10A590001B6898470136BD42B6B211D03F2EA06A63
:10A5A000F3D1FDF797FF94F83010A06AFDF724FF70
:10A5B000A06A036840211B6898470126A06AE4E767
:10A5C000A06AFDF787FFA06A58B9626C616D1368D5
:10A5D000606A0B43136018B1BDE8F84006F074BC24
:10A5E000F8BDE16DBDE8F840FDF786BE606A002861
:10A5F00000F0BC8004F1640393E8060006F016FC4A
:10A60000626C616D1368A06A23EA0103136000287D
:10A610007FF469AF606AAFE0226C216D13680B4371
:10A620002E441360B542CED0606A15F8011B40B1CC
:10A6300006F050FCB542C6D0606A15F8011B002830
:10A64000F6D1D4E90E23A06C176811F0800F0CBF6F
:10A6500027EA0000384310601868E76C3843186038
:10A660001868E76C20EA070018601768A06C11F002
:10A67000400F0CBF27EA0000384310601868E76CF1
:10A68000384318601868E76C20EA070018601768FC
:10A69000A06C11F0200F0CBF27EA000038431060B7
:10A6A0001868E76C384318601868E76C20EA070000
:10A6B00018601768A06C11F0100F0CBF27EA00009B
:10A6C000384310601868E76C384318601868E76C06
:10A6D00020EA070018601768A06C11F0080F0CBF83
:10A6E00027EA0000384310601868E76C38431860A8
:10A6F0001868E76C20EA070018601768A06C11F072
:10A70000040F0CBF27EA0000384310601868E76C9C
:10A71000384318601868E76C20EA0700186017686B
:10A72000A06C11F0020F0CBF27EA00003843106044
:10A730001868E76C384318601868E76C20EA07006F
:10A74000186011F0010FA06C116814BF084321EAD2
:10A75000000010601A68E16C0A431A601A68E16C24
:10A7600022EA01021A605DE770620300626C616DAB
:10A77000136823EA01031360226C216D1368514DA5
:10A7800023EA010313606E1D05E006F0A3FBB5424A
:10A790003FF4D6AE606A15F8011B0028F5D1D4E964
:10A7A0000E23A06C176811F0800F0CBF27EA000081
:10A7B000384310601868E76C384318601868E76C15
:10A7C00020EA070018601768A06C11F0400F0CBF5A
:10A7D00027EA0000384310601868E76C38431860B7
:10A7E0001868E76C20EA070018601768A06C11F081
:10A7F000200F0CBF27EA0000384310601868E76C90
:10A80000384318601868E76C20EA0700186017687A
:10A81000A06C11F0100F0CBF27EA00003843106045
:10A820001868E76C384318601868E76C20EA07007E
:10A8300018601768A06C11F0080F0CBF27EA000021
:10A84000384310601868E76C384318601868E76C84
:10A8500020EA070018601768A06C11F0040F0CBF05
:10A8600027EA0000384310601868E76C3843186026
:10A870001868E76C20EA070018601768A06C11F0F0
:10A88000020F0CBF27EA0000384310601868E76C1D
:10A89000384318601868E76C20EA0700186011F068
:10A8A000010FA06C116814BF084321EA000010607A
:10A8B0001A68E16C0A431A601A68E16C22EA010224
:10A8C0001A6064E77062030000234372704700BFA0
:10A8D000407A704710B4446824680346084611461D
:10A8E0001A4623465DF8044B184700BF84B008465B
:10A8F0001146019204B001F02FBF00BF70B513687C
:10A90000044600681B69C66982B010460D46984728
:10A91000C1B2284601F00CFC2946024633462046C7
:10A9200002B0BDE87040184730B5D3B285B0013BE6
:10A9300004460D460192062B0AD8DFE803F0271DD6
:10A9400042040909270003684FF0FF319B6A9847CA
:10A95000637A7BB1AB68B5F9002093F82230002B05
:10A960000CBF02214FF48071284605B0BDE830408D
:10A9700001F044BC05B030BD827A03683AB98A68F8
:10A9800092F820201AB91B6A984710BB23685B6AAB
:10A9900000210122A172627220469847AB68B5F986
:10A9A000002093F82230002B0CBF02214FF480715D
:10A9B000284601F023FCA86805B0BDE8304001F04E
:10A9C000D5BC036801219B6A9847637A002BC1D1EB
:10A9D000D0E70123A3726372BCE700BF2DE9F04109
:10A9E0001D464368BDF91C20BDF9208004460E4673
:10A9F0002846996800F02CFC63681B7903F0150366
:10AA0000152B074602D03846BDE8F081B6F90E1086
:10AA1000B36801EB410103EB81014B689C4208D014
:10AA2000284643462246314600F0A6FD3846BDE89A
:10AA3000F0814246284600F00FFF3846BDE8F0811D
:10AA40002DE9F04782B00446BDF92C704068BDF98D
:10AA500030A08846914681683A4618461E4600F066
:10AA6000F7FB63681B7903F01503152B05462FD000
:10AA7000AF4229DDD8F81CA054453BD02021013538
:10AA80001FFA85F830460FFA88F502F0CBFAAF428C
:10AA90001ADDA4EB0A0ABAFA8AFA3268237A4FEA74
:10AAA0005A1ACDF800A0556A02214A463046A847F6
:10AAB00023683146DB6A2046984780441FFA88F8AD
:10AAC0000FFA88F5AF421EDC284602B0BDE8F087D9
:10AAD000B8F90E10D8F8083001EB410103EB810101
:10AAE0004B689C4224D0534622464146304600F0F3
:10AAF00043FDBDE7B9F1000FC0D0A37A002B14BF0E
:10AB00003E213A21BBE73168237ACDF800A04A46BE
:10AB10004D6A30460321A84763683A4619693046B2
:10AB200000F096FB404405B2284602B0BDE8F0872D
:10AB30005246304600F090FE9AE700BF2DE9F04FF4
:10AB400085B0684D9DF838A0044688469146667ADF
:10AB5000002E40D161680A7912F0140F40D0DFF85E
:10AB60008CB102963546574617E06368B3F910007A
:10AB7000A8424FF000034A4641461ADD2068066AA3
:10AB8000594886421AD16068406950F82500066825
:10AB90000097F668B047F0B9013523681B685B453C
:10ABA000E3D020469847A8424FF000034A4641466A
:10ABB000E4DC029E304605B0BDE8F08F29B22046A5
:10ABC000B04703680097D3F80CA04A4600234146DB
:10ABD000D0470028E0D00126304605B0BDE8F08F10
:10ABE000D8F80400A042F7D1002BF5D0D8F808C05F
:10ABF000BCF90E00DCF808E000EB400752074FEA12
:10AC000087074DD4D9F80C308A7B1B68B3F806B09F
:10AC100093075AD50BF1FF3B1FFA8BFB7744D9F80A
:10AC200008307A685268127902F01402002A18BFBC
:10AC300001380FFA8BF2002A029233F91070CBDD43
:10AC4000DFF8A8B0039600251BE06368B3F9100095
:10AC5000B04223DD2368244A1B6A93421AD16368F9
:10AC60005B6953F826000268CDF800A0D66800237F
:10AC70004A464146B04701350028ACD1029B9D426F
:10AC80000CD023681B687E195B4536B2DDD02046A8
:10AC90009847DDE7314620469847E4E7039E9BE767
:10ACA0000C3F0EEB0708D8F804402268D668AE4285
:10ACB0003FF44DAF4A46414620460123B446CDF805
:10ACC00038A005B0BDE8F04F60479CF81030002B6D
:10ACD000A4D082F00403C3F38003ABEB030B1FFA91
:10ACE0008BFB9BE7F1AC0200D1620200DD62020047
:10ACF0002DE9F04F90F8098085B09DF838A0B8F1A3
:10AD0000000F3CD145680E46297911F0140F174603
:10AD100004463AD0DFF88CB145461BE06368B3F9CE
:10AD20001000A8424FF000033A46314629DD206862
:10AD3000D0F820905948814513D16068406950F897
:10AD40002500D0F800C0CDF800A0DCF80C90C84772
:10AD5000A8B9013523681B685B45DFD020469847BA
:10AD6000DFE729B22046C8470368CDF800A0D3F832
:10AD70000C903A4600233146C8470028E9D04FF0EE
:10AD80000108404605B0BDE8F08F70688442F8D1F4
:10AD9000002BF6D0D6F808C0BCF90E00DCF808E0AD
:10ADA00000EB400349074FEA830352D4D268A97BE2
:10ADB0001268B2F806B08A075BD50BF1FF3B1FFAA9
:10ADC0008BFB7344BA685B685B681B7903F0140300
:10ADD000002B18BF01380FFA8BF3002B029332F9C6
:10ADE0001020CEDD3B46CDF80C805746DFF8B4B0DE
:10ADF00000259046B1469A461AE06368B3F9100000
:10AE0000B04223DD2368254A1B6A93421AD1636846
:10AE10005B6953F8260002680097D6680023524603
:10AE20004946B04701350028A9D1029B9D420DD06B
:10AE300023681B6808EB05065B4536B2DDD020466B
:10AE40009847DDE7314620469847E4E7DDF80C8077
:10AE500097E70C3B0EEB0301114B48680468E4686C
:10AE60009C4213D1CDF800A00123FFF767FE804676
:10AE700087E79CF81020002AA3D081F00402C2F3D7
:10AE80008002ABEB020B1FFA8BFB9AE70123A4466F
:10AE9000CDF838A005B0BDE8F04F6047D1620200A0
:10AEA000F1AC0200DD6202002DE9F04FD0F804E0C1
:10AEB000002587B0044645729EF804009DF8406066
:10AEC000039610F0140C0F46164629D0DFF8949123
:10AED000DFF8948114E06368B3F91000A84217DD2D
:10AEE00023681B6A434517D163685B6953F82500E3
:10AEF00002680023D2F804A0394632460135D04713
:10AF000023681B684B45E6D020469847A842E7DCFB
:10AF1000002007B0BDE8F08F29B220469847E7E748
:10AF2000D1F808A0BAF90E50DAF8081005EB450878
:10AF3000400799464FEA880869D4F3689EF80E20C6
:10AF40001B689007DB8851D5013B9BB2B9F1000F1C
:10AF500059D01BB2002B059355DD4144B2684B68B4
:10AF6000DFF800915B68DFF800A11B7903F01403A0
:10AF7000002B18BF013D4FF0000832F91530049343
:10AF800029E06368B3F91000A8423CDD23681B6A1E
:10AF9000534559D163685B6953F82500036832460D
:10AFA000D3F804B039460023D84723681B6A5345B9
:10AFB00046D163685B6953F825000368039A0092E1
:10AFC000DD68324600233946A847E0B9059B08F101
:10AFD0000108434517D02368049A1B6802EB080553
:10AFE0004B452DB2CDD020469847CDE79AF81000BA
:10AFF0000028ABD082F00402C2F380029B1A9BB2FD
:10B00000B9F1000FA5D1012007B0BDE8F08FA8F17C
:10B010000C0001EB000BDFF854E0DBF804000168E2
:10B02000D1F804A0F24513D15946CDF800C0FFF77E
:10B030003BFFD7F808A0D4F804E0DAF808107CE762
:10B04000294620469847B8E7294620469847A5E76D
:10B050005946D047D7F808A0D4F804E0DAF8081029
:10B060006BE700BFDD620200D162020071B0020036
:10B070002DE9F04FD0F804C00025044645729CF835
:10B08000040010F0140A85B00F46164628D0DFF8E9
:10B090008891DFF8888114E06368B3F91000A84252
:10B0A00017DD23681B6A434516D163685B6953F853
:10B0B000250002680023D2F804A039463246013543
:10B0C000D04723681B684B45E6D020469847A842E6
:10B0D000E7DC05B0BDE8F08F29B220469847E8E7E5
:10B0E000D1F808E0BEF90E50DEF8081005EB45086F
:10B0F000400799464FEA880864D4F3689CF80E200C
:10B100001B689007DB8852D5013B9BB2B9F1000F59
:10B11000DFD01BB2002B0393DBDD4144B2684B68E8
:10B12000DFF8F4905B68DFF8F4A01B7903F01403F8
:10B13000002B18BF013D4FF0000832F91530029383
:10B140002AE06368B3F91000A842C2DD23681B6AD5
:10B15000534554D163685B6953F825000368324650
:10B16000D3F804B039460023D84723681B6A5345F7
:10B1700041D163685B6953F825000368002200929F
:10B18000DD68394613463246A8470028A1D1039B03
:10B1900008F1010898459CD02368029A1B6802EBCD
:10B1A00008054B452DB2CCD020469847CCE79EF8F9
:10B1B00010000028AAD082F00402C2F380029B1A79
:10B1C0009BB2A3E7A8F10C0001EB000EDFF850C022
:10B1D000DEF804000168D1F804B0E34513D17146EC
:10B1E000CDF800A0FFF760FED7F808E0D4F804C05F
:10B1F000DEF8081081E7294620469847BDE7294632
:10B2000020469847AAE77146D847D7F808E0D4F80F
:10B2100004C0DEF8081070E7DD620200D1620200AF
:10B2200071B0020000207047012070470020704775
:10B2300008B5024901F0E4FE002008BD9862030051
:10B24000014B024A1A607047EC3F002025B2020011
:10B250000368DB68184700BF054B064A5A6042F690
:10B260003E5000210122188019725A72704700BFA7
:10B27000F03F0020E4620300064B074A10B4074C7D
:10B280001A600122C3E90142184600215DF8044B0F
:10B2900000F040BF0040002000390020FC3F0020AB
:10B2A000704700BF00207047704700BF2DE9F04194
:10B2B0008846097808F1010479B10546164692B12D
:10B2C0006FEA080705E02B681B68984714F8011B14
:10B2D00019B1E319B3422846F5DBA4EB08000138A5
:10B2E00000B2BDE8F0812B6828461B68984714F827
:10B2F000011B0029F7D1F0E7704700BF002070471D
:10B30000704700BF03682DE9F04105461C6A0E46F0
:10B31000134617460A460021A047EB681B68B3F99D
:10B320000430002B0BDD00242021284601F07AFE9A
:10B33000EB681B68B3F904300134A342F4DC2968DC
:10B340000C6A3B4632462846A4460021BDE8F0413F
:10B35000604700BF10B5064A9DF8084003680549DC
:10B360005B68002C08BF114601229847012010BDE0
:10B37000046303000063030070B586B09DF82840A5
:10B38000BDF9301014B9002006B070BD0468084D36
:10B39000E46BAC42F7D000260125013A12B20596C3
:10B3A000CDE902660495CDE90055A047EBE700BF63
:10B3B00001B302002DE9F0410168144F4D6A82B0DB
:10B3C000BD4204469DF820C01646984618D10B6829
:10B3D00086B10F4A1268B8F1000F05D011782046E7
:10B3E00002B0BDE8F04118475178204602B0BDE8F0
:10B3F000F04118472021204602B0BDE8F04118472F
:10B400000421CDF800C0A8472168E0E7F9B20200A6
:10B41000FC38002010B50268074B546A9C4282B089
:10B4200002D1002002B010BD012300931A46194634
:10B43000A047002002B010BDF9B20200F0B587B0FD
:10B440009DF83040BDF9341014B9002007B0F0BDAC
:10B4500004680E4FA66BBE4205460AD1646A0C4BC7
:10B460009C42F2D000220123284600921946A047B0
:10B47000EBE701240027013A0494CDE9004412B21D
:10B480000597CDE90277B0472C68E7E701B30200E2
:10B49000F9B2020010B5064A9DF808400368054954
:10B4A0005B68002C08BF114601229847012010BD9F
:10B4B000FC620300F862030000293BD02DE9F0474D
:10B4C00099460368002B32DD88461646074600245D
:10B4D0000BE01DD3022E05D128463146C047012876
:10B4E00022D03B6801349C4221DA7D68012E55F858
:10B4F0002450EED12A7CD10704D4B9F1000FF1D049
:10B500009207EFD5284643460121BDE8F04718478A
:10B5100000212846C04738B92B7CD807E1D42846FB
:10B520000121C0470128DCD10120BDE8F0870020BF
:10B53000BDE8F087002070470168002909DD4368F5
:10B54000043B03EB8101002053F8042F9942506122
:10B55000FAD1704738B50368002B0BDD054600248F
:10B560006B6853F8240003689B6998472B68013483
:10B57000A342F5DC38BD00BF2DE9F04F0568B14EA0
:10B580006F6A89B0B742044607911546984640F065
:10B5900052816B681F794FEAC80317F010070593B3
:10B5A0007FD0A94B06930027A9461A463DE0D9F85B
:10B5B0000430B3F91000B84240DDD9F80030A34A96
:10B5C0001B6A93420FFA87FA3BD1D9F804302268FC
:10B5D0005B69D2F824B053F82750B3452B7A3AD19F
:10B5E000D2F828B09A498B4541D1D2F824B0B3455E
:10B5F00050D113682021204698472368D3F824B0FF
:10B60000B34540D1E3682A68CDF808801B680599E6
:10B610000B442846B3F904300799CDE900A323462B
:10B6200095680022A847069A0137D9F800301B68B0
:10B630009342BCD048469847B842BEDC09B0BDE84A
:10B64000F08F5146484698472268D2F824B0054604
:10B65000B3452B7AC4D00022009201212046D8475E
:10B6600022687B49D2F828B02B7A8B45BDD00022C6
:10B67000CDF80480009251462046D8472368D3F87D
:10B6800024B0B345BED000222B7A0092012120467F
:10B69000D847B7E70022009204212046D847226805
:10B6A000A7E723684146DB6920469847226843465E
:10B6B000D2F8209039463A462046C847E368059AB2
:10B6C0001B681344B3F90630002BB7DDA9465E4B67
:10B6D0000693D9F80030069A1B68DFF870B19342E0
:10B6E0007AD1D9F80430B3F91000B842A6DDD9F800
:10B6F00000301B6A5B457CD1D9F804305B6953F894
:10B7000027502368534AD3F814A0924567D1D3F841
:10B7100020A03A46434600212046D047E3681B68F4
:10B72000B3F90430002B0DDD4FF0000A2021204634
:10B7300001F078FCE3681B68B3F904300AF1010AF0
:10B740005345F3DC22684346D2F820A000213A4654
:10B750002046D04722684346D2F820A000213A462E
:10B760002046D04722682B7AD2F824A0B24553D184
:10B77000D2F828A036498A4547D1D2F824A0B2454C
:10B7800052D113682021204698472368D3F824A07B
:10B79000B24533D1E3682A68CDF808801B68059963
:10B7A0000B442846B3F904300799CDE900732346CA
:10B7B00095680022A847E36805991B680B44013788
:10B7C000B3F906303FB2BB427FF738AFD9F800304B
:10B7D000069A1B68934284D04846984785E7002321
:10B7E00002932A7A3946CDE9003220464246D047B4
:10B7F000B0E7394648469847054682E700222B7A4B
:10B80000009201212046D047C4E70022CDE900285C
:10B8100039462046D047B8E7002200920121204651
:10B82000D04722682B7AA3E7002200920421204609
:10B83000D0472268A5E70022012300921946B847A5
:10B84000A7E600BFF9B20200DD620200D162020089
:10B85000B5B3020005B302002DE9F04F8C688146B4
:10B86000E06943681B7993B013F005038A46079299
:10B8700000F08580B4F90E30002B6DD19846DAF8CF
:10B880000400D9F80C7043681A799B7B02F0100110
:10B8900013F002050491394640F08480247C002C8A
:10B8A0007ED1530700F18D80079D3B68D9F8086071
:10B8B00099F818E036F908B0BAF900200994ED00BB
:10B8C00003EB050C0E95BCF9063006EB0805BEF13E
:10B8D000000F00F08180BCF802502B441BB21B1BF0
:10B8E00092FBF3F503FB1523D31A1BB226F808309D
:10B8F00099F81020D6070AD49B4508D1D9F81430FE
:10B90000834200F0CD82079B0994DB000E930B6805
:10B910000E9A1344B3F904300F93002C40F0558273
:10B9200003680094DD684A4623465146A84704460A
:10B93000002800F09480049B002B40F09680D9F8FA
:10B9400000300799DB69484698470A94D9F80830CF
:10B9500033F90830069390E04FEA4308A26808EBF9
:10B96000030102EB8102526852681279550786D5AD
:10B9700003F1FF380FFA88F84FEA48087FE71546C9
:10B9800002680093D4684A46A047002840F0068227
:10B99000DAF80400C9F81400002013B0BDE8F08FF5
:10B9A0005C0717D4049BABB9079C3B6803EBC4034B
:10B9B000B3F90640012CD4BF0024012453077FF5BE
:10B9C00073AF99F81020D3079DD4D9F8143083426F
:10B9D00099D165E2002464E75B44A1188B4200F32F
:10B9E00070820BF1010189B20BB22B80BAF90020F1
:10B9F000BCF9066002EB040E1E440131B64589B263
:10BA0000F2DACDF814B0B64EDDF838B012E0426884
:10BA1000B2F910C03A685A44ACEB030CB2F90620F4
:10BA2000121B9445BE4680F23782013B1BB22B802D
:10BA3000BAF900209A42F8DB002B00F02882026855
:10BA40001268B242E3D09047D9F80850D9F80C7088
:10BA500035F9083084464544DAF80400DAE7012372
:10BA60000A93049B002B00F0258201230A939D4931
:10BA7000484601F0C5FA00230693079B0133109353
:10BA80004FF000089B001193C34678E0DAF80410E9
:10BA9000BAF900300593091BB1FA81F149090B91FC
:10BAA0000999D9F8002018463944301AB0FA80F0C4
:10BAB0000C910499237A40090890002900F0AC8089
:10BAC000556A894A954240F0E580DAF8083093F8E3
:10BAD0003030002B00F09280049B002B40F09280CD
