:020000022000DC
:106000000000012065D40200A5D40200A7D402003C
:10601000A9D40200ABD40200ADD4020000000000FD
:10602000000000000000000000000000E1D30200BA
:10603000B1D402000000000001D40200B5D4020077
:10604000B7D40200B7D4020005B00200A574020064
:10605000B7D40200B7D40200B7D40200B7D402000C
:10606000B7D40200B7D40200B7D40200B7D40200FC
:10607000B7D40200B7D40200B7D40200B7D40200EC
:10608000B7D402006DD1020071A70200B7D402009C
:10609000B7D40200B7D40200B7D40200B7D40200CC
:1060A000B7D40200B7D40200B7D40200B7D40200BC
:1060B000B7D40200B7D402000000000000000000C6
:1060C000B7D40200B7D40200B7D40200B7D402009C
:1060D000B7D40200B7D40200B7D402000000000019
:1060E00000000000000000000000000000000000B0
:1060F00000000000000000000000000000000000A0
:10610000000000000000000000000000000000008F
:10611000000000000000000000000000000000007F
:10612000000000000000000000000000000000006F
:10613000000000000000000000000000000000005F
:10614000000000000000000000000000000000004F
:10615000000000000000000000000000000000003F
:10616000000000000000000000000000000000002F
:10617000000000000000000000000000000000001F
:10618000000000000000000000000000000000000F
:1061900000000000000000000000000000000000FF
:1061A00000000000000000000000000000000000EF
:1061B00000000000000000000000000000000000DF
:1061C00000000000000000000000000000000000CF
:1061D00000000000000000000000000000000000BF
:1061E00000000000000000000000000000000000AF
:1061F000000000000000000000000000000000009F
:10620000F1EE103A43F08073E1EE103A704700BFB0
:1062100010B5054C237833B9044B13B10448AFF3E0
:1062200000800123237010BD2038002000000000F2
:10623000F831030008B5034B1BB103490348AFF322
:10624000008008BD0000000024380020F831030061
:10625000154B002B08BF134B9D46A3F5803A002138
:106260008B460F461348144A121A09F040FE0F4B92
:10627000002B00D098470E4B002B00D098470020F1
:10628000002104000D000D48002802D00C48AFF397
:10629000008009F0EDFD2000290007F031F909F038
:1062A000D3FD00BF00000800000001200000000036
:1062B000000000002038002084450020000000007D
:1062C0000000000090ED000B704700BF08B50068AB
:1062D00009F00AFA41EC100B08BD00BF70B584B09C
:1062E000144D154B154A164C02934FF0FF33CDE970
:1062F0000032144E144B28464022802103F062FCE9
:1063000022461249284608F0D3FF114D304601F0CD
:1063100073F922460F49304608F0CAFF284600F0BC
:10632000DFFC0D492246284604B0BDE8704008F065
:10633000BFBF00BF94380020A0860100801A06006D
:106340000036002068380020A83900201D9C02007B
:106350004039002009760200F96C020000000000BC
:106360002DE9F04F2DED028B8FB004F0A9FE814690
:10637000B14804F0E9F900280BD0B04A136840F3A3
:106380008B822B2BDCBF08331360AD4A13680133BB
:106390001360AC4C23684B450DD0AB48AB4D01F0BE
:1063A00071FD0721A84801F087F909F08DF9C5E9C9
:1063B0000001C4F800901C2007F010FD502300934A
:1063C00040F2FF321923002104F06AFE09F08CF933
:1063D000DFF8A4A29E4ECAE9000106F12805B046E6
:1063E0003446042007F0FAFC44F8040BA542F8D127
:1063F000D8ED007A9FED976ADFF880B2B8EEE77AC1
:10640000D8ED017AF8EEE76AD8ED027A37EE267A0F
:10641000F8EEE77AD8ED036A77EE877AF8EEE66A67
:1064200098ED047A76EEA76AB8EEC77AD8ED057AC9
:1064300077EE266AB8EEE77AD8ED067A37EE267A56
:10644000F8EEE77AD8ED076A77EE877AF8EEE66A33
:1064500098ED087A76EEA76AB8EEC77AD8ED097A91
:1064600037EE267AF8EEE77AB7EE008A77EE877A8B
:1064700086EE270A30EE480A88EE000A08F01EFF72
:10648000DFED757A60EE277A17EE900A09F03EF993
:1064900065A3D3E9002308F0DBFF09F071FC07EEE8
:1064A000900AC8EE277A17EE900A09F02FF960A338
:1064B000D3E9002308F0CAFF09F062FC09F026F9CD
:1064C000664B1B78CBE90001002B40F06681644DE0
:1064D00095ED007B8DED027B51EC170B09F008FC6C
:1064E0000023642219460092FF2204F0D9FD09F02E
:1064F000FBF85C4FDAE90023C7E900015A49C1E91A
:106500000023042007F06AFC46F8040BB442F8D1DB
:10651000D8ED017ADFED4F5A544E554CB8EEE77A7C
:10652000D8ED007AF8EEE76AD8ED027A37EE267AEF
:10653000B8EEE76AD8ED037A36EE076AF8EEE76A56
:10654000D8ED047A36EE866AF8EEE76AD8ED057A79
:1065500076EE866AB8EEE77AD8ED067A37EE267AD6
:10656000B8EEE76AD8ED077A36EE076AF8EEE76A22
:1065700098ED087AD8ED097ADFF8048176EE866A1C
:10658000B8EEC77AF8EEE77A37EE267AB7EE008AE9
:1065900077EE877A85EEA70A30EE480A88EE000A81
:1065A00008F08CFEDFED2C7A60EE277A17EE900A69
:1065B00009F0ACF81CA3D3E9002308F049FF09F067
:1065C000DFFB07EE900AC8EE277A17EE900A09F073
:1065D0009DF817A3D3E9002308F038FF09F0D0FB9A
:1065E00007EE900AFDEEE77ADBE90023C8ED007ABA
:1065F000DAE9000108F02AFF3368A9EB0303182B3E
:10660000C4E900013ED81B4800F0C6FCD5E90001F2
:1066100009F096FB014610200FB0BDEC028BBDE8DF
:10662000F04F07F01DBB00BF83DBB5DCE1796B3FAA
:106630006666666666127140643A0020083600207D
:10664000903800205439002068380020403800205D
:106650005C39002000D81F462CBB8439003900204B
:1066600058380020883900209039002058390020FF
:10667000A039002040390020603800205038002028
:1066800098390020934C9FED948A204603F00AFE2F
:106690002046012102F09AFB4FF0000A4FF00A0B4E
:1066A00001235146CDE900B320465A467F23C4F862
:1066B00010A001F05BFC524651464B23CDE900BAD5
:1066C000204601F0A7FC8549204604F073F94023D9
:1066D0000220236107F052FB0C2007F049FB4FF02A
:1066E000140A1F2007F07AFB07EE900A0AF1FF3A1E
:1066F000F8EE677A1AF0FF0A38EE278AF1D1504691
:1067000007F03CFB0A2007F033FBDFED757A68EEFB
:10671000277A17EE900A08F0F9FF02460B466D48FB
:10672000704904F05FF9704B7049B3F9003063822F
:106730006848A4F810A004F079F86D4B23616D4B04
:106740006D496448D3E9002304F04CF96B4BD8F849
:1067500000206B4923615F4804F044F9694A6A4BA1
:1067600012686A4923615B4804F03CF9684B694947
:1067700023615848D7E9002304F034F9664B674A8F
:10678000674922615348D3E9002304F02BF95148AB
:1067900003F098FDC6F8009035E7624F04F090FCD6
:1067A000614A3B6812680990C31A9342FFF68FAEA4
:1067B0009BED007BDAE9000153EC172B8DED067B96
:1067C00008F044FE594B5A4DD3E90023CDE90A01A4
:1067D00008F0F4FFD5E9002308F03AFE554B93ED9D
:1067E000007B8DED047BC5E90001DDE90423CDE9E3
:1067F000020109F073FA002857D09DED047B85ED66
:10680000007B8DED027B4C4B4C4DD3E90023DDE941
:106810000A0108F0D3FF4A4BCDE90A01D3E900236E
:10682000DDE9060108F012FE464BD3E9002308F02B
:10683000C5FF02460B46DDE90A0108F007FEDDE967
:10684000022308F005FE02460B4643EC172BDDE958
:10685000040185ED007BCDE9022309F021FA58B946
:10686000394B93ED007BDDE9020153EC172B8DEDE5
:10687000047B09F015FA28B19DED047B85ED007BC2
:106880008DED027B9DED067B2D4B83ED007B099BFF
:106890003B60DDE9020121E6132BC4BF083B136016
:1068A000184A1368013B136073E5274B93ED007B97
:1068B000DDE9020153EC172B8DED0C7B09F0F0F9AB
:1068C0000028A0D09DED0C7B85ED007B8DED027B3B
:1068D00099E700BF9438002000000000EC2003007E
:1068E000358057381C21030008360020282103007A
:1068F00008000C00903900202C210300080014002F
:10690000402103009038002008001C00542103009F
:1069100008002400642103004038002008002C00F7
:10692000742103002839002004360020103900208B
:10693000483800203039002018390020583800200D
:1069400020390020083900203839002000000000DC
:106950002DE9F04F4FF4E13187B0B748DFF868A375
:1069600004F056F9B54800F00BFCADA7D7E9006775
:10697000DAE90045B24AB34B4FF000084FF0000986
:10698000C2E90089C3E900672046294632463B46F2
:1069900009F0A4F9002800F01681CAE9006734461E
:1069A0003D46DFF828A30FF27829D9E90089DAE912
:1069B000006742464B463046394609F08FF950B9D8
:1069C0004FF000084FF000093046394642464B462A
:1069D00009F066F908B1CAE900899B4BDFF8F0922B
:1069E0001868DFF8F0B208F07FFE984B4FF000080F
:1069F000C3E900898CA3D3E9002306460F4608F0BB
:106A0000DDFEDFF8D482DFF8D4923B46CBE900010B
:106A1000324687A1D1E9000108F0FAFF98F800306A
:106A2000C9E90001002B00F0DC80894B894F8348C5
:106A3000894C012500263921C3E9006788F80050F8
:106A400000F06EFC00237D4A8448392100F0DEFD11
:106A5000FE21824801F01AFA0021804801F02AFA4A
:106A600008217E4801F03CFA7C4800F08DFF0021AF
:106A70007A4800F025FE4FF47A7004F02DFB2B4687
:106A800029463C220095204603F08CF9204603F06D
:106A900009FC2046022102F099F94FF0011200236F
:106AA000C4E9043220466E4903F0C0FE2946204660
:106AB00002F08CF96B4B23616B49204603F0B6FE64
:106AC0004FF4001323612946204602F07FF96749FD
:106AD000204603F0ABFE204603F0F4FB2946204697
:106AE00002F074F941F2883004F0F6FA604800F0E0
:106AF000E1FA502006F042FD0546044600F150063A
:106B00002046103400F0CAFAA642F9D102AC594B23
:106B100000932046584B594A59495A4E5A4F00F053
:106B2000C1FA94E80F00009685E80F002046524B0A
:106B3000564A574900F0B6FA94E80F0005F11006DE
:106B4000009786E80F002046524B534A5349544F52
:106B500000F0A8FA94E80F0005F12006009786E8F7
:106B60000F002046444B4F4A4F49504F00F09AFACD
:106B700094E80F0005F13006009786E80F002046E4
:106B80003D4B4B4A4B4900F08DFA94E80F004FF40F
:106B9000487705F14004002684E80F002A46019753
:106BA000009605234449324800F0CAF84FF0FF33FD
:106BB0001E220721414803F083FD404803F0B0FD49
:106BC00007B0BDE8F08F42464B462046294609F003
:106BD00067F800283FF4E5AECAE9008944464D460F
:106BE000DFE6374A374BD2E900010DA7D7E9006746
:106BF000C3E9000132463B462046294609F06EF8BB
:106C000058B9002600272046294632463B4609F05F
:106C100047F810B9CAE9004507E7CAE9006704E781
:106C20000000000000E06F402D431CEBE2364A3FBD
:106C3000000000000070B740703A0020A839002022
:106C4000383900203039002004360020183900205F
:106C50006038002000003E40943800206838002052
:106C60001021030018001400842103009421030064
:106C700040390020D0210300C5620200883900207D
:106C8000C0210300E4210300F42103009039002017
:106C9000D8210300CD62020098390020EC210300C6
:106CA00004220300A0390020FC2103001822030065
:106CB000403800200C22030020220300643A002008
:106CC0005038002020390020583800204838002053
:106CD000000022401039002000390020083900202F
:106CE00010B50023C0E9033303608360044604F059
:106CF000E7F96060204610BD70B5C4682568064697
:106D000055B91BE0184606F059FC204606F046FC33
:106D10002B6853B12C461D4663692046002BF1D1E8
:106D200006F03CFC2B68002BF4D1686908B106F032
:106D300045FC284606F032FC304670BD2546F4E797
:106D40002DE9F042044618200D4617461E469DF8D0
:106D5000189006F003FC0799E2688660002380F82B
:106D60000490C0E903154761036052B123691860BC
:106D7000206123680133236004F0A2F96060BDE85C
:106D8000F082C4E90300F4E72DE9F0410C46054622
:106D90007049714803F04AFD64BB6F486F49704FFA
:106DA000064603F043FD6F49304603F03FFD6E4950
:106DB000304603F03BFDAB6800249C4214DA6B695B
:106DC00003EB0413D3E9020290470821304603F095
:106DD000DBFDAB6801349C42EFDA3946304603F004
:106DE00025FDAB689C42EADB60495B48BDE8F041A9
:106DF00003F01CBD58485949DFF8648106460F4628
:106E000003F014FD5A49304603F010FD594930464D
:106E100003F00CFD3946304603F008FD2969304681
:106E200003F004FD3946304603F000FD5249304678
:106E300003F0FCFC5149304603F0F8FC4D49304664
:106E400003F0F4FC0A222979304603F001FD4A4997
:106E5000304603F0EBFC4A49304603F0E7FC454975
:106E6000304603F0E3FC0A22E968304603F0F0FC08
:106E70004149304603F0DAFC4249304603F0D6FC83
:106E80003C49304603F0D2FC0A22A968304603F0A0
:106E9000DFFC3949304603F0C9FC3B49304603F07A
:106EA000C5FC3149304603F0C1FCAB6800249C426C
:106EB0003946304618DA03F0B9FC23016A693046D6
:106EC000D15803F0B3FC3946304603F0AFFCAB6851
:106ED00001349C42EBDA4146304603F0A7FCAB6834
:106EE0009C4239463046E6DB1B4828491B4FDFF8F9
:106EF0007080064603F09AFC2549304603F096FC64
:106F00001949304603F092FCAB6800249C42394694
:106F1000304619DA03F08AFC6B6903EB0413304640
:106F2000596803F083FC3946304603F07FFCAB68B8
:106F300001349C42EADA4146304603F077FCAB6804
:106F40009C4239463046E5DB1249034803F06EFCAB
:106F500023E700BF38220300703A00203C220300E0
:106F60005C22030060210300582203006C2203000E
:106F70004022030044220300482203004C22030065
:106F8000502203005422030050210300602203001A
:106F900064220300682203002DE9F04106463349CC
:106FA0003348B46803F042FC3249314803F03EFCF8
:106FB00031492F4803F03AFC04F082F8B4FA84F522
:106FC00001460A222A486D0903F0B0FC5CB32B4944
:106FD000274803F02BFC2A49254803F027FC2949C0
:106FE000234803F023FCF4686CB1DFF8AC80204F39
:106FF00020462946FFF7C8FE24684146384614B1AA
:1070000003F014FCF4E72049194803F00FFC1F4972
:10701000174803F0CFFCB3680133312BC8BF0023FE
:10702000B360BDE8F0811549114803F0FFFB184932
:107030000F4803F0FBFB10490D4803F0F7FB0A2251
:1070400031680B4803F004FC0C49094803F0EEFBDF
:107050001049074803F0EAFB0749054803F0E6FB3F
:107060000A227168024803F061FCB0E724220300A1
:10707000703A00204022030044220300482203000B
:1070800030220300582203006C2203003422030044
:10709000282203002C2203005C2203000022C0E906
:1070A0000222704730B4029D45600160C0E90223AE
:1070B00030BC704710B54FF4E1310446034803F08B
:1070C000A7FD03F0FDFF606010BD00BF703A002017
:1070D00000207047704700BF203003F0C9BC00BFDC
:1070E000203003F0B7BC00BF203003F0C7BC00BFA6
:1070F00038B5437F0BB9002038BD00F16804204645
:107100000D4603F0C3FC0028F5D12046294603F0C4
:107110008FFC012038BD00BF2DE9F0475AB3064669
:10712000DFF8588033681B684D1E434517464FF003
:10713000000400F1680915F801AF16D1737F13B987
:107140002046BDE8F087484603F0A0FC0028F7D1B0
:107150005146484603F06CFC0134A742F0D0336836
:1071600015F801AF1B684345E8D0514630469847B3
:107170000028F1D1E4E71446E2E700BFF170020015
:1071800030B4827E4FF0A04302F5E07240F20C640E
:107190000121C17643F82240427E02F5E0724FF0B1
:1071A000CC7543F822400369C3F8245503690622CD
:1071B000C3F800250369827EC3F808250369427E6F
:1071C000C3F80C2590F91830002B13DA124A03F09B
:1071D0000F031A446023137690F91830002B07DB55
:1071E0000E4903F01F0001225B09824041F8232071
:1071F00030BC70475C09603403F01F03074A01FA92
:1072000003F342F8243090F91830002BDEDB1344EE
:10721000602283F80023DFE7FCEC00E000E100E0FF
:10722000C37EE3B10E4B026910B499424FF00004E3
:10723000C2F8004510D90B4B994294BF4FF08061C2
:107240004FF0C86103695DF8044BC3F82415036966
:107250000622C3F8002570474FF0CC71F2E7704763
:10726000A086010090D003000AB9104670472DE9AE
:10727000F041054600F12008404614461E460F46E0
:1072800003F0E4FB2B69C3F888752A6901231362B4
:107290002A69C2F834852A69C2F838452A69136018
:1072A0002A6902E0D2F824311BB9D2F84C11002926
:1072B000F8D00023C2F84C312A6902E0D2F8241138
:1072C00019B9D2F85C110029F8D00023C2F85C315A
:1072D0002B696EB9D3F8242152B90122DA612A69E7
:1072E000D2F84831002BFBD00023C2F8483109E026
:1072F00001225A612A69D2F80431002BFBD0002305
:10730000C2F804312B69D3F824211AB10022C3F842
:1073100024212B69D3F83C052866C0B2BDE8F08172
:1073200010B50446683084F8B01003F08FFB0123D9
:10733000637710BDF8B504460020236994F8B020A7
:107340006077C3F88825236901271F62236904F148
:107350006806C3F8446530460D4603F089FB23698F
:10736000C3F8480523699F60236902E0D3F824210C
:107370001AB9D3F85021002AF8D00022C3F85021BE
:10738000304603F075FB236940BB0022C3F860213F
:10739000236915B9D3F824212AB301225A6122693D
:1073A000D2F80431002BFBD00023C2F8043123694A
:1073B000D3F8240168B10022C3F824212369D3F84B
:1073C000C404C3F8C404022803D0042814BF042052
:1073D0000320F8BDD3F82421002AD6D1D3F86021A8
:1073E000002AF7D0D1E70122DA612269D2F84831C8
:1073F000002BFBD00023C2F84831D8E770B50369F1
:1074000090F8B02000214177C3F888250369012650
:107410001E62036900F168050446C3F84455284616
:1074200003F026FB2369C3F8480523699E6023699E
:1074300002E0D3F824211AB9D3F85021002AF8D059
:107440000022C3F85021284603F012FB236918BB21
:107450000022C3F86021236901225A612269D2F80F
:107460000431002BFBD00021C2F804112369D3F8AA
:10747000240160B1C3F824112369D3F8C404C3F80C
:10748000C404022803D0042814BF0420032070BDC4
:10749000D3F82421002ADBD1D3F86021002AF7D0C9
:1074A000D6E700BF70B5294C6369D3F86421002A80
:1074B0003AD1D3F86821E2B9D3F8042162B1227F2E
:1074C0000021C3F804113AB1D4F8B820D3F83C0530
:1074D00020660AB190476369D3F8242142B10022A3
:1074E000C3F82421D3F8D024C3F8D02401225A6150
:1074F00070BD0022C3F86821154822770123637705
:1075000003F0A4FAD4F8B43003B198476369104883
:10751000C3F844050023637703F0AAFA63690122E4
:10752000C3F848055A63C7E7002204F12006C3F8F0
:10753000642101253046257703F088FA63694022EB
:10754000C3F83465C3F838251D63B2E7A8390020B5
:10755000103A002038B50E4C0E4A20464FF47A738C
:1075600040F8202B0025C4E9015303F057FA04F139
:10757000680003F053FA084A084B6577D2E91912FC
:10758000032020766176A276C4E9043338BD00BFBB
:10759000A839002078220300142D03000030004099
:1075A000F0B591B001240025816801942346922210
:1075B0000646009504A807F027F804A807F09AF8F3
:1075C00010EA040702D0284611B0F0BDB168234686
:1075D000CDE900740AA8802207F016F80AA93B46F4
:1075E000224602A807F02AF9214602A807F09CF9D2
:1075F000204611B0F0BD00BF024A026000220271B5
:10760000826070479C220300704700BF2DE9F04163
:107610000446806890B00E461746984608B105F0BB
:10762000BDFF102005F09AFF3A460546314607F0A7
:1076300065FAA5602846012107F06AFA054618B9DF
:10764000284610B0BDE8F08123681A4A1B689342AF
:107650002AD101260027A16801963346922204A868
:10766000009706F0D1FF04A807F044F810EA0608D6
:1076700004D03D46284610B0BDE8F081A1683346ED
:10768000CDE900860AA8802206F0BEFF0AA943467B
:10769000324602A807F0D2F8314602A807F044F9B2
:1076A000284610B0BDE8F08141462046984705467F
:1076B000C6E700BFA175020000EB41018889704751
:1076C000F0B583689BB00124002605460F46702262
:1076D000194608A823460194009606F095FF08A9CC
:1076E0002246032302A807F0A9F8A96823467422BA
:1076F000CDE900640EA806F087FF0EA922460723F5
:1077000004A807F09BF8A9682346A922CDE90064E4
:1077100014A806F079FF224614A9042306A807F04E
:107720008DF8214606A807F0FFF8394602A807F0B1
:10773000FBF8B8B90646A968012400252346019440
:107740000095A92214A806F05FFF224614A904237D
:1077500006A807F073F8294606A807F0E5F83046B2
:107760001BB0F0BD394604A807F0DEF80646E2E794
:1077700070B588B0002401250646816801952B4626
:10778000224602A8009406F03FFF224602A83021BC
:1077900006F04AFFB1682B462A46CDE9004502A80B
:1077A00006F032FF2246294602A806F03DFFB168E6
:1077B0002B46CDE9004502A8022206F025FF22460D
:1077C000214602A806F030FFB1682B46CDE90045FE
:1077D00002A8032206F018FF2246214602A806F05E
:1077E00023FFB1682B46CDE9004502A8042206F02C
:1077F0000BFF2246214602A806F016FFB1682B4671
:10780000CDE9004502A8052206F0FEFE224602A8A8
:10781000422106F009FFB1682B46CDE9004502A8D8
:10782000062206F0F1FE2246214602A806F0FCFEE2
:10783000B1682B46CDE9004502A8072206F0E4FE18
:107840002246214602A806F0EFFEB1682B46CDE99C
:10785000004502A8082206F0D7FE224602A85021C1
:1078600006F0E2FEB1682B46CDE9004502A80922E8
:1078700006F0CAFE2246214602A806F0D5FEB168EF
:107880002B46CDE9004502A80A2206F0BDFE22469D
:10789000214602A806F0C8FEB1682B46CDE9004596
:1078A00002A80B2206F0B0FE2246214602A806F0EE
:1078B000BBFEB1682B46CDE9004502A80C2206F0BC
:1078C000A3FE224602A8202106F0AEFEB1682B4698
:1078D000CDE9004502A80D2206F096FE224602A838
:1078E000042106F0A1FEB1682B46CDE9004502A8AF
:1078F0000E2206F089FE2246214602A806F094FEDA
:10790000B1682B46CDE9004502A80F2206F07CFEA7
:10791000224602A8302106F087FEB1682B46CDE949
:10792000004502A8102206F06FFE2246294602A852
:1079300006F07AFEB1682B46CDE9004502A8112277
:1079400006F062FE224602A8502106F06DFEB168E4
:107950002B46CDE9004502A8122206F055FE22462C
:10796000214602A806F060FEB1682B46CDE900452D
:1079700002A8132206F048FE224602A8062106F0BD
:1079800053FE08B070BD00BF70B58AB00124002658
:10799000816880F824600546234601948022009681
:1079A00004A806F031FE2346224604A902A806F0E8
:1079B00045FF314602A806F0B7FFA9682346CDE986
:1079C0000064AF2204A806F01FFE0323022204A9CC
:1079D00002A806F033FF022102A806F0A5FF284600
:1079E000FFF7C6FEA9682346CDE90064802204A8FB
:1079F00006F00AFE224604A9042302A806F01EFF90
:107A0000214602A806F090FF40F2E93405E0013C6F
:107A10004FF0010006D003F05FFB02A806F016FF4E
:107A20000028F4D101240022A96800922346019481
:107A3000802204A806F0E8FD2346224604A902A8F5
:107A400006F0FCFE214602A806F06EFF204685F8EF
:107A500024400AB070BD00BF70B588B00024012575
:107A60000646816801952B46224602A8009406F03E
:107A7000CBFD2246214602A806F0D6FDB1682B4672
:107A80002A46CDE9004502A806F0BEFD2246214661
:107A900002A806F0C9FDB1682B46CDE9004502A851
:107AA000022206F0B1FD2246214602A806F0BCFDE6
:107AB000B1682B46CDE9004502A8032206F0A4FDDB
:107AC000224602A8402106F0AFFDB1682B46CDE961
:107AD000004502A8042206F097FD224602A80221D2
:107AE00006F0A2FDB1682B46CDE9004502A80522AB
:107AF00006F08AFD2246214602A806F095FDB168EF
:107B00002B46CDE9004502A8062206F07DFD22465F
:107B100002A8102106F088FDB1682B46CDE900458A
:107B200002A8072206F070FD224602A8032106F0F3
:107B30007BFDB1682B46CDE9004502A8082206F07E
:107B400063FD224602A8502106F06EFDB1682B4667
:107B5000CDE9004502A8092206F056FD224602A8FA
:107B6000102106F061FDB1682B46CDE9004502A861
:107B70000A2206F049FD224602A8032106F054FD20
:107B8000B1682B46CDE9004502A80B2206F03CFD6A
:107B90002246214602A806F047FDB1682B46CDE9F2
:107BA000004502A80C2206F02FFD2246214602A81D
:107BB00006F03AFDB1682B46CDE9004502A80D223A
:107BC00006F022FD2246214602A806F02DFDB168EE
:107BD0002B46CDE9004502A80E2206F015FD2246EF
:107BE00002A8242106F020FDB1682B46CDE900450E
:107BF00002A80F2206F008FD2246214602A806F040
:107C000013FDB1682B46CDE9004502A8102206F00D
:107C1000FBFC2246214602A806F006FDB1682B4671
:107C2000CDE9004502A8112206F0EEFC224602A88A
:107C3000502106F0F9FCB1682B46CDE9004502A8B9
:107C4000122206F0E1FC2246214602A806F0ECFCD6
:107C5000B1682B46CDE9004502A8132206F0D4FCFA
:107C6000224602A8062106F0DFFC08B070BD00BF66
:107C70002DE9F041836890B0012400270546019466
:107C800080220E460AA819460097234606F0BCFC3F
:107C9000234622460AA904A806F0D0FD394604A8C6
:107CA00006F042FEA9682346CDE90074AF220AA877
:107CB00006F0AAFC032302220AA904A806F0BEFDCE
:107CC000022104A806F030FE2846FFF751FDA968FE
:107CD0002346CDE9007480220AA806F095FC2246CE
:107CE0000AA9042304A806F0A9FD214604A806F069
:107CF0001BFE40F2E93405E0013C4FF0010006D0E4
:107D000003F0EAF904A806F0A1FD0028F4D101244B
:107D10000027A96801942346802200970AA806F04C
:107D200073FC234622460AA904A806F087FD2146D3
:107D300004A806F0F9FDB84602E0012003F0CCF9F2
:107D4000A9680123A322CDE900840AA806F05CFCFF
:107D5000062301220AA904A806F070FD04A806F073
:107D600075FD0028E9D0A9680223CDE90084952299
:107D700004A806F049FC0C22314604A806F022FDB6
:107D8000A9680123CDE90084802207460AA806F0ED
:107D90003BFC01231A460AA902A806F04FFD002168
:107DA00002A806F0C1FDA9680123CDE90084AF2235
:107DB0000AA806F029FC032302220AA902A806F059
:107DC0003DFD022102A806F0AFFD2846FFF744FE64
:107DD000A9680123CDE9008480220AA806F014FCDA
:107DE000042301220AA902A806F028FD02A8012105
:107DF00006F09AFD40F2E93405E0013C4FF0010045
:107E000006D003F069F902A806F020FD0028F4D19D
:107E100001244FF00008A96801942346CDF80080A2
:107E200080220AA806F0F0FB0AA92346224602A8EF
:107E300006F004FD214602A806F076FD02E00120CE
:107E400003F04AF9A9680123A322CDE900840AA816
:107E500006F0DAFB062301220AA902A806F0EEFCCE
:107E600002A806F0F3FC0028E9D037B106F10C01B6
:107E700004A80C2206F0A6FC0746384610B0BDE860
:107E8000F08100BF00F10C01FFF7F2BE30B582684F
:107E900089B0012300240D46CDE90043114602A814
:107EA000812206F0B1FB2246294602A806F0BCFB5F
:107EB00009B030BD30B5826889B0002401230D4679
:107EC000CDE900431146022302A8CA2206F09CFB1A
:107ED0002246294602A806F0A7FB09B030BD00BF24
:107EE00030B5826889B0012300240D46CDE90043F6
:107EF000114602A8AA2206F087FB2246294602A8BC
:107F000006F092FB09B030BD704700BF10B40468A2
:107F1000E468A4465DF8044B604700BF30B40468D1
:107F2000BDF808500295646BA44630BC604700BFA2
:107F300030B40468BDF808500295A46BA44630BC68
:107F4000604700BF704700BF01F00301012981763F
:107F5000B0F90830B0F90A2004D0032902D0838197
:107F6000C28170478281C381704700BF2DE9F04311
:107F700085B0994204460768BDF93060BDF8348089
:107F800023D0B2421D4611D03B69DFF884904B45A7
:107F900036D1CDE900682B467E6A2046B04723687B
:107FA0009B6A4B4527D105B0BDE8F08399421FDDA0
:107FB000CDF830800131BE6B4B1B1BB229462046E9
:107FC000B44605B0BDE8F0436047B2420CDDCDF8E1
:107FD0003080531C7D6B9B1B1BB232462046AC4647
:107FE00005B0BDE8F0436047334616461A46EEE753
:107FF0000D461946DCE7204605B0BDE8F0431847BA
:10800000CDE9021298472768DDE90212C1E700BFF7
:10801000097F02002DE9F04FD0F800C01F46DCF8C0
:1080200010601A4B83B09E420546BDF93090BDF8F2
:1080300034A00C4690461FD12744BC4214DADFF826
:1080400050B0DCF81C60CDF800A05E4521464B46E0
:108050004246284601D1DCF83460013424B2B047EE
:10806000BC42D5F800C0ECDBDCF82830074A93426C
:1080700006D103B0BDE8F08FB047D5F800C0DBE70C
:10808000284603B0BDE8F04F184700BF097F020043
:108090001D7F02002DE9F04FD0F800C01D46DCF82E
:1080A00010A02D4B83B09A450446BDF93090BDF821
:1080B00034708846164641D1DCF820B0DFF89CA029
:1080C0000097D34508BFDCF838B02B46324641460E
:1080D0002046D8472368D3F820B0009709F1FF3233
:1080E0003244D34512B232D1D3F838A041462B46A0
:1080F0002046D0472368DFF868A0D3F81CB000976B
:10810000D34508BFD3F834B032464B4641462046EB
:10811000D8472368691EDD6900975545414408BF6B
:108120005D6B32464B4609B22046A84723680A4A8F
:108130009B6A934206D103B0BDE8F08FD047D4F8D4
:1081400000C0B9E7204603B0BDE8F04F18472B4602
:1081500041462046D847CDE7097F0200317F020023
:108160001D7F02002DE9F04F85B01E46BDF9385045
:10817000BDF83CA0AB1A002B9046A6EB0102B8BF9D
:108180005B42002AB8BF52429342074679DCAE46B2
:108190004446AC4640463546884676462146994692
:1081A000A8455CDDA8EB0504A4B2A0EB0C0002948A
:1081B0004FF6FF7C24B204EBD47480EAE079B1423C
:1081C000C8BF4FF0010CA9EBE0796410CDF80CC0EA
:1081D0009342304B01931FFA89F933DCD7F800C082
:1081E000019BDCF814B09B452946534608BFDCF8D8
:1081F0000CB0A4EB090432463846D847A3B21CB2EF
:108200000135002C2DB205DA039A1644029AD418CF
:1082100036B224B2A845E1DA05B0BDE8F08FDCF84B
:108220000CB0D847A4EB0904A3B21CB20135002C52
:108230002DB205DA039A1644029A9C1836B224B27B
:108240004545E9DCD7F800C0019BDCF814B09B453C
:108250002A46534631463846E1D0D847E2E7A5EBF7
:10826000080080B204B204EBD474B14202904FEA29
:10827000640428460E46454607DA012103918046EC
:10828000A6E7B446084691468AE74FF6FF71039188
:1082900080469DE70D7F02002DE9F04FD0F800C029
:1082A000DFF888E0DCF83C6083B07645BDF93080CB
:1082B000BDF834A028D191461F461B4ADCF8103087
:1082C000934205460C462BD12744BC4214DADFF812
:1082D00060B0DCF81C60CDF800A05E452146434646
:1082E0004A46284601D1DCF83460013424B2B04754
:1082F000BC42D5F800C0ECDBDCF828300A4A9342D7
:1083000009D103B0BDE8F08FB446CDE90C8A03B0C3
:10831000BDE8F04F6047284603B0BDE8F04F18476E
:108320009847D5F800C0CFE7097F0200158002000A
:108330001D7F02002DE9F04FD0F800C0284BDCF87B
:108340003C40B0F90C80B0F90E709C4283B0894675
:1083500033D1DCF81030DFF88CB05B4505463AD1FC
:10836000B8F1000F22DD0024DFF87CA0A64609E06A
:10837000DCF834600134B0470FFA84FEF045D5F8DC
:1083800000C013DDDCF81C60CDF800905645714646
:108390003B464FF000022846EAD001340022B047A5
:1083A0000FFA84FEF045D5F800C0EBDCDCF828308D
:1083B0005B450BD103B0BDE8F08F0022CDE9007121
:1083C00043461146A04703B0BDE8F08F284603B0EE
:1083D000BDE8F04F18479847D5F800C0C0E700BF88
:1083E00015800200097F02001D7F02002DE9F04F79
:1083F000D0F800C01646DCF81050304A85B09542DF
:108400000746BDF838B00C464DD19BB203F1FF3999
:10841000DCF824502A4A1FFA89F909EB040895422E
:108420000FFA88F810D0CDE9006B4346324621465A
:108430003846A847D7F800C0DCF828301F4A9342D6
:1084400037D105B0BDE8F08F444526DDC3F1010307
:108450001FFA83F90FFA89F5234605EBD5754446D3
:108460006D109846174BDCF814A09A4532465B46CF
:10847000214638460FD1DCF80CA0D0470134002D3E
:1084800024B203DA013E4D4436B22DB2A045D7F8EE
:1084900000C0E7DAD0E7D047F0E70FFA89F505EB3F
:1084A000D5756D10DEE70393A847D7F800C0039B8E
:1084B000ABE7384605B0BDE8F04F1847097F02002A
:1084C000658102000D7F02002DE9F04FD0F800C059
:1084D0009046DCF81040424A85B094420646BDF80A
:1084E00038900F466ED1DCF824503E49013B1FFA0C
:1084F00088F213449BB28D421CB250D1444528D01F
:1085000066DAD31A9BB21DB205EBD575A04503936D
:108510004FEA65053BDBDFF8D0A010E0DCF80CB0DB
:10852000D8470134002D24B2ABB204DA039A013FDC
:108530009D183FB22DB2A045D6F800C027DBDCF86D
:1085400014B0D3454B46224639463046E6D0D8478C
:10855000E7E7DFF894A03D464FF00008BB46DCF8A3
:1085600014705745224608BFDCF80C7029464B466C
:108570003046B8470135B8F1000FB8BF04F1FF34F9
:108580002DB2B8BF24B2AB45D6F800C0E7DADCF8AC
:108590002830134A934210D105B0BDE8F08F42460F
:1085A0003B46CDE9004939463046A847D6F800C0D9
:1085B0000B4ADCF828309342EED0304605B0BDE8D7
:1085C000F04F18470393A047D6F800C0039B8AE7F3
:1085D000104621461A4644460346884691E700BFA6
:1085E000097F0200658102000D7F020070B4002443
:1085F00061F30F0462F31F44094A02604FF0FF3633
:10860000002240F2011501218460C46046610583A7
:10861000C1764260026182760277026270BC704766
:10862000A82703002DE9F04F87B0D0F800C0BDF9AE
:1086300040600593F31D48BF06F10E03DB1017469B
:108640000393DCF810202E4BBDF84850BDF9444090
:1086500001959A428046029148D1002C3EDD3C446F
:108660004FF0000B23B204935D46002E2FDD059AD8
:10867000002302EB0B0903E0013423B29E4226D013
:108680009CB2DB1014F0070F4FEA45050CBF19F838
:108690000350EDB22B06EFD5029BDCF814A004EBDF
:1086A000030E184B0FFA8EFE9A4508BFDCF80CA09B
:1086B000019B3A46714640461EBF71463A464046C7
:1086C0000134D04723B29E42D8F800C0D8D1039BD2
:1086D00001379B44049B3FB29F42C6D1DCF828304F
:1086E000074A934206D107B0BDE8F08F9047D8F80B
:1086F00000C0B2E7404607B0BDE8F04F184700BFE2
:10870000097F02000D7F02002DE9F04F97B08346EC
:108710000D91016ABDF880000290BDF884000390BD
:108720009DF8880006909DF88C000890059200291D
:1087300000F0EB800A7AD1E900109B1ADBB200EB63
:10874000C30230F83330079393780493D3781093AF
:1087500092F905301593069B0A91012B92F9064078
:1087600040F2CB80BDF954300E9323B21293AE4B3E
:10877000DBF800C009931A46DCF81030934240F051
:108780004D81109B002B00F08B80BDF814301393AB
:10879000002223440C92149392460B92049B002BCC
:1087A00076D00B9B129A089913981A4402FB010287
:1087B0001499CB181BB211930FFA82F90C9B002568
:1087C00009E00135049AEDB24FEA4A0AAA425FFA7B
:1087D0008AFA434658D95A1C5B075FFA82F806D1D9
:1087E000079A0A99531C9BB211F802A007931AF03A
:1087F000800FE6D0069ABDF83430012A59D00E9A7F
:108800000699DCF81860BDF920705419874A04FBFA
:108810000134964224B20BB260D1DCF83C60844A49
:1088200096425BD1DCF81030099A934260D1069BE6
:108830002344A34203931DDD7E4B05930F950BE06C
:10884000029D0095DCF83460B0470134039BDBF8EF
:1088500000C024B2A3420CDDDCF81C60059DAE42D2
:1088600021463B464A465846EAD0029B00933B4687
:10887000EAE70F9DDCF82830099A9342A1D05846C8
:108880009847DBF800C09CE70C9B1344DBB20C93C9
:108890000B9B109A0133DBB29A420B933FF67EAFEB
:1088A000DCF82830099A934240F0B38017B0BDE855
:1088B000F08F089A012AA2D1159ADCF814401344CB
:1088C0005D4A5919944208BFDCF80C40029B119A8A
:1088D00009B25846A047DBF800C072E7029A214669
:1088E000CDE9007258464A46B047DBF800C068E759
:1088F00058469847DBF800C099E7089B012B3FF6E4
:1089000031AF002312930E9331E7BBF90C200D9980
:108910008A42CBDDBBF90E2005988242C6DDBDF848
:108920001840062212FB0412002ABFDD089A00EB51
:10893000C202002ABADD9BF81C201AB9AF2B84BFF3
:108940000133DBB2384ADBF800C009921146DCF88B
:1089500010208A4240F08C81384ABDF834100F91C3
:1089600003EB8303D3180D93BDF818300E93002347
:108970000B910C930D9ABDF92C3012F8018B0D92CE
:10898000069A07939F18082304930026B94618F007
:10899000010F55D00699BDF814200129B3B200F09B
:1089A000F2800899DCF8184011FB03F313441F4AC6
:1089B00094421DB20FFA81FABDF9183040F00681D9
:1089C000DCF83C401A4A944240F00081DCF8103058
:1089D000099A934240F02281079C4C4570DA0A962E
:1089E0000AE0029E0096DCF83470013424B2B847E5
:1089F0004C45DBF800C062DADCF81C700D4EB74263
:108A0000214653462A465846EBD0029B00935346D4
:108A1000EBE7584617B0BDE8F04F1847584698475F
:108A2000DBF800C0ADE600BF097F020099820200BA
:108A3000158002001D7F02000D7F0200A0220300AE
:108A4000DDE90232934241D00699BDF81420012994
:108A5000B3B200F0C5800899DCF8184011FB03F3AD
:108A600013448F4A94421DB20FFA81FABDF91830AF
:108A700040F0CD80DCF83C408A4A944240F0C78008
:108A8000DCF81030099A934240F0CD80079C4C45A9
:108A900016DA0A96DCF81C70834EB742214653461C
:108AA0002A46584640F08680039E00960134DCF842
:108AB000347024B2B8474C45DBF800C0EADB0A9EAC
:108AC000DCF82830099A934240F0A380049B013BD4
:108AD000013613F0FF0376B24FEA580804937FF48F
:108AE00056AF0B9B0E9A13440C9A01329BB2052A87
:108AF0000C920B937FF43EAFDDE9023293423FF4D8
:108B0000CFAE069B012B00F0A0800E9B0F99DCF8E6
:108B10001860634A03EB83031944089B96424FEAAB
:108B2000C3050CB2BDF9183040F0A980DCF83C60F8
:108B30005C4A964240F0A380DCF81030099A9342D8
:108B400040F0A980069B23449C421E4670DADFF861
:108B50005881DDF814900AE0039F0097DCF8347028
:108B6000013424B2B847B442DBF800C060DADCF864
:108B70001C70474521462B464A465846ECD0039B7D
:108B800000932B46ECE7089901297FF40AAF1344C0
:108B90000C990F9ADCF8144051181AB2434B9C42BE
:108BA00008BFDCF80C40029B09B25846A047DBF82E
:108BB00000C08BE7039B00930134534624B2B847AF
:108BC000A145DBF800C03FF765AF78E7029A079947
:108BD000CDE900A258462A46A047DBF800C075E759
:108BE000089901297FF437AF13440C990F9ADCF8E8
:108BF000144051181AB22D4B9C4208BFDCF80C40AF
:108C0000039B09B25846A047DBF800C05EE7039A11
:108C1000DDE758469847DBF800C057E758469847C5
:108C2000DBF800C0D8E658469847DBF800C02DE7CF
:108C3000DCF82830099A93423FF435AE58469847FD
:108C4000DBF80030099A9B6A2DE6089B012B7FF424
:108C50005CAF0F9900920531059ADCF81C4008239F
:108C600009B25846A047DBF80030099A9B6A1AE619
:108C7000049358469047DBF800C0049B6CE6039AC7
:108C80002146CDE900525846059AB047DBF800303E
:108C9000099A9B6A07E658469847DBF800C051E7F7
:108CA00099820200158002001D7F02000D7F0200E4
:108CB0002DE9F041036A84B00446002B4FD00A2905
:108CC00041D00D2947D01A7A914244D3987A8842EC
:108CD00041D38A1A5D68B4F91060207ED2B205EBE8
:108CE000C205AF7857B3EA7842B394F81BC0B4F921
:108CF000122094F819E0BCF1000F0FD095F905C0CF
:108D0000B4F90C80674400FB0767474506DD002681
:108D100026821B7B03FB0E2212B26282B4F816C0BD
:108D2000CDF80CE0A78A02900B4620463146CDE9EB
:108D3000007CFFF7E9FCB4F91060207E297901FB83
:108D40000060208207E0002202821B7B428A417E73
:108D500001FB03234382012004B0BDE8F0810A290E
:108D60002CD00D29F7D0C67EB0F91070B4F91220BE
:108D7000007E657E66B10626B4F90CC016FB00764F
:108D8000664505DD02EBC50212B2628223821F46F0
:108D9000E68A0395A58A02900B4620463946CDE91E
:108DA0000056FFF7B1FC237E228A03EB430302EB5C
:108DB00043030120238204B0BDE8F081428A417E52
:108DC000038202EBC1034382C5E700BF002908BF4D
:108DD0000121017641767047002929DB30B4B0F9D2
:108DE0000C408C4222DD002A20DBB0F90E40944278
:108DF0001CDD847E022C4BD0032C43D0012C18D0D8
:108E0000012B2ED01BD3022B10D1002A0489C06A5B
:108E10001346B8BFD31DDB1013FB041102F0070289
:108E2000445C012303FA02F26240425430BC7047B2
:108E300070470489D24314440A4621B2E0E7002A6D
:108E40000489C06A1346B8BFD31DDB1013FB04119D
:108E500002F00704435C0122A24023EA02034354C8
:108E6000E4E7002A0489C06A1346B8BFD31DDB10AB
:108E700013FB041102F00702445C012393402343D7
:108E80004354D3E74489013C641A114622B2B7E740
:108E900004894589D243013C2A44611A12B209B2BD
:108EA000AEE700BFF8B50446806A0D4668B394F893
:108EB0003010FEF735FAA06A036800211B68984756
:108EC000A36A2F1D01261A6815F8011B126818469F
:108ED00090470136BD42B6B212D0A36A3F2E184663
:108EE000F1D1FEF78BFA94F83010A06AFEF718FA69
:108EF000A06A036800211B6898470126A36AE2E77D
:108F0000A06ABDE8F840FEF779BA226C216D1368BB
:108F100023EA010313602E1D04E005F02BFBB5428C
:108F200000F09A80606A15F8011B0028F5D1D4E999
:108F30000E23A06C176811F0800F0CBF27EA000009
:108F4000384310601868E76C384318601868E76C9D
:108F500020EA070018601768A06C11F0400F0CBFE2
:108F600027EA0000384310601868E76C384318603F
:108F70001868E76C20EA070018601768A06C11F009
:108F8000200F0CBF27EA0000384310601868E76C18
:108F9000384318601868E76C20EA07001860176803
:108FA000A06C11F0100F0CBF27EA000038431060CE
:108FB0001868E76C384318601868E76C20EA070007
:108FC00018601768A06C11F0080F0CBF27EA0000AA
:108FD000384310601868E76C384318601868E76C0D
:108FE00020EA070018601768A06C11F0040F0CBF8E
:108FF00027EA0000384310601868E76C38431860AF
:109000001868E76C20EA070018601768A06C11F078
:10901000020F0CBF27EA0000384310601868E76CA5
:10902000384318601868E76C20EA0700186011F0F0
:10903000010FA06C116814BF084321EA0000106002
:109040001A68E16C0A431A601A68E16CB54222EAB8
:1090500001021A607FF466AFF8BD00BF2DE9F04150
:10906000847EBDF81850022C7AD0032C73D0012CCA
:1090700007D0002A03DBB0F90A4094427BDCBDE84C
:10908000F0810489D243224412B2002AF7DBB0F9FE
:1090900008609642F3DD0029BEBF5B1800211BB2B9
:1090A000B0F90A700C461C44BC42C4BF7B1A1BB208
:1090B000002BE4DDC9B2CC08D0F82CC016FB04228A
:1090C00011F00701DBB20CEB020721D0C1F108015E
:1090D000CCB2C349A342095D80F07681A4EB030EB4
:1090E000FF2646FA0EF6012D01EA060100F0FC818A
:1090F000C0F00082022DC2D11CF8026071400CF851
:109100000210A342BBD3B0F908201B1BDBB21744EB
:10911000072B11D9022D00F0F481002D14BFFF247C
:1091200000241A463C70083AB0F90810D2B2072A57
:109130000F44F7D803F00703002BA0D0A94A012D54
:10914000D35C00F0F581C0F0EE81022D97D13A7822
:1091500053403B7093E744891944611A09B294E77C
:1091600046890489D2433244194412B2611A002A52
:1091700009B280DA83E70029BEBF5B181BB2002169
:10918000B0F908405E18A642C4BF631A1BB2002B98
:109190008E467FF774AF002A1646B8BFD61DF11071
:1091A0004FF0010CC76A02F0070214FB01E60CFA4B
:1091B00002F26545D2B207EB060100F01581C0F05E
:1091C0008380022D7FF45BAF9BB24C425D1E04F0A6
:1091D0000304ADB2E01C85420FFA85FC48D3002C95
:1091E00000F0AA81B85DA3F1020C5040012CB855E3
:1091F0000FFA8CFC01F1010813D04878A3F1030C9D
:109200005040032C48700FFA8CFC01F1020808D181
:109210008878A3F1040C5040887001F103080FFA1C
:109220008CFC4FF0000E62F3070E181BA11962F3BD
:109230000F2E86B27B1862F3174E62F31F6EB708CB
:109240001C1F002054F8041F013085B28EEA010172
:10925000AF4243F8041BF5D826F003039BB2ACEBF6
:10926000030C9E420FFA8CFC08EB03013FF407AF9E
:109270000B781FFA8CF05340441E0B70A4B2BCF163
:10928000000F3FF4FCAE4D78831E55404D709BB2ED
:10929000002C3FF4F4AE8D78C41E55408D70A4B2FE
:1092A000002B3FF4ECAECB785340CB70002C3FF456
:1092B000E6AE0B79042883EA02030B713FF4DFAEBC
:1092C0004B795A404A71DAE69BB248425C1E00F084
:1092D0000300A4B2C51CD243AC425FFA82FC22B2A6
:1092E00043D3002800F02C81BC5D9A1E0CEA0404D4
:1092F0000128BC5512B201F1010E11D04C78DA1ED2
:109300000CEA040403284C7012B201F1020E07D1DA
:109310008C781A1F0CEA04048C7001F1030E12B24F
:109320004FF000086CF3070881191B1A6CF30F2823
:1093300039449EB26CF317486CF31F68B7080C1FD2
:10934000002054F8043F013085B208EA0303AF421D
:1093500041F8043BF5D826F003039BB2D21AB3427E
:1093600012B20EEB03013FF48AAE0B7890B20CEA16
:109370000303441E0B70A4B2002A3FF480AE4A7867
:10938000831E0CEA02024A709BB2002C3FF477AEB7
:109390008C78C21E0CEA04048C7092B2002B3FF44D
:1093A0006EAECB780CEA0303CB70002A3FF467AEB5
:1093B0000B7904280CEA03030B713FF460AE4B7980
:1093C0000CEA03034B715AE6012D00F08D80C0F0CA
:1093D0009180022D3FF490AE1B1BDBB2374497E621
:1093E000E82C0300F02C03009BB24C42581E04F002
:1093F000030480B2E51C85420FFA80FC48D8002C9B
:1094000000F09C80B85DA3F1020C1043012CB8550C
:109410000FFA8CFC01F1010E13D04878A3F1030C74
:109420001043032C48700FFA8CFC01F1020E08D196
:109430008878A3F1040C1043887001F1030E0FFA31
:109440008CFC4FF0000862F30708A1191B1B62F3A4
:109450000F2839449EB262F3174862F31F68B708B9
:109460000C1F002054F8043F013085B248EA030382
:10947000AF4241F8043BF5D826F003039BB2ACEBB6
:10948000030C9E420FFA8CFC0EEB03013FF4F7AD88
:109490000B781FFA8CF01343441E0B70A4B2BCF17E
:1094A000000F3FF4ECAD4D78831E15434D709BB219
:1094B000002C3FF4E4AD8D78C41E15438D70A4B22A
:1094C000002B3FF4DCADCB781343CB70002C3FF482
:1094D000D6AD0B79042843EA02030B713FF4CFADFC
:1094E0004B791A434A71CAE51CF8026031430CF803
:1094F000021006E61CF8026026EA01010CF80210D0
:10950000FFE51A463978C9433970083AB0F90810AE
:10951000D2B2072A0F44F5D813F007033FF4AFADDA
:10952000084AD35C13E63A7822EA03033B70A6E5C7
:109530003A7813433B70A2E5884672E68E4680E790
:109540008E46EDE6F02C030038B50446806A0D46E1
:10955000002800F0B580A16DFDF762FEA06A002D25
:109560000CBFA625A725002840F08A80226C216D1B
:109570001368606A23EA01031360002876D1A26BA6
:10958000A06C1168E36B014311601968E06C014342
:1095900019601968E06C21EA000119601168A06C7B
:1095A00021EA000111601968E06C01431960196833
:1095B000E06C21EA000119601168A06C01431160A0
:1095C0001968E06C014319601968E06C21EA000138
:1095D00019601168A06C21EA000111601968E06C43
:1095E000014319601968E06C21EA000119601168F3
:1095F000A06C21EA000111601968E06C0143196058
:109600001968E06C21EA000119601168A06C01433F
:1096100011601968E06C014319601968E06C21EA77
:10962000000119601168A06C014311601968E06CB9
:10963000014319601968E06C21EA000119601068A3
:10964000A16CA62D14BF014320EA010111601A6824
:10965000E06C616C02431A601A68E06C22EA000256
:109660001A60626D0B6813430B6038BD294604F025
:1096700081FFA06AC0B1E16DBDE83840FDF7D0BD03
:1096800094F83010FDF74CFEA06A036800211B68B7
:109690009847A06A036829461B689847A06AFDF7A7
:1096A000ADFEA06A0028E6D1626C616D1368606A45
:1096B0000B4313600028D8D0BDE8384004F054BFF5
:1096C000626A3AB104F16403104693E8060004F0BC
:1096D000FDFEA06A626C616D136823EA01031360EA
:1096E0003DE700BF2DE9F041857EBDF81860022DF1
:1096F00000F00B81032D00F00381012D54D00029CF
:1097000050DBB0F908708F424CDD002ABEBF9B18B9
:1097100000221BB2B0F90A5014461C44AC42C4BF2C
:10972000AB1A1BB2002B3DDDD2B2D408D0F82CC04E
:1097300017FB041112F00702DBB20CEB010521D07C
:10974000C2F10802D4B2C64AA342125D80F07B8106
:10975000A4EB030EFF2747FA0EF7012E02EA0702D9
:1097600000F0FF81C0F00382022E1BD11CF80170B3
:109770007A400CF80120A34214D3B0F908201B1B37
:10978000DBB21544072B00F2CC805BB1B54A012E49
:10979000D35C00F00A82C0F00382022E02D12A7844
:1097A00053402B70BDE8F08104891A44A21A12B20A
:1097B0000029F7DBB0F90A408C42F3DD002ABEBF76
:1097C0009B181BB20022B0F908409F18A74215460B
:1097D000C4BFA21A13B2002BE4DD0029C76A0846F1
:1097E000B8BFC81DC21001F007000121814014FB61
:1097F0000252012EC9B207EB020000F03581C0F021
:10980000A380022ECED11FFA83F8444208F1FF351F
:1098100004F00304ADB2E31C9D422EB246D3002CEB
:1098200000F0CB81BB5CA8F102064B40012CBB547D
:1098300036B200F1010E11D04378A8F103064B4077
:10984000032C437036B200F1020E07D18378A8F1E1
:1098500004064B40837000F1030E36B24FF0000C4B
:1098600061F3070CA8EB0408224461F30F2CBB182A
:109870001FFA88F861F3174C61F31F6C4FEA9807E1
:109880001C1F002054F8042F013085B28CEA02021C
:10989000AF4243F8042BF5D828F003039BB2F61A25
:1098A000984536B20EEB03003FF47CAF0378B4B2B8
:1098B0004B40621E037092B2002E3FF473AF4578A6
:1098C000A31E4D4045709BB2002A3FF46BAF8578D4
:1098D000E21E4D40857092B2002B3FF463AFC37817
:1098E0004B40C370002A3FF45DAF0379042C83EA38
:1098F000010303713FF456AF43795940417151E779
:109900004489C943214409B252E704894589C943BE
:1099100021441A4409B2AA1A002912B2BFF6F1AEC4
:1099200040E7022E00F02A81002E14BFFF240024FD
:1099300019462C700839B0F90820C9B20729154416
:10994000F7D803F0070320E71FFA83F8444208F131
:10995000FF3504F00304ADB2E31CC9439D42C9B214
:109960002EB246D3002C00F02481BB5CA8F1020685
:109970000B40012CBB5436B200F1010C11D04378DE
:10998000A8F103060B40032C437036B200F1020C21
:1099900007D18378A8F104060B40837000F1030C13
:1099A00036B24FF0000E61F3070EA8EB0408224414
:1099B00061F30F2E3A441FFA88F861F3174E61F3F2
:1099C0001F6E4FEA9807141F002054F8043F01301F
:1099D00085B20EEA0303AF4242F8043BF5D828F003
:1099E00003039BB2F61A434536B20CEB03003FF477
:1099F000D9AE0378B4B20B40621E037092B2002E4F
:109A00003FF4D0AE4578A31E0D4045709BB2002AAE
:109A10003FF4C8AE8578E21E0D40857092B2002BEF
:109A20003FF4C0AEC3780B40C370002A3FF4BAAE17
:109A30000379042C03EA010303713FF4B3AE4379C5
:109A400019404171AEE6012E00F08B80C0F08F808E
:109A5000022E3FF48BAE1B1BDBB23D4492E600BFEF
:109A6000E82C0300F02C03001FFA83F8454208F1AC
:109A7000FF3405F00305A4B2EB1C9C4226B246D38A
:109A8000002D00F09880BB5CA8F102060B43012D6D
:109A9000BB5436B200F1010C11D04378A8F1030693
:109AA0000B43032D437036B200F1020C07D18378CB
:109AB000A8F104060B43837000F1030C36B24FF09B
:109AC000000E61F3070EA8EB05082A4461F30F2E80
:109AD0003A441FFA88F861F3174E61F31F6E4FEA9C
:109AE0009807141F002054F8043F013085B24EEA55
:109AF0000303AF4242F8043BF5D828F003039BB2BE
:109B0000F61A984536B20CEB03003FF44BAE0378DF
:109B1000B4B20B43621E037092B2002E3FF442AE09
:109B20004578A31E0D4345709BB2002A3FF43AAE20
:109B30008578E21E0D43857092B2002B3FF432AE61
:109B4000C3780B43C370002A3FF42CAE0379042C76
:109B500043EA010303713FF425AE43791943417190
:109B600020E61CF801703A430CF8012003E61CF8CB
:109B7000017027EA02020CF80120FCE51A46297858
:109B8000C9432970083AB0F90810D2B2072A0D4427
:109B9000F5D813F007033FF405AE094AD35CFEE5A0
:109BA0002A7822EA03032B70FCE52A7813432B70F2
:109BB000F8E58446F5E6844681E786464EE600BF32
:109BC000F02C03002DE9F041079F9DF91880104EFD
:109BD00004461D46FEF70AFD0E4B0F49A7654FF0E0
:109BE000FF304FF48072002D08BF1D46089FC4F857
:109BF0003300002384F837806166A4F86820E765A5
:109C0000A56226606362E3622046BDE8F08100BF82
:109C10009C2C0300A839002000093D0010B5044623
:109C2000C06A034B236008B106F04EF9204610BD10
:109C30009C2C0300836A70B50A46002B40F09B8081
:109C4000046C066D2368456A23EA06032360002D31
:109C500040F08C80D0E90E13846C0D68160654BF5A
:109C600025EA04042C430C601C68C56C2C431C6062
:109C70001C68C56C24EA05041C600D68846C5606DB
:109C800054BF25EA04042C430C601C68C56C2C43AB
:109C90001C601C68C56C24EA05041C600D68846C9B
:109CA000960654BF25EA04042C430C601C68C56C5E
:109CB0002C431C601C68C56C24EA05041C600D68FC
:109CC000846CD60654BF25EA04042C430C601C683F
:109CD000C56C2C431C601C68C56C24EA05041C6020
:109CE0000D68846C160754BF25EA04042C430C60ED
:109CF0001C68C56C2C431C601C68C56C24EA0504F8
:109D00001C600D68846C560754BF25EA04042C437C
:109D10000C601C68C56C2C431C601C68C56C24EA74
:109D200005041C600D68846C960754BF25EA040482
:109D30002C430C601C68C56C2C431C601C68C56CF3
:109D400024EA05041C6012F0010F846C0A6814BF39
:109D5000144322EA04040C601A68C16C0A431A60B6
:109D6000C16C1A6822EA01021A6070BD2846BDE87B
:109D7000704004F0FFBB04460D46184694F83010BE
:109D8000FDF7CEFAA06A036800211B689847A06A15
:109D9000036829461B689847A06ABDE87040FDF734
:109DA0002DBB00BF2DE9F0430E46B0F90A10044662
:109DB0001F46CB1D85B048BF01F10E03B4F90890D2
:109DC000C06A9DF83080DB10154609FB03F90028B6
:109DD00000F015824A46002106F089F8B4F90A20FD
:109DE000B4F90810202A00F3D3800120203A7339F7
:109DF0004FF0200C029002EBD272732001EBD17174
:109E0000CDE9000C9F4B204642F34F0241F34F0136
:109E1000FEF708FCA06A84F83160002800F0D380C7
:109E2000002D40F0DF81B4F90A30202B14BF3D250E
:109E30003C2584F83050B8F1000F40F0DA81002F53
:109E400000F0F88094F93700002817DB012104F0B6
:109E500091F8012194F9370004F0CEF8012001F0C7
:109E60003BF9002194F9370004F0C6F80A2001F00C
:109E700033F9012194F9370004F0BEF8A06A0028F4
:109E800040F0D880606A28B104F1640393E80600CA
:109E900004F01CFB626C616D136823EA010313601C
:109EA00079492046FEF7FEFFA17A0139C9B2204662
:109EB000FFF7C0FE75492046FEF7F4FF94F93130F4
:109EC000012B14BF142110212046FFF7B3FE704967
:109ED0002046FEF7E7FFA3686E4A8F21934284F87D
:109EE000601008D002F50012934200F090816A4A97
:109EF000934200F09A810225DA212046FFF79AFE6C
:109F000029462046FFF796FE81212046FFF792FE64
:109F100094F860102046FFF78DFED9212046FFF708
:109F200089FE94F93130012B204614BFF121222102
:109F3000FFF780FEA06A002800F09B8094F83010A4
:109F4000564FFDF7EDF9A06A036800211B6898479A
:109F5000A36ABE1D01251A6817F8011B126818466E
:109F600090470135B742ADB268D0A36A3F2D18467D
:109F7000F1D1FDF743FA94F83010A06AFDF7D0F95B
:109F8000A06A036800211B6898470125A36AE2E7DD
:109F90000120403A52394FF0400C029002EBD2724D
:109FA000522001EBD171CDE9000C3D4B204642F32C
:109FB0004F0241F34F01FEF735FBA06A84F8316090
:109FC00000287FF42DAF012194F93500354D364E30
:109FD00003F0D0FF94F93600012103F0CBFF94F990
:109FE0003530314A55F8233022641F2B88BF203B7F
:109FF000012202FA03F394F93620236555F8222052
:10A00000294B63641F2A88BF203A0123934063656C
:10A010003268606A13433360002800F01681B8F19B
:10A02000000F40F00C81002F7FF40CAFA06A0028D5
:10A030003FF428AFA16DFDF7F3F831E7A06AFDF713
:10A04000DDF9A06A30B1E16DFDF7EAF8012005B055
:10A05000BDE8F083626C616D1368606A0B43136046
:10A06000002800F0DE8004F07FFA012005B0BDE892
:10A07000F083226C216D1368084D23EA01031360FD
:10A08000AE1D17E0B42A0300F82C0300FC2C0300DB
:10A09000002D03008000200060001000042D03004C
:10A0A000F4270300142D03000405005004F062FAA5
:10A0B000B542C6D0606A15F8011B0028F6D1D4E974
:10A0C0000E23A06C176811F0800F0CBF27EA000068
:10A0D000384310601868E76C384318601868E76CFC
:10A0E00020EA070018601768A06C11F0400F0CBF41
:10A0F00027EA0000384310601868E76C384318609E
:10A100001868E76C20EA070018601768A06C11F067
:10A11000200F0CBF27EA0000384310601868E76C76
:10A12000384318601868E76C20EA07001860176861
:10A13000A06C11F0100F0CBF27EA0000384310602C
:10A140001868E76C384318601868E76C20EA070065
:10A1500018601768A06C11F0080F0CBF27EA000008
:10A16000384310601868E76C384318601868E76C6B
:10A1700020EA070018601768A06C11F0040F0CBFEC
:10A1800027EA0000384310601868E76C384318600D
:10A190001868E76C20EA070018601768A06C11F0D7
:10A1A000020F0CBF27EA0000384310601868E76C04
:10A1B000384318601868E76C20EA0700186011F04F
:10A1C000010FA06C116814BF084321EA0000106061
:10A1D0001A68E16C0A431A601A68E16C22EA01020B
:10A1E0001A6065E76DB284F83050B8F1000F3FF4A3
:10A1F00026AEFCF7C5FF002F3FF418AF22E6484615
:10A2000005F05AFEE06200287FF4E4AD1FE794F900
:10A210003130012B14BFCF239F2384F860301225E7
:10A220006AE6012005B0BDE8F08394F93130012BD6
:10A2300014BFAF23102384F8603002255CE604F0DD
:10A24000EDF8002F3FF4F2AEFCE5012194F9330064
:10A2500003F090FE012194F9340003F08BFE94F991
:10A2600033300F4955F82320A6631F2A88BF203AB0
:10A270000123934094F93420A36455F82220084B1D
:10A28000E3631F2A88BF203A01239340E3640A68EE
:10A2900022EA03030B60002F3FF4C8AED2E500BFF3
:10A2A00004050050B0F90A20D31D48BF02F10E0387
:10A2B000B0F90820C06ADB1002FB03F2002105F0B0
:10A2C00016BE00BFF8B50446806A002800F08A80F8
:10A2D000A16DFCF7A5FFA06A002800F0978094F814
:10A2E00030109F4FFDF71CF8A06A036800211B681F
:10A2F0009847A36A7E1D01251A6817F8011B12688A
:10A30000184690470135B742ADB212D0A36A3F2D2F
:10A310001846F1D1FDF772F894F83010A06AFCF7F6
:10A32000FFFFA06A036800211B6898470125A36A04
:10A33000E2E7A06AFDF762F8217A01392046C9B246
:10A34000FFF778FCB4F90A202689D31D48BF02F133
:10A350000E03D4E90A05DB1016FB03F6B6B200289B
:10A3600056D094F83010FCF7DBFFA06A0368402158
:10A370001B68771E9847BFB2F6B10137A06A2F4419
:10A380000126036815F8011B1B6898470136BD427A
:10A39000B6B211D03F2EA06AF3D1FDF72FF894F892
:10A3A0003010A06AFCF7BCFFA06A036840211B685C
:10A3B00098470126A06AE4E7A06AFDF71FF8A06AA3
:10A3C00058B9626C616D1368606A0B43136018B111
:10A3D000BDE8F84004F0C8B8F8BDE16DBDE8F8404C
:10A3E000FCF71EBF606A002800F0BC8004F1640323
:10A3F00093E8060004F06AF8626C616D1368A06A65
:10A4000023EA0103136000287FF469AF606AAFE0BC
:10A41000226C216D13680B432E441360B542CED0DD
:10A42000606A15F8011B40B104F0A4F8B542C6D02B
:10A43000606A15F8011B0028F6D1D4E90E23A06C40
:10A44000176811F0800F0CBF27EA00003843106036
:10A450001868E76C384318601868E76C20EA070052
:10A4600018601768A06C11F0400F0CBF27EA0000BD
:10A47000384310601868E76C384318601868E76C58
:10A4800020EA070018601768A06C11F0200F0CBFBD
:10A4900027EA0000384310601868E76C38431860FA
:10A4A0001868E76C20EA070018601768A06C11F0C4
:10A4B000100F0CBF27EA0000384310601868E76CE3
:10A4C000384318601868E76C20EA070018601768BE
:10A4D000A06C11F0080F0CBF27EA00003843106091
:10A4E0001868E76C384318601868E76C20EA0700C2
:10A4F00018601768A06C11F0040F0CBF27EA000069
:10A50000384310601868E76C384318601868E76CC7
:10A5100020EA070018601768A06C11F0020F0CBF4A
:10A5200027EA0000384310601868E76C3843186069
:10A530001868E76C20EA0700186011F0010FA06CA2
:10A54000116814BF084321EA000010601A68E16C2A
:10A550000A431A601A68E16C22EA01021A605DE798
:10A560000C2D0300626C616D136823EA0103136014
:10A57000226C216D1368514D23EA010313606E1D97
:10A5800005E003F0F7FFB5423FF4D6AE606A15F878
:10A59000011B0028F5D1D4E90E23A06C176811F037
:10A5A000800F0CBF27EA0000384310601868E76C82
:10A5B000384318601868E76C20EA070018601768CD
:10A5C000A06C11F0400F0CBF27EA00003843106068
:10A5D0001868E76C384318601868E76C20EA0700D1
:10A5E00018601768A06C11F0200F0CBF27EA00005C
:10A5F000384310601868E76C384318601868E76CD7
:10A6000020EA070018601768A06C11F0100F0CBF4B
:10A6100027EA0000384310601868E76C3843186078
:10A620001868E76C20EA070018601768A06C11F042
:10A63000080F0CBF27EA0000384310601868E76C69
:10A64000384318601868E76C20EA0700186017683C
:10A65000A06C11F0040F0CBF27EA00003843106013
:10A660001868E76C384318601868E76C20EA070040
:10A6700018601768A06C11F0020F0CBF27EA0000E9
:10A68000384310601868E76C384318601868E76C46
:10A6900020EA0700186011F0010FA06C116814BFC8
:10A6A000084321EA000010601A68E16C0A431A604E
:10A6B0001A68E16C22EA01021A6064E70C2D0300BB
:10A6C0002DE9F843144C154D4FF000091746084684
:10A6D0008846C4F8089502211E4603F04BFC384614
:10A6E000022103F047FC55F82830C4F8203555F80E
:10A6F0002730C4F824354E4507DB4946304603F081
:10A7000039FC55F82630C4F81C35034B0022C3F839
:10A710002825BDE8F88300BF00200140142D030068
:10A72000074BD3F804332BB1064B4FF48022C3F808
:10A7300080211A60024B0122C3F800251A6070477D
:10A740000020014000E100E0084B0122DA60D3F86C
:10A750001815D0E90023521AD31A03EBD3735B10F8
:10A76000026018BF42601846704700BF00200140D9
:10A77000144BD3F80423D20702D5D3F8002102B931
:10A78000704770B5104CA268002184B0C3F8001166
:10A79000AAB10126DE60D3F81805D4E900532D1ABA
:10A7A000EB1A03EBD37353FA06F0256007D004AB22
:10A7B000009643F8040D0846656003F095F904B06F
:10A7C00070BD00BF00200140643A0020024B00220F
:10A7D000C3E900229A607047643A002008B501215D
:10A7E000112003F0C7FB112003F018FC13200121F6
:10A7F00003F0C0FB1320BDE8084003F00FBC00BF0E
:10A80000F8B5174682B105460E46002402E0013431
:10A81000A74207D02B6816F8011B1B6828469847EB
:10A820000028F4D12046F8BD1446FBE769B170B5A5
:10A83000054608460C4606F0B9F82B680246214644
:10A8400028465B68BDE8704018470846704700BF5F
:10A85000F0B50F468BB00568002A3DD00A2A0446A1
:10A860001ED100293DDB0AAE00232F4806F8043D27
:10A870000B46A0FB0312D20802EB8201A3EB4103BB
:10A88000303306F8013D1346002AF2D1304606F077
:10A890008DF86B6802463146204698470BB0F0BDF4
:10A8A0000AAED2B20023022A06F8043D2CBF10469D
:10A8B0000A200A46B2FBF0F100FB1127FBB2092F78
:10A8C00003F130078ABF3733FBB2DBB20A4606F822
:10A8D000013D0029EED1D9E72B68C9B298470BB0EA
:10A8E000F0BD2B682D2198470AAD002306460E487F
:10A8F00005F8043D7B42A0FB0321C90801EB81025E
:10A90000A3EB4203303305F8013D0B460029F2D199
:10A91000284606F04BF82368024629465B68204625
:10A92000984730440BB0F0BDCDCCCCCCF0B5066828
:10A930008BB022B93368C9B298470BB0F0BD0AACEE
:10A94000D2B20023022A04F8043D05462CBF10466B
:10A950000A20B1FBF0F200FB1217FBB2092F03F142
:10A9600030078ABF3733FBB2DBB2114604F8013D32
:10A97000002AEED1204606F019F8736802462146F7
:10A98000284698470BB0F0BD10B5C2B00446CBB214
:10A990008DED000B02A8064A4FF4807105F0D2FF3E
:10A9A0002368024602A95B682046984742B010BD62
:10A9B000942D0300036870B505460C465E6849B1E6
:10A9C000084605F0F3FF214602462846B0472B68AB
:10A9D0005E680446284602220149B047204470BD03
:10A9E0009C2D03000EB430B5C2B045A9054651F800
:10A9F000042B01910B4602A84FF4807106F00AF86F
:10AA00002B68044602A95B682846224698472046E0
:10AA100042B0BDE8304003B0704700BF08B54022E7
:10AA2000002105F064FA0022C0E9102208BD00BF31
:10AA300010B4D0E91024531C03F03F039C4218BF0C
:10AA400081545DF8044B18BF036470470023C0E9CC
:10AA500010337047D0E91023934206D05A1CC35CD0
:10AA600002F03F024264184670474FF0FF307047D3
:10AA7000D0E91030181A48BF40307047D0E9102391
:10AA8000934214BFC05C4FF0FF307047D0E91030E4
:10AA9000013303F03F03181AB0FA80F04009704701
:10AAA00090F8A300704700BF38B590F99D30002B97
:10AAB00004460DDB5A09203201211A4803F01F0316
:10AAC00001FA03F340F82230BFF34F8FBFF36F8FCB
:10AAD00023694FF48872C3F8082322690123536065
:10AAE0002269D36023690025C3F8005522694FF01D
:10AAF000FF33C2F80C352269C2F814352269C2F856
:10AB00000835226904F11400C2F81035FFF79EFFE2
:10AB1000D4F8A40001F052F9C4F8A45084F8A3506A
:10AB200038BD00BF00E100E01430FFF7A1BF00BF57
:10AB30001430FFF7A3BF00BF1430FFF78BBF00BF77
:10AB400090F8A33003B9704710B54FF0FF310446B9
:10AB5000D0F8A40000F086FF0023D4F8A4001A4621
:10AB60001946BDE8104000F033BB00BF10B50368C4
:10AB7000104A5B6882B093428DF8071013D10446E7
:10AB80004FF0FF31D0F8A40000F06CFF22699DF86F
:10AB9000073084F85D300123C2F848352269184631
:10ABA000936002B010BD01220DF10701984702B079
:10ABB00010BD00BFB9AB02002DE9F0471AB317462C
:10ABC0008846064600F15D0A00254FF001097C1B0E
:10ABD000402C28BF40244FF0FF31D6F8A40000F0ED
:10ABE00041FF08EB05012246504605F075F933692F
:10ABF000C3F8484533692544AF42C3F80890E6D806
:10AC00002846BDE8F08715462846BDE8F08700BF16
:10AC100070B50468724A246A944240F0A58090F8A6
:10AC2000A3200346002A40F09E800D46016990F85B
:10AC30009F00C1F80C05196993F89E00C1F814052E
:10AC400093F8A210012900F09E801969C1F86C25C3
:10AC5000B5F5966F3BD9B5F5166F40F28A80B5F51C
:10AC6000965F40F29E80B5F5165F40F29C80B5F588
:10AC7000615F40F29A80B5F5964F40F29880B5F545
:10AC8000E14F40F29680B5F5164F40F29480B5F54D
:10AC9000614F40F29380B5F5963F40F29280B5F552
:10ACA000E13F40F29080B5F5613F40F28F804D4A20
:10ACB000954240F29180B5F5E12F40F28A80B5F5DA
:10ACC000612F8CBF4FF080524FF0706201E04FF463
:10ACD0009E221969C1F824251A690821C2F80015B5
:10ACE0001A6903F15D01C2F844151A690021C2F81E
:10ACF00020111A6903F15C01C2F834151A690121A7
:10AD0000C2F838151A6911601A694FF48870C2F8D0
:10AD1000040393F99D20002A2EDB5409603402F0CD
:10AD20001F02314801FA02F240F8242093F99D20D5
:10AD3000002A21DB0244602182F8001393F99D2050
:10AD4000002A07DB284802F01F0401215209A14014
:10AD500040F8221001201C4600F014FC0123C4F826
:10AD6000A40084F8A33070BD23460022BDE87040E3
:10AD700018474FF41D22ACE71C4902F00F021144A2
:10AD800060220A76DAE71A6993F8A000C2F8100583
:10AD90001A6993F8A100C2F808051A69C2F86C157F
:10ADA00056E7134A95E7134A93E7134A91E7134A84
:10ADB0008FE7134A8DE74FF41D028AE74FF46B02C9
:10ADC00087E7104A85E74FF0EB7282E74FF06C722D
:10ADD0007FE74FF0E8627CE74FF0806279E700BFE1
:10ADE00009AE020090D0030000E100E0FCEC00E0BE
:10ADF00000B013000050270000F03A0000A04E0001
:10AE000000C0750000903A0190F8A330002B51D19A
:10AE100010B5036990F89F40C3F80C45036990F89A
:10AE20009E40C3F8144590F8A230012B036900F04E
:10AE30008F80C3F86C25B1F5966F3CD9B1F5166FCC
:10AE400040F29580B1F5965F40F29B80B1F5165FB8
:10AE500040F29980B1F5615F40F29780B1F5964F6D
:10AE600040F29580B1F5E14F40F29380B1F5164F75
:10AE700040F29180B1F5614F40F29080B1F5963F7C
:10AE800040F28F80B1F5E13F40F28D80B1F5613F36
:10AE900040F28C804A4B994240F28E80B1F5E12F0E
:10AEA00040F28780B1F5612F8CBF4FF080534FF097
:10AEB000706302E070474FF49E230269C2F82435A4
:10AEC00003690822C3F80025036900F15D02C3F895
:10AED000442503690022C3F82021036900F15C02C4
:10AEE000C3F8342503690122C3F8382503691A60C1
:10AEF00003694FF48871C3F8041390F99D30002B57
:10AF000038DB5C09603403F01F032E4902FA03F3B7
:10AF100041F8243090F99D30002B2BDB0B4460224C
:10AF200083F8002390F99D30002B07DB254903F0BF
:10AF30001F0401225B09A24041F82320044601209E
:10AF400000F020FB0123C4F8A40084F8A33010BD56
:10AF500090F8A040C3F81045036990F8A140C3F8E9
:10AF60000845036942F00102C3F86C2563E74FF41A
:10AF70001D23A2E7144A03F00F031A44602313763B
:10AF8000D0E7124B99E7124B97E7124B95E7124B1C
:10AF900093E7124B91E74FF41D038EE74FF46B03D9
:10AFA0008BE70F4B89E74FF0EB7386E74FF06C733D
:10AFB00083E74FF0E86380E74FF080637DE700BFF1
:10AFC00090D0030000E100E0FCEC00E000B01300D2
:10AFD0000050270000F03A0000A04E0000C07500AD
:10AFE00000903A0108B5054B1BB10548FFF740FD3D
:10AFF00000B908BDAFF3008008BD00BF000000002D
:10B00000843A002010B5114C2369D3F810213AB1CD
:10B010000022C3F81021D3F83C2572B901221A602E
:10B02000D3F8202102B910BD0021D4F8A400C3F840
:10B030002011BDE8104000F057BB94F85C1004F1FB
:10B040001400FFF7F5FC2369E8E700BF703A002021
:10B0500038B50F4C0F4A204600254FF47A7340F85C
:10B06000142BC4E90153FFF7D9FC0B4B0B481A6AA8
:10B070009B6984F8A2500221C4F8A45084F8A3501C
:10B08000206184F89D1084F89E2084F89F3038BD9C
:10B09000703A0020A82D0300142D0300002000406A
:10B0A00010B4019C401AE41A04FB00F4521A94FBF9
:10B0B000F2F05DF8044B1844704700BFFEE700BF94
:10B0C00008B501F0F3F94FF47A72A0FB0223900A5D
:10B0D00040EA835008BD00BF034B8002A3FB003051
:10B0E000800901F007BB00BFD34D621038B51C4684
:10B0F0009DF8105043B3002908BF1A460123C4E944
:10B100000F01226084F8463002F018F8D4E90F13DA
:10B110002268A26001FB03F1CB1A134400200A4409
:10B12000FF21A063E36084F84410626084F8451056
:10B1300004F1100003F004F904F1240003F000F915
:10B1400002F006F884F84C50204638BDF8B50746A2
:10B1500015460E4669B100FB01F0503003F03EF990
:10B16000044690B3002200F1500380F846200360AB
:10B1700007E0502003F032F9044630B384F846600B
:10B180002460C4E90F7601F0D9FFD4E90F132268D7
:10B19000A26001FB03F1CB1A134400200A44FF21F3
:10B1A000A063E36084F84410626084F8451004F101
:10B1B000100003F0C5F804F1240003F0C1F801F019
:10B1C000C7FF84F84C502046F8BD00242046F8BD47
:10B1D0002DE9F04F044685B01D460192884601F0E6
:10B1E000ADFFA26BE36BA84F4FF000099A424E46A9
:10B1F000C0F08B80022D00F006810198002800F03D
:10B200003081B9F1000F00F0958001F0A1FF01F04D
:10B2100045F901F093FF94F84430FF2B08BF84F800
:10B22000446094F84530FF2B08BF84F8456001F076
:10B230008FFF01A902A801F05FFC002840F01881EF
:10B2400001F07CFFA26BE36B9A4277D001F080FFA4
:10B2500001F074FF94F845304FFA83FABAF1000F09
:10B260001ADD636AC3B104F1240907E00AF1FF3370
:10B27000DBB24FFA83FA7BB1636A6BB1484601F0E7
:10B28000E1FB0028F2D001F06FFC0AF1FF33DBB2E2
:10B290004FFA83FA002BEFD1FF2384F8453001F0F9
:10B2A00057FF01F04BFF94F844304FFA83FABAF19C
:10B2B000000F1ADD2369C3B104F1100907E00AF198
:10B2C000FF33DBB24FFA83FA7BB123696BB1484697
:10B2D00001F0B8FB0028F2D001F046FC0AF1FF3380
:10B2E000DBB24FFA83FA002BEFD1FF2384F844300E
:10B2F00001F02EFF01F078F901F020FFA26BE36B63
:10B300009A424FF00109BFF475AF226CA66B002A78
:10B3100040F0FC8025680136002D00F01881A663FE
:10B32000636A002B40F08C8001F012FF012005B011
:10B33000BDE8F08F02A801F0D3FB66E704F1100925
:10B3400001F006FF4846019901F000FB01F0F6FE0E
:10B3500094F845A04FFA8AFABAF1000F1CDD636A2F
:10B36000D3B104F1240B08E00AF1FF3A5FFA8AF343
:10B370004FFA83FA83B1636A73B1584601F062FBF6
:10B380000028F1D00AF1FF3A01F0EEFB5FFA8AF3F0
:10B390004FFA83FA002BEED1FF2384F8453001F0F9
:10B3A000D7FE01F0CBFE94F844304FFA83FABAF19D
:10B3B000000F06DC15E00AF1FF33DBB24FFA83FA27
:10B3C0007BB123696BB1484601F03CFB0028F2D009
:10B3D00001F0CAFB0AF1FF33DBB24FFA83FA002B0C
:10B3E000EFD1FF2384F8443001F0B2FE01F0FCF805
:10B3F000002881D14FF080537B6040BFBFF34F8F57
:10B40000BFF36F8F78E7226CA66B002A82D041468B
:10B41000E06804F061FD236CE26821685B421A4435
:10B420008A42E26080F0898062681344E360022D02
:10B4300000F083800136A663636A002B3FF474AF8B
:10B4400004F1240001F0FEFA00283FF46DAF0E4B2A
:10B450004FF080525A6040BFBFF34F8FBFF36F8FE2
:10B4600062E7009001F074FE009805B0BDE8F08F2F
:10B4700001F064FE94F845506DB2002D18DD636A4A
:10B48000B3B104F1240607E000ED00E0013DEBB2AA
:10B490005DB26BB1636A5BB1304601F0D3FA00284C
:10B4A000F4D0013D01F060FBEBB25DB2002BF1D1B5
:10B4B000FF2384F8453001F04BFE01F03FFE94F885
:10B4C00044506DB2002D16DD2369A3B104F11006BE
:10B4D00005E0013DEBB25DB26BB123695BB1304673
:10B4E00001F0B0FA0028F4D0013D01F03DFBEBB2D1
:10B4F0005DB2002BF1D1FF2384F8443001F028FE27
:10B5000001F072F8002005B0BDE8F08F41465DBB48
:10B51000A06804F0E1FCA368216C62680B449342CC
:10B5200006F10106A360FFF4FAAEA663636A22681F
:10B53000A260002B3FF4F8AE82E7002E7FF4EFAE5E
:10B540000123A363636A002B3FF4EEAE78E76068E3
:10B5500001F07CFBA663636A6560002B7FF470AF2B
:10B5600000287FF474AFDFE6E06804F0B5FC236CDC
:10B57000E26821685B421A448A42E260BFF457AF36
:10B5800052E700BFF8B50646502002F027FF0446F8
:10B5900070B3002501232060C0E90F3580F84650C4
:10B5A00001F0CCFDD4E90F322168A56303FB02F35F
:10B5B0009A1A0A440B44FF27C4E90131E26084F877
:10B5C000447004F1100084F8457002F0B9FE04F1F3
:10B5D000240002F0B5FE01F0BBFDC4E90055E560B2
:10B5E00084F84C602B462A4629462046FFF7F0FD9A
:10B5F0002046F8BD2DE9F0418C4682B0044617463E
:10B60000EFF31186402282F31188806BE26B904247
:10B6100021D3022B05D0002086F3118802B0BDE8AB
:10B62000F08194F84550226CD4F838806DB252BB4A
:10B63000236808F10108002B4FD06B1CC4F8388038
:10B6400037D001356DB284F84550012086F311885A
:10B6500002B0BDE8F08194F84550226CD4F83880EF
:10B660006DB2002AE4D073B9A06804F035FCA36879
:10B67000216C62680B44934208F10108A360DCD39B
:10B680002368A360D9E76146E068019304F024FCD5
:10B69000206CE2682168019B404202448A42E260D9
:10B6A00002D262681044E060022B10D008F1010859
:10B6B000C3E7636A002BC8D004F1240001F0C2F98B
:10B6C0000028C2D0002FC0D001203860A4E7B8F114
:10B6D000000F08BF4FF00108AFE76068019301F069
:10B6E000B5FA019B6360A8E738B5EFF311844023F6
:10B6F00083F31188826BC36B93420ED990F8453067
:10B7000001325BB282635A1C0BD001335BB280F80A
:10B710004530012084F3118838BD002084F311885E
:10B7200038BD436A002BF4D024300D4601F08AF96D
:10B730000028EED0002DECD001202860EAE700BF01
:10B740002DE9F047044684B08846019201F0F6FCEA
:10B75000D4F83890B9F1000F40F09380019B002B92
:10B7600000F00A8102A801F0BBF9B34F4E4604F184
:10B77000240501F0EDFC00F091FE01F0DFFC94F8EF
:10B780004430FF2B08BF84F8446094F84530FF2B09
:10B7900008BF84F8456001F0DBFC01A902A801F0B4
:10B7A000ABF9002840F0878001F0C8FCA36B002BA8
:10B7B00040F0E88001F0CCFC0199284601F0C6F881
:10B7C00001F0BCFC94F845304FFA83F9B9F1000F51
:10B7D00006DC15E009F1FF33DBB24FFA83F97BB1E8
:10B7E000636A6BB1284601F02DF90028F2D001F010
:10B7F000BBF909F1FF33DBB24FFA83F9002BEFD12C
:10B80000FF2384F8453001F0A3FC01F097FC94F885
:10B8100044304FFA83FABAF1000F1ADD2369C3B13D
:10B8200004F1100907E00AF1FF33DBB24FFA83FAA3
:10B830007BB123696BB1484601F004F90028F2D0CE
:10B8400001F092F90AF1FF33DBB24FFA83FA002BD1
:10B85000EFD1FF2384F8443001F07AFC00F0C4FEFD
:10B8600000287ED14FF080537B6040BFBFF34F8FE5
:10B87000BFF36F8F01F062FCD4F83890B9F1000F7C
:10B8800076D0226C52B1E168636811449942E1605C
:10B8900024BF2168E160404604F01EFB09F1FF333C
:10B8A000A3632369002B40F0C98001F051FC012003
:10B8B00004B0BDE8F08701F041FC94F845304FFA40
:10B8C00083F9B9F1000F06DC15E009F1FF33DBB2B3
:10B8D0004FFA83F97BB1636A6BB1284601F0B2F885
:10B8E0000028F2D001F040F909F1FF33DBB24FFA42
:10B8F00083F9002BEFD1FF2384F8453001F028FCB9
:10B9000001F01CFC94F844304FFA83FABAF1000FAE
:10B910001ADD2369C3B104F1100907E00AF1FF330E
:10B92000DBB24FFA83FA7BB123696BB1484601F071
:10B9300089F80028F2D001F017F90AF1FF33DBB2E1
:10B940004FFA83FA002BEFD1FF2384F8443001F043
:10B95000FFFB00F049FE01F0F1FBA36B63B101F0C6
:10B96000F7FB01F0EBFBD4F83890B9F1000F88D168
:10B97000019B002B7FF4FDAE01F0EAFB002004B038
:10B98000BDE8F08701F0E4FB01F0D8FB94F8453006
:10B990004FFA83F9B9F1000F06DC15E009F1FF3326
:10B9A000DBB24FFA83F97BB1636A6BB1284601F0D1
:10B9B00049F80028F2D001F0D7F809F1FF33DBB2E3
:10B9C0004FFA83F9002BEFD1FF2384F8453001F0C3
:10B9D000BFFB01F0B3FB94F844304FFA83FABAF19D
:10B9E000000F1ADD2369C3B104F1100907E00AF161
:10B9F000FF33DBB24FFA83FA7BB123696BB1484660
:10BA000001F020F80028F2D001F0AEF80AF1FF337F
:10BA1000DBB24FFA83FA002BEFD1FF2384F84430D6
:10BA200001F096FB00F0E0FD01F088FBD4F83890BF
:10BA3000B9F1000F9CD024E700ED00E004F1100004
:10BA400001F000F800283FF430AF054B4FF0805272
:10BA50005A6040BFBFF34F8FBFF36F8F25E700BF22
:10BA600000ED00E02DE9F043044685B00026019189
:10BA700001F064FBA36BB24FB0463546002B40F09B
:10BA8000F380019B002B00F05D81B8F1000F00F006
:10BA9000FC8001F05DFB00F001FD01F04FFB94F82C
:10BAA0004430FF2B08BF84F8445094F84530FF2BF6
:10BAB00008BF84F8455001F04BFB01A902A801F032
:10BAC0001BF800286CD101F039FBA36B002B40F070
:10BAD000E08001F03DFB2368002B00F03C8104F185
