:020000022000DC
:1060000000000120EDB102002DB202002FB202000B
:1060100031B2020033B2020035B2020000000000CB
:1060200000000000000000000000000069B1020054
:1060300039B202000000000089B102003DB2020046
:106040003FB202003FB20200918D02005573020080
:106050003FB202003FB202003FB202003FB2020074
:106060003FB202003FB202003FB202003FB2020064
:106070003FB202003FB202003FB202003FB2020054
:106080003FB20200F5AE0200B97D02003FB202004D
:106090003FB202003FB202003FB202003FB2020034
:1060A0003FB202003FB202003FB202003FB2020024
:1060B0003FB202003FB202000000000000000000FA
:1060C0003FB202003FB202003FB202003FB2020004
:1060D0003FB202003FB202003FB2020000000000E7
:1060E00000000000000000000000000000000000B0
:1060F00000000000000000000000000000000000A0
:10610000000000000000000000000000000000008F
:10611000000000000000000000000000000000007F
:10612000000000000000000000000000000000006F
:10613000000000000000000000000000000000005F
:10614000000000000000000000000000000000004F
:10615000000000000000000000000000000000003F
:10616000000000000000000000000000000000002F
:10617000000000000000000000000000000000001F
:10618000000000000000000000000000000000000F
:1061900000000000000000000000000000000000FF
:1061A00000000000000000000000000000000000EF
:1061B00000000000000000000000000000000000DF
:1061C00000000000000000000000000000000000CF
:1061D00000000000000000000000000000000000BF
:1061E00000000000000000000000000000000000AF
:1061F000000000000000000000000000000000009F
:10620000F1EE103A43F08073E1EE103A704700BFB0
:1062100010B5054C237833B9044B13B10448AFF3E0
:1062200000800123237010BD1838002000000000FA
:10623000880A030008B5034B1BB103490348AFF3B9
:10624000008008BD000000001C380020880A030000
:10625000154B002B08BF134B9D46A3F5803A002138
:106260008B460F461348144A121A07F082FC0F4B54
:10627000002B00D098470E4B002B00D098470020F1
:10628000002104000D000D48002802D00C48AFF397
:10629000008007F02FFC2000290004F0F5FF07F034
:1062A00015FC00BF000008000000012000000000F5
:1062B00000000000183800205845002000000000B1
:1062C0000000000000207047F8B572B106460C4689
:1062D0008F180025336814F8011B1B683046984757
:1062E000A7420544F6D12846F8BD15462846F8BD14
:1062F00090ED000B704700BF08B5006807F036F856
:1063000041EC100B08BD00BF2DE9F04F2DED028BC5
:106310008FB002F099FD8246C34801F039FD002894
:1063200006D0C24A1368CCBF013303F1FF331360B8
:10633000BF4C236853450DD0BE48BF4D01F0A2FCB1
:106340000721BC4801F010F907F000F8C5E9000189
:10635000C4F800A01C2005F0CFFB5023009340F2AE
:10636000FF321923002102F061FD06F0FFFFB34F59
:10637000B34DC7E9000105F120062C46032005F0C6
:10638000BBFB44F8040FA642F8D1AE4E9FEDAE6AB7
:10639000D6ED007A96ED027ADFF8E492F8EEE76A3D
:1063A000D6ED017AF8EEE77AB8EEC77A76EEA76A0C
:1063B000D6ED037A37EE267AF8EEE77AD6ED046A60
:1063C00077EE877AF8EEE66A96ED057A76EEA77AAA
:1063D000F8EEC76A96ED067A76EEA76AB8EEC77A47
:1063E000D6ED077A37EE267AF8EEE77AB7EE008A2E
:1063F00077EE877A86EE270A30EE480A88EE000AA2
:1064000006F09EFDDFED917A60EE277A17EE900A96
:1064100006F0BEFF80A3D3E9002306F05BFE07F081
:10642000F1FA07EE900AC8EE277A17EE900A06F006
:10643000AFFF7BA3D3E9002306F04AFE07F0E2FAA0
:1064400006F0A6FF824B1B78C9E90001002B40F043
:106450001D81DFF830B29BED007B8DED027B51ECAE
:10646000170B07F087FA0023642219460092FF22D7
:1064700002F0DCFC06F07AFF97ED007B754BDFF84D
:106480000882C3E9000188ED007B032005F034FB9E
:1064900045F8040FA542F8D1D6ED017AD6ED056A8C
:1064A00096ED067ADFED684A6B4C6C4DB8EEE76A04
:1064B000D6ED007AF8EEE75AD6ED027A36EE256A86
:1064C000B8EEE75AD6ED037A35EE065AF8EEE75AFB
:1064D00096ED046AD6ED077A614E75EE855AB8EEF0
:1064E000C66AF8EEE66A36EE256AB8EEC77A76EE48
:1064F000866AF8EEE77A37EE267AB7EE008A77EE0C
:10650000877A84EEA70A30EE480A88EE000A06F081
:1065100017FDDFED4E7A60EE277A17EE900A06F04F
:1065200037FF3DA3D3E9002306F0D4FD07F06AFA54
:1065300007EE900AC8EE277A17EE900A06F028FFB9
:1065400037A3D3E9002306F0C3FD07F05BFA07EE9B
:10655000900AFDEEE77AD9E90023C4ED007AD7E985
:10656000000106F0B5FD3368AAEB0303312BC5E942
:10657000000141D93B4D3C490023A5F84C30284649
:1065800002F036F898ED000B0221284602F0DEF802
:106590003649284602F02CF84FF48853A5F84C30C1
:1065A0003349284602F024F80A222168284602F0DE
:1065B00031F82E49284602F01BF84FF408532D49B4
:1065C000A5F84C30284602F013F81B4B022193ED3E
:1065D000000B284602F0BAF84FF44C532649A5F8B0
:1065E0004C30284602F004F8104B284619680A225D
:1065F00002F010F8C6F800A0204800F027FCDBE904
:10660000000107F0DFF9014610200FB0BDEC028B4E
:10661000BDE8F04F05F0E8B983DBB5DCE1796B3F0D
:106620006666666666127140343A0020883800203B
:10663000DC3800206038002038380020583800202E
:10664000E0380020E438002000C0FF452CBB84392E
:106650008C3800205839002068390020703900201B
:10666000E0380020043900200CFD020018FD020073
:106670001CFD020028FD020030FD0200C838002089
:10668000483800205038002060390020DFF8488169
:1066900002F0DAFB494AD8F8003012680990C31AB0
:1066A0009342FFF6D6AE99ED007BD7E9000153EC9B
:1066B000172B8DED067B06F00BFD414BDFF81CB16F
:1066C000D3E90023CDE90A0106F0BAFEDBE9002395
:1066D00006F000FD3B4B93ED007B8DED047BCBE999
:1066E0000001DDE90423CDE9020107F039F90028B2
:1066F00050D09DED047B8BED007B8DED027B324B0A
:10670000DFF8DCB0D3E90023DDE90A0106F098FEEA
:106710002E4BCDE90A01D3E90023DDE9060106F09D
:10672000D7FC2B4BD3E9002306F08AFE02460B462A
:10673000DDE90A0106F0CCFCDDE9022306F0CAFC23
:1067400002460B4643EC172BDDE904018BED007B81
:10675000CDE9022307F0E6F858B91E4B93ED007B14
:10676000DDE9020153EC172B8DED047B07F0DAF81D
:1067700028B19DED047B8BED007B8DED027B9DEDC3
:10678000067B124B83ED007B099BC8F80030DDE9E6
:10679000020166E60F4B93ED007BDDE9020153EC4D
:1067A000172B8DED0C7B07F0BDF80028A7D09DEDD1
:1067B0000C7B8BED007B8DED027BA0E70436002087
:1067C00098380020B8380020A0380020A8380020D1
:1067D00090380020C0380020B03800204038002019
:1067E0005038002070B5174C174E184D82B0204617
:1067F00000F05AFE32462046154906F09BFB154A2A
:10680000154B164900911446002144F8083B51608D
:106810002046A2F84C10124B124A134901F0B8FE60
:10682000FF231A461946204601F0A6FB284600F031
:10683000B1F90E493246284602B0BDE8704006F074
:1068400079BB00BF6038002000360020C838002027
:10685000B97402000439002000FD0200617E0200CC
:10686000897F0200818202004D830200AD6B02002D
:106870002DE9F04F4FF4E13187B09F48DFF8FCA2DB
:1068800002F08CF89D4800F0D3FB95A7D7E900678C
:10689000DAE900459A4A9B4B4FF000084FF0000997
:1068A000C2E90089C3E900672046294632463B46D3
:1068B00007F056F8002800F0E480CAE90067344683
:1068C0003D46DFF8BCA20FF21829D9E90089DAE9C0
:1068D000006742464B463046394607F041F850B90A
:1068E0004FF000084FF000093046394642464B460B
:1068F00007F018F808B1CAE90089834BDFF88492E1
:106900001868DFF884B206F031FD804B4FF00008C4
:10691000C3E9008974A3D3E9002306460F4606F0B5
:106920008FFDDFF86882DFF868923B46CBE9000113
:1069300032466FA1D1E9000106F0ACFE98F80030B4
:10694000C9E90001002B00F0AA80714A714D6B4823
:10695000012300243921C2E9004588F8003000F005
:1069600037FC0023654A6C48392100F0A7FDFE2161
:10697000694801F08BF90021674801F09BF9082173
:10698000654801F0ADF9644800F0FEFE634801F08F
:10699000B9FD624801F0E8FD0021604801F0BCFD4E
:1069A0005F495E4801F078FB5E4800F0DDFA502058
:1069B00004F0A8FC0546044600F1500620461034B9
:1069C00000F0C6FAA642F9D102AC574B009320461C
:1069D000564B574A5749584E584F00F0BDFA94E865
:1069E0000F00009685E80F002046504B544A554949
:1069F00000F0B2FA94E80F0005F11006009786E85F
:106A00000F002046504B514A5149524F00F0A4FA12
:106A100094E80F0005F12006009786E80F00204655
:106A2000424B4D4A4D494E4F00F096FA94E80F0004
:106A300005F13006009786E80F0020463B4B494A97
:106A4000494900F089FA94E80F004FF4487705F1BE
:106A50004004002684E80F002A460197009605238B
:106A60004249304800F0C6F84FF0FF330B220F21A7
:106A70003F4801F049F93E4801F076F907B0BDE81A
:106A8000F08F42464B462046294606F04BFF002831
:106A90003FF417AFCAE9008944464D4611E7354A2D
:106AA000354BD2E900010EA7D7E90067C3E9000121
:106AB00032463B462046294606F052FF58B900268A
:106AC00000272046294632463B4606F02BFF10B9E8
:106AD000CAE9004539E7CAE9006736E7AFF3008045
:106AE0000000000000E06F402D431CEBE2364A3FFF
:106AF000000000000070B740443A002078390020C0
:106B0000C0380020B838002004360020A03800200B
:106B10005838002000003E40603800200C3900202A
:106B2000A8FE0200C83800204CFD0200F1620200FD
:106B3000583900203CFD020060FD020070FD02009B
:106B40006039002054FD0200F9620200683900201B
:106B500068FD020080FD02007039002078FD02000F
:106B600094FD02003838002088FD02009CFD0200E0
:106B7000343A002048380020A8380020503800203F
:106B80004038002000002240983800208C38002037
:106B90009038002010B50023C0E903330360836000
:106BA000044602F051F96060204610BD70B5C4681B
:106BB0002568064655B91BE0184604F0C3FB20467D
:106BC00004F0B0FB2B6853B12C461D466369204688
:106BD000002BF1D104F0A6FB2B68002BF4D16869DF
:106BE00008B104F0AFFB284604F09CFB304670BDB2
:106BF0002546F4E72DE9F042044618200D461746D5
:106C00001E469DF8189004F06DFB0799E2688660B7
:106C1000002380F80490C0E903154761036052B176
:106C200023691860206123680133236002F00CF9A6
:106C30006060BDE8F082C4E90300F4E72DE9F041AB
:106C40000C4605467049714801F0D2FC64BB6F48A0
:106C50006F49704F064601F0CBFC6F49304601F09A
:106C6000C7FC6E49304601F0C3FCAB6800249C426F
:106C700014DA6B6903EB0413D3E90202904708218D
:106C8000304601F063FDAB6801349C42EFDA3946CF
:106C9000304601F0ADFCAB689C42EADB60495B48E2
:106CA000BDE8F04101F0A4BC58485949DFF86481BF
:106CB00006460F4601F09CFC5A49304601F098FC0C
:106CC0005949304601F094FC3946304601F090FCB9
:106CD0002969304601F08CFC3946304601F088FCC9
:106CE0005249304601F084FC5149304601F080FCA5
:106CF0004D49304601F07CFC0A222979304601F0EA
:106D000089FC4A49304601F073FC4A49304601F09B
:106D10006FFC4549304601F06BFC0A22E9683046B9
:106D200001F078FC4149304601F062FC42493046AE
:106D300001F05EFC3C49304601F05AFC0A22A96889
:106D4000304601F067FC3949304601F051FC3B49BF
:106D5000304601F04DFC3149304601F049FCAB684A
:106D600000249C423946304618DA01F041FC2301E8
:106D70006A693046D15801F03BFC3946304601F093
:106D800037FCAB6801349C42EBDA4146304601F0F7
:106D90002FFCAB689C4239463046E6DB1B4828494D
:106DA0001B4FDFF87080064601F022FC2549304673
:106DB00001F01EFC1949304601F01AFCAB680024B2
:106DC0009C423946304619DA01F012FC6B6903EB3C
:106DD00004133046596801F00BFC3946304601F087
:106DE00007FCAB6801349C42EADA4146304601F0C8
:106DF000FFFBAB689C4239463046E5DB124903484D
:106E000001F0F6FB23E700BFB4FD0200443A002086
:106E1000B8FD0200DCFD0200ECFD0200D8FD02001E
:106E2000F0FD0200BCFD0200C0FD0200C4FD020036
:106E3000C8FD0200CCFD0200D0FD0200D4FD02001E
:106E4000E0FD0200E4FD0200E8FD02002DE9F04152
:106E5000064633493348B46801F0CAFB3249314829
:106E600001F0C6FB31492F4801F0C2FB01F0ECFFF5
:106E7000B4FA84F501460A222A486D0901F038FC6B
:106E80005CB32B49274801F0B3FB2A49254801F0A0
:106E9000AFFB2949234801F0ABFBF4686CB1DFF884
:106EA000AC80204F20462946FFF7C8FE24684146A3
:106EB000384614B101F09CFBF4E72049194801F071
:106EC00097FB1F49174801F057FCB3680133312B7A
:106ED000C8BF0023B360BDE8F0811549114801F037
:106EE00087FB18490F4801F083FB10490D4801F05A
:106EF0007FFB0A2231680B4801F08CFB0C490948E2
:106F000001F076FB1049074801F072FB074905487C
:106F100001F06EFB0A227168024801F0E9FBB0E75C
:106F2000A0FD0200443A0020BCFD0200C0FD0200AA
:106F3000C4FD0200ACFD0200D8FD0200F0FD02001D
:106F4000B0FD0200A4FD0200A8FD0200DCFD02006D
:106F50000022C0E90222704730B4029D4560016002
:106F6000C0E9022330BC704710B54FF4E13104464C
:106F7000034801F013FD01F067FF606010BD00BF22
:106F8000443A0020704700BF203001F037BC00BFFA
:106F9000203001F025BC00BF203001F035BC00BF1F
:106FA00038B5437F0BB9002038BD00F16804204696
:106FB0000D4601F031FC0028F5D12046294601F0AC
:106FC000FDFB012038BD00BF2DE9F0475AB306464E
:106FD000DFF8588033681B684D1E434517464FF055
:106FE000000400F1680915F801AF16D1737F13B9D9
:106FF0002046BDE8F087484601F00EFC0028F7D196
:107000005146484601F0DAFB0134A742F0D033681C
:1070100015F801AF1B684345E8D051463046984704
:107020000028F1D1E4E71446E2E700BFA16F0200B7
:1070300030B4827E4FF0A04302F5E07240F20C645F
:107040000121C17643F82240427E02F5E0724FF002
:10705000CC7543F822400369C3F82455036906221E
:10706000C3F800250369827EC3F808250369427EC0
:10707000C3F80C2590F91830002B13DA124A03F0EC
:107080000F031A446023137690F91830002B07DBA6
:107090000E4903F01F0001225B09824041F82320C2
:1070A00030BC70475C09603403F01F03074A01FAE3
:1070B00003F342F8243090F91830002BDEDB134440
:1070C000602283F80023DFE7FCEC00E000E100E051
:1070D000C37EE3B10E4B026910B499424FF0000435
:1070E000C2F8004510D90B4B994294BF4FF0806114
:1070F0004FF0C86103695DF8044BC3F824150369B8
:107100000622C3F8002570474FF0CC71F2E77047B4
:10711000A086010090D003000AB9104670472DE9FF
:10712000F041054600F12008404614461E460F4631
:1071300001F052FB2B69C3F888752A690123136299
:107140002A69C2F834852A69C2F838452A69136069
:107150002A6902E0D2F824311BB9D2F84C11002977
:10716000F8D00023C2F84C312A6902E0D2F8241189
:1071700019B9D2F85C110029F8D00023C2F85C31AB
:107180002B696EB9D3F8242152B90122DA612A6938
:10719000D2F84831002BFBD00023C2F8483109E077
:1071A00001225A612A69D2F80431002BFBD0002356
:1071B000C2F804312B69D3F824211AB10022C3F894
:1071C00024212B69D3F83C052866C0B2BDE8F081C4
:1071D00010B50446683084F8B01001F0FDFA0123C0
:1071E000637710BDF8B504460020236994F8B020F9
:1071F0006077C3F88825236901271F62236904F19A
:107200006806C3F8446530460D4601F0F7FA236975
:10721000C3F8480523699F60236902E0D3F824215D
:107220001AB9D3F85021002AF8D00022C3F850210F
:10723000304601F0E3FA236940BB0022C3F8602125
:10724000236915B9D3F824212AB301225A6122698E
:10725000D2F80431002BFBD00023C2F8043123699B
:10726000D3F8240168B10022C3F824212369D3F89C
:10727000C404C3F8C404022803D0042814BF0420A3
:107280000320F8BDD3F82421002AD6D1D3F86021F9
:10729000002AF7D0D1E70122DA612269D2F8483119
:1072A000002BFBD00023C2F84831D8E770B5036942
:1072B00090F8B02000214177C3F8882503690126A2
:1072C0001E62036900F168050446C3F84455284668
:1072D00001F094FA2369C3F8480523699E60236985
:1072E00002E0D3F824211AB9D3F85021002AF8D0AB
:1072F0000022C3F85021284601F080FA236918BB08
:107300000022C3F86021236901225A612269D2F860
:107310000431002BFBD00021C2F804112369D3F8FB
:10732000240160B1C3F824112369D3F8C404C3F85D
:10733000C404022803D0042814BF0420032070BD15
:10734000D3F82421002ADBD1D3F86021002AF7D01A
:10735000D6E700BF70B5294C6369D3F86421002AD1
:107360003AD1D3F86821E2B9D3F8042162B1227F7F
:107370000021C3F804113AB1D4F8B820D3F83C0581
:1073800020660AB190476369D3F8242142B10022F4
:10739000C3F82421D3F8D024C3F8D02401225A61A1
:1073A00070BD0022C3F86821154822770123637756
:1073B00001F012FAD4F8B43003B198476369104869
:1073C000C3F844050023637701F018FA63690122CA
:1073D000C3F848055A63C7E7002204F12006C3F842
:1073E000642101253046257701F0F6F963694022D2
:1073F000C3F83465C3F838251D63B2E77839002037
:10740000E039002038B50E4C0E4A20464FF47A730E
:1074100040F8202B0025C4E9015301F0C5F904F11F
:10742000680001F0C1F9084A084B6577D2E91912E2
:10743000032020766176A276C4E9043338BD00BF0C
:1074400078390020FCFD0200AC050300003000404C
:10745000F0B591B001240025816801942346922261
:107460000646009504A804F011FF04A804F084FF68
:1074700010EA040702D0284611B0F0BDB1682346D7
:10748000CDE900740AA8802204F000FF0AA93B4657
:10749000224602A805F014F8214602A805F086F855
:1074A000204611B0F0BD00BF024A02600022027106
:1074B0008260704720FE0200704700BF2DE9F04156
:1074C0000446806890B00E461746984608B103F00F
:1074D00029FF102003F006FF3A460546314605F025
:1074E0004FF9A5602846012105F054F9054618B961
:1074F000284610B0BDE8F08123681A4A1B68934201
:107500002AD101260027A16801963346922204A8B9
:10751000009704F0BBFE04A804F02EFF10EA060852
:1075200004D03D46284610B0BDE8F081A16833463E
:10753000CDE900860AA8802204F0A8FE0AA94346E5
:10754000324602A804F0BCFF314602A805F02EF82E
:10755000284610B0BDE8F0814146204698470546D0
:10756000C6E700BF5174020000EB410188897047F3
:1075700070B588B0002401250646816801952B4628
:10758000224602A8009404F081FE224602A830217F
:1075900004F08CFEB1682B462A46CDE9004502A8CE
:1075A00004F074FE2246294602A804F07FFEB1686A
:1075B0002B46CDE9004502A8022204F067FE2246D0
:1075C000214602A804F072FEB1682B46CDE90045C1
:1075D00002A8032204F05AFE2246214602A804F023
:1075E00065FEB1682B46CDE9004502A8042204F0EF
:1075F0004DFE2246214602A804F058FEB1682B46F3
:10760000CDE9004502A8052204F040FE224602A86A
:10761000422104F04BFEB1682B46CDE9004502A89B
:10762000062204F033FE2246214602A804F03EFE64
:10763000B1682B46CDE9004502A8072204F026FEDA
:107640002246214602A804F031FEB1682B46CDE95E
:10765000004502A8082204F019FE224602A8502183
:1076600004F024FEB1682B46CDE9004502A80922AA
:1076700004F00CFE2246214602A804F017FEB16871
:107680002B46CDE9004502A80A2204F0FFFD224660
:10769000214602A804F00AFEB1682B46CDE9004558
:1076A00002A80B2204F0F2FD2246214602A804F0B3
:1076B000FDFDB1682B46CDE9004502A80C2204F07F
:1076C000E5FD224602A8202104F0F0FDB1682B461A
:1076D000CDE9004502A80D2204F0D8FD224602A8FB
:1076E000042104F0E3FDB1682B46CDE9004502A872
:1076F0000E2204F0CBFD2246214602A804F0D6FD5E
:10770000B1682B46CDE9004502A80F2204F0BEFD6A
:10771000224602A8302104F0C9FDB1682B46CDE90C
:10772000004502A8102204F0B1FD2246294602A815
:1077300004F0BCFDB1682B46CDE9004502A811223A
:1077400004F0A4FD224602A8502104F0AFFDB16868
:107750002B46CDE9004502A8122204F097FD2246EF
:10776000214602A804F0A2FDB1682B46CDE90045F0
:1077700002A8132204F08AFD224602A8062104F082
:1077800095FD08B070BD00BF70B58AB00124002619
:10779000816880F824600546234601948022009683
:1077A00004A804F073FD2346224604A902A804F0AD
:1077B00087FE314602A804F0F9FEA9682346CDE908
:1077C0000064AF2204A804F061FD0323022204A98F
:1077D00002A804F075FE022102A804F0E7FE284684
:1077E000FFF7C6FEA9682346CDE90064802204A8FD
:1077F00004F04CFD224604A9042302A804F060FE14
:10780000214602A804F0D2FE40F2E93405E0013C32
:107810004FF0010006D001F023FB02A804F058FE4F
:107820000028F4D101240022A96800922346019483
:10783000802204A804F02AFD2346224604A902A8B7
:1078400004F03EFE214602A804F0B0FE204685F872
:1078500024400AB070BD00BF70B588B00024012577
:107860000646816801952B46224602A8009404F042
:107870000DFD2246214602A804F018FDB1682B46F2
:107880002A46CDE9004502A804F000FD2246214623
:1078900002A804F00BFDB1682B46CDE9004502A813
:1078A000022204F0F3FC2246214602A804F0FEFC6A
:1078B000B1682B46CDE9004502A8032204F0E6FC9E
:1078C000224602A8402104F0F1FCB1682B46CDE924
:1078D000004502A8042204F0D9FC224602A8022195
:1078E00004F0E4FCB1682B46CDE9004502A805226E
:1078F00004F0CCFC2246214602A804F0D7FCB16873
:107900002B46CDE9004502A8062204F0BFFC224622
:1079100002A8102104F0CAFCB1682B46CDE900454D
:1079200002A8072204F0B2FC224602A8032104F0B8
:10793000BDFCB1682B46CDE9004502A8082204F041
:10794000A5FC224602A8502104F0B0FCB1682B46E9
:10795000CDE9004502A8092204F098FC224602A8BD
:10796000102104F0A3FCB1682B46CDE9004502A824
:107970000A2204F08BFC224602A8032104F096FCA4
:10798000B1682B46CDE9004502A80B2204F07EFC2D
:107990002246214602A804F089FCB1682B46CDE9B5
:1079A000004502A80C2204F071FC2246214602A8E0
:1079B00004F07CFCB1682B46CDE9004502A80D22FD
:1079C00004F064FC2246214602A804F06FFCB16872
:1079D0002B46CDE9004502A80E2204F057FC2246B2
:1079E00002A8242104F062FCB1682B46CDE90045D1
:1079F00002A80F2204F04AFC2246214602A804F005
:107A000055FCB1682B46CDE9004502A8102204F0D0
:107A10003DFC2246214602A804F048FCB1682B46F2
:107A2000CDE9004502A8112204F030FC224602A84C
:107A3000502104F03BFCB1682B46CDE9004502A87B
:107A4000122204F023FC2246214602A804F02EFC58
:107A5000B1682B46CDE9004502A8132204F016FCBC
:107A6000224602A8062104F021FC08B070BD00BF28
:107A70002DE9F041836890B0012400270546019468
:107A800080220E460AA819460097234604F0FEFB02
:107A9000234622460AA904A804F012FD394604A888
:107AA00004F084FDA9682346CDE90074AF220AA83A
:107AB00004F0ECFB032302220AA904A804F000FD51
:107AC000022104A804F072FD2846FFF751FDA968C1
:107AD0002346CDE9007480220AA804F0D7FB224691
:107AE0000AA9042304A804F0EBFC214604A804F02E
:107AF0005DFD40F2E93405E0013C4FF0010006D0A5
:107B000001F0AEF904A804F0E3FC0028F4D101244C
:107B10000027A96801942346802200970AA804F050
:107B2000B5FB234622460AA904A804F0C9FC214655
:107B300004A804F03BFDB84602E0012001F090F9F2
:107B4000A9680123A322CDE900840AA804F09EFBC2
:107B5000062301220AA904A804F0B2FC04A804F038
:107B6000B7FC0028E9D0A9680223CDE9008495225A
:107B700004A804F08BFB0C22314604A804F064FC3A
:107B8000A9680123CDE90084802207460AA804F0F1
:107B90007DFB01231A460AA902A804F091FC0021EA
:107BA00002A804F003FDA9680123CDE90084AF22F7
:107BB0000AA804F06BFB032302220AA902A804F01E
:107BC0007FFC022102A804F0F1FC2846FFF744FEE6
:107BD000A9680123CDE9008480220AA804F056FB9D
:107BE000042301220AA902A804F06AFC02A80121C8
:107BF00004F0DCFC40F2E93405E0013C4FF0010008
:107C000006D001F02DF902A804F062FC0028F4D19E
:107C100001244FF00008A96801942346CDF80080A4
:107C200080220AA804F032FB0AA92346224602A8B1
:107C300004F046FC214602A804F0B8FC02E0012052
:107C400001F00EF9A9680123A322CDE900840AA856
:107C500004F01CFB062301220AA902A804F030FC50
:107C600002A804F035FC0028E9D037B106F10C0178
:107C700004A80C2204F0E8FB0746384610B0BDE823
:107C8000F08100BF00F10C01FFF7F2BE30B5826851
:107C900089B0012300240D46CDE90043114602A816
:107CA000812204F0F3FA2246294602A804F0FEFAE3
:107CB00009B030BD30B5826889B0002401230D467B
:107CC000CDE900431146022302A8CA2204F0DEFADD
:107CD0002246294602A804F0E9FA09B030BD00BFE7
:107CE00030B5826889B0012300240D46CDE90043F8
:107CF000114602A8AA2204F0C9FA2246294602A87F
:107D000004F0D4FA09B030BD2DE9F843144C154DF8
:107D10004FF00009174608468846C4F80895022126
:107D20001E4603F0B5FF3846022103F0B1FF55F8B7
:107D30002830C4F8203555F82730C4F824354E458E
:107D400007DB4946304603F0A3FF55F82630C4F858
:107D50001C35034B0022C3F82825BDE8F88300BF7B
:107D600000200140AC050300074BD3F804332BB1CE
:107D7000064B4FF48022C3F880211A60024B012287
:107D8000C3F800251A6070470020014000E100E0C0
:107D9000084B0122DA60D3F81815D0E90023521AF3
:107DA000D31A03EBD3735B10026018BF426018460E
:107DB000704700BF00200140144BD3F80423D207C2
:107DC00002D5D3F8002102B9704770B5104CA268F3
:107DD000002184B0C3F80011AAB10126DE60D3F8F7
:107DE0001805D4E900532D1AEB1A03EBD37353FA99
:107DF00006F0256007D004AB009643F8040D084652
:107E0000656003F035FD04B070BD00BF0020014087
:107E1000343A0020024B0022C3E900229A607047E6
:107E2000343A002038B50A29456A90F84D200ED022
:107E300004460B46083090F84410AD7800F02EF957
:107E400094F84C301D4484F84C50012038BDE9783A
:107E500000230A4480F84D2080F84C30012038BDC2
:107E600030B5A1F1280383B00546252B14D8DFE8EF
:107E700003F05C2A27274350131313131313131310
:107E800013131313131313131313131313131313C2
:107E900013131313131330303F295FD901F03F013F
:107EA0006B1893F82C00FF280AD00F2958D91029F5
:107EB0005BD003F041FF003018BF012085F8270098
:107EC000012003B030BD104600F0CAFF012003B00E
:107ED00030BD01F03F010D44019295F82C00002ABD
:107EE00037D1012103F0D4FE019A95F82C001146F8
:107EF00003F010FF0120E4E7002A14BF0120002056
:107F0000DED01C4B800143F001039847012003B0F1
:107F100030BD184B022A8CBF80204FF4A07043F074
:107F200001039847012003B030BD2B35002415F81C
:107F3000013FFF2B4FF00101184605D00F2C84BFE5
:107F40001846022103F0A4FE0134E4B2162CEED14F
:107F5000B6E7022103F09CFE0120B2E70020B0E763
:107F6000114603F0D7FE0120ABE7019003F09AFB26
:107F700001989EE730FE020080F8371080F8382024
:107F800080F83930704700BF143920B505460C29F8
:107F90002CD8DFE801F0122B2B071F0D2B2B2B2BDE
:107FA0002B2B0B0019461248FFF70EF8012020BDBD
:107FB0000F48FFF77BF9012020BDAB692BB92A6878
:107FC0000C4B527B03FB02F3AB610948FFF730F81F
:107FD000012020BDA9690648FFF77AF895F824101A
:107FE00003484908FFF7F4F8012020BD002020BD18
:107FF00078390020A0860100F0B405689DF8107063
:108000002E78964202D86C7894420CD20022C3E9B2
:1080100000220A782AB1D3E90012C943D243C3E946
:108020000012F0BC704795F802C0EC7814FB0CF419
:10803000961BE2B202FB06F217FA82F292B2D2006B
:1080400092B2161DB6B2541DAD5D1D700668A5B284
:10805000941D755D5D700668A4B2D51D345D9C707D
:108060000668ADB202F10804755DDD700668A4B261
:1080700002F10905345D1C710668ADB202F10A0413
:10808000755D5D710568A4B20B322C5D9C71006852
:1080900092B2825CDA71BCE7C16170472DE9F04FA2
:1080A00082468BB00C4607915AF81C1F814688788F
:1080B000C97817463944224600EB040801329B4632
:1080C000CBB25FFA88F8D2B205930346904538BF29
:1080D0000123069309F1230303930023049308AEBD
:1080E000049D079C009533465A4603995046FFF776
:1080F00083FF21460134009601233A464846E4B204
:1081000000F0E2F90135A045EDB2EBD8049B069AE8
:108110001344DBB201370493059BFFB2BB42DFD8A7
:108120000BB0BDE8F08F00BF10B404691346A4463D
:108130000A465DF8044B1721604700BF00B583B0C5
:1081400002AA02F8011D0121FFF7EEFF03B05DF85E
:1081500004FB00BF10B404690023A4461A4618218A
:108160005DF8044B604700BF10B404690023A446C7
:108170001A4619215DF8044B604700BF70B50446EC
:1081800016460D46FFF7E6FF20464021FFF7D6FFD3
:1081900033462A46204625691721A8472046BDE8D0
:1081A0007040FFF7E1BF00BF10B4C4680A46A446A0
:1081B000002315215DF8044B604700BF10B4C4686C
:1081C0000A46A446002316215DF8044B604700BF11
:1081D00010B4C4681346A4460A465DF8044B172140
:1081E000604700BF10B4C4680023A4461A46182193
:1081F0005DF8044B604700BF10B4C4680023A44678
:108200001A4619215DF8044B604700BF70B5064659
:1082100082B00D462C78172C13D01DD90023192CB1
:108220001A462146304626D9FE2C4FF0290120D18E
:108230006A788DF80720023500F0A2F92C78172C07
:10824000EBD16B788DF807300DF107020121304634
:108250000235FFF7BDFFDDE7152C4FF00003214687
:10826000304606D36A788DF80720F4680235A047B7
:10827000D0E702B070BDF4680135A047CAE700BF7F
:1082800014392DE9F041064614461D46052958D8F3
:10829000DFE801F00C1A2E344B032B4F3B78002BF8
:1082A00049D100233B700120BDE8F08190F82430D3
:1082B0000469FF2B04BF782380F82430A4462B46A2
:1082C0001421BDE8F04160471F4F3B780BB1FFF729
:1082D0004BFF3046FFF73EFF00213046FFF72EFFF1
:1082E00021463046FFF72AFF01203870BDE8F081B3
:1082F0001146FFF723FF0120BDE8F081124F3B78C4
:108300003BB11BE018213046FFF738FF183CE4B2C0
:108310001835182C2A46F5D830462146FFF72EFF8F
:1083200000233B700120BDE8F081074B00221A704A
:108330000120BDE8F081FFF717FFB2E7FFF714FF58
:10834000E7E70020B0E700BF403A0020F8B5A1F110
:108350000B07064614461D46042F04D8DFE807F035
:1083600057034D3E0F00092959D00A2955D100F075
:108370007BF830463349FFF749FF0120F8BDFFF78E
:1083800031FF6B7996F8227007EBC30707F0FF0700
:1083900040213046FFF708FF390941F0100130460F
:1083A000FFF702FF07F00F013046FFF707FFA9793B
:1083B000304641F0B001FFF701FF29792A68C90072
:1083C00001F0F8013046013CFFF702FF14F0FF0412
:1083D000F3D13046FFF710FF0120F8BDFFF702FF91
:1083E00081213046FFF7E0FE21463046FFF7E6FEEA
:1083F0003046FFF701FF0120F8BDD2B91249FFF75F
:1084000005FF33689B7C86F822300120F8BD5AB9FD
:108410000E49FFF7FBFE0120F8BD0020F8BD0C4916
:1084200000F01CF80120F8BD0A49FFF7EFFE01201B
:10843000F8BD0949FFF7EAFE3368DB7C86F8223095
:1084400001209BE748FE020038FE020080FE020089
:1084500090FE020088FE020040FE020001608B7C5C
:1084600080F82230704700BF38B5002304461A4612
:1084700045692821A84700231A46E56820461421AB
:10848000A847204601224B2100F07AF823682046B5
:108490001A79292100F074F8204600224B2100F0BF
:1084A0006FF8236820461A79292100F069F82046E0
:1084B00001224B2100F064F8236820465A792921D3
:1084C000BDE8384000F05CB830B583B002AC069D22
:1084D00044F8085D8DF805108DF806208DF80430FD
:1084E0008568234601220F21A84703B030BD00BF95
:1084F00010B484680023A4461A4609215DF8044B91
:10850000604700BF10B484680023A4461A460A21BD
:108510005DF8044B604700BF10B484680A46A44667
:1085200000230B215DF8044B604700BF70B582B09B
:1085300001220368ADF804200022044600915E7C0D
:108540008DF8062000E023681A7CA5686B460F2191
:108550002046A8479DF806300133DBB2B3428DF8C0
:108560000630F0D302B070BD00B583B00023694679
:10857000CDE90033FFF7DAFF03B05DF804FB00BF7D
:1085800010B444690023A4465DF8044B604700BF63
:10859000F0B4FF27002580F8247080F82870049F2D
:1085A000056080F8235080F8265085614FF0FF3534
:1085B000C562056345638563C563A0F84050C0E9A3
:1085C0000437C0E90212F0BCFFF792BF08B50121E1
:1085D000112003F05DFB112003F0C8FB13200121E3
:1085E00003F056FB1320BDE8084003F0BFBB00BFFB
:1085F00069B170B5054608460C4606F00BF82B68C5
:108600000246214628465B68BDE870401847084688
:10861000704700BFF0B50F468BB00568002A3DD00B
:108620000A2A04461ED100293DDB0AAE00232F484A
:1086300006F8043D0B46A0FB0312D20802EB8201B0
:10864000A3EB4103303306F8013D1346002AF2D173
:10865000304605F0DFFF6B680246314620469847FA
:108660000BB0F0BD0AAED2B20023022A06F8043DD8
:108670002CBF10460A200A46B2FBF0F100FB11277E
:10868000FBB2092F03F130078ABF3733FBB2DBB2ED
:108690000A4606F8013D0029EED1D9E72B68C9B298
:1086A00098470BB0F0BD2B682D2198470AAD0023E9
:1086B00006460E4805F8043D7B42A0FB0321C9088D
:1086C00001EB8102A3EB4203303305F8013D0B4679
:1086D0000029F2D1284605F09DFF2368024629466D
:1086E0005B682046984730440BB0F0BDCDCCCCCC75
:1086F000F0B506688BB022B93368C9B298470BB0A1
:10870000F0BD0AACD2B20023022A04F8043D0546AB
:108710002CBF10460A20B1FBF0F200FB1217FBB28F
:10872000092F03F130078ABF3733FBB2DBB21146A2
:1087300004F8013D002AEED1204605F06BFF736876
:1087400002462146284698470BB0F0BD10B5C2B08E
:108750000446CBB28DED000B02A8064A4FF480719F
:1087600005F024FF2368024602A95B68204698476B
:1087700042B010BD2C060300036870B505460C46D8
:108780005E6849B1084605F045FF21460246284685
:10879000B0472B685E680446284602220149B0476C
:1087A000204470BD3406030008B54022002105F0C6
:1087B000E0F90022C0E9102208BD00BF10B4D0E9E2
:1087C0001024531C03F03F039C4218BF81545DF8F2
:1087D000044B18BF036470470023C0E9103370478F
:1087E000D0E91023934206D05A1CC35C02F03F022A
:1087F0004264184670474FF0FF307047D0E91030A0
:10880000181A48BF40307047D0E91023934214BF74
:10881000C05C4FF0FF307047D0E91030013303F0F7
:108820003F03181AB0FA80F04009704790F8A3008F
:10883000704700BF38B590F99D30002B04460DDB22
:108840005A09203201211A4803F01F0301FA03F3E9
:1088500040F82230BFF34F8FBFF36F8F23694FF47F
:108860008872C3F808232269012353602269D36008
:1088700023690025C3F8005522694FF0FF33C2F881
:108880000C352269C2F814352269C2F8083522690C
:1088900004F11400C2F81035FFF79EFFD4F8A400CD
:1088A00001F050F9C4F8A45084F8A35038BD00BFBB
:1088B00000E100E01430FFF7A1BF00BF1430FFF764
:1088C000A3BF00BF1430FFF78BBF00BF90F8A330E9
:1088D00003B9704710B54FF0FF310446D0F8A4003B
:1088E00000F084FF0023D4F8A4001A461946BDE81E
:1088F000104000F031BB00BF10B50368104A5B6840
:1089000082B093428DF8071013D104464FF0FF3127
:10891000D0F8A40000F06AFF22699DF8073084F8BF
:108920005D300123C2F8483522691846936002B0D1
:1089300010BD01220DF10701984702B010BD00BF24
:10894000458902002DE9F0471AB3174688460646C6
:1089500000F15D0A00254FF001097C1B402C28BF67
:1089600040244FF0FF31D6F8A40000F03FFF08EBA1
:1089700005012246504605F0F1F83369C3F8484531
:1089800033692544AF42C3F80890E6D82846BDE8CD
:10899000F08715462846BDE8F08700BF70B504682B
:1089A000724A246A944240F0A58090F8A3200346BE
:1089B000002A40F09E800D46016990F89F00C1F8A2
:1089C0000C05196993F89E00C1F8140593F8A210DC
:1089D000012900F09E801969C1F86C25B5F5966FE4
:1089E0003BD9B5F5166F40F28A80B5F5965F40F237
:1089F0009E80B5F5165F40F29C80B5F5615F40F250
:108A00009A80B5F5964F40F29880B5F5E14F40F267
:108A10009680B5F5164F40F29480B5F5614F40F25F
:108A20009380B5F5963F40F29280B5F5E13F40F274
:108A30009080B5F5613F40F28F804D4A954240F2FB
:108A40009180B5F5E12F40F28A80B5F5612F8CBF9A
:108A50004FF080524FF0706201E04FF49E2219698E
:108A6000C1F824251A690821C2F800151A6903F112
:108A70005D01C2F844151A690021C2F820111A6973
:108A800003F15C01C2F834151A690121C2F83815E6
:108A90001A6911601A694FF48870C2F8040393F9D7
:108AA0009D20002A2EDB5409603402F01F02314859
:108AB00001FA02F240F8242093F99D20002A21DBDC
:108AC0000244602182F8001393F99D20002A07DBFD
:108AD000284802F01F0401215209A14040F8221049
:108AE00001201C4600F012FC0123C4F8A40084F805
:108AF000A33070BD23460022BDE8704018474FF4F4
:108B00001D22ACE71C4902F00F02114460220A76D4
:108B1000DAE71A6993F8A000C2F810051A6993F809
:108B2000A100C2F808051A69C2F86C1556E7134A85
:108B300095E7134A93E7134A91E7134A8FE7134ADD
:108B40008DE74FF41D028AE74FF46B0287E7104A66
:108B500085E74FF0EB7282E74FF06C727FE74FF0E2
:108B6000E8627CE74FF0806279E700BF958B0200F6
:108B700090D0030000E100E0FCEC00E000B0130046
:108B80000050270000F03A0000A04E0000C0750021
:108B900000903A0190F8A330002B51D110B5036931
:108BA00090F89F40C3F80C45036990F89E40C3F8C5
:108BB000144590F8A230012B036900F08F80C3F8B0
:108BC0006C25B1F5966F3CD9B1F5166F40F29580E2
:108BD000B1F5965F40F29B80B1F5165F40F2998047
:108BE000B1F5615F40F29780B1F5964F40F2958004
:108BF000B1F5E14F40F29380B1F5164F40F291800C
:108C0000B1F5614F40F29080B1F5963F40F28F8010
:108C1000B1F5E13F40F28D80B1F5613F40F28C80CB
:108C20004A4B994240F28E80B1F5E12F40F28780A5
:108C3000B1F5612F8CBF4FF080534FF0706302E0AD
:108C400070474FF49E230269C2F824350369082255
:108C5000C3F80025036900F15D02C3F844250369E8
:108C60000022C3F82021036900F15C02C3F8342517
:108C700003690122C3F8382503691A6003694FF4B8
:108C80008871C3F8041390F99D30002B38DB5C0920
:108C9000603403F01F032E4902FA03F341F8243035
:108CA00090F99D30002B2BDB0B44602283F80023CE
:108CB00090F99D30002B07DB254903F01F040122AA
:108CC0005B09A24041F823200446012000F01EFB6E
:108CD0000123C4F8A40084F8A33010BD90F8A0408C
:108CE000C3F81045036990F8A140C3F8084503692B
:108CF00042F00102C3F86C2563E74FF41D23A2E79D
:108D0000144A03F00F031A4460231376D0E7124B82
:108D100099E7124B97E7124B95E7124B93E7124BEB
:108D200091E74FF41D038EE74FF46B038BE70F4B76
:108D300089E74FF0EB7386E74FF06C7383E74FF0F2
:108D4000E86380E74FF080637DE700BF90D00300C9
:108D500000E100E0FCEC00E000B013000050270050
:108D600000F03A0000A04E0000C0750000903A01EB
:108D700008B5054B1BB10548FFF740FD00B908BD1C
:108D8000AFF3008008BD00BF00000000583A00208B
:108D900010B5114C2369D3F810213AB10022C3F861
:108DA0001021D3F83C2572B901221A60D3F8202192
:108DB00002B910BD0021D4F8A400C3F82011BDE809
:108DC000104000F055BB94F85C1004F11400FFF75C
:108DD000F5FC2369E8E700BF443A002038B50F4CA2
:108DE0000F4A204600254FF47A7340F8142BC4E94B
:108DF0000153FFF7D9FC0B4B0B481A6A9B6984F8A7
:108E0000A2500221C4F8A45084F8A350206184F831
:108E10009D1084F89E2084F89F3038BD443A00208D
:108E200040060300AC0503000020004010B4019C84
:108E3000401AE41A04FB00F4521A94FBF2F05DF8B5
:108E4000044B1844704700BF08B501F0F3F94FF424
:108E50007A72A0FB0223900A40EA835008BD00BF4B
:108E6000034B8002A3FB0030800901F007BB00BF69
:108E7000D34D621038B51C469DF8105043B30029FD
:108E800008BF1A460123C4E90F01226084F8463066
:108E900002F018F8D4E90F132268A26001FB03F175
:108EA000CB1A134400200A44FF21A063E36084F836
:108EB0004410626084F8451004F1100003F0E8F8F3
:108EC00004F1240003F0E4F802F006F884F84C50B2
:108ED000204638BDF8B5074615460E4669B100FB79
:108EE00001F0503003F022F9044690B3002200F163
:108EF000500380F84620036007E0502003F016F985
:108F0000044630B384F846602460C4E90F7601F06B
:108F1000D9FFD4E90F132268A26001FB03F1CB1A39
:108F2000134400200A44FF21A063E36084F8441046
:108F3000626084F8451004F1100003F0A9F804F110
:108F4000240003F0A5F801F0C7FF84F84C50204638
:108F5000F8BD00242046F8BD2DE9F04F044685B049
:108F60001D460192884601F0ADFFA26BE36BA84F4E
:108F70004FF000099A424E46C0F08B80022D00F05F
:108F800006810198002800F03081B9F1000F00F04F
:108F9000958001F0A1FF01F045F901F093FF94F8ED
:108FA0004430FF2B08BF84F8446094F84530FF2B11
:108FB00008BF84F8456001F08FFF01A902A801F005
:108FC0005FFC002840F0188101F07CFFA26BE36B8E
:108FD0009A4277D001F080FF01F074FF94F8453099
:108FE0004FFA83FABAF1000F1ADD636AC3B104F1D4
:108FF000240907E00AF1FF33DBB24FFA83FA7BB1B1
:10900000636A6BB1484601F0E1FB0028F2D001F041
:109010006FFC0AF1FF33DBB24FFA83FA002BEFD17A
:10902000FF2384F8453001F057FF01F04BFF94F81F
:1090300044304FFA83FABAF1000F1ADD2369C3B145
:1090400004F1100907E00AF1FF33DBB24FFA83FAAB
:109050007BB123696BB1484601F0B8FB0028F2D020
:1090600001F046FC0AF1FF33DBB24FFA83FA002B22
:10907000EFD1FF2384F8443001F02EFF01F078F99E
:1090800001F020FFA26BE36B9A424FF00109BFF49D
:1090900075AF226CA66B002A40F0FC802568013673
:1090A000002D00F01881A663636A002B40F08C80CD
:1090B00001F012FF012005B0BDE8F08F02A801F019
:1090C000D3FB66E704F1100901F006FF4846019959
:1090D00001F000FB01F0F6FE94F845A04FFA8AFA81
:1090E000BAF1000F1CDD636AD3B104F1240B08E070
:1090F0000AF1FF3A5FFA8AF34FFA83FA83B1636A9F
:1091000073B1584601F062FB0028F1D00AF1FF3A32
:1091100001F0EEFB5FFA8AF34FFA83FA002BEED1EF
:10912000FF2384F8453001F0D7FE01F0CBFE94F820
:1091300044304FFA83FABAF1000F06DC15E00AF169
:10914000FF33DBB24FFA83FA7BB123696BB1484638
:1091500001F03CFB0028F2D001F0CAFB0AF1FF331A
:10916000DBB24FFA83FA002BEFD1FF2384F84430AF
:1091700001F0B2FE01F0FCF8002881D14FF08053DD
:109180007B6040BFBFF34F8FBFF36F8F78E7226CD8
:10919000A66B002A82D04146E06804F0DFFC236C15
:1091A000E26821685B421A448A42E26080F089806A
:1091B00062681344E360022D00F083800136A663E9
:1091C000636A002B3FF474AF04F1240001F0FEFA4F
:1091D00000283FF46DAF0E4B4FF080525A6040BFF5
:1091E000BFF34F8FBFF36F8F62E7009001F074FE03
:1091F000009805B0BDE8F08F01F064FE94F845508A
:109200006DB2002D18DD636AB3B104F1240607E0E6
:1092100000ED00E0013DEBB25DB26BB1636A5BB1A2
:10922000304601F0D3FA0028F4D0013D01F060FB94
:10923000EBB25DB2002BF1D1FF2384F8453001F091
:109240004BFE01F03FFE94F844506DB2002D16DD48
:109250002369A3B104F1100605E0013DEBB25DB254
:109260006BB123695BB1304601F0B0FA0028F4D04D
:10927000013D01F03DFBEBB25DB2002BF1D1FF23CC
:1092800084F8443001F028FE01F072F8002005B0A7
:10929000BDE8F08F41465DBBA06804F05FFCA368A9
:1092A000216C62680B44934206F10106A360FFF44F
:1092B000FAAEA663636A2268A260002B3FF4F8AEA0
:1092C00082E7002E7FF4EFAE0123A363636A002BD5
:1092D0003FF4EEAE78E7606801F07CFBA663636A5A
:1092E0006560002B7FF470AF00287FF474AFDFE679
:1092F000E06804F033FC236CE26821685B421A44A6
:109300008A42E260BFF457AF52E700BFF8B50646A5
:10931000502002F00BFF044670B3002501232060AB
:10932000C0E90F3580F8465001F0CCFDD4E90F328A
:109330002168A56303FB02F39A1A0A440B44FF2732
:10934000C4E90131E26084F8447004F1100084F84B
:10935000457002F09DFE04F1240002F099FE01F038
:10936000BBFDC4E90055E56084F84C602B462A46F5
:1093700029462046FFF7F0FD2046F8BD2DE9F041D3
:109380008C4682B004461746EFF31186402282F3E2
:109390001188806BE26B904221D3022B05D0002014
:1093A00086F3118802B0BDE8F08194F84550226C34
:1093B000D4F838806DB252BB236808F10108002B45
:1093C0004FD06B1CC4F8388037D001356DB284F8AB
:1093D0004550012086F3118802B0BDE8F08194F871
:1093E0004550226CD4F838806DB2002AE4D073B9AD
:1093F000A06804F0B3FBA368216C62680B4493423D
:1094000008F10108A360DCD32368A360D9E76146B3
:10941000E068019304F0A2FB206CE2682168019BE4
:10942000404202448A42E26002D262681044E06034
:10943000022B10D008F10108C3E7636A002BC8D0E3
:1094400004F1240001F0C2F90028C2D0002FC0D0DE
:1094500001203860A4E7B8F1000F08BF4FF0010801
:10946000AFE76068019301F0B5FA019B6360A8E77C
:1094700038B5EFF31184402383F31188826BC36BFB
:1094800093420ED990F8453001325BB282635A1C88
:109490000BD001335BB280F84530012084F3118892
:1094A00038BD002084F3118838BD436A002BF4D006
:1094B00024300D4601F08AF90028EED0002DECD0C2
:1094C00001202860EAE700BF2DE9F047044684B098
:1094D0008846019201F0F6FCD4F83890B9F1000FFB
:1094E00040F09380019B002B00F00A8102A801F05C
:1094F000BBF9B34F4E4604F1240501F0EDFC00F03A
:1095000091FE01F0DFFC94F84430FF2B08BF84F893
:10951000446094F84530FF2B08BF84F8456001F0A3
:10952000DBFC01A902A801F0ABF9002840F087801C
:1095300001F0C8FCA36B002B40F0E88001F0CCFCEC
:109540000199284601F0C6F801F0BCFC94F84530BA
:109550004FFA83F9B9F1000F06DC15E009F1FF338A
:10956000DBB24FFA83F97BB1636A6BB1284601F035
:109570002DF90028F2D001F0BBF909F1FF33DBB27D
:109580004FFA83F9002BEFD1FF2384F8453001F027
:10959000A3FC01F097FC94F844304FFA83FABAF137
:1095A000000F1ADD2369C3B104F1100907E00AF1C5
:1095B000FF33DBB24FFA83FA7BB123696BB14846C4
:1095C00001F004F90028F2D001F092F90AF1FF331A
:1095D000DBB24FFA83FA002BEFD1FF2384F844303B
:1095E00001F07AFC00F0C4FE00287ED14FF08053D9
:1095F0007B6040BFBFF34F8FBFF36F8F01F062FC02
:10960000D4F83890B9F1000F76D0226C52B1E168ED
:10961000636811449942E16024BF2168E1604046DB
:1096200004F09CFA09F1FF33A3632369002B40F097
:10963000C98001F051FC012004B0BDE8F08701F0C1
:1096400041FC94F845304FFA83F9B9F1000F06DC7C
:1096500015E009F1FF33DBB24FFA83F97BB1636A9E
:109660006BB1284601F0B2F80028F2D001F040F9C1
:1096700009F1FF33DBB24FFA83F9002BEFD1FF235F
:1096800084F8453001F028FC01F01CFC94F84430CB
:109690004FFA83FABAF1000F1ADD2369C3B104F15E
:1096A000100907E00AF1FF33DBB24FFA83FA7BB10E
:1096B00023696BB1484601F089F80028F2D001F027
:1096C00017F90AF1FF33DBB24FFA83FA002BEFD11F
:1096D000FF2384F8443001F0FFFB00F049FE01F065
:1096E000F1FBA36B63B101F0F7FB01F0EBFBD4F8E6
:1096F0003890B9F1000F88D1019B002B7FF4FDAEAB
:1097000001F0EAFB002004B0BDE8F08701F0E4FBC3
:1097100001F0D8FB94F845304FFA83F9B9F1000F06
:1097200006DC15E009F1FF33DBB24FFA83F97BB1B8
:10973000636A6BB1284601F049F80028F2D001F0C5
:10974000D7F809F1FF33DBB24FFA83F9002BEFD1E1
:10975000FF2384F8453001F0BFFB01F0B3FB94F820
:1097600044304FFA83FABAF1000F1ADD2369C3B10E
:1097700004F1100907E00AF1FF33DBB24FFA83FA74
:109780007BB123696BB1484601F020F80028F2D084
:1097900001F0AEF80AF1FF33DBB24FFA83FA002B87
:1097A000EFD1FF2384F8443001F096FB00F0E0FD98
:1097B00001F088FBD4F83890B9F1000F9CD024E771
:1097C00000ED00E004F1100001F000F800283FF483
:1097D00030AF054B4FF080525A6040BFBFF34F8F00
:1097E000BFF36F8F25E700BF00ED00E02DE9F043E8
:1097F000044685B00026019101F064FBA36BB24FD3
:10980000B0463546002B40F0F380019B002B00F062
:109810005D81B8F1000F00F0FC8001F05DFB00F00D
:1098200001FD01F04FFB94F84430FF2B08BF84F892
:10983000445094F84530FF2B08BF84F8455001F0A0
:109840004BFB01A902A801F01BF800286CD101F024
:1098500039FBA36B002B40F0E08001F03DFB236857
:10986000002B00F03C8104F124094846019900F0E6
:1098700031FF01F027FB94F845304FFA83F8B8F137
:10988000000F06DC15E008F1FF33DBB24FFA83F876
:109890007BB1636A6BB1484600F098FF0028F2D0B4
:1098A00001F026F808F1FF33DBB24FFA83F8002B02
:1098B000EFD1FF2384F8453001F00EFB01F002FBED
:1098C00094F844304FFA83F8B8F1000F1ADD236999
:1098D000C3B104F1100907E008F1FF33DBB24FFA1E
:1098E00083F87BB123696BB1484600F06FFF002815
:1098F000F2D000F0FDFF08F1FF33DBB24FFA83F83E
:10990000002BEFD1FF2384F8443001F0E5FA00F09A
:109910002FFD002864D14FF080537B6040BFBFF320
:109920004F8FBFF36F8F5BE001F0CCFA94F84530B6
:109930004FFA83F8B8F1000F1ADD636AC3B104F17E
:10994000240907E008F1FF33DBB24FFA83F87BB15B
:10995000636A6BB1484600F039FF0028F2D000F08E
:10996000C7FF08F1FF33DBB24FFA83F8002BEFD1CA
:10997000FF2384F8453001F0AFFA01F0A3FA94F820
:1099800044304FFA83F8B8F1000F1ADD2369C3B1F0
:1099900004F1100907E008F1FF33DBB24FFA83F856
:1099A0007BB123696BB1484600F010FF0028F2D06C
:1099B00000F09EFF08F1FF33DBB24FFA83F8002B73
:1099C000EFD1FF2384F8443001F086FA00F0D0FC98
:1099D00001F078FAA36B002B00F08A8001F07CFA8A
:1099E00001F070FAA36B4FF00108002B3FF40DAFAC
:1099F0002268013BA363002A00F09E802369002BAC
:109A000040F0898001F068FA0126304605B0BDE8D3
:109A1000F08302A800F028FFFFE601F05DFA01F0F4
:109A200051FA94F845304FFA83F8B8F1000F1ADD77
:109A3000636AC3B104F1240907E008F1FF33DBB224
:109A40004FFA83F87BB1636A6BB1484600F0BEFE03
:109A50000028F2D000F04CFF08F1FF33DBB24FFAE0
:109A600083F8002BEFD1FF2384F8453001F034FA5E
:109A700001F028FA94F844304FFA83F8B8F1000F57
:109A80001ADD2369C3B104F1100907E008F1FF33BF
:109A9000DBB24FFA83F87BB123696BB1484600F023
:109AA00095FE0028F2D000F023FF08F1FF33DBB26F
:109AB0004FFA83F8002BEFD1FF2384F8443001F0F4
:109AC0000BFA00F055FC8BE700ED00E0009301F08D
:109AD00003FA009B1E46304605B0BDE8F08301F056
:109AE000F1F9606800F034FF064601F0F5F9BAE6D6
:109AF00001F0F2F9002E88D001F0E4F9616A19B1A1
:109B0000236B1968C1F10501606800F08FFF002622
:109B100001F0E2F979E704F1100000F057FE0028A7
:109B20003FF470AF064B4FF080525A6040BFBFF316
:109B30004F8FBFF36F8F65E700F0AEFF60605DE7AA
:109B400000ED00E0104B5A68904208D0DA6890426D
:109B500008BF012204D090F8463093B1704700222C
:109B6000002110B403EBC20443F8321090F84630E1
:109B7000616013B15DF8044B70475DF8044B02F06F
:109B8000E7BA02F0E5BA00BF38450020074B1A6873
:109B90001AB19A6802B17047012210B403EBC204F3
:109BA00043F8321060605DF8044B70473845002080
:109BB00070B505460C46164601F084F995F8443018
:109BC000FF2B04BF002385F8443095F84530FF2B68
:109BD00004BF002385F8453001F07EF9AB6B2BB94B
:109BE0003246214605F1240000F0B0FD01F06AF98B
:109BF00095F8454064B2002C16DD6B6AA3B105F1FF
:109C0000240605E0013CE3B25CB26BB16B6A5BB168
:109C1000304600F0DBFD0028F4D0013C00F068FE87
:109C2000E3B25CB2002BF1D1FF2385F8453001F09F
:109C300053F901F047F995F8444064B2002C16DD61
:109C40002B69A3B105F1100605E0013CE3B25CB25B
:109C50006BB12B695BB1304600F0B8FD0028F4D041
:109C6000013C00F045FEE3B25CB2002BF1D1FF23D2
:109C700085F84430BDE8704001F02EB92DE9F0417F
:109C8000044601F01FF9344A344D13680133136060
:109C90002B68002B2FD0324EE36A32682AB331484A
:109CA000314907680A689F4238BF03602F48013274
:109CB00003EB83030A6000EB8300E263211D02F0E3
:109CC000F7F901F009F933686BB12A68E36AD26ADF
:109CD0009A4208D2264B4FF080525A6040BFBFF3E1
:109CE0004F8FBFF36F8FBDE8F0812A68D26A9A4226
:109CF00098BF2C60D3E72C601368012B02D0E36A75
:109D0000174ECCE71948DFF894801A4F144E02F032
:109D1000BFF9194802F0BCF9184802F0B9F918481F
:109D200002F0B6F9174802F0B3F9404602F0B0F974
:109D3000384602F0ADF9144802F0AAF9134802F0CF
:109D4000A7F9134802F0A4F9124B134AC2F8008095
:109D50001F60E36AA3E700BF5C3B0020EC3A0020F1
:109D6000BC3B0020703B00206C3B0020F83A0020F8
:109D700000ED00E0883B00200C3B0020203B002051
:109D8000343B0020483B0020A83B0020D43B00206F
:109D9000C03B0020F43A0020F03A0020743B002041
:109DA0002DE9F843DDE90964002C60D016B930468E
:109DB000BDE8F8830D469700984602233A4684F89A
:109DC0005130814626633046A52103F0D2FE2A7821
:109DD000236B84F83420043F2A781F4427F00707B8
:109DE00002B36B7884F835306B78DBB1AB7884F8EC
:109DF0003630AB78B3B1EB7884F83730EB788BB191
:109E00002B7984F838302B7963B16B7984F8393049
:109E10006B793BB1AB7984F83A30AB7913B1EB791C
:109E200084F83B30089D042D28BF04250026E562F8
:109E30006564201D84F83B60A66402F035F9C5F125
:109E4000050504F1180002F02FF9E6644246494680
:109E5000A561246184F850606462384600F0F6FF22
:109E600020602046FFF70AFF2046BDE8F883204621
:109E7000BDE8F8832DE9F0479600804630460D4650
:109E80009946099F02F052F9002869D08246542071
:109E900002F04CF9044600285BD00023C0F830A043
:109EA0003246504684F85130A52103F062FE2A78EC
:109EB000236B84F83420043E2A781E4426F0070AD7
:109EC00002B36B7884F835306B78DBB1AB7884F80B
:109ED0003630AB78B3B1EB7884F83730EB788BB1B0
:109EE0002B7984F838302B7963B16B7984F8393069
:109EF0006B793BB1AB7984F83A30AB7913B1EB793C
:109F000084F83B30089D042D28BF04250026E56217
:109F10006564201D84F83B60A66402F0C5F8C5F1B5
:109F2000050504F1180002F0BFF8E664A56124619C
:109F300084F8506064624A464146504600F086FF0D
:109F4000206007B13C602046FFF798FE0120BDE885
:109F5000F087504602F0FCF84FF0FF30BDE8F08784
:109F60004FF0FF30F3E700BF70B504464C4E00F0F1
:109F7000A9FF002C39D0251D284602F0C3F8A36A9A
:109F80001BB104F1180002F0BDF829464548464DC2
:109F900002F08EF894F85030012B04BF002384F8AF
:109FA000503000F099FF2B6893B93368A34200D07A
:109FB00070BD2B68DBB93B493C4A09681268914285
:109FC00026D03B4B1B682BB33A4B01221A6070BD65
:109FD00000F078FF384B1A68126892B9374B4FF08F
:109FE000FF321A6000F078FFDFE73468C3E7344BD4
:109FF0004FF080525A6040BFBFF34F8FBFF36F8F57
:10A0000070BD1A682D4BD268D26852681A60E9E7B1
:10A01000336070BD274A13603268336812681B6B67
:10A020009A4236D9274C2849226893009818800014
:10A030000858E0B9551EAB0058198000085830BBCD
:10A04000951EAB0058198000085800BBD51EAB0008
:10A05000581980000858D0B9151FAB005819800056
:10A060000858A0B9053A930098188000085813447E
:10A070009B00CD1808336868406868600B449842BC
:10A0800004BF40686860C3683360226070BD2A46C0
:10A09000EDE730683168343101F010FBC2E700BFF2
:10A0A000EC3A0020C03B0020BC3B00205C3B002081
:10A0B000683B0020EC3B0020F03A0020A03B002051
:10A0C00000ED00E0703B0020F83A002080B170B550
:10A0D0001B4D2B6883420AD0044600F0F3FE194B57
:10A0E00062699A4205D0BDE8704000F0F5BE70BDCF
:10A0F0007047A36A144A9342F5D0002BF3D1261D72
:10A10000304601F0FFFF114AE36A116810488B42A4
:10A1100088BF136003EB830300EB8300314601F03B
:10A12000C7FF2B68E26ADB6A9A42DCD3094B4FF027
:10A1300080525A6040BFBFF34F8FBFF36F8FD2E79B
:10A14000EC3A0020C03B0020A83B0020703B0020E0
:10A15000F83A002000ED00E070B584B0002503AAB5
:10A1600002A901A8CDE9015501F0ACFA019C002C2F
:10A1700046D00298002843D0039E20630223B600F5
:10A18000A521324684F8513003F0F3FC236B1F4ABB
:10A190006263201D84F83850043E84F83B50E56229
:10A1A000C4E911551E4401F07FFF04F1180001F0CD
:10A1B0007BFF26F007060523A3612A461449E564C0
:10A1C00030462461646284F8505000F03FFE206005
:10A1D0002046FFF753FD0F4B1C6000F0DBFD01280C
:10A1E00011D1402383F311880B490C4A0C4B4FF0DB
:10A1F000FF340C6010601D6000F03EFE04B070BDC6
:10A20000044B00221A6004B070BD00BF49444C45A5
:10A2100001A502009C3B0020A03B0020BC3B00208D
:10A22000E83B0020024A136801331360704700BF07
:10A23000683B0020014B1868704700BFE83B0020D6
:10A24000024A136818441060704700BFE83B0020C2
:10A250002DE9F04F3B4B1B6883B0002B42D13A4BAA
:10A260001F6801371F60002F4AD0384B01931B68CD
:10A27000BB423BD8364EDFF8EC80DFF8ECA0DFF8CD
:10A28000EC90002525E03368DB68DC68636804F146
:10A29000040B9F42584651D301F034FFA36A04F1E6
:10A2A00018000BB101F02EFFE36AD8F8002003EB91
:10A2B0008300934259460AEB800088BFC8F80030FB
:10A2C00001F0F6FED9F80030E26ADB6A9A4228BF54
:10A2D000012533681B68002BD5D1019A4FF0FF335D
:10A2E000136004E01B4A13680133136000251A4B06
:10A2F0001B68002B0CBF2846012003B0BDE8F08F7F
:10A30000134E164B3168164A18683060196013688E
:10A310000133136033681B683BB90C4B01931A4639
:10A320004FF0FF3313601346A1E73368074ADB6839
:10A330000192DB685B681360134698E7019A13602B
:10A34000D5E700BF683B0020E83B0020A03B002091
:10A35000F03A0020643B0020EC3B0020F43A00205F
:10A36000A43B0020703B0020F83A0020EC3A00208B
:10A370002DE9F04700F0A6FD354B1A68013A1A6046
:10A380001C68002C57D1334B1B68002B53D0DFF8CF
:10A39000E0A0314E314FDFF8DC90DFF8DC8033682D
:10A3A00013B3F368DC68251D04F1180001F0AAFE60
:10A3B000284601F0A7FEE36A3A6803EB8300934264
:10A3C000294609EB800088BF3B6001F071FED8F898
:10A3D0000030E26ADB6A9A424FF00103DFD3CAF829
:10A3E00000303368002BDCD13CB11D4B1A68126879
:10A3F0003ABB1C4B4FF0FF321A601B4D2C6844B126
:10A400000126FFF725FF08B1CAF80060013CF8D12A
:10A410002C60DAF8003073B1144B4FF080525A6060
:10A4200040BFBFF34F8FBFF36F8F012400F054FD87
:10A430002046BDE8F087002400F04EFD2046BDE830
:10A44000F0871A68074BD268D26852681A60D4E75E
:10A45000683B00205C3B0020A83B0020703B0020B4
:10A46000F03A0020A03B0020643B002000ED00E01B
:10A47000EC3B0020F83A0020EC3A002070B548B9D7
:10A48000184B4FF080525A6040BFBFF34F8FBFF35D
:10A490006F8F70BD144A15491368154E0133136050
:10A4A0000D6804463068043001F02CFE33686419EE
:10A4B0005C600FD20F4B18683168043101F008FE60
:10A4C0000D4B1A68944238BF1C60FFF751FF0028FB
:10A4D000D6D070BD094B18683168043101F0F8FD21
:10A4E000F3E700BF00ED00E0683B0020E83B002000
:10A4F000EC3A0020F03A0020A03B0020F43A002083
:10A500002DE9F84F3C4E3D4D3D4CDFF80891DFF80A
:10A510000881DFF808B14FF0805A2368D3B100F00A
:10A52000D1FCF368DF68381D01F0ECFD2B68013BBE
:10A530002B602368013B236000F0CEFC97F851307C
:10A54000002B37D0012BE8D1384601F001FE2368FB
:10A55000002BE4D12B4B1B68012B06D9CBF804A0B0
:10A5600040BFBFF34F8FBFF36F8F00F03DFED9F8B0
:10A57000003033BBD8F80030DB6A002BCDD1214B43
:10A580001B68012BC9D8204B204A1B6812689B1AF4
:10A59000012BC2D91E4A136801331360D9F8003069
:10A5A000BBB1D8F80030DB6A0BB9164B1B68FFF75C
:10A5B000DFFEB2E7386B01F0CBFD384601F0C8FD95
:10A5C000ABE7D8F80030DB6A002BA6D10D4B1B6837
:10A5D000A3E7D8F80030DB6A002BE8D1094B1B68F1
:10A5E000012BE4D8084B1868084B1B68C01A0128D7
:10A5F000DDD900F0DDFCDAE7D43B00205C3B002035
:10A60000603B0020F83A0020A03B0020E83B0020FF
:10A61000683B0020703B0020EC3A002000ED00E099
:10A62000274B1B68002B40D1264A70B5264C13607F
:10A630002268236812681B6B9A423AD9234D244939
:10A640002A689300981880000858E0B9561EB30095
:10A6500098198000085830BB961EB30098198000E6
:10A66000085800BBD61EB300981980000858D0B90E
:10A67000161FB300981980000858A0B9053A930036
:10A6800098188000085813449B00CE18083370684F
:10A69000406870600B44984204BF40687060C368B3
:10A6A00023602A6070BD3246EDE7064B01221A6036
:10A6B000704720682168343101F000F8BEE700BF20
:10A6C000683B0020EC3B0020EC3A0020703B00206F
:10A6D000F83A002070B5174D2B680C4603F11801AD
:10A6E00001F0F6FC144B1E682868043001F00AFDE6
:10A6F000631C17D02B68A4195C600BD20F4B186831
:10A700002968043101F0E4FC0D4B1A68944238BF0B
:10A710001C6070BD0B4B18682968BDE8704004319F
:10A7200001F0D6BC296808480431BDE8704001F04A
:10A73000BFBC00BFEC3A0020E83B0020F03A00200C
:10A74000A03B0020F43A0020C03B002070B5194D1A
:10A750002B680C46164603F1180101F0A9FC164BB4
:10A760005EB11B682868043001F0CCFC29681348EE
:10A770000431BDE8704001F09BBC1E6828680430BD
:10A7800001F0C0FC2B68A4195C600BD20C4B18685C
:10A790002968043101F09CFC0A4B1A68944238BFC6
:10A7A0001C6070BD084B18682968BDE87040043112
:10A7B00001F08EBCEC3A0020E83B0020C03B0020BA
:10A7C000F03A0020A03B0020F43A002038B5C368DE
:10A7D000DC6804F11805284601F094FC1A4B1B684C
:10A7E0002BBB251D284601F08DFC184AE36A116831
:10A7F00017488B4288BF136003EB8303294600EBA5
:10A80000830001F055FC134BE26A1B68DB6A9A4235
:10A8100082BF114B01201860104B1A68126898BF54
:10A8200000204AB90E4B4FF0FF321A6038BD29465E
:10A830000C4801F03DFCE6E71A68094BD268D26883
:10A8400052681A6038BD00BF683B0020703B002092
:10A85000F83A0020EC3A0020EC3B0020F03A0020CF
:10A86000A03B0020A83B0020034A044B12681B6851
:10A87000C0E90023704700BFA43B0020E83B002054
:10A88000F8B50D46044600F01DFB2B681649581C10
:10A890000A6813D0DFF854C0D4E90060DCF8007017
:10A8A000BE4201D090421AD9121A93420BD800230B
:10A8B0002B60012500F010FB2846F8BD002500F0B4
:10A8C0000BFB2846F8BDDCF800009B1A0A682B60D9
:10A8D000C4E90002002500F0FFFA2846F8BD012572
:10A8E00000F0FAFA2846F8BDE83B0020A43B00201F
:10A8F000014B01221A607047EC3B0020084B18689E
:10A9000060B9084B1B6853B9074A084B10681B68AD
:10A91000013B984214BF012002207047002070477D
:10A92000A83B0020EC3B0020C03B00205C3B00200B
:10A93000054B1B6833B1054B1B68002B0CBF022075
:10A940000020704701207047BC3B0020683B00207E
:10A9500018B3F8B51C4CC36A2268D26A934214D269
:10A960008269002A04DB2268D26AC2F10502826190
:10A97000164D426903EB830305EB83039A420DD026
:10A980002368DB6AC3620120F8BD2368406CDB6A80
:10A9900098422CBF00200120F8BD7047061D0746D5
:10A9A000304601F0AFFB2268094BD06A1A68F862A2
:10A9B000904200D9186000EB800005EB8000314622
:10A9C00001F076FB0120F8BDEC3A0020F83A0020B7
:10A9D000703B002050B138B5C16A836C426C013BBA
:10A9E0009142836400D01BB1002038BD0020704725
:10A9F000051D0446284601F085FB0A4A636C116870
:10AA0000E362C3F105008B42A061074888BF136071
:10AA100003EB830300EB8300294601F049FB01208F
:10AA200038BD00BF703B0020F83A002048B1426CAE
:10AA3000C36A914238BF11468B4202D0826C012A10
:10AA400000D07047826970B5114DC162002A03EBD6
:10AA500083034269A8BFC1F1050105EB8303A8BFC9
:10AA600081619A4200D070BD061D0446304601F057
:10AA700049FB084BE06A1A68904288BF186000EBF7
:10AA8000800005EB80003146BDE8704001F010BB4E
:10AA9000F83A0020703B0020044B1A681AB119687C
:10AAA0008A6C01328A641868704700BFEC3A002053
:10AAB0002DE9F04FAD4EDFF8C482AD4D89B033685B
:10AAC0001C68002C00F08E80DB681C68FFF7AAFB76
:10AAD000FFF7B0FBD8F80030984207465DD38442B8
:10AAE000C8F8000040F20B810022E11B2868FFF744
:10AAF0005FF8FFF73DFC88B99E4A4FF080535360E2
:10AB000040BFBFF34F8FBFF36F8F07E0019B0399E7
:10AB100020469847009B002B80F23881286800224D
:10AB20006946FEF7D1FC0028C9D0009B029C002B8F
:10AB3000ECDB636913B1201D01F0E4FAFFF77AFB47
:10AB4000D8F800309842814643D3009BC8F8009063
:10AB5000092BE3D8012202FA03F313F4047F69D12D
:10AB600013F0C70F40F0A1809B06D7D594F82C3086
:10AB7000002BD3D1204601F0EBFACFE7DB68DC688D
:10AB8000D3F800A004F10409484601F0BBFA636A57
:10AB900020469847E369012B36D033681A68002AAB
:10ABA000ECD17549C8F800700A6832600B60FFF795
:10ABB000DFFBB3E7DB68DF68D3F800B007F1040A16
:10ABC000504601F09FFA7B6A38469847FB69012B93
:10ABD00025D033681A68002AECD167490A683260C8
:10ABE0000B60B2E7FFF71EFBFFF724FBD8F800303D
:10ABF00083420746D1D8604BC8F800701B681A68BA
:10AC0000B2FA82F2520970E7A36953449A45494661
:10AC100022D263602461306801F05AFABDE7BB6953
:10AC20005B449B45514627D27B603F61306801F011
:10AC30004FFACEE7019B246103EB09024A45A36169
:10AC400062602CD8002B3FF469AF4B4B211D186874
:10AC500001F03EFA286862E72B68002B9DD00023A4
:10AC6000CDE9043A0694FFF763FE00231A4604A9CF
:10AC70002868FEF771F990E72B68002BA9D0002314
:10AC8000CDE9043B0697FFF753FE00231A4604A9BB
:10AC90002868FEF761F99CE74B4500D998B1306808
:10ACA000211D01F015FA286839E7019BA26924618A
:10ACB00099182CBF0120002049456160ECD8A9EB10
:10ACC00003039A42C1D8636A20469847E369012B7F
:10ACD0007FF424AF019BA2692868134400283FF445
:10ACE0001EAF0022CDE904230694FFF721FE0023C6
:10ACF0001A4604A92868FEF72FF928680FE7FFF71E
:10AD000037FB3368DB68D3F80C9009F1040A50462E
:10AD100001F0F8F9D9F81C30012B04D0D9F824300F
:10AD200048469847FAE6D9F81830C9F81090E21862
:10AD3000BA42C9F8042004D95146306801F0C8F974
:10AD4000ECE73F1BBB421BD82B68002BE6D000234F
:10AD5000CDE90434CDF81890FFF7EAFD00231A4638
:10AD600004A92868FEF7F8F8D8E700BFF03B0020F8
:10AD7000743E002000ED00E0F43B0020203E002067
:10AD8000034B5146186801F0A3F9C7E7029CD0E6CF
:10AD9000F43B0020F0B5204C89B000F093F8256812
:10ADA000FDB100F099F82068C8B1002407AA06A9EF
:10ADB00005A8CDE9054400F093FCDDE9053002214A
:10ADC000CDE90010079A0293144915482346FEF76F
:10ADD000E7FF144A0346001B18BF0120136009B0A7
:10ADE000F0BD114F114E384601F052F9304601F0D6
:10ADF0004FF90F4A0F4900950F4B17600E600F4A2D
:10AE000010212020FEF736F820600028C9D00C4918
:10AE1000FEF7BCFEC5E700BF743E002074060300C9
:10AE2000B1AA0200783E0020F83D00200C3E002030
:10AE3000F03B0020F43B0020243E0020F83B0020A3
:10AE40006C060300402383F31188FEE730B46FF0F3
:10AE500002034FF08075074C40F8045C40F80C4C3E
:10AE600040F8081C40F8202C40F8243C30BC443802
:10AE7000704700BF45AE02000F4C08B5E02384F8D0
:10AE8000223000F077F80D4B0D4A00211960D4F8FC
:10AE9000883043F47003C4F88830536843F040436B
:10AEA0005360236943F01003236100F04BF9402302
:10AEB00083F31188FEE700BF00ED00E07C3E002038
:10AEC00030EF00E0402383F31188024A1368013316
:10AED000136070477C3E0020034A1368013B1360F7
:10AEE0000BB983F3118870477C3E002041DF704727
:10AEF00012DF704770B51B4B00251D6082B01B68C8
:10AF00000193019BEFF31186402383F31188164AC6
:10AF1000164BD2F804451D601B680093009BFFF799
:10AF200089F9241A24F07F44012C0DD844B1FFF78D
:10AF30008FF9054625B10E4B4FF080525A6040BF45
:10AF400086F3118802B070BDFFF7F2FC0228EED143
:10AF5000013CFFF77DF9013C631C45EA0005F8D18F
:10AF6000E8E700BF4011014000100140001101401E
:10AF700000ED00E00B4B0C4930B41F200B4DC3F823
:10AF8000080501220224E020C3F804232A601A6085
:10AF9000C3F8444381F811034FF400330B6030BC15
:10AFA000704700BF0010014000E100E008100140C0
:10AFB0002DE9F041804684B0EFF3108272B6564C12
:10AFC000A36883B9554B56480121A160D3F880107E
:10AFD00001402160C3F88000D3F8841061604FF015
:10AFE000FF31C3F8841002B962B64E4ED6F804752C
:10AFF000FFF784FC00283DD04B4A4C49424528BF0E
:10B000004246BB1823F07F4301200025C6F8080301
:10B01000C6F840350D600B6801934FF480330199F9
:10B02000C6F80433BFF34F8FB8F1000F54D13D4B36
:10B030003E4D3F494FF48030C3F80803002028609C
:10B040002D680395039D086009680291012102980B
:10B05000C3F80413D3F804353049DB1B23F07F45D4
:10B06000954228BF15464FF40033012DC1F88031B9
:10B0700011D827D0A3685BB1EFF3108372B6274ACB
:10B0800021681160616851600022A26003B962B654
:10B0900004B0BDE8F081681EFFF7D2F8254BDB68ED
:10B0A000DA010FD5244A1368DB070BD5234B51680F
:10B0B00003FB05F5A5F57425A5F51075AD0A01EBA3
:10B0C00085155560FFF7C4F80028D3D01C4B4FF00E
:10B0D00080525A6040BFCDE7F1EE103A23F09F0353
:10B0E000E1EE103AF1EE103A0C4B04A84021C3F8FF
:10B0F000841100F8045DFFF7FBFE9DF80C1039B9D0
:10B1000020BFD3F80001D3F804110143F8D08EE733
:10B11000FFF7ECFE8BE700BF4845002000E100E0B0
:10B12000FC06FFBD00100140FDFFFF004011014083
:10B1300000110140F0ED00E0001000E040420F007F
:10B1400000ED00E00748006880F3088862B661B649
:10B15000BFF34F8FBFF36F8F4FF0E00080F3118884
:10B1600000DF00BF00600200064B19680868B0E805
:10B17000F04F80F30988BFF36F8F4FF0000080F32A
:10B1800011887047EC3A0020EFF30980BFF36F8F0E
:10B19000144B1A681EF0100F08BF20ED108A20E92A
:10B1A000F04F10604DF8043D4FF0400080F31188DF
:10B1B000BFF34F8FBFF36F8FFFF732FA4FF00000EE
:10B1C00080F3118808BC19680868B0E8F04F1EF0D9
:10B1D000100F08BFB0EC108A80F30988BFF36F8F9F
:10B1E000704700BFEC3A0020704700BF0A490B4A85
:10B1F0000B4B9B1A03DD043BC858D050FBDC0948BD
:10B2000009494FF0AD32026004300439FBD100F03F
:10B21000C3F8FBF71DF80000940A03000036002075
:10B220001838002000F8002000080000FEE7FEE7C4
:10B23000FEE7FEE7FEE7FEE7FEE7FEE7FEE7FEE7E6
:10B2400008B5FBF715FB0E4B43B10E4B7BB1FBF77B
:10B250005BF800F027FAFDF78BFDF8E7FBF754F8F1
:10B2600000F020FAFBF750F800F01CFAF6E7FBF7C5
:10B270004BF800F017FAFBF747F800F013FAF6E77F
:10B2800000000000718D020000B583B000F07EFB6D
:10B29000FDF79CF90E4B019301234FF480620D4999
:10B2A00000930D480023FEF7E5FD4FF4407000F0D9
:10B2B00049FBFEF751FFBFF34F8F0849084BCA689F
:10B2C00002F4E0621343CB60BFF34F8F00BFFDE792
:10B2D000803E00207C06030041B2020000ED00E049
:10B2E0000400FA0510B50446FFF722FB01282046AA
:10B2F00003D0BDE8104000F019BFBDE8104002F0D7
:10B300001DBC00BF10B50446FFF712FB0128204604
:10B3100003D0BDE8104000F009BFBDE8104002F0C6
:10B320000DBC00BF10B50446FFF702FB0128204604
:10B3300003D0BDE8104000F00BBFBDE8104002F0A4
:10B3400005BC00BF10B50446FFF7F2FA01282046FD
:10B3500003D0BDE8104000F0FBBEBDE8104002F095
:10B36000F5BB00BF084A094908B51368184488426C
:10B3700002D81060184608BD02F0A2FB0C2303603F
:10B380004FF0FF33184608BD0836002000F80020B3
:10B39000FEF748BFFEF7ECBFAB4B1B685A1C30B43E
:10B3A00000F0D080A94A1268062B00F0C080A84B9C
:10B3B0001B78062B00F0B080A34B1B685D1C00F0CF
:10B3C000A480A24A1268062B00F09480A04B1B7840
:10B3D000062B00F082809C4B1B685C1C76D09B4A3D
:10B3E0001268062B65D09A4B1B78062B4CD0964BD7
:10B3F0001A68501C13D0954B062A1B6817D0954A23
:10B40000D2F8883043F47003C2F88830BFF34F8F0E
:10B41000BFF36F8F904B914A1A6030BC70478C49D4
:10B420008F4B09781B680629C3F3031312D1053B20
:10B43000012B40F28E80511C40F0F780844A884BEB
:10B4400012781B68062AC3F30313D8D1033B032BDE
:10B4500040F2C9807E4B1B78062BD0D1804B1B68F5
:10B460004FF0FF32C3F30313033B032B40F2CB80B7
:10B47000764B1B68062AC2D1062BC0D1794A1368C5
:10B4800043F480631360BAE7754B1B68C3F303137F
:10B49000032BACD1744D75482B60754C7549764AB9
:10B4A00005230360012500203F2325600860136009
:10B4B0009DE7033A032A96D84FF080430022C3F851
:10B4C0000C21C3F81021C3F838258CE7644A604B7F
:10B4D00012681B78C2F3031283E7614B1B68C3F346
:10B4E0000313032B7FF477AF644AD36823F0807390
:10B4F000D36070E7033A032A3FF668AF604B614AB6
:10B500001B68C3F34233136060E7554A504B12681F
:10B510001B78C2F3031256E7514B1B68C3F30313A6
:10B52000032B7FF449AF584B584A1A6044E7033A5B
:10B53000032A3FF63CAF564B564A1B68C3F304231D
:10B54000136034E7464A424B12681B78C2F3031279
:10B550002AE74FF08052504BD2F80414C3F820155C
:10B56000D2F80814C3F82415D2F80C14C3F828151F
:10B57000D2F81014C3F82C15D2F81414C3F83015EF
:10B58000D2F81814C3F83415D2F81C14C3F84015B7
:10B59000D2F82014C3F84415D2F82414C3F848157F
:10B5A000D2F82814C3F84C15D2F82C14C3F850154F
:10B5B000D2F83014C3F85415D2F83414C3F8601517
:10B5C000D2F83814C3F86415D2F83C14C3F86815DF
:10B5D000D2F840141C48C3F86C15D2F84414026821
:10B5E000C3F8701527E72D4B174A1B6812682C49C2
:10B5F00003F04F030B60531C1FD1154B1B78062B18
:10B600007FF4FDAE2AE74FF08041D1F8003413F00B
:10B61000010F0E4B01D11B682CE70B4A1B68126807
:10B620006FF00100C1F8000424E7084B062A1B68EC
:10B630007FF4E5AE033B032BD5D9044B062A1B68E8
:10B640007FF4DDAE10E700BF3001001034010010C0
:10B65000E00F00F000ED00E00C3600200090D00379
:10B66000E80F00F03C170040A005004010560040D5
:10B67000885600401856004014560040F0ED00E097
:10B68000440200103C05004074C007400DF0ADBA04
:10B69000240300104035014000C000405802001053
:10B6A000E40E0040044B4FF080525A6040BFBFF39D
:10B6B0004F8FBFF36F8F704700ED00E0704700BF02
:10B6C000704700BF044B036010B46423034C0C604C
:10B6D00013605DF8044B7047843E0020D83E002084
:10B6E000054B036010B44FF48073044C0C6013607E
:10B6F0005DF8044B704700BF68400020BC4000204C
:10B7000070B5274E84B04FF0FF3203A93068FDF7C3
:10B71000DBFE0028F7D0039C237A6568052B0CD844
:10B72000DFE803F02F322A241D03D4E90523D4E9EE
:10B730000301E4690094A847039C25683DB1FFF725
:10B74000F7F80128284626D000F002FD039CFFF7F9
:10B75000EFF8012820461BD000F0FAFCD3E7D4E92B
:10B760000523D4E90301A847039CE6E7D4E90412C2
:10B77000E068A847039CE0E7D4E90301A847039CDD
:10B78000DBE7A847039CD8E7E068A847039CD4E719
:10B7900002F0DCF9B7E702F0D9F9039CD7E700BF64
:10B7A000C04400202DE9F0432D4B2E4C5B6885B042
:10B7B000C3F30803019001AF2068002B44D000239D
:10B7C00039461A46FDF7DAFD01283AD0DFF89880AD
:10B7D000D8F80000002240000421FDF77BFB06465C
:10B7E00078B3DFF88890D9F80000FEF7BDFBFFF7CB
:10B7F00069FB02E03046FDF7AFFB002203A9206899
:10B80000FDF762FE00230546642203A90028F1D15A
:10B810002068FEF797F92660FFF75EFBD9F8000075
:10B82000FEF754FCD8F800300D4A20685B00C8F8D9
:10B8300000305368C3F30803394653B96422FDF757
:10B840008BFB05B0BDE8F08339466422FDF784FB2D
:10B85000BAE72B462A46FDF791FD05B0BDE8F08317
:10B8600000ED00E0C0440020BC440020C44400209F
:10B870002DE9F8439DF8205006460F46914698461C
:10B88000F5B1FFF755F8AC000C34012820461DD067
:10B8900000F04CFC0446F4B10023C4F80490257277
:10B8A000236006B1D7B92DB1AA00414604F10C00BE
:10B8B00002F054F92046FFF775FF0120BDE8F88338
:10B8C000FFF736F8102401282046E1D102F036F9BE
:10B8D0000446002CE0D12046BDE8F883FFF728F8A5
:10B8E000012838461DD000F021FC8146C4F80090A4
:10B8F000B9F1000F19D03A464846314602F02EF908
:10B90000002DD7D0691EC9B208EB8101A8F104034C
:10B9100053F8042FB24204BF22681A609942F7D14B
:10B92000C2E702F00BF98146E0E7FFF701F80128D2
:10B93000204603D000F00CFC4846BFE702F006F9B1
:10B940004846BBE730B540230B4D83B00446002288
:10B95000184604212B60FDF7BDFA084B0849186012
:10B960000223CDE90031A2B2002306490648FEF7C2
:10B9700081FA03B030BD00BFBC440020C0440020A9
:10B98000C44400208406030001B70200134A144B8C
:10B99000D2F84025134910B41A604FF080430122B9
:10B9A0004FF40030C3F818259A60C1F88000BFF347
:10B9B0004F8FBFF36F8F4FF0A04003F588334FF4E4
:10B9C00080314FF0FF34C3F84813C3F808135A60AE
:10B9D0009A60C0F808455DF8044B704700A000402D
:10B9E000C844002000E100E02DE9F0473E4D3F4F04
:10B9F000DFF800E1C2B22B4605F10C0C53F8044B02
:10BA0000BFF35B8F6468BFF35B8FBC4220D09C4563
:10BA1000F4D1364F8846064600245FFA80F955F87F
:10BA20002430BFF35B8F5B68BFF35B8FBB4227D0D3
:10BA30000134032CF3D12D4F0024394655F824004E
:10BA400000F0C4FA68BB0134032CF6D1BDE8F087DE
:10BA500053F8048C1EF82240D8F80060D6F86095A0
:10BA6000A1453DD0D6F864954C453BD0D6F86895B5
:10BA70004C452CD0D6F86C65B442C8D1032327E0DE
:10BA8000494655F8240000F0A9F90028D0D01FFA43
:10BA900088F2494655F824000023BDE8F04700F03D
:10BAA00045BA134B55F824001978F6B200F080F926
:10BAB000314655F8240000F091F931461FFA88F21A
:10BAC00055F824000023BDE8F04700F02FBA022308
:10BAD0008AB240461946BDE8F047002300F0F0B9AD
