:020000022000DC
:106000000000012099AD0200D9AD0200DBAD020015
:10601000DDAD0200DFAD0200E1AD020000000000D6
:1060200000000000000000000000000015AD0200AC
:10603000E5AD02000000000035AD0200E9AD020050
:10604000EBAD0200EBAD0200218C020001730200F7
:10605000EBAD0200EBAD0200EBAD0200EBAD0200D8
:10606000EBAD0200EBAD0200EBAD0200EBAD0200C8
:10607000EBAD0200EBAD0200EBAD0200EBAD0200B8
:10608000EBAD0200A1AA0200EBAD0200EBAD0200F5
:10609000EBAD0200EBAD0200EBAD0200EBAD020098
:1060A000EBAD0200EBAD0200EBAD0200EBAD020088
:1060B000EBAD0200EBAD02000000000000000000AC
:1060C000EBAD0200EBAD0200EBAD0200EBAD020068
:1060D000EBAD0200EBAD0200EBAD020000000000F2
:1060E00000000000000000000000000000000000B0
:1060F00000000000000000000000000000000000A0
:10610000000000000000000000000000000000008F
:10611000000000000000000000000000000000007F
:10612000000000000000000000000000000000006F
:10613000000000000000000000000000000000005F
:10614000000000000000000000000000000000004F
:10615000000000000000000000000000000000003F
:10616000000000000000000000000000000000002F
:10617000000000000000000000000000000000001F
:10618000000000000000000000000000000000000F
:1061900000000000000000000000000000000000FF
:1061A00000000000000000000000000000000000EF
:1061B00000000000000000000000000000000000DF
:1061C00000000000000000000000000000000000CF
:1061D00000000000000000000000000000000000BF
:1061E00000000000000000000000000000000000AF
:1061F000000000000000000000000000000000009F
:10620000F1EE103A43F08073E1EE103A704700BFB0
:1062100010B5054C237833B9044B13B10448AFF3E0
:1062200000800123237010BD1838002000000000FA
:106230008804030008B5034B1BB103490348AFF3BF
:10624000008008BD000000001C3800208804030006
:10625000154B002B08BF134B9D46A3F5803A002138
:106260008B460F461348144A121A07F088F90F4B51
:10627000002B00D098470E4B002B00D098470020F1
:10628000002104000D000D48002802D00C48AFF397
:10629000008007F035F92000290004F0CBFD07F05D
:1062A0001BF900BF000008000000012000000000F2
:1062B00000000000183800204C45002000000000BD
:1062C0000000000000207047F8B572B106460C4689
:1062D0008F180025336814F8011B1B683046984757
:1062E000A7420544F6D12846F8BD15462846F8BD14
:1062F00090ED000B704700BF08B5006806F03CFD4C
:1063000041EC100B08BD00BF2DE9F04F2DED028BC5
:10631000B94C8FB002F0E0FC2368B84900228342F8
:106320008246A1F84C200DD0B548B64D01F080FC56
:106330000721B34801F0EEF806F00EFDC5E90001B3
:10634000C4F800A01C2005F0DDF85023009340F2B3
:10635000FF321923002102F0B1FC06F00DFDAA4F17
:10636000AA4DC7E9000105F120062C46032005F0DF
:10637000C9F844F8040FA642F8D1A54E9FEDA56ACE
:10638000D6ED007A96ED027ADFF8B892F8EEE76A79
:10639000D6ED017AF8EEE77AB8EEC77A76EEA76A1C
:1063A000D6ED037A37EE267AF8EEE77AD6ED046A70
:1063B00077EE877AF8EEE66A96ED057A76EEA77ABA
:1063C000F8EEC76A96ED067A76EEA76AB8EEC77A57
:1063D000D6ED077A37EE267AF8EEE77AB7EE008A3E
:1063E00077EE877A86EE270A30EE480A88EE000AB2
:1063F00006F0ACFADFED887A60EE277A17EE900AA5
:1064000006F0CCFC78A3D3E9002306F069FB06F084
:10641000FFFF07EE900AC8EE277A17EE900A06F003
:10642000BDFC73A3D3E9002306F058FB06F0F0FF90
:1064300006F0B4FC794B1B78C9E90001002B40F051
:106440000781DFF804B29BED007B8DED027B51EC00
:10645000170B06F095FF0023642219460092FF22D5
:1064600002F02CFC06F088FC97ED007B6C4BDFF80B
:10647000DC81C3E9000188ED007B032005F042F8D0
:1064800045F8040FA542F8D1D6ED017AD6ED056A9C
:1064900096ED067ADFED5F4A624D634CB8EEE76A2F
:1064A000D6ED007AF8EEE75AD6ED027A36EE256A96
:1064B000B8EEE75AD6ED037A35EE065AF8EEE75A0B
:1064C00096ED046AD6ED077A584E75EE855AB8EE09
:1064D000C66AF8EEE66A36EE256AB8EEC77A76EE58
:1064E000866AF8EEE77A37EE267AB7EE008A77EE1C
:1064F000877A84EEA70A30EE480A88EE000A06F092
:1065000025FADFED457A60EE277A17EE900A06F05D
:1065100045FC35A3D3E9002306F0E2FA06F078FF44
:1065200007EE900AC8EE277A17EE900A06F036FCBE
:106530002FA3D3E9002306F0D1FA06F069FF07EE96
:10654000900AFDEEE77AD9E90023C5ED007AD7E994
:10655000000106F0C3FA2368AAEB0303632BC6E924
:10656000000130D93249254801F08AFF98ED000B2F
:106570000221224802F032F82E49204801F080FF23
:106580001E482D494FF420630646A0F84C3001F018
:1065900077FF0A222968304601F084FF25493046FA
:1065A00001F06EFF4FF4A0532449A6F84C3030465A
:1065B00001F066FF134B304693ED000B022102F011
:1065C0000DF8C4F800A01E4800F016FCDBE900013D
:1065D00006F0FEFE014610200FB0BDEC028BBDE8B8
:1065E000F04F04F007BF00BF83DBB5DCE1796B3F00
:1065F0006666666666127140DC3800200439002049
:10660000603800203838002058380020E03800205A
:10661000E438002000C0FF452CBB843988380020B6
:106620005839002068390020E038002070390020F7
:106630001CF7020028F702002CF7020038F70200CE
:10664000C838002048380020503800206039002029
:10665000DFF8488102F040FB494AD8F80030126860
:106660000990C31A9342FFF6ECAE99ED007BD7E98F
:10667000000153EC172B8DED067B06F02FFA414BF2
:10668000DFF81CB1D3E90023CDE90A0106F0DEFBF7
:10669000DBE9002306F024FA3B4B93ED007B8DED04
:1066A000047BCBE90001DDE90423CDE9020106F01A
:1066B0005DFE002850D09DED047B8BED007B8DEDC1
:1066C000027B324BDFF8DCB0D3E90023DDE90A01BD
:1066D00006F0BCFB2E4BCDE90A01D3E90023DDE92E
:1066E000060106F0FBF92B4BD3E9002306F0AEFBC5
:1066F00002460B46DDE90A0106F0F0F9DDE9022366
:1067000006F0EEF902460B4643EC172BDDE90401D7
:106710008BED007BCDE9022306F00AFE58B91E4B33
:1067200093ED007BDDE9020153EC172B8DED047B2B
:1067300006F0FEFD28B19DED047B8BED007B8DED19
:10674000027B9DED067B124B83ED007B099BC8F815
:106750000030DDE902017CE60F4B93ED007BDDE9C3
:10676000020153EC172B8DED0C7B06F0E1FD0028A8
:10677000A7D09DED0C7B8BED007B8DED027BA0E720
:106780000436002098380020B8380020A0380020B7
:10679000A838002090380020C0380020B0380020F1
:1067A000403800205038002070B5174C174E184D57
:1067B00082B0204600F04EFE32462046154906F0D3
:1067C000BFF8154A154B164900911446002144F8AC
:1067D000083B51602046A2F84C10124B124A134954
:1067E00001F01EFEFF231A461946204601F00CFB5D
:1067F000284600F0A5F90E493246284602B0BDE809
:10680000704006F09DB800BF6038002000360020C0
:10681000C8380020657402000439002010F7020017
:10682000F17C0200197E020011810200DD8102006C
:10683000596B0200000000002DE9F04F4FF4E131E8
:1068400087B09948DFF8E0A201F0F0FF974800F028
:10685000C5FB8FA7D7E90067DAE90045944A954B55
:106860004FF000084FF00009C2E90089C3E9006752
:106870002046294632463B4606F078FD002800F0C7
:10688000DA80CAE9006734463D46DFF8A0A20FF27D
:106890000029D9E90089DAE9006742464B463046CB
:1068A000394606F063FD50B94FF000084FF000097B
:1068B0003046394642464B4606F03AFD08B1CAE931
:1068C00000897D4BDFF868921868DFF868B206F03F
:1068D00053FA7A4B4FF00008C3E900896EA3D3E95D
:1068E000002306460F4606F0B1FADFF84C82DFF8C7
:1068F0004C923B46CBE90001324669A1D1E9000147
:1069000006F0CEFB98F80030C9E90001002B00F03A
:10691000A0806B4A6B4D6548012300243921C2E9F0
:10692000004588F8003000F029FC00235F4A6648E3
:10693000392100F099FDFE21634801F07DF9002125
:10694000614801F08DF908215F4801F09FF95E4828
:1069500000F0F0FE5D4801F01DFD5C4801F04CFDCB
:1069600000215A4801F020FD5949584801F0DCFA4D
:10697000584800F0CFFA502004F09AFA0546044631
:1069800000F150062046103400F0B8FAA642F9D1C2
:1069900002AC514B00932046504B514A5149524E44
:1069A000524F00F0AFFA94E80F00009685E80F0010
:1069B00020464A4B4E4A4F4900F0A4FA94E80F0093
:1069C00005F11006009786E80F0020464A4B4B4A17
:1069D0004B494C4F00F096FA94E80F0005F1200661
:1069E000009786E80F0020463C4B474A4749484FEE
:1069F00000F088FA94E80F0005F13006009786E869
:106A00000F002046354B434A434900F07BFA94E897
:106A10000F004FF4487705F14004002684E80F008A
:106A200001972A46009605233C492A4800F0B8F809
:106A300007B0BDE8F08F42464B462046294606F097
:106A400077FC00283FF421AFCAE9008944464D464F
:106A50001BE7334A334BD2E900010DA7D7E90067A2
:106A6000C3E9000132463B462046294606F07EFC3B
:106A700058B9002600272046294632463B4606F0F4
:106A800057FC10B9CAE9004543E7CAE9006740E787
:106A90000000000000E06F402D431CEBE2364A3F4F
:106AA000000000000070B740383A0020783900201C
:106AB000C0380020B838002004360020A03800205C
:106AC0005838002000003E40603800200C3900207B
:106AD000A8F80200C838002050F70200F162020056
:106AE0005839002040F7020064F7020074F70200F2
:106AF0006039002058F70200F9620200683900206E
:106B00006CF7020084F70200703900207CF7020065
:106B100098F70200383800208CF70200A0F7020036
:106B200048380020A8380020503800204038002085
:106B3000000022409838002088380020903800203B
:106B400010B50023C0E9033303608360044602F0FC
:106B5000C3F86060204610BD70B5C468256806465D
:106B600055B91BE0184604F0C3F9204604F0B0F90B
:106B70002B6853B12C461D4663692046002BF1D18A
:106B800004F0A6F92B68002BF4D1686908B104F071
:106B9000AFF9284604F09CF9304670BD2546F4E76D
:106BA0002DE9F042044618200D4617461E469DF872
:106BB000189004F06DF90799E2688660002380F868
:106BC0000490C0E903154761036052B1236918605E
:106BD000206123680133236002F07EF86060BDE825
:106BE000F082C4E90300F4E72DE9F0410C460546C4
:106BF0007049714801F044FC64BB6F486F49704FA5
:106C0000064601F03DFC6F49304601F039FC6E4903
:106C1000304601F035FCAB6800249C4214DA6B6905
:106C200003EB0413D3E9020290470821304601F038
:106C3000D5FCAB6801349C42EFDA3946304601F0AE
:106C40001FFCAB689C42EADB60495B48BDE8F04151
:106C500001F016BC58485949DFF8648106460F46D2
:106C600001F00EFC5A49304601F00AFC5949304601
:106C700001F006FC3946304601F002FC2969304635
:106C800001F0FEFB3946304601F0FAFB524930462E
:106C900001F0F6FB5149304601F0F2FB4D49304618
:106CA00001F0EEFB0A222979304601F0FBFB4A494C
:106CB000304601F0E5FB4A49304601F0E1FB454929
:106CC000304601F0DDFB0A22E968304601F0EAFBBC
:106CD0004149304601F0D4FB4249304601F0D0FB37
:106CE0003C49304601F0CCFB0A22A968304601F04D
:106CF000D9FB3949304601F0C3FB3B49304601F02E
:106D0000BFFB3149304601F0BBFBAB6800249C421D
:106D10003946304618DA01F0B3FB23016A69304680
:106D2000D15801F0ADFB3946304601F0A9FBAB6804
:106D300001349C42EBDA4146304601F0A1FBAB68DE
:106D40009C4239463046E6DB1B4828491B4FDFF89A
:106D50007080064601F094FB2549304601F090FB17
:106D60001949304601F08CFBAB6800249C4239463F
:106D7000304619DA01F084FB6B6903EB04133046EB
:106D8000596801F07DFB3946304601F079FBAB686C
:106D900001349C42EADA4146304601F071FBAB68AF
:106DA0009C4239463046E5DB1249034801F068FB56
:106DB00023E700BFB8F70200383A0020BCF7020012
:106DC000E0F70200F0F70200DCF70200F4F702003F
:106DD000C0F70200C4F70200C8F70200CCF70200B7
:106DE000D0F70200D4F70200D8F70200E4F702005F
:106DF000E8F70200ECF702002DE9F04106463349BE
:106E00003348B46801F03CFB3249314801F038FBAB
:106E100031492F4801F034FB01F05EFFB4FA84F5EC
:106E200001460A222A486D0901F0AAFB5CB32B49EE
:106E3000274801F025FB2A49254801F021FB294973
:106E4000234801F01DFBF4686CB1DFF8AC80204FE3
:106E500020462946FFF7C8FE24684146384614B14B
:106E600001F00EFBF4E72049194801F009FB1F4926
:106E7000174801F0C9FBB3680133312BC8BF0023A9
:106E8000B360BDE8F0811549114801F0F9FA1849DD
:106E90000F4801F0F5FA10490D4801F0F1FA0A2205
:106EA00031680B4801F0FEFA0C49094801F0E8FA94
:106EB0001049074801F0E4FA0749054801F0E0FAF3
:106EC0000A227168024801F05BFBB0E7A4F70200F8
:106ED000383A0020C0F70200C4F70200C8F70200E9
:106EE000B0F70200DCF70200F4F70200B4F702008A
:106EF000A8F70200ACF70200E0F702000022C0E9A8
:106F00000222704730B4029D45600160C0E902234F
:106F100030BC704710B54FF4E1310446034801F02E
:106F200085FC01F0D9FE606010BD00BF383A00203A
:106F3000704700BF203001F0A9BB00BF203001F036
:106F400097BB00BF203001F0A7BB00BF38B5437F1F
:106F50000BB9002038BD00F1680420460D4601F051
:106F6000A3FB0028F5D12046294601F06FFB012044
:106F700038BD00BF2DE9F0475AB30646DFF8588008
:106F800033681B684D1E434517464FF0000400F15F
:106F9000680915F801AF16D1737F13B92046BDE813
:106FA000F087484601F080FB0028F7D1514648465B
:106FB00001F04CFB0134A742F0D0336815F801AF63
:106FC0001B684345E8D05146304698470028F1D128
:106FD000E4E71446E2E700BF4D6F020030B4827E62
:106FE0004FF0A04302F5E07240F20C640121C1763B
:106FF00043F82240427E02F5E0724FF0CC7543F830
:1070000022400369C3F8245503690622C3F800250A
:107010000369827EC3F808250369427EC3F80C2504
:1070200090F91830002B13DA124A03F00F031A44B8
:107030006023137690F91830002B07DB0E4903F01C
:107040001F0001225B09824041F8232030BC7047B9
:107050005C09603403F01F03074A01FA03F342F8A6
:10706000243090F91830002BDEDB1344602283F8C3
:107070000023DFE7FCEC00E000E100E0C37EE3B1C9
:107080000E4B026910B499424FF00004C2F800455B
:1070900010D90B4B994294BF4FF080614FF0C861FB
:1070A00003695DF8044BC3F8241503690622C3F88D
:1070B000002570474FF0CC71F2E77047A0860100C1
:1070C00090D003000AB9104670472DE9F0410546FB
:1070D00000F12008404614461E460F4601F0C4FA4F
:1070E0002B69C3F888752A69012313622A69C2F8DB
:1070F00034852A69C2F838452A6913602A6902E092
:10710000D2F824311BB9D2F84C110029F8D0002351
:10711000C2F84C312A6902E0D2F8241119B9D2F828
:107120005C110029F8D00023C2F85C312B696EB9DC
:10713000D3F8242152B90122DA612A69D2F8483100
:10714000002BFBD00023C2F8483109E001225A612C
:107150002A69D2F80431002BFBD00023C2F8043195
:107160002B69D3F824211AB10022C3F824212B69FA
:10717000D3F83C052866C0B2BDE8F08110B50446DE
:10718000683084F8B01001F06FFA0123637710BD06
:10719000F8B504460020236994F8B0206077C3F85E
:1071A0008825236901271F62236904F16806C3F853
:1071B000446530460D4601F069FA2369C3F8480575
:1071C00023699F60236902E0D3F824211AB9D3F818
:1071D0005021002AF8D00022C3F85021304601F097
:1071E00055FA236940BB0022C3F86021236915B911
:1071F000D3F824212AB301225A612269D2F804313A
:10720000002BFBD00023C2F804312369D3F82401FA
:1072100068B10022C3F824212369D3F8C404C3F859
:10722000C404022803D0042814BF04200320F8BD9E
:10723000D3F82421002AD6D1D3F86021002AF7D030
:10724000D1E70122DA612269D2F84831002BFBD064
:107250000023C2F84831D8E770B5036990F8B02030
:1072600000214177C3F88825036901261E6203695E
:1072700000F168050446C3F84455284601F006FAB3
:107280002369C3F8480523699E60236902E0D3F8A7
:1072900024211AB9D3F85021002AF8D00022C3F8CB
:1072A0005021284601F0F2F9236918BB0022C3F8E7
:1072B0006021236901225A612269D2F80431002B2E
:1072C000FBD00021C2F804112369D3F8240160B176
:1072D000C3F824112369D3F8C404C3F8C4040228F2
:1072E00003D0042814BF0420032070BDD3F8242148
:1072F000002ADBD1D3F86021002AF7D0D6E700BFFF
:1073000070B5294C6369D3F86421002A3AD1D3F8C7
:107310006821E2B9D3F8042162B1227F0021C3F8C9
:1073200004113AB1D4F8B820D3F83C0520660AB16C
:1073300090476369D3F8242142B10022C3F8242185
:10734000D3F8D024C3F8D02401225A6170BD0022A2
:10735000C3F86821154822770123637701F084F987
:10736000D4F8B43003B1984763691048C3F84405B2
:107370000023637701F08AF963690122C3F84805A5
:107380005A63C7E7002204F12006C3F864210125EF
:107390003046257701F068F963694022C3F8346507
:1073A000C3F838251D63B2E778390020E0390020A2
:1073B00038B50E4C0E4A20464FF47A7340F8202B15
:1073C0000025C4E9015301F037F904F1680001F028
:1073D00033F9084A084B6577D2E919120320207661
:1073E0006176A276C4E9043338BD00BF7839002045
:1073F00000F80200ACFF020000300040F0B591B090
:1074000001240025816801942346922206460095B6
:1074100004A804F041FC04A804F0B4FC10EA04073A
:1074200002D0284611B0F0BDB1682346CDE9007402
:107430000AA8802204F030FC0AA93B46224602A892
:1074400004F044FD214602A804F0B6FD204611B028
:10745000F0BD00BF024A02600022027182607047E4
:1074600024F80200704700BF2DE9F041044680680F
:1074700090B00E461746984608B103F029FD10203B
:1074800003F006FD3A460546314604F07FFEA5604E
:107490002846012104F084FE054618B9284610B09C
:1074A000BDE8F08123681A4A1B6893422AD101265D
:1074B0000027A16801963346922204A8009704F0A1
:1074C000EBFB04A804F05EFC10EA060804D03D467D
:1074D000284610B0BDE8F081A1683346CDE90086AA
:1074E0000AA8802204F0D8FB0AA94346324602A823
:1074F00004F0ECFC314602A804F05EFD284610B012
:10750000BDE8F0814146204698470546C6E700BFE2
:10751000FD73020000EB41018889704770B588B0A7
:10752000002401250646816801952B46224602A8C3
:10753000009404F0B1FB224602A8302104F0BCFB09
:10754000B1682B462A46CDE9004502A804F0A4FB09
:107550002246294602A804F0AFFBB1682B46CDE9CC
:10756000004502A8022204F097FB2246214602A809
:1075700004F0A2FBB1682B46CDE9004502A8032226
:1075800004F08AFB2246214602A804F095FBB1686C
:107590002B46CDE9004502A8042204F07DFB2246DB
:1075A000214602A804F088FBB1682B46CDE90045CE
:1075B00002A8052204F070FB224602A8422104F032
:1075C0007BFBB1682B46CDE9004502A8062204F0FA
:1075D00063FB2246214602A804F06EFBB1682B46ED
:1075E000CDE9004502A8072204F056FB22462146B9
:1075F00002A804F061FBB1682B46CDE9004502A862
:10760000082204F049FB224602A8502104F054FB52
:10761000B1682B46CDE9004502A8092204F03CFBE5
:107620002246214602A804F047FBB1682B46CDE96B
:10763000004502A80A2204F02FFB2246214602A898
:1076400004F03AFBB1682B46CDE9004502A80B22B5
:1076500004F022FB2246214602A804F02DFBB1686B
:107660002B46CDE9004502A80C2204F015FB22466A
:1076700002A8202104F020FBB1682B46CDE900458B
:1076800002A80D2204F008FB224602A8042104F0FF
:1076900013FBB1682B46CDE9004502A80E2204F089
:1076A000FBFA2246214602A804F006FBB1682B46ED
:1076B000CDE9004502A80F2204F0EEFA224602A806
:1076C000302104F0F9FAB1682B46CDE9004502A853
:1076D000102204F0E1FA2246294602A804F0ECFA4E
:1076E000B1682B46CDE9004502A8112204F0D4FA76
:1076F000224602A8502104F0DFFAB1682B46CDE9FA
:10770000004502A8122204F0C7FA2246214602A828
:1077100004F0D2FAB1682B46CDE9004502A8132245
:1077200004F0BAFA224602A8062104F0C5FA08B00D
:1077300070BD00BF70B58AB001240026816880F852
:1077400024600546234601948022009604A804F094
:10775000A3FA2346224604A902A804F0B7FB314647
:1077600002A804F029FCA9682346CDE90064AF22F1
:1077700004A804F091FA0323022204A902A804F049
:10778000A5FB022102A804F017FC2846FFF7C6FE5D
:10779000A9682346CDE90064802204A804F07CFA9D
:1077A000224604A9042302A804F090FB214602A863
:1077B00004F002FC40F2E93405E0013C4FF0010026
:1077C00006D001F095FA02A804F088FB0028F4D155
:1077D00001240022A968009223460194802204A873
:1077E00004F05AFA2346224604A902A804F06EFBCC
:1077F000214602A804F0E0FB204685F824400AB0A8
:1078000070BD00BF70B588B00024012506468168B0
:1078100001952B46224602A8009404F03DFA224628
:10782000214602A804F048FAB1682B462A46CDE961
:10783000004502A804F030FA2246214602A804F0CE
:107840003BFAB1682B46CDE9004502A8022204F0BC
:1078500023FA2246214602A804F02EFAB1682B46EC
:10786000CDE9004502A8032204F016FA224602A838
:10787000402104F021FAB1682B46CDE9004502A869
:10788000042204F009FA224602A8022104F014FAA4
:10789000B1682B46CDE9004502A8052204F0FCF9A9
:1078A0002246214602A804F007FAB1682B46CDE92A
:1078B000004502A8062204F0EFF9224602A8102192
:1078C00004F0FAF9B1682B46CDE9004502A8072279
:1078D00004F0E2F9224602A8032104F0EDF9B168B0
:1078E0002B46CDE9004502A8082204F0D5F922462E
:1078F00002A8502104F0E0F9B1682B46CDE900451B
:1079000002A8092204F0C8F9224602A8102104F0B6
:10791000D3F9B1682B46CDE9004502A80A2204F04C
:10792000BBF9224602A8032104F0C6F9B1682B4630
:10793000CDE9004502A80B2204F0AEF9224621460B
:1079400002A804F0B9F9B1682B46CDE9004502A8B8
:107950000C2204F0A1F92246214602A804F0ACF959
:10796000B1682B46CDE9004502A80D2204F094F938
:107970002246214602A804F09FF9B1682B46CDE9C2
:10798000004502A80E2204F087F9224602A824210D
:1079900004F092F9B1682B46CDE9004502A80F2208
:1079A00004F07AF92246214602A804F085F9B1686C
:1079B0002B46CDE9004502A8102204F06DF92246BD
:1079C000214602A804F078F9B1682B46CDE90045BC
:1079D00002A8112204F060F9224602A8502104F006
:1079E0006BF9B1682B46CDE9004502A8122204F0DC
:1079F00053F92246214602A804F05EF9B1682B46ED
:107A0000CDE9004502A8132204F046F9224602A857
:107A1000062104F051F908B070BD00BF2DE9F04116
:107A2000836890B0012400270546019480220E4609
:107A30000AA819460097234604F02EF92346224649
:107A40000AA904A804F042FA394604A804F0B4FADA
:107A5000A9682346CDE90074AF220AA804F01CF9F6
:107A6000032302220AA904A804F030FA022104A880
:107A700004F0A2FA2846FFF751FDA9682346CDE994
:107A8000007480220AA804F007F922460AA90423F8
:107A900004A804F01BFA214604A804F08DFA40F271
:107AA000E93405E0013C4FF0010006D001F020F977
:107AB00004A804F013FA0028F4D101240027A968CF
:107AC00001942346802200970AA804F0E5F8234693
:107AD00022460AA904A804F0F9F9214604A804F0F2
:107AE0006BFAB84602E0012001F002F9A96801230F
:107AF000A322CDE900840AA804F0CEF806230122CF
:107B00000AA904A804F0E2F904A804F0E7F900289F
:107B1000E9D0A9680223CDE90084952204A804F0E5
:107B2000BBF80C22314604A804F094F9A96801239B
:107B3000CDE90084802207460AA804F0ADF80123AD
:107B40001A460AA902A804F0C1F9002102A804F00B
:107B500033FAA9680123CDE90084AF220AA804F012
:107B60009BF8032302220AA902A804F0AFF902211C
:107B700002A804F021FA2846FFF744FEA968012371
:107B8000CDE9008480220AA804F086F804230122AB
:107B90000AA902A804F09AF902A8012104F00CFA3B
:107BA00040F2E93405E0013C4FF0010006D001F05D
:107BB0009FF802A804F092F90028F4D101244FF0B4
:107BC0000008A96801942346CDF8008080220AA805
:107BD00004F062F80AA92346224602A804F076F9C6
:107BE000214602A804F0E8F902E0012001F080F843
:107BF000A9680123A322CDE900840AA804F04CF867
:107C0000062301220AA902A804F060F902A804F0E0
:107C100065F90028E9D037B106F10C0104A80C225F
:107C200004F018F90746384610B0BDE8F08100BFEF
:107C300000F10C01FFF7F2BE30B5826889B0012374
:107C400000240D46CDE90043114602A8812204F02C
:107C500023F82246294602A804F02EF809B030BDC8
:107C600030B5826889B0002401230D46CDE9004378
:107C70001146022302A8CA2204F00EF82246294621
:107C800002A804F019F809B030BD00BF30B5826811
:107C900089B0012300240D46CDE90043114602A816
:107CA000AA2203F0F9FF2246294602A804F004F8AC
:107CB00009B030BD38B50A29456A90F84D200ED07C
:107CC00004460B46083090F84410AD7800F02EF9C9
:107CD00094F84C301D4484F84C50012038BDE978AC
:107CE00000230A4480F84D2080F84C30012038BD34
:107CF00030B5A1F1280383B00546252B14D8DFE861
:107D000003F05C2A27274350131313131313131381
:107D10001313131313131313131313131313131333
:107D200013131313131330303F295FD901F03F01B0
:107D30006B1893F82C00FF280AD00F2958D9102966
:107D40005BD003F0FFFC003018BF012085F827004E
:107D5000012003B030BD104600F0CAFF012003B07F
:107D600030BD01F03F010D44019295F82C00002A2E
:107D700037D1012103F092FC019A95F82C001146AD
:107D800003F0CEFC0120E4E7002A14BF012000200C
:107D9000DED01C4B800143F001039847012003B063
:107DA00030BD184B022A8CBF80204FF4A07043F0E6
:107DB00001039847012003B030BD2B35002415F88E
:107DC000013FFF2B4FF00101184605D00F2C84BF57
:107DD0001846022103F062FC0134E4B2162CEED105
:107DE000B6E7022103F05AFC0120B2E70020B0E719
:107DF000114603F095FC0120ABE7019003F028FA4F
:107E000001989EE730F8020080F8371080F838209B
:107E100080F83930704700BF143920B505460C2969
:107E20002CD8DFE801F0122B2B071F0D2B2B2B2B4F
:107E30002B2B0B0019461248FFF79CF8012020BDA0
:107E40000F48FFF709FA012020BDAB692BB92A685A
:107E50000C4B527B03FB02F3AB610948FFF7BEF802
:107E6000012020BDA9690648FFF708F995F82410FC
:107E700003484908FFF782F9012020BD002020BDFA
:107E800078390020A0860100F0B405689DF81070D4
:107E90002E78964202D86C7894420CD20022C3E924
:107EA00000220A782AB1D3E90012C943D243C3E9B8
:107EB0000012F0BC704795F802C0EC7814FB0CF48B
:107EC000961BE2B202FB06F217FA82F292B2D200DD
:107ED00092B2161DB6B2541DAD5D1D700668A5B2F6
:107EE000941D755D5D700668A4B2D51D345D9C70EF
:107EF0000668ADB202F10804755DDD700668A4B2D3
:107F000002F10905345D1C710668ADB202F10A0484
:107F1000755D5D710568A4B20B322C5D9C710068C3
:107F200092B2825CDA71BCE7C16170472DE9F04F13
:107F300082468BB00C4607915AF81C1F8146887800
:107F4000C97817463944224600EB040801329B46A3
:107F5000CBB25FFA88F8D2B205930346904538BF9A
:107F60000123069309F1230303930023049308AE2E
:107F7000049D079C009533465A4603995046FFF7E7
:107F800083FF21460134009601233A464846E4B275
:107F900000F0E2F90135A045EDB2EBD8049B069A5A
:107FA0001344DBB201370493059BFFB2BB42DFD819
:107FB0000BB0BDE8F08F00BF10B404691346A446AF
:107FC0000A465DF8044B1721604700BF00B583B037
:107FD00002AA02F8011D0121FFF7EEFF03B05DF8D0
:107FE00004FB00BF10B404690023A4461A461821FC
:107FF0005DF8044B604700BF10B404690023A44639
:108000001A4619215DF8044B604700BF70B504465D
:1080100016460D46FFF7E6FF20464021FFF7D6FF44
:1080200033462A46204625691721A8472046BDE841
:108030007040FFF7E1BF00BF10B4C4680A46A44611
:10804000002315215DF8044B604700BF10B4C468DD
:108050000A46A446002316215DF8044B604700BF82
:1080600010B4C4681346A4460A465DF8044B1721B1
:10807000604700BF10B4C4680023A4461A46182104
:108080005DF8044B604700BF10B4C4680023A446E9
:108090001A4619215DF8044B604700BF70B50646CB
:1080A00082B00D462C78172C13D01DD90023192C23
:1080B0001A462146304626D9FE2C4FF0290120D100
:1080C0006A788DF80720023500F0A2F92C78172C79
:1080D000EBD16B788DF807300DF1070201213046A6
:1080E0000235FFF7BDFFDDE7152C4FF000032146F9
:1080F000304606D36A788DF80720F4680235A04729
:10810000D0E702B070BDF4680135A047CAE700BFF0
:1081100014392DE9F041064614461D46052958D864
:10812000DFE801F00C1A2E344B032B4F3B78002B69
:1081300049D100233B700120BDE8F08190F8243044
:108140000469FF2B04BF782380F82430A4462B4613
:108150001421BDE8F04160471F4F3B780BB1FFF79A
:108160004BFF3046FFF73EFF00213046FFF72EFF62
:1081700021463046FFF72AFF01203870BDE8F08124
:108180001146FFF723FF0120BDE8F081124F3B7835
:108190003BB11BE018213046FFF738FF183CE4B232
:1081A0001835182C2A46F5D830462146FFF72EFF01
:1081B00000233B700120BDE8F081074B00221A70BC
:1081C0000120BDE8F081FFF717FFB2E7FFF714FFCA
:1081D000E7E70020B0E700BF343A0020F8B5A1F18E
:1081E0000B07064614461D46042F04D8DFE807F0A7
:1081F00057034D3E0F00092959D00A2955D100F0E7
:108200007BF830463349FFF749FF0120F8BDFFF7FF
:1082100031FF6B7996F8227007EBC30707F0FF0771
:1082200040213046FFF708FF390941F01001304680
:10823000FFF702FF07F00F013046FFF707FFA979AC
:10824000304641F0B001FFF701FF29792A68C900E3
:1082500001F0F8013046013CFFF702FF14F0FF0483
:10826000F3D13046FFF710FF0120F8BDFFF702FF02
:1082700081213046FFF7E0FE21463046FFF7E6FE5B
:108280003046FFF701FF0120F8BDD2B91249FFF7D0
:1082900005FF33689B7C86F822300120F8BD5AB96F
:1082A0000E49FFF7FBFE0120F8BD0020F8BD0C4988
:1082B00000F01CF80120F8BD0A49FFF7EFFE01208D
:1082C000F8BD0949FFF7EAFE3368DB7C86F8223007
:1082D00001209BE748F8020038F8020080F802000D
:1082E00090F8020088F8020040F8020001608B7CE0
:1082F00080F82230704700BF38B5002304461A4684
:1083000045692821A84700231A46E568204614211C
:10831000A847204601224B2100F07AF82368204626
:108320001A79292100F074F8204600224B2100F030
:108330006FF8236820461A79292100F069F8204651
:1083400001224B2100F064F8236820465A79292144
:10835000BDE8384000F05CB830B583B002AC069D93
:1083600044F8085D8DF805108DF806208DF804306E
:108370008568234601220F21A84703B030BD00BF06
:1083800010B484680023A4461A4609215DF8044B02
:10839000604700BF10B484680023A4461A460A212F
:1083A0005DF8044B604700BF10B484680A46A446D9
:1083B00000230B215DF8044B604700BF70B582B00D
:1083C00001220368ADF804200022044600915E7C7F
:1083D0008DF8062000E023681A7CA5686B460F2103
:1083E0002046A8479DF806300133DBB2B3428DF832
:1083F0000630F0D302B070BD00B583B000236946EB
:10840000CDE90033FFF7DAFF03B05DF804FB00BFEE
:1084100010B444690023A4465DF8044B604700BFD4
:10842000F0B4FF27002580F8247080F82870049F9E
:10843000056080F8235080F8265085614FF0FF35A5
:10844000C562056345638563C563A0F84050C0E914
:108450000437C0E90212F0BCFFF792BF08B5012152
:10846000112003F01BF9112003F086F913200121DC
:1084700003F014F91320BDE8084003F07DB900BFF4
:1084800069B170B5054608460C4605F0C9FD2B6874
:108490000246214628465B68BDE8704018470846FA
:1084A000704700BFF0B50F468BB00568002A3DD07D
:1084B0000A2A04461ED100293DDB0AAE00232F48BC
:1084C00006F8043D0B46A0FB0312D20802EB820122
:1084D000A3EB4103303306F8013D1346002AF2D1E5
:1084E000304605F09DFD6B680246314620469847B0
:1084F0000BB0F0BD0AAED2B20023022A06F8043D4A
:108500002CBF10460A200A46B2FBF0F100FB1127EF
:10851000FBB2092F03F130078ABF3733FBB2DBB25E
:108520000A4606F8013D0029EED1D9E72B68C9B209
:1085300098470BB0F0BD2B682D2198470AAD00235A
:1085400006460E4805F8043D7B42A0FB0321C908FE
:1085500001EB8102A3EB4203303305F8013D0B46EA
:108560000029F2D1284605F05BFD23680246294622
:108570005B682046984730440BB0F0BDCDCCCCCCE6
:10858000F0B506688BB022B93368C9B298470BB012
:10859000F0BD0AACD2B20023022A04F8043D05461D
:1085A0002CBF10460A20B1FBF0F200FB1217FBB201
:1085B000092F03F130078ABF3733FBB2DBB2114614
:1085C00004F8013D002AEED1204605F029FD73682C
:1085D00002462146284698470BB0F0BD10B5C2B000
:1085E0000446CBB28DED000B02A8064A4FF4807111
:1085F00005F0E2FC2368024602A95B682046984722
:1086000042B010BD2C000300036870B505460C464F
:108610005E6849B1084605F003FD2146024628463A
:10862000B0472B685E680446284602220149B047DD
:10863000204470BD3400030008B54022002104F03E
:108640009EFF0022C0E9102208BD00BF10B4D0E98F
:108650001024531C03F03F039C4218BF81545DF863
:10866000044B18BF036470470023C0E91033704700
:10867000D0E91023934206D05A1CC35C02F03F029B
:108680004264184670474FF0FF307047D0E9103011
:10869000181A48BF40307047D0E91023934214BFE6
:1086A000C05C4FF0FF307047D0E91030013303F069
:1086B0003F03181AB0FA80F04009704790F8A30001
:1086C000704700BF38B590F99D30002B04460DDB94
:1086D0005A09203201211A4803F01F0301FA03F35B
:1086E00040F82230BFF34F8FBFF36F8F23694FF4F1
:1086F0008872C3F808232269012353602269D3607A
:1087000023690025C3F8005522694FF0FF33C2F8F2
:108710000C352269C2F814352269C2F8083522697D
:1087200004F11400C2F81035FFF79EFFD4F8A4003E
:1087300001F0D6F8C4F8A45084F8A35038BD00BFA7
:1087400000E100E01430FFF7A1BF00BF1430FFF7D5
:10875000A3BF00BF1430FFF78BBF00BF90F8A3305A
:1087600003B9704710B54FF0FF310446D0F8A400AC
:1087700000F00AFF0023D4F8A4001A461946BDE809
:10878000104000F031BB00BF10B50368104A5B68B1
:1087900082B093428DF8071013D104464FF0FF3199
:1087A000D0F8A40000F0F0FE22699DF8073084F8AC
:1087B0005D300123C2F8483522691846936002B043
:1087C00010BD01220DF10701984702B010BD00BF96
:1087D000D58702002DE9F0471AB3174688460646AA
:1087E00000F15D0A00254FF001097C1B402C28BFD9
:1087F00040244FF0FF31D6F8A40000F0C5FE08EB8E
:1088000005012246504604F0AFFE3369C3F84845DF
:1088100033692544AF42C3F80890E6D82846BDE83E
:10882000F08715462846BDE8F08700BF70B504689C
:10883000724A246A944240F0A58090F8A32003462F
:10884000002A40F09E800D46016990F89F00C1F813
:108850000C05196993F89E00C1F8140593F8A2104D
:10886000012900F09E801969C1F86C25B5F5966F55
:108870003BD9B5F5166F40F28A80B5F5965F40F2A8
:108880009E80B5F5165F40F29C80B5F5615F40F2C1
:108890009A80B5F5964F40F29880B5F5E14F40F2D9
:1088A0009680B5F5164F40F29480B5F5614F40F2D1
:1088B0009380B5F5963F40F29280B5F5E13F40F2E6
:1088C0009080B5F5613F40F28F804D4A954240F26D
:1088D0009180B5F5E12F40F28A80B5F5612F8CBF0C
:1088E0004FF080524FF0706201E04FF49E22196900
:1088F000C1F824251A690821C2F800151A6903F184
:108900005D01C2F844151A690021C2F820111A69E4
:1089100003F15C01C2F834151A690121C2F8381557
:108920001A6911601A694FF48870C2F8040393F948
:108930009D20002A2EDB5409603402F01F023148CA
:1089400001FA02F240F8242093F99D20002A21DB4D
:108950000244602182F8001393F99D20002A07DB6E
:10896000284802F01F0401215209A14040F82210BA
:1089700001201C4600F012FC0123C4F8A40084F876
:10898000A33070BD23460022BDE8704018474FF465
:108990001D22ACE71C4902F00F02114460220A7646
:1089A000DAE71A6993F8A000C2F810051A6993F87B
:1089B000A100C2F808051A69C2F86C1556E7134AF7
:1089C00095E7134A93E7134A91E7134A8FE7134A4F
:1089D0008DE74FF41D028AE74FF46B0287E7104AD8
:1089E00085E74FF0EB7282E74FF06C727FE74FF054
:1089F000E8627CE74FF0806279E700BF258A0200D9
:108A000090D0030000E100E0FCEC00E000B01300B7
:108A10000050270000F03A0000A04E0000C0750092
:108A200000903A0190F8A330002B51D110B50369A2
:108A300090F89F40C3F80C45036990F89E40C3F836
:108A4000144590F8A230012B036900F08F80C3F821
:108A50006C25B1F5966F3CD9B1F5166F40F2958053
:108A6000B1F5965F40F29B80B1F5165F40F29980B8
:108A7000B1F5615F40F29780B1F5964F40F2958075
:108A8000B1F5E14F40F29380B1F5164F40F291807D
:108A9000B1F5614F40F29080B1F5963F40F28F8082
:108AA000B1F5E13F40F28D80B1F5613F40F28C803D
:108AB0004A4B994240F28E80B1F5E12F40F2878017
:108AC000B1F5612F8CBF4FF080534FF0706302E01F
:108AD00070474FF49E230269C2F8243503690822C7
:108AE000C3F80025036900F15D02C3F8442503695A
:108AF0000022C3F82021036900F15C02C3F8342589
:108B000003690122C3F8382503691A6003694FF429
:108B10008871C3F8041390F99D30002B38DB5C0991
:108B2000603403F01F032E4902FA03F341F82430A6
:108B300090F99D30002B2BDB0B44602283F800233F
:108B400090F99D30002B07DB254903F01F0401221B
:108B50005B09A24041F823200446012000F01EFBDF
:108B60000123C4F8A40084F8A33010BD90F8A040FD
:108B7000C3F81045036990F8A140C3F8084503699C
:108B800042F00102C3F86C2563E74FF41D23A2E70E
:108B9000144A03F00F031A4460231376D0E7124BF4
:108BA00099E7124B97E7124B95E7124B93E7124B5D
:108BB00091E74FF41D038EE74FF46B038BE70F4BE8
:108BC00089E74FF0EB7386E74FF06C7383E74FF064
:108BD000E86380E74FF080637DE700BF90D003003B
:108BE00000E100E0FCEC00E000B0130000502700C2
:108BF00000F03A0000A04E0000C0750000903A015D
:108C000008B5054B1BB10548FFF740FD00B908BD8D
:108C1000AFF3008008BD00BF000000004C3A002008
:108C200010B5114C2369D3F810213AB10022C3F8D2
:108C30001021D3F83C2572B901221A60D3F8202103
:108C400002B910BD0021D4F8A400C3F82011BDE87A
:108C5000104000F0DBBA94F85C1004F11400FFF748
:108C6000F5FC2369E8E700BF383A002038B50F4C1F
:108C70000F4A204600254FF47A7340F8142BC4E9BC
:108C80000153FFF7D9FC0B4B0B481A6A9B6984F818
:108C9000A2500221C4F8A45084F8A350206184F8A3
:108CA0009D1084F89E2084F89F3038BD383A00200B
:108CB00040000300ACFF02000020004010B4019C03
:108CC000401AE41A04FB00F4521A94FBF2F05DF827
:108CD000044B1844704700BF08B501F081F84FF409
:108CE0007A72A0FB0223900A40EA835008BD00BFBD
:108CF000034B8002A3FB0030800901F095B900BF4F
:108D0000D34D621038B51C469DF8105043B300296E
:108D100008BF1A460123C4E90F01226084F84630D7
:108D200001F0A6FED4E90F132268A26001FB03F153
:108D3000CB1A134400200A44FF21A063E36084F8A7
:108D40004410626084F8451004F1100002F0A6FEA1
:108D500004F1240002F0A2FE01F094FE84F84C50CD
:108D6000204638BDF8B5074615460E4669B100FBEA
:108D700001F0503002F0E0FE044690B3002200F112
:108D8000500380F84620036007E0502002F0D4FE34
:108D9000044630B384F846602460C4E90F7601F0DD
:108DA00067FED4E90F132268A26001FB03F1CB1A1E
:108DB000134400200A44FF21A063E36084F84410B8
:108DC000626084F8451004F1100002F067FE04F1BF
:108DD000240002F063FE01F055FE84F84C5020465A
:108DE000F8BD00242046F8BD2DE9F04F044685B0BB
:108DF0001D460192884601F03BFEA26BE36BA84F33
:108E00004FF000099A424E46C0F08B80022D00F0D0
:108E100006810198002800F03081B9F1000F00F0C0
:108E2000958001F02FFE00F0D3FF01F021FE94F8B1
:108E30004430FF2B08BF84F8446094F84530FF2B82
:108E400008BF84F8456001F01DFE01A902A801F0E9
:108E5000EDFA002840F0188101F00AFEA26BE36BE6
:108E60009A4277D001F00EFE01F002FE94F84530F0
:108E70004FFA83FABAF1000F1ADD636AC3B104F145
:108E8000240907E00AF1FF33DBB24FFA83FA7BB122
:108E9000636A6BB1484601F06FFA0028F2D001F026
:108EA000FDFA0AF1FF33DBB24FFA83FA002BEFD160
:108EB000FF2384F8453001F0E5FD01F0D9FD94F879
:108EC00044304FFA83FABAF1000F1ADD2369C3B1B7
:108ED00004F1100907E00AF1FF33DBB24FFA83FA1D
:108EE0007BB123696BB1484601F046FA0028F2D005
:108EF00001F0D4FA0AF1FF33DBB24FFA83FA002B08
:108F0000EFD1FF2384F8443001F0BCFD01F006F8F6
:108F100001F0AEFDA26BE36B9A424FF00109BFF482
:108F200075AF226CA66B002A40F0FC8025680136E4
:108F3000002D00F01881A663636A002B40F08C803E
:108F400001F0A0FD012005B0BDE8F08F02A801F0FE
:108F500061FA66E704F1100901F094FD48460199B1
:108F600001F08EF901F084FD94F845A04FFA8AFAD9
:108F7000BAF1000F1CDD636AD3B104F1240B08E0E1
:108F80000AF1FF3A5FFA8AF34FFA83FA83B1636A10
:108F900073B1584601F0F0F90028F1D00AF1FF3A18
:108FA00001F07CFA5FFA8AF34FFA83FA002BEED1D4
:108FB000FF2384F8453001F065FD01F059FD94F878
:108FC00044304FFA83FABAF1000F06DC15E00AF1DB
:108FD000FF33DBB24FFA83FA7BB123696BB14846AA
:108FE00001F0CAF90028F2D001F058FA0AF1FF3373
:108FF000DBB24FFA83FA002BEFD1FF2384F8443021
:1090000001F040FD00F08AFF002881D14FF080532D
:109010007B6040BFBFF34F8FBFF36F8F78E7226C49
:10902000A66B002A82D04146E06804F09DFA236CCA
:10903000E26821685B421A448A42E26080F08980DB
:1090400062681344E360022D00F083800136A6635A
:10905000636A002B3FF474AF04F1240001F08CF933
:1090600000283FF46DAF0E4B4FF080525A6040BF66
:10907000BFF34F8FBFF36F8F62E7009001F002FDE7
:10908000009805B0BDE8F08F01F0F2FC94F845506F
:109090006DB2002D18DD636AB3B104F1240607E058
:1090A00000ED00E0013DEBB25DB26BB1636A5BB114
:1090B000304601F061F90028F4D0013D01F0EEF9ED
:1090C000EBB25DB2002BF1D1FF2384F8453001F003
:1090D000D9FC01F0CDFC94F844506DB2002D16DDA2
:1090E0002369A3B104F1100605E0013DEBB25DB2C6
:1090F0006BB123695BB1304601F03EF90028F4D032
:10910000013D01F0CBF9EBB25DB2002BF1D1FF23B1
:1091100084F8443001F0B6FC00F000FF002005B0F8
:10912000BDE8F08F41465DBBA06804F01DFAA3685E
:10913000216C62680B44934206F10106A360FFF4C0
:10914000FAAEA663636A2268A260002B3FF4F8AE11
:1091500082E7002E7FF4EFAE0123A363636A002B46
:109160003FF4EEAE78E7606801F00AFAA663636A3E
:109170006560002B7FF470AF00287FF474AFDFE6EA
:10918000E06804F0F1F9236CE26821685B421A445C
:109190008A42E260BFF457AF52E700BFF8B5064617
:1091A000502002F0C9FC044670B300250123206062
:1091B000C0E90F3580F8465001F05AFCD4E90F326F
:1091C0002168A56303FB02F39A1A0A440B44FF27A4
:1091D000C4E90131E26084F8447004F1100084F8BD
:1091E000457002F05BFC04F1240002F057FC01F032
:1091F00049FCC4E90055E56084F84C602B462A46DA
:1092000029462046FFF7F0FD2046F8BD38B5EFF3BC
:109210001184402383F31188826BC36B93420ED970
:1092200090F8453001325BB282635A1C0BD0013397
:109230005BB280F84530012084F3118838BD0020EE
:1092400084F3118838BD436A002BF4D024300D46D6
:1092500001F092F80028EED0002DECD0012028601B
:10926000EAE700BF2DE9F047044684B08846019242
:1092700001F0FEFBD4F83890B9F1000F40F0938074
:10928000019B002B00F00A8102A801F0C3F8B34F44
:109290004E4604F1240501F0F5FB00F099FD01F0C4
:1092A000E7FB94F84430FF2B08BF84F8446094F83F
:1092B0004530FF2B08BF84F8456001F0E3FB01A9AE
:1092C00002A801F0B3F8002840F0878001F0D0FB3D
:1092D000A36B002B40F0E88001F0D4FB01992846F5
:1092E00000F0CEFF01F0C4FB94F845304FFA83F94B
:1092F000B9F1000F06DC15E009F1FF33DBB24FFADC
:1093000083F97BB1636A6BB1284601F035F8002818
:10931000F2D001F0C3F809F1FF33DBB24FFA83F961
:10932000002BEFD1FF2384F8453001F0ABFB01F0B7
:109330009FFB94F844304FFA83FABAF1000F1ADD1C
:109340002369C3B104F1100907E00AF1FF33DBB26E
:109350004FFA83FA7BB123696BB1484601F00CF8F0
:109360000028F2D001F09AF80AF1FF33DBB24FFA8D
:1093700083FA002BEFD1FF2384F8443001F082FB05
:1093800000F0CCFD00287ED14FF080537B6040BFC1
:10939000BFF34F8FBFF36F8F01F06AFBD4F83890A3
:1093A000B9F1000F76D0226C52B1E16863681144C4
:1093B0009942E16024BF2168E160404604F0D4F89E
:1093C00009F1FF33A3632369002B40F0C98001F04A
:1093D00059FB012004B0BDE8F08701F049FB94F887
:1093E00045304FFA83F9B9F1000F06DC15E009F1B9
:1093F000FF33DBB24FFA83F97BB1636A6BB1284666
:1094000000F0BAFF0028F2D001F048F809F1FF336C
:10941000DBB24FFA83F9002BEFD1FF2384F84530FC
:1094200001F030FB01F024FB94F844304FFA83FA4A
:10943000BAF1000F1ADD2369C3B104F1100907E086
:109440000AF1FF33DBB24FFA83FA7BB123696BB1C8
:10945000484600F091FF0028F2D001F01FF80AF111
:10946000FF33DBB24FFA83FA002BEFD1FF2384F8EE
:10947000443001F007FB00F051FD01F0F9FAA36B55
:1094800063B101F0FFFA01F0F3FAD4F83890B9F1C2
:10949000000F88D1019B002B7FF4FDAE01F0F2FAA2
:1094A000002004B0BDE8F08701F0ECFA01F0E0FA2A
:1094B00094F845304FFA83F9B9F1000F06DC15E056
:1094C00009F1FF33DBB24FFA83F97BB1636A6BB109
:1094D000284600F051FF0028F2D000F0DFFF09F12C
:1094E000FF33DBB24FFA83F9002BEFD1FF2384F86F
:1094F000453001F0C7FA01F0BBFA94F844304FFA56
:1095000083FABAF1000F1ADD2369C3B104F110091F
:1095100007E00AF1FF33DBB24FFA83FA7BB123692C
:109520006BB1484600F028FF0028F2D000F0B6FFEB
:109530000AF1FF33DBB24FFA83FA002BEFD1FF239E
:1095400084F8443001F09EFA00F0E8FC01F090FA53
:10955000D4F83890B9F1000F9CD024E700ED00E07A
:1095600004F1100000F008FF00283FF430AF054B75
:109570004FF080525A6040BFBFF34F8FBFF36F8FE1
:1095800025E700BF00ED00E02DE9F043044685B07B
:109590000026019101F06CFAA36BB24FB04635463C
:1095A000002B40F0F380019B002B00F05D81B8F1AF
:1095B000000F00F0FC8001F065FA00F009FC01F0FA
:1095C00057FA94F84430FF2B08BF84F8445094F8BD
:1095D0004530FF2B08BF84F8455001F053FA01A92C
:1095E00002A800F023FF00286CD101F041FAA36B20
:1095F000002B40F0E08001F045FA2368002B00F0DA
:109600003C8104F124094846019900F039FE01F03B
:109610002FFA94F845304FFA83F8B8F1000F06DCC2
:1096200015E008F1FF33DBB24FFA83F87BB1636AD0
:109630006BB1484600F0A0FE0028F2D000F02EFFEB
:1096400008F1FF33DBB24FFA83F8002BEFD1FF2391
:1096500084F8453001F016FA01F00AFA94F8443023
:109660004FFA83F8B8F1000F1ADD2369C3B104F192
:10967000100907E008F1FF33DBB24FFA83F87BB142
:1096800023696BB1484600F077FE0028F2D000F065
:1096900005FF08F1FF33DBB24FFA83F8002BEFD15F
:1096A000FF2384F8443001F0EDF900F037FC002886
:1096B00064D14FF080537B6040BFBFF34F8FBFF347
:1096C0006F8F5BE001F0D4F994F845304FFA83F8DE
:1096D000B8F1000F1ADD636AC3B104F1240907E091
:1096E00008F1FF33DBB24FFA83F87BB1636A6BB1E9
:1096F000484600F041FE0028F2D000F0CFFE08F10D
:10970000FF33DBB24FFA83F8002BEFD1FF2384F84D
:10971000453001F0B7F901F0ABF994F844304FFA55
:1097200083F8B8F1000F1ADD2369C3B104F1100901
:1097300007E008F1FF33DBB24FFA83F87BB123690E
:109740006BB1484600F018FE0028F2D000F0A6FEEB
:1097500008F1FF33DBB24FFA83F8002BEFD1FF2380
:1097600084F8443001F08EF900F0D8FB01F080F964
:10977000A36B002B00F08A8001F084F901F078F9E6
:10978000A36B4FF00108002B3FF40DAF2268013BA3
:10979000A363002A00F09E802369002B40F089809B
:1097A00001F070F90126304605B0BDE8F08302A84B
:1097B00000F030FEFFE601F065F901F059F994F888
:1097C00045304FFA83F8B8F1000F1ADD636AC3B170
:1097D00004F1240907E008F1FF33DBB24FFA83F804
:1097E0007BB1636A6BB1484600F0C6FD0028F2D039
:1097F00000F054FE08F1FF33DBB24FFA83F8002B80
:10980000EFD1FF2384F8453001F03CF901F030F945
:1098100094F844304FFA83F8B8F1000F1ADD236949
:10982000C3B104F1100907E008F1FF33DBB24FFACE
:1098300083F87BB123696BB1484600F09DFD002899
:10984000F2D000F02BFE08F1FF33DBB24FFA83F8C1
:10985000002BEFD1FF2384F8443001F013F900F01E
:109860005DFB8BE700ED00E0009301F00BF9009B3E
:109870001E46304605B0BDE8F08301F0F9F8606897
:1098800000F03CFE064601F0FDF8BAE601F0FAF8F9
:10989000002E88D001F0ECF8616A19B1236B1968C9
:1098A000C1F10501606800F097FE002601F0EAF8BA
:1098B00079E704F1100000F05FFD00283FF470AF7D
:1098C000064B4FF080525A6040BFBFF34F8FBFF33B
:1098D0006F8F65E700F0B6FE60605DE700ED00E0C9
:1098E000104B5A68904208D0DA68904208BF0122B3
:1098F00004D090F8463093B170470022002110B494
:1099000003EBC20443F8321090F84630616013B1A3
:109910005DF8044B70475DF8044B02F01FB902F08C
:109920001DB900BF2C450020074B1A681AB19A6870
:1099300002B17047012210B403EBC20443F83210A5
:1099400060605DF8044B70472C45002070B50546FB
:109950000C46164601F08CF895F84430FF2B04BFF6
:10996000002385F8443095F84530FF2B04BF0023D1
:1099700085F8453001F086F8AB6B2BB932462146AD
:1099800005F1240000F0B8FC01F072F895F84540AC
:1099900064B2002C16DD6B6AA3B105F1240605E064
:1099A000013CE3B25CB26BB16B6A5BB1304600F074
:1099B000E3FC0028F4D0013C00F070FDE3B25CB29F
:1099C000002BF1D1FF2385F8453001F05BF801F061
:1099D0004FF895F8444064B2002C16DD2B69A3B112
:1099E00005F1100605E0013CE3B25CB26BB12B69F6
:1099F0005BB1304600F0C0FC0028F4D0013C00F020
:109A00004DFDE3B25CB2002BF1D1FF2385F8443069
:109A1000BDE8704001F036B82DE9F041044601F090
:109A200027F8344A344D1368013313602B68002B38
:109A30002FD0324EE36A32682AB331483149076881
:109A40000A689F4238BF03602F48013203EB83034B
:109A50000A6000EB8300E263211D02F02FF801F0A1
:109A600011F833686BB12A68E36AD26A9A4208D265
:109A7000264B4FF080525A6040BFBFF34F8FBFF369
:109A80006F8FBDE8F0812A68D26A9A4298BF2C6035
:109A9000D3E72C601368012B02D0E36A174ECCE7A2
:109AA0001948DFF894801A4F144E01F0F7FF194857
:109AB00001F0F4FF184801F0F1FF184801F0EEFF43
:109AC000174801F0EBFF404601F0E8FF384601F08F
:109AD000E5FF144801F0E2FF134801F0DFFF1348EF
:109AE00001F0DCFF124B134AC2F800801F60E36AEA
:109AF000A3E700BF503B0020E03A0020B03B00202D
:109B0000643B0020603B0020EC3A002000ED00E0C8
:109B10007C3B0020003B0020143B0020283B002021
:109B20003C3B00209C3B0020C83B0020B43B002075
:109B3000E83A0020E43A0020683B00202DE9F84391
:109B4000DDE90964002C60D016B93046BDE8F88321
:109B50000D469700984602233A4684F851308146D4
:109B600026633046A52103F00AFD2A78236B84F88A
:109B70003420043F2A781F4427F0070702B36B788C
:109B800084F835306B78DBB1AB7884F83630AB785D
:109B9000B3B1EB7884F83730EB788BB12B7984F85C
:109BA00038302B7963B16B7984F839306B793BB1FC
:109BB000AB7984F83A30AB7913B1EB7984F83B3068
:109BC000089D042D28BF04250026E5626564201D3C
:109BD00084F83B60A66401F06DFFC5F1050504F152
:109BE000180001F067FFE66442464946A56124611A
:109BF00084F850606462384600F0FEFE2060204623
:109C0000FFF70AFF2046BDE8F8832046BDE8F88349
:109C10002DE9F0479600804630460D469946099F4B
:109C200001F08AFF002869D08246542001F084FFA9
:109C3000044600285BD00023C0F830A032465046CE
:109C400084F85130A52103F09AFC2A78236B84F81C
:109C50003420043E2A781E4426F0070A02B36B78AB
:109C600084F835306B78DBB1AB7884F83630AB787C
:109C7000B3B1EB7884F83730EB788BB12B7984F87B
:109C800038302B7963B16B7984F839306B793BB11B
:109C9000AB7984F83A30AB7913B1EB7984F83B3087
:109CA000089D042D28BF04250026E5626564201D5B
:109CB00084F83B60A66401F0FDFEC5F1050504F1E2
:109CC000180001F0F7FEE664A561246184F8506095
:109CD00064624A464146504600F08EFE206007B15D
:109CE0003C602046FFF798FE0120BDE8F087504613
:109CF00001F034FF4FF0FF30BDE8F0874FF0FF3048
:109D0000F3E700BF70B584B0002503AA02A901A83B
:109D1000CDE9015501F0ACFA019C002C46D0029827
:109D2000002843D0039E20630223B600A5213246BB
:109D300084F8513003F023FC236B1F4A6263201D1B
:109D400084F83850043E84F83B50E562C4E911556C
:109D50001E4401F0AFFE04F1180001F0ABFE26F046
:109D600007060523A3612A461449E56430462461A9
:109D7000646284F8505000F03FFE20602046FFF7F8
:109D80004BFE0F4B1C6000F0DBFD012811D140237E
:109D900083F311880B490C4A0C4B4FF0FF340C60D5
:109DA00010601D6000F03EFE04B070BD044B002248
:109DB0001A6004B070BD00BF49444C45ADA002001C
:109DC000903B0020943B0020B03B0020DC3B002077
:109DD000024A136801331360704700BF5C3B0020E8
:109DE000014B1868704700BFDC3B0020024A136833
:109DF00018441060704700BFDC3B00202DE9F04F95
:109E00003B4B1B6883B0002B42D13A4B1F68013794
:109E10001F60002F4AD0384B01931B68BB423BD8D0
:109E2000364EDFF8EC80DFF8ECA0DFF8EC90002590
:109E300025E03368DB68DC68636804F1040B9F424B
:109E4000584651D301F064FEA36A04F118000BB127
:109E500001F05EFEE36AD8F8002003EB8300934232
:109E600059460AEB800088BFC8F8003001F026FE92
:109E7000D9F80030E26ADB6A9A4228BF01253368CC
:109E80001B68002BD5D1019A4FF0FF33136004E01B
:109E90001B4A13680133136000251A4B1B68002B03
:109EA0000CBF2846012003B0BDE8F08F134E164BBF
:109EB0003168164A186830601960136801331360FE
:109EC00033681B683BB90C4B01931A464FF0FF33C4
:109ED00013601346A1E73368074ADB680192DB6829
:109EE0005B681360134698E7019A1360D5E700BFDB
:109EF0005C3B0020DC3B0020943B0020E43A002047
:109F0000583B0020E03B0020E83A0020983B00202E
:109F1000643B0020EC3A0020E03A00202DE9F047B5
:109F200000F0A6FD354B1A68013A1A601C68002C37
:109F300057D1334B1B68002B53D0DFF8E0A0314ED4
:109F4000314FDFF8DC90DFF8DC80336813B3F3685F
:109F5000DC68251D04F1180001F0DAFD284601F047
:109F6000D7FDE36A3A6803EB83009342294609EB85
:109F7000800088BF3B6001F0A1FDD8F80030E26AA4
:109F8000DB6A9A424FF00103DFD3CAF8003033682E
:109F9000002BDCD13CB11D4B1A6812683ABB1C4B3C
:109FA0004FF0FF321A601B4D2C6844B10126FFF7B9
:109FB00025FF08B1CAF80060013CF8D12C60DAF83E
:109FC000003073B1144B4FF080525A6040BFBFF362
:109FD0004F8FBFF36F8F012400F054FD2046BDE882
:109FE000F087002400F04EFD2046BDE8F0871A6897
:109FF000074BD268D26852681A60D4E75C3B0020F5
:10A00000503B00209C3B0020643B0020E43A0020B1
:10A01000943B0020583B002000ED00E0E03B002096
:10A02000EC3A0020E03A002070B548B9184B4FF0E8
:10A0300080525A6040BFBFF34F8FBFF36F8F70BD28
:10A04000144A15491368154E013313600D68044610
:10A050003068043001F05CFD336864195C600FD235
:10A060000F4B18683168043101F038FD0D4B1A6848
:10A07000944238BF1C60FFF751FF0028D6D070BD56
:10A08000094B18683168043101F028FDF3E700BF7F
:10A0900000ED00E05C3B0020DC3B0020E03A0020CB
:10A0A000E43A0020943B0020E83A00202DE9F84FE4
:10A0B0003C4E3D4D3D4CDFF80891DFF80881DFF85C
:10A0C00008B14FF0805A2368D3B100F0D1FCF36897
:10A0D000DF68381D01F01CFD2B68013B2B602368F5
:10A0E000013B236000F0CEFC97F85130002B37D0B5
:10A0F000012BE8D1384601F031FD2368002BE4D173
:10A100002B4B1B68012B06D9CBF804A040BFBFF333
:10A110004F8FBFF36F8F00F03DFED9F8003033BB97
:10A12000D8F80030DB6A002BCDD1214B1B68012B06
:10A13000C9D8204B204A1B6812689B1A012BC2D930
:10A140001E4A136801331360D9F80030BBB1D8F848
:10A150000030DB6A0BB9164B1B68FFF7DFFEB2E776
:10A16000386B01F0FBFC384601F0F8FCABE7D8F89F
:10A170000030DB6A002BA6D10D4B1B68A3E7D8F893
:10A180000030DB6A002BE8D1094B1B68012BE4D8B7
:10A19000084B1868084B1B68C01A0128DDD900F06D
:10A1A000DDFCDAE7C83B0020503B0020543B002098
:10A1B000EC3A0020943B0020DC3B00205C3B00207C
:10A1C000643B0020E03A002000ED00E0274B1B68D4
:10A1D000002B40D1264A70B5264C136022682368B4
:10A1E00012681B6B9A423AD9234D24492A6893007E
:10A1F000981880000858E0B9561EB30098198000DE
:10A20000085830BB961EB30098198000085800BB50
:10A21000D61EB300981980000858D0B9161FB30095
:10A22000981980000858A0B9053A93009818800042
:10A23000085813449B00CE1808337068406870605B
:10A240000B44984204BF40687060C36823602A6072
:10A2500070BD3246EDE7064B01221A607047206858
:10A260002168343101F000F8BEE700BF5C3B0020FC
:10A27000E03B0020E03A0020643B0020EC3A002064
:10A2800070B5174D2B680C4603F1180101F026FC40
:10A29000144B1E682868043001F03AFC631C17D088
:10A2A0002B68A4195C600BD20F4B18682968043125
:10A2B00001F014FC0D4B1A68944238BF1C6070BD4D
:10A2C0000B4B18682968BDE87040043101F006BCEA
:10A2D000296808480431BDE8704001F0EFBB00BFB9
:10A2E000E03A0020DC3B0020E43A0020943B0020D0
:10A2F000E83A0020B43B002070B5194D2B680C469D
:10A30000164603F1180101F0D9FB164B5EB11B682C
:10A310002868043001F0FCFB296813480431BDE8CB
:10A32000704001F0CBBB1E682868043001F0F0FBE0
:10A330002B68A4195C600BD20C4B18682968043197
:10A3400001F0CCFB0A4B1A68944238BF1C6070BD08
:10A35000084B18682968BDE87040043101F0BEBBA5
:10A36000E03A0020DC3B0020B43B0020E43A00202F
:10A37000943B0020E83A002038B5C368DC6804F15B
:10A380001805284601F0C4FB1A4B1B682BBB251D82
:10A39000284601F0BDFB184AE36A116817488B4252
:10A3A00088BF136003EB8303294600EB830001F0B1
:10A3B00085FB134BE26A1B68DB6A9A4282BF114B32
:10A3C00001201860104B1A68126898BF00204AB923
:10A3D0000E4B4FF0FF321A6038BD29460C4801F091
:10A3E0006DFBE6E71A68094BD268D26852681A60BA
:10A3F00038BD00BF5C3B0020643B0020EC3A0020ED
:10A40000E03A0020E03B0020E43A0020943B0020AA
:10A410009C3B0020034A044B12681B68C0E90023E0
:10A42000704700BF983B0020DC3B0020F8B50D468C
:10A43000044600F01DFB2B681649581C0A6813D00F
:10A44000DFF854C0D4E90060DCF80070BE4201D0EF
:10A4500090421AD9121A93420BD800232B6001257F
:10A4600000F010FB2846F8BD002500F00BFB284645
:10A47000F8BDDCF800009B1A0A682B60C4E90002F2
:10A48000002500F0FFFA2846F8BD012500F0FAFA91
:10A490002846F8BDDC3B0020983B0020014B012200
:10A4A0001A607047E03B0020084B186860B9084B01
:10A4B0001B6853B9074A084B10681B68013B984258
:10A4C00014BF012002207047002070479C3B0020F1
:10A4D000E03B0020B43B0020503B0020054B1B68B4
:10A4E00033B1054B1B68002B0CBF022000207047C6
:10A4F00001207047B03B00205C3B002018B3F8B54A
:10A500001C4CC36A2268D26A934214D28269002A20
:10A5100004DB2268D26AC2F105028261164D4269EB
:10A5200003EB830305EB83039A420DD02368DB6AB8
:10A53000C3620120F8BD2368406CDB6A98422CBFDF
:10A5400000200120F8BD7047061D0746304601F087
:10A55000DFFA2268094BD06A1A68F862904200D983
:10A56000186000EB800005EB8000314601F0A6FA90
:10A570000120F8BDE03A0020EC3A0020643B0020C6
:10A5800050B138B5C16A836C426C013B914283641F
:10A5900000D01BB1002038BD00207047051D0446C7
:10A5A000284601F0B5FA0A4A636C1168E362C3F108
:10A5B00005008B42A061074888BF136003EB83034B
:10A5C00000EB8300294601F079FA012038BD00BF75
:10A5D000643B0020EC3A002048B1426CC36A9142CF
:10A5E00038BF11468B4202D0826C012A00D07047DE
:10A5F000826970B5114DC162002A03EB8303426981
:10A60000A8BFC1F1050105EB8303A8BF81619A4290
:10A6100000D070BD061D0446304601F079FA084BA3
:10A62000E06A1A68904288BF186000EB800005EB72
:10A6300080003146BDE8704001F040BAEC3A00209D
:10A64000643B0020044B1A681AB119688A6C013205
:10A650008A641868704700BFE03A00202DE9F04F87
:10A66000AD4EDFF8C482AD4D89B033681C68002C54
:10A6700000F08E80DB681C68FFF7AAFBFFF7B0FBD9
:10A68000D8F80030984207465DD38442C8F80000ED
:10A6900040F20B810022E11B2868FFF757F9FFF712
:10A6A0003DFC88B99E4A4FF08053536040BFBFF3D2
:10A6B0004F8FBFF36F8F07E0019B039920469847A8
:10A6C000009B002B80F23881286800226946FEF743
:10A6D000C9FD0028C9D0009B029C002BECDB6369FC
:10A6E00013B1201D01F014FAFFF77AFBD8F80030FF
:10A6F0009842814643D3009BC8F80090092BE3D8C9
:10A70000012202FA03F313F4047F69D113F0C70F97
:10A7100040F0A1809B06D7D594F82C30002BD3D1E4
:10A72000204601F01BFACFE7DB68DC68D3F800A015
:10A7300004F10409484601F0EBF9636A20469847A2
:10A74000E369012B36D033681A68002AECD17549C9
:10A75000C8F800700A6832600B60FFF7DFFBB3E7F0
:10A76000DB68DF68D3F800B007F1040A504601F057
:10A77000CFF97B6A38469847FB69012B25D03368AF
:10A780001A68002AECD167490A6832600B60B2E7A8
:10A79000FFF71EFBFFF724FBD8F800308342074683
:10A7A000D1D8604BC8F800701B681A68B2FA82F200
:10A7B000520970E7A36953449A45494622D263601F
:10A7C0002461306801F08AF9BDE7BB695B449B45B1
:10A7D000514627D27B603F61306801F07FF9CEE7B8
:10A7E000019B246103EB09024A45A36162602CD8F6
:10A7F000002B3FF469AF4B4B211D186801F06EF937
:10A80000286862E72B68002B9DD00023CDE9043A2D
:10A810000694FFF763FE00231A4604A92868FEF792
:10A82000E3FA90E72B68002BA9D00023CDE9043B85
:10A830000697FFF753FE00231A4604A92868FEF77F
:10A84000D3FA9CE74B4500D998B13068211D01F03F
:10A8500045F9286839E7019BA269246199182CBF42
:10A860000120002049456160ECD8A9EB03039A421E
:10A87000C1D8636A20469847E369012B7FF424AF6F
:10A88000019BA2692868134400283FF41EAF0022F0
:10A89000CDE904230694FFF721FE00231A4604A9FC
:10A8A0002868FEF7A1FA28680FE7FFF737FB33683F
:10A8B000DB68D3F80C9009F1040A504601F028F93E
:10A8C000D9F81C30012B04D0D9F8243048469847D9
:10A8D000FAE6D9F81830C9F81090E218BA42C9F867
:10A8E000042004D95146306801F0F8F8ECE73F1B2A
:10A8F000BB421BD82B68002BE6D00023CDE90434E3
:10A90000CDF81890FFF7EAFD00231A4604A928683D
:10A91000FEF76AFAD8E700BFE43B0020683E00205B
:10A9200000ED00E0E83B0020143E0020034B5146C0
:10A93000186801F0D3F8C7E7029CD0E6E83B002096
:10A94000F0B5204C89B000F093F82568FDB100F017
:10A9500099F82068C8B1002407AA06A905A8CDE97E
:10A96000054400F093FCDDE905300221CDE900103B
:10A97000079A0293144915482346FFF7DFF8144A53
:10A980000346001B18BF0120136009B0F0BD114F32
:10A99000114E384601F082F8304601F07FF80F4A38
:10A9A0000F4900950F4B17600E600F4A10212020B1
:10A9B000FEF7A8F920600028C9D00C49FEF7B4FFC3
:10A9C000C5E700BF683E0020740003005DA60200DA
:10A9D0006C3E0020EC3D0020003E0020E43B0020C7
:10A9E000E83B0020183E0020EC3B00206C000300F8
:10A9F000402383F31188FEE730B46FF002034FF079
:10AA00008075074C40F8045C40F80C4C40F8081C7A
:10AA100040F8202C40F8243C30BC4438704700BF3C
:10AA2000F1A902000F4C08B5E02384F8223000F0B1
:10AA300077F80D4B0D4A00211960D4F8883043F4A3
:10AA40007003C4F88830536843F04043536023696F
:10AA500043F01003236100F04BF9402383F3118886
:10AA6000FEE700BF00ED00E0703E002030EF00E0A8
:10AA7000402383F31188024A13680133136070473F
:10AA8000703E0020034A1368013B13600BB983F347
:10AA900011887047703E002041DF704712DF704719
:10AAA00070B51B4B00251D6082B01B680193019B94
:10AAB000EFF31186402383F31188164A164BD2F820
:10AAC00004451D601B680093009BFFF789F9241A59
:10AAD00024F07F44012C0DD844B1FFF78FF90546CF
:10AAE00025B10E4B4FF080525A6040BF86F311885B
:10AAF00002B070BDFFF7F2FC0228EED1013CFFF777
:10AB00007DF9013C631C45EA0005F8D1E8E700BF88
:10AB100040110140001001400011014000ED00E033
:10AB20000B4B0C4930B41F200B4DC3F80805012214
:10AB30000224E020C3F804232A601A60C3F84443C7
:10AB400081F811034FF400330B6030BC704700BF35
:10AB50000010014000E100E0081001402DE9F04143
:10AB6000804684B0EFF3108272B6564CA36883B966
:10AB7000554B56480121A160D3F880100140216057
:10AB8000C3F88000D3F8841061604FF0FF31C3F840
:10AB9000841002B962B64E4ED6F80475FFF784FCF5
:10ABA00000283DD04B4A4C49424528BF4246BB187D
:10ABB00023F07F4301200025C6F80803C6F840357E
:10ABC0000D600B6801934FF480330199C6F804338C
:10ABD000BFF34F8FB8F1000F54D13D4B3E4D3F496D
:10ABE0004FF48030C3F80803002028602D680395D7
:10ABF000039D08600968029101210298C3F80413BB
:10AC0000D3F804353049DB1B23F07F45954228BF3C
:10AC100015464FF40033012DC1F8803111D827D0EB
:10AC2000A3685BB1EFF3108372B6274A2168116005
:10AC3000616851600022A26003B962B604B0BDE849
:10AC4000F081681EFFF7D2F8254BDB68DA010FD5DB
:10AC5000244A1368DB070BD5234B516803FB05F52A
:10AC6000A5F57425A5F51075AD0A01EB85155560A0
:10AC7000FFF7C4F80028D3D01C4B4FF080525A6025
:10AC800040BFCDE7F1EE103A23F09F03E1EE103A1A
:10AC9000F1EE103A0C4B04A84021C3F8841100F8DF
:10ACA000045DFFF7FBFE9DF80C1039B920BFD3F807
:10ACB0000001D3F804110143F8D08EE7FFF7ECFE52
:10ACC0008BE700BF3C45002000E100E0FC06FFBD33
:10ACD00000100140FDFFFF00401101400011014044
:10ACE000F0ED00E0001000E040420F0000ED00E059
:10ACF0000748006880F3088862B661B6BFF34F8FDB
:10AD0000BFF36F8F4FF0E00080F3118800DF00BFCA
:10AD100000600200064B19680868B0E8F04F80F345
:10AD20000988BFF36F8F4FF0000080F311887047E0
:10AD3000E03A0020EFF30980BFF36F8F144B1A68DD
:10AD40001EF0100F08BF20ED108A20E9F04F1060B0
:10AD50004DF8043D4FF0400080F31188BFF34F8F52
:10AD6000BFF36F8FFFF732FA4FF0000080F31188C6
:10AD700008BC19680868B0E8F04F1EF0100F08BF53
:10AD8000B0EC108A80F30988BFF36F8F704700BF63
:10AD9000E03A0020704700BF0A490B4A0B4B9B1A50
:10ADA00003DD043BC858D050FBDC094809494FF08B
:10ADB000AD32026004300439FBD100F0C3F8FBF778
:10ADC00047FA0000940403000036002018380020E1
:10ADD00000F8002000080000FEE7FEE7FEE7FEE7BF
:10ADE000FEE7FEE7FEE7FEE7FEE7FEE708B5FBF756
:10ADF00023FD0E4B43B10E4B7BB1FBF785FA00F000
:10AE000027FAFDF7FDFEF8E7FBF77EFA00F020FADF
:10AE1000FBF77AFA00F01CFAF6E7FBF775FA00F098
:10AE200017FAFBF771FA00F013FAF6E700000000DA
:10AE3000018C020000B583B000F0AEFAFDF70EFB06
:10AE40000E4B019301234FF480620D4900930D488E
:10AE50000023FEF7DDFE4FF4407000F079FAFEF7B4
:10AE600051FFBFF34F8F0849084BCA6802F4E062F4
:10AE70001343CB60BFF34F8F00BFFDE7743E00204C
:10AE80007C000300EDAD020000ED00E00400FA05D7
:10AE900010B50446FFF722FB0128204603D0BDE889
:10AEA000104000F049BEBDE8104002F04DBB00BFAD
:10AEB00010B50446FFF712FB0128204603D0BDE879
:10AEC000104000F039BEBDE8104002F03DBB00BFAD
:10AED00010B50446FFF702FB0128204603D0BDE869
:10AEE000104000F03BBEBDE8104002F035BB00BF93
:10AEF00010B50446FFF7F2FA0128204603D0BDE85A
:10AF0000104000F02BBEBDE8104002F025BB00BF92
:10AF1000084A094908B513681844884202D81060E5
:10AF2000184608BD02F0D2FA0C2303604FF0FF333D
:10AF3000184608BD0836002000F80020FEF748BF7C
:10AF4000FEF7ECBFAB4B1B685A1C30B400F0D0804E
:10AF5000A94A1268062B00F0C080A84B1B78062B6C
:10AF600000F0B080A34B1B685D1C00F0A480A24AD7
:10AF70001268062B00F09480A04B1B78062B00F083
:10AF800082809C4B1B685C1C76D09B4A1268062B07
:10AF900065D09A4B1B78062B4CD0964B1A68501CE8
:10AFA00013D0954B062A1B6817D0954AD2F88830E3
:10AFB00043F47003C2F88830BFF34F8FBFF36F8F35
:10AFC000904B914A1A6030BC70478C498F4B09787E
:10AFD0001B680629C3F3031312D1053B012B40F272
:10AFE0008E80511C40F0F780844A884B12781B6891
:10AFF000062AC3F30313D8D1033B032B40F2C980C5
:10B000007E4B1B78062BD0D1804B1B684FF0FF3254
:10B01000C3F30313033B032B40F2CB80764B1B6837
:10B02000062AC2D1062BC0D1794A136843F4806343
:10B030001360BAE7754B1B68C3F30313032BACD142
:10B04000744D75482B60754C7549764A052303602D
:10B05000012500203F232560086013609DE7033A27
:10B06000032A96D84FF080430022C3F80C21C3F87E
:10B070001021C3F838258CE7644A604B12681B78AE
:10B08000C2F3031283E7614B1B68C3F30313032B63
:10B090007FF477AF644AD36823F08073D36070E79E
:10B0A000033A032A3FF668AF604B614A1B68C3F35B
:10B0B0004233136060E7554A504B12681B78C2F365
:10B0C000031256E7514B1B68C3F30313032B7FF4A2
:10B0D00049AF584B584A1A6044E7033A032A3FF6EF
:10B0E0003CAF564B564A1B68C3F30423136034E746
:10B0F000464A424B12681B78C2F303122AE74FF00C
:10B100008052504BD2F80414C3F82015D2F808141A
:10B11000C3F82415D2F80C14C3F82815D2F810146B
:10B12000C3F82C15D2F81414C3F83015D2F818143B
:10B13000C3F83415D2F81C14C3F84015D2F8201403
:10B14000C3F84415D2F82414C3F84815D2F82814CB
:10B15000C3F84C15D2F82C14C3F85015D2F830149B
:10B16000C3F85415D2F83414C3F86015D2F8381463
:10B17000C3F86415D2F83C14C3F86815D2F840142B
:10B180001C48C3F86C15D2F844140268C3F8701553
:10B1900027E72D4B174A1B6812682C4903F04F0311
:10B1A0000B60531C1FD1154B1B78062B7FF4FDAE93
:10B1B0002AE74FF08041D1F8003413F0010F0E4B15
:10B1C00001D11B682CE70B4A1B6812686FF0010065
:10B1D000C1F8000424E7084B062A1B687FF4E5AE9B
:10B1E000033B032BD5D9044B062A1B687FF4DDAE45
:10B1F00010E700BF3001001034010010E00F00F034
:10B2000000ED00E00C3600200090D003E80F00F0C5
:10B210003C170040A00500401056004088560040F2
:10B220001856004014560040F0ED00E044020010B3
:10B230003C05004074C007400DF0ADBA2403001077
:10B240004035014000C0004058020010E40E0040AC
:10B25000044B4FF080525A6040BFBFF34F8FBFF393
:10B260006F8F704700ED00E0704700BF704700BF70
:10B27000044B036010B46423034C0C6013605DF84E
:10B28000044B7047783E0020CC3E0020054B036005
:10B2900010B44FF48073044C0C6013605DF8044BE1
:10B2A000704700BF5C400020B040002070B5274EC2
:10B2B00084B04FF0FF3203A93068FDF7D3FF0028B8
:10B2C000F7D0039C237A6568052B0CD8DFE803F0E0
:10B2D0002F322A241D03D4E90523D4E90301E469AC
:10B2E0000094A847039C25683DB1FFF7F7F80128B3
:10B2F000284626D000F032FC039CFFF7EFF8012827
:10B3000020461BD000F02AFCD3E7D4E90523D4E97A
:10B310000301A847039CE6E7D4E90412E068A847C4
:10B32000039CE0E7D4E90301A847039CDBE7A847B7
:10B33000039CD8E7E068A847039CD4E702F00CF927
:10B34000B7E702F009F9039CD7E700BFB444002037
:10B3500030B540230B4D83B004460022184604212B
:10B360002B60FDF7FFFC084B084918600223CDE96C
:10B370000031A2B2002306490648FEF749FC03B09B
:10B3800030BD00BFB0440020B4440020B8440020C9
:10B3900084000300ADB20200134A144BD2F84025DA
:10B3A000134910B41A604FF0804301224FF400306B
:10B3B000C3F818259A60C1F88000BFF34F8FBFF320
:10B3C0006F8F4FF0A04003F588334FF480314FF07A
:10B3D000FF34C3F84813C3F808135A609A60C0F8E2
:10B3E00008455DF8044B704700A00040BC440020B5
:10B3F00000E100E02DE9F0473E4D3F4FDFF800E16E
:10B40000C2B22B4605F10C0C53F8044BBFF35B8F13
:10B410006468BFF35B8FBC4220D09C45F4D1364FAB
:10B420008846064600245FFA80F955F82430BFF3B9
:10B430005B8F5B68BFF35B8FBB4227D00134032C6B
:10B44000F3D12D4F0024394655F8240000F0C4FAFA
:10B4500068BB0134032CF6D1BDE8F08753F8048CA7
:10B460001EF82240D8F80060D6F86095A1453DD07E
:10B47000D6F864954C453BD0D6F868954C452CD011
:10B48000D6F86C65B442C8D1032327E0494655F885
:10B49000240000F0A9F90028D0D01FFA88F249460C
:10B4A00055F824000023BDE8F04700F045BA134BDF
:10B4B00055F824001978F6B200F080F9314655F8B5
:10B4C000240000F091F931461FFA88F255F8240063
:10B4D0000023BDE8F04700F02FBA02238AB24046AD
:10B4E0001946BDE8F047002300F0F0B90023F5E766
:10B4F0000123F3E718360020416C6F6710360020F7
:10B50000ACFF0200F0B482B000231F28ADF8063073
:10B5100016D85B4B53F82030023B1D2B10D8DFE8C8
:10B5200003F0139A9C9E0F0F0F0F0F0F0F0F0F0FAB
:10B530000F0F0F0F0F0F0F0F0F0F0F0FA0A2A4A6CB
:10B54000002002B0F0BC704701274E4B1C68082C4D
:10B5500040F38F800A2C40F38F800D2CB5BF0C2553
:10B560000E25022303234849484AC1F8F035012635
:10B570000023C1F800654648C1F81435C1F81035FC
:10B58000C2F81435C2F81035C2F82435C2F8203597
:10B59000C2F83435C2F83035C2F84435C2F8403507
:10B5A000C2F85435C2F85035C2F86435C2F8603577
:10B5B000C2F87435C2F87035364A036812683648E6
:10B5C0001B021203007802F4805203F4E063134379
:10B5D00043EA00630DF10602C1F818350846C1F8C8
:10B5E0001475C1F81075C1F82C26C1F830660E60CC
:10B5F000D0F80031002BFBD000210123224AC0F8F3
:10B6000000114360D2F80431002BFBD0002001234D
:10B610001D49C2F804019360D1F81431002BFBD00E
:10B620000023C1F81431BDF80620120448BFADF85C
:10B630000630154B0022C3F80025BDF80600AC42C9
:10B6400000B23FF47EAF35BF2C1B641BE040A0402E
:10B6500002B0F0BC7047022777E7032775E704279D
:10B6600073E7052771E706276FE707276DE70827C8
:10B670006BE70825002376E70A25012373E700BF5F
:10B68000ACFF020014360020007000401070004033
:10B69000C4440020C8440020C04400201F2810D803
:10B6A0001C4B53F8203005290BD8DFE801F01303B9
:10B6B0001B232B0B03F5E0734FF0A042032142F84C
:10B6C0002310704703F5E0734FF0A042124942F88F
:10B6D0002310704703F5E0734FF0A042002142F8B9
:10B6E0002310704703F5E0734FF0A0420C2142F89D
:10B6F0002310704703F5E0734FF0A042042142F895
:10B700002310704703F5E0734FF0A042034942F85D
:10B7100023107047ACFF0200040002000C0003007D
:10B720001F2809D8064B53F82020012393404FF0DF
:10B73000A04211B1C2F808357047C2F80C35704705
:10B74000ACFF02001F2813D80A4B4FF0A04253F859
:10B750002000D2F81415012383400B4214BFD2F805
:10B760000425D2F81025134214BF01200020704791
:10B7700000207047ACFF02001F2808D8044B53F884
:10B7800020104FF0A04201238B40C2F80C357047C7
:10B79000ACFF020030B401600022BFF35B8F426057
:10B7A000BFF35B8F01688260FF254FF0FF34058295
:10B7B000C2608274C1F8644530BC70470E2907D955
:10B7C00047F6FF73026819460182C2F808357047D0
:10B7D000012303FA01F1013989B2026801820B46A3
:10B7E000C2F80835704700BFF8B50368364DD3F886
:10B7F000604515F82120A24256D0D3F86445A242F4
:10B8000052D0D3F86845A2424ED0D3F86C45A2423C
:10B810004AD0D3F86025002A51DBD3F86425002AEA
:10B820000BDBD3F86825002A4BDBD3F86C35002BF3
:10B83000B8BF032602DB0020F8BD01260C460746F0
:10B8400001212046FFF72AFF00212046FFF768FF6D
:10B850003B6855F82410D3F800253AB306F5AC70D0
:10B8600000220436C3F8002543F82010012127F8F0
:10B870001620C3F80015D3F86025D3F86415D24319
:10B880000029D3F868154FEAD272A8BF0132002907
:10B8900004DBD3F86C2501209860F8BDD3F86C1553
:10B8A0000029F8DA002AF6D10120F8BD06F5AC70BF
:10B8B000043643F82010012027F81620F8BD002692
:10B8C000BCE70226BAE700BFACFF0200032931D86B
:10B8D00030B463B303680431D3F8004520F8112075
:10B8E0000CBB028AC3F80445C3F80825827CC3F860
:10B8F0000C250830022504210122C3F81055C3F895
:10B900001445C3F82005C3F82415C3F82845C3F827
:10B910002C45C3F84045C3F84445C3F84845C3F82F
:10B920004C45C3F800250120986030BC704742F4B4
:10B930000042CFE70020704730B4264D046815F868
:10B940002110D4F86055A9420ED0D4F864558D4228
:10B950003AD0D4F86855A94238D0D4F86C558D4205
:10B9600036D0002030BC704700210BB942F40042B1
:10B970000431D4F8003520F811200BBB028AC4F83A
:10B980000435C4F80825827CC4F80C25083002254B
:10B9900004210122C4F81055C4F81435C4F8200558
:10B9A000C4F82415C4F82835C4F82C35C4F840353B
:10B9B000C4F84435C4F84835C4F84C35C4F80025FB
:10B9C0000120A06030BC70470121CEE70221CCE706
:10B9D0000321CAE7ACFF0200214B5B6809B90020D4
:10B9E000704710B4BFF35B8F4368BFF35B8F99421E
:10B9F00000F1040416D0BFF35B8F4368BFF35B8F85
:10BA000083B90368D3F86025D3F86405D2430028CE
:10BA1000D3F868054FEAD272A8BF0132002805DBCF
:10BA2000D3F86C3500205DF8044B7047D3F86C05F3
:10BA30000028F7DA002AF5D1D3F80035002BF1D130
:10BA4000BFF35B8F54E8003F002B03D144E80012A2
:10BA5000002AF7D1BFF35B8F0CBF01200020E2E783
:10BA600000ED00E008B507490748FFF793FE0749D6
:10BA70000748FFF78FFE07490748BDE80840FFF772
:10BA800089BE00BF00C00140CC440020001002402D
:10BA9000E044002000200240F444002000F10803AC
:10BAA0004FF0FF310022816002604360C0E9033340
:10BAB000704700BF00230361704700BF43680268FE
:10BAC00010B49C688C609C684B6001326160996026
:10BAD0005DF8044B08610260704700BF30B40D6828
