:020000022000DC
:1060000000000120C1B2020001B3020003B302008C
:1060100005B3020007B3020009B30200000000004C
:106020000000000000000000000000003DB202007F
:106030000DB30200000000005DB2020011B30200C7
:1060400013B3020013B30200658E0200E573020071
:1060500013B3020013B3020013B3020013B3020020
:1060600013B3020013B3020013B3020013B3020010
:1060700013B3020013B3020013B3020013B3020000
:1060800013B30200C9AF0200557E020013B3020031
:1060900013B3020013B3020013B3020013B30200E0
:1060A00013B3020013B3020013B3020013B30200D0
:1060B00013B3020013B30200000000000000000050
:1060C00013B3020013B3020013B3020013B30200B0
:1060D00013B3020013B3020013B302000000000068
:1060E00000000000000000000000000000000000B0
:1060F00000000000000000000000000000000000A0
:10610000000000000000000000000000000000008F
:10611000000000000000000000000000000000007F
:10612000000000000000000000000000000000006F
:10613000000000000000000000000000000000005F
:10614000000000000000000000000000000000004F
:10615000000000000000000000000000000000003F
:10616000000000000000000000000000000000002F
:10617000000000000000000000000000000000001F
:10618000000000000000000000000000000000000F
:1061900000000000000000000000000000000000FF
:1061A00000000000000000000000000000000000EF
:1061B00000000000000000000000000000000000DF
:1061C00000000000000000000000000000000000CF
:1061D00000000000000000000000000000000000BF
:1061E00000000000000000000000000000000000AF
:1061F000000000000000000000000000000000009F
:10620000F1EE103A43F08073E1EE103A704700BFB0
:1062100010B5054C237833B9044B13B10448AFF3E0
:1062200000800123237010BD1838002000000000FA
:10623000580C030008B5034B1BB103490348AFF3E7
:10624000008008BD000000001C380020580C03002E
:10625000154B002B08BF134B9D46A3F5803A002138
:106260008B460F461348144A121A07F022FD0F4BB3
:10627000002B00D098470E4B002B00D098470020F1
:10628000002104000D000D48002802D00C48AFF397
:10629000008007F0CFFC2000290005F05FF807F030
:1062A000B5FC00BF00000800000001200000000055
:1062B00000000000183800206045002000000000A9
:1062C0000000000000207047F8B572B106460C4689
:1062D0008F180025336814F8011B1B683046984757
:1062E000A7420544F6D12846F8BD15462846F8BD14
:1062F00090ED000B704700BF08B5006807F0D6F8B6
:1063000041EC100B08BD00BF2DE9F04F2DED028BC5
:106310008FB002F003FE8246DB4801F087FD0028C3
:1063200006D0DA4A1368CCBF013303F1FF331360A0
:10633000D74C236853450DD0D648D74D01F0EAFC21
:106340000721D44801F058F907F0A0F8C5E9000189
:10635000C4F800A01C2005F06FFC5023009340F20D
:10636000FF321923002102F0CBFD07F09FF8CB4F3D
:10637000CB4DC7E9000105F128082E462C46042024
:1063800005F05AFC44F8040BA045F8D1D6ED007A8C
:106390009FEDC46ADFF84CB3B8EEE77AD6ED017A28
:1063A000F8EEE76AD6ED027A37EE267AF8EEE77A6B
:1063B000D6ED036A77EE877AF8EEE66A96ED047A10
:1063C00076EEA76AB8EEC77AD6ED057A77EE266A3A
:1063D000B8EEE77AD6ED067A37EE267AF8EEE77A67
:1063E000D6ED076A77EE877AF8EEE66A96ED087AD8
:1063F00076EEA76AB8EEC77AD6ED097A37EE267A36
:10640000F8EEE77AB7EE008A77EE877A86EE270A0B
:1064100030EE480A88EE000A06F032FEDFEDA27A7E
:1064200060EE277A17EE900A07F052F892A3D3E9AC
:10643000002306F0EFFE07F085FB07EE900AC8EE9A
:10644000277A17EE900A07F043F88DA3D3E90023CB
:1064500006F0DEFE07F076FB07F03AF8934B1B7868
:10646000CBE90001002B40F05681914B0293D3E918
:1064700000894946404607F01DFB00236422194667
:106480000092FF2202F03CFD07F010F8D7E900234C
:10649000DFF85482DFF85492C8E90001C9E900230B
:1064A000042005F0C9FB45F8040BA542F8D1D6ED50
:1064B000017ADFED7C5A7F4D7F4CB8EEE77AD6ED5E
:1064C000007AF8EEE76AD6ED027A37EE267AB8EE71
:1064D000E76AD6ED037A36EE076AF8EEE76AD6ED9C
:1064E000047A36EE866AF8EEE76AD6ED057A76EE3D
:1064F000866AB8EEE77AD6ED067A37EE267AB8EEF7
:10650000E76AD6ED077A36EE076AF8EEE76A96EDA7
:10651000087AD6ED097A694E76EE866AB8EEC77AC1
:10652000F8EEE77A37EE267AB7EE008A77EE877ACA
:1065300085EEA70A30EE480A88EE000A06F0A0FDB4
:10654000DFED597A60EE277A17EE900A06F0C0FF69
:1065500049A3D3E9002306F05DFE07F0F3FA07EE46
:10656000900AC8EE277A17EE900A06F0B1FF44A30E
:10657000D3E9002306F04CFE07F0E4FA07EE900A98
:10658000FDEEE77ADBE90023C5ED007AD7E90001EB
:1065900006F03EFE2368AAEB0303632BC6E9000165
:1065A00040F2A880464E474900273046A6F84C7076
:1065B00002F06CF899ED000B0221304602F014F95C
:1065C0004149304602F062F84FF48073A6F84C302F
:1065D0003E49304602F05AF829680A22304602F055
:1065E00067F83949304602F051F8284B38491A68A3
:1065F0004FF40073A6F84C304FF44075304602F06B
:1066000021F9D8E900233349A6F84C50304602F06E
:1066100019F9214B30494FF48065D3E90023304606
:10662000A6F84C5002F00EF94FF4C063A6F84C30B7
:10663000022005F0D1FA0C2005F0C8FA1F2005F061
:10664000FBFA08EE100A384605F0C6FA0A2005F0F3
:10665000BDFAB8EE488ADFED217A68EE277A17EEA8
:10666000900A06F035FF02460B4630461C4902F000
:10667000E9F83DE0AFF3008083DBB5DCE1796B3F07
:1066800066666666661271403C3A002088380020D3
:10669000DC380020603800203838002058380020CE
:1066A000E438002000D81F462CBB84398C380020E9
:1066B0005038002070390020E03800207839002060
:1066C0000C390020BCFE0200C8FE0200CCFE020015
:1066D000D8FE0200E8FE0200F8FE020021B0863A71
:1066E00004FF02004838002060390020683900208B
:1066F000C4F800A0524800F0F1FB029BD3E900016E
:1067000007F000FA014610200FB0BDEC028BBDE887
:10671000F04F05F0D3B902F001FC4A4B4A4A1B681E
:1067200012680B90C31A9342FFF69FAE9BED007B5D
:10673000D7E9000153EC172B8DED087B06F068FDBF
:10674000424BDFF82481D3E90023CDE90C0106F0A8
:1067500017FFD8E9002306F05DFD3D4B93ED007B6C
:106760008DED047BC8E90001DDE90423CDE90601D4
:1067700007F096F900284ED09DED047B88ED007B54
:106780008DED067B334B344A0292DDE90C01D3E9EF
:10679000002306F0F5FE894630498046D1E9002302
:1067A000DDE9080106F034FD2D4BD3E9002306F0A6
:1067B000E7FE02460B464046494606F029FDDDE964
:1067C000062306F027FD244B80468946C3E900894D
:1067D000DDE9040142464B4607F044F958B9214B24
:1067E00093ED007B4046494653EC172B8DED047B1F
:1067F00007F038F930B19DED047B174B83ED007B3A
:1068000059EC178B9DED087B144B0B9A83ED007BA5
:106810000C4B1A602DE6134B93ED007BDDE906016E
:1068200053EC172B8DED027B07F01CF90028A9D043
:106830009DED027B88ED007B8DED067BA2E700BF1E
:10684000C8380020B03800200436002098380020D6
:10685000B8380020A038002050380020A838002088
:1068600090380020C03800204038002070B5174C08
:10687000174E184D82B0204600F05EFE324620468C
:10688000154906F0F7FB154A154B164900911446B9
:10689000002144F8083B51602046A2F84C10124BEE
:1068A000124A134901F0C2FEFF231A461946204638
:1068B00001F0B0FB284600F0B5F90E4932462846F3
:1068C00002B0BDE8704006F0D5BB00BF60380020C4
:1068D00000360020C8380020497502000C3900201D
:1068E000B0FE0200FD7E0200258002001D83020032
:1068F000E98302003D6C02002DE9F04F4FF4E131D5
:1069000087B0A148DFF804A302F0B2F89F4800F076
:10691000D7FB97A7D7E90067DAE900459C4A9D4B6A
:106920004FF000084FF00009C2E90089C3E9006791
:106930002046294632463B4607F0B2F8002800F0D0
:10694000E880CAE9006734463D46DFF8C4A20FF28A
:106950002029D9E90089DAE9006742464B463046EA
:10696000394607F09DF850B94FF000084FF0000984
:106970003046394642464B4607F074F808B1CAE93A
:106980000089854BDFF88C921868DFF88CB206F02E
:106990008DFD824B4FF00008C3E9008976A3D3E94F
:1069A000002306460F4606F0EBFDDFF87082DFF8A5
:1069B00070923B46CBE90001324671A1D1E900015A
:1069C00006F008FF98F80030C9E90001002B00F03C
:1069D000AE80734A734D6D48012300243921C2E90A
:1069E000004588F8003000F03BFC0023674A6E4801
:1069F000392100F0ABFDFE216B4801F08FF9002139
:106A0000694801F09FF90821674801F0B1F966482B
:106A100000F002FF654801F0C3FD644801F0F2FD9B
:106A20000021624801F0C6FD6149604801F082FB27
:106A3000604800F0E1FA502004F0CEFC0546044620
:106A400000F150062046103400F0CAFAA642F9D1EF
:106A500002AC594B00932046584B594A59495A4E5B
:106A60005A4F00F0C1FA94E80F00009685E80F0035
:106A70002046524B564A574900F0B6FA94E80F00A8
:106A800005F11006009786E80F002046524B534A46
:106A90005349544F00F0A8FA94E80F0005F120067E
:106AA000009786E80F002046444B4F4A4F49504F0D
:106AB00000F09AFA94E80F0005F13006009786E896
:106AC0000F0020463D4B4B4A4B4900F08DFA94E8AD
:106AD0000F004FF4487705F14004002684E80F00CA
:106AE0002A460197009605234449324800F0CAF827
:106AF0004FF0FF330B220F21414801F04DF9404880
:106B000001F07AF901213E4801F08AF907B0BDE8A9
:106B1000F08F42464B462046294606F0A3FF002848
:106B20003FF413AFCAE9008944464D460DE7354AA4
:106B3000354BD2E900010EA7D7E90067C3E9000190
:106B400032463B462046294606F0AAFF58B90026A1
:106B500000272046294632463B4606F083FF10B9FF
:106B6000CAE9004535E7CAE9006732E7AFF30080BC
:106B70000000000000E06F402D431CEBE2364A3F6E
:106B8000000000000070B7404C3A0020803900201F
:106B9000C0380020B838002004360020A03800207B
:106BA0005838002000003E40603800201439002092
:106BB00078000300C838002024FF0200F1620200C0
:106BC0006039002014FF020038FF020048FF020075
:106BD000683900202CFF0200F962020070390020A1
:106BE00040FF020058FF02007839002050FF0200E9
:106BF0006CFF02003838002060FF020074FF0200C2
:106C00003C3A002048380020A838002050380020A6
:106C10004038002000002240983800208C380020A6
:106C20009038002010B50023C0E90333036083606F
:106C3000044602F073F96060204610BD70B5C46868
:106C40002568064655B91BE0184604F0E5FB2046CA
:106C500004F0D2FB2B6853B12C461D4663692046D5
:106C6000002BF1D104F0C8FB2B68002BF4D168692C
:106C700008B104F0D1FB284604F0BEFB304670BDDD
:106C80002546F4E72DE9F042044618200D46174644
:106C90001E469DF8189004F08FFB0799E268866005
:106CA000002380F80490C0E903154761036052B1E6
:106CB00023691860206123680133236002F02EF9F4
:106CC0006060BDE8F082C4E90300F4E72DE9F0411B
:106CD0000C4605467049714801F0D8FC64BB6F480A
:106CE0006F49704F064601F0D1FC6F49304601F004
:106CF000CDFC6E49304601F0C9FCAB6800249C42D3
:106D000014DA6B6903EB0413D3E9020290470821FC
:106D1000304601F069FDAB6801349C42EFDA394638
:106D2000304601F0B3FCAB689C42EADB60495B484B
:106D3000BDE8F04101F0AABC58485949DFF8648128
:106D400006460F4601F0A2FC5A49304601F09EFC6F
:106D50005949304601F09AFC3946304601F096FC1C
:106D60002969304601F092FC3946304601F08EFC2C
:106D70005249304601F08AFC5149304601F086FC08
:106D80004D49304601F082FC0A222979304601F053
:106D90008FFC4A49304601F079FC4A49304601F0FF
:106DA00075FC4549304601F071FC0A22E96830461D
:106DB00001F07EFC4149304601F068FC4249304612
:106DC00001F064FC3C49304601F060FC0A22A968ED
:106DD000304601F06DFC3949304601F057FC3B4923
:106DE000304601F053FC3149304601F04FFCAB68AE
:106DF00000249C423946304618DA01F047FC230152
:106E00006A693046D15801F041FC3946304601F0FC
:106E10003DFCAB6801349C42EBDA4146304601F060
:106E200035FCAB689C4239463046E6DB1B482849B6
:106E30001B4FDFF87080064601F028FC25493046DC
:106E400001F024FC1949304601F020FCAB68002415
:106E50009C423946304619DA01F018FC6B6903EBA5
:106E600004133046596801F011FC3946304601F0F0
:106E70000DFCAB6801349C42EADA4146304601F031
:106E800005FCAB689C4239463046E5DB12490348B5
:106E900001F0FCFB23E700BF8CFF02004C3A00200E
:106EA00090FF0200B4FF0200E4FE0200B0FF020007
:106EB000C4FF020094FF020098FF02009CFF020042
:106EC000A0FF0200A4FF0200A8FF0200ACFF020026
:106ED000B8FF0200BCFF0200C0FF02002DE9F04134
:106EE000064633493348B46801F0D0FB3249314893
:106EF00001F0CCFB31492F4801F0C8FB02F00EF83D
:106F0000B4FA84F501460A222A486D0901F03EFCD4
:106F10005CB32B49274801F0B9FB2A49254801F009
:106F2000B5FB2949234801F0B1FBF4686CB1DFF8E7
:106F3000AC80204F20462946FFF7C8FE2468414612
:106F4000384614B101F0A2FBF4E72049194801F0DA
:106F50009DFB1F49174801F05DFCB3680133312BDD
:106F6000C8BF0023B360BDE8F0811549114801F0A6
:106F70008DFB18490F4801F089FB10490D4801F0BD
:106F800085FB0A2231680B4801F092FB0C49094845
:106F900001F07CFB1049074801F078FB07490548E0
:106FA00001F074FB0A227168024801F0EFFBB0E7C0
:106FB00078FF02004C3A002094FF020098FF020084
:106FC0009CFF020084FF0200B0FF0200C4FF020029
:106FD00088FF02007CFF020080FF0200B4FF020075
:106FE0000022C0E90222704730B4029D4560016072
:106FF000C0E9022330BC704710B54FF4E1310446BC
:10700000034801F035FD01F089FF606010BD00BF4D
:107010004C3A0020704700BF203001F059BC00BF3F
:10702000203001F047BC00BF203001F057BC00BF4A
:1070300038B5437F0BB9002038BD00F16804204605
:107040000D4601F053FC0028F5D12046294601F0F9
:107050001FFC012038BD00BF2DE9F0475AB306469A
:10706000DFF8588033681B684D1E434517464FF0C4
:10707000000400F1680915F801AF16D1737F13B948
:107080002046BDE8F087484601F030FC0028F7D1E3
:107090005146484601F0FCFB0134A742F0D033686A
:1070A00015F801AF1B684345E8D051463046984774
:1070B0000028F1D1E4E71446E2E700BF3170020096
:1070C00030B4827E4FF0A04302F5E07240F20C64CF
:1070D0000121C17643F82240427E02F5E0724FF072
:1070E000CC7543F822400369C3F82455036906228E
:1070F000C3F800250369827EC3F808250369427E30
:10710000C3F80C2590F91830002B13DA124A03F05B
:107110000F031A446023137690F91830002B07DB15
:107120000E4903F01F0001225B09824041F8232031
:1071300030BC70475C09603403F01F03074A01FA52
:1071400003F342F8243090F91830002BDEDB1344AF
:10715000602283F80023DFE7FCEC00E000E100E0C0
:10716000C37EE3B10E4B026910B499424FF00004A4
:10717000C2F8004510D90B4B994294BF4FF0806183
:107180004FF0C86103695DF8044BC3F82415036927
:107190000622C3F8002570474FF0CC71F2E7704724
:1071A000A086010090D003000AB9104670472DE96F
:1071B000F041054600F12008404614461E460F46A1
:1071C00001F074FB2B69C3F888752A6901231362E7
:1071D0002A69C2F834852A69C2F838452A691360D9
:1071E0002A6902E0D2F824311BB9D2F84C110029E7
:1071F000F8D00023C2F84C312A6902E0D2F82411F9
:1072000019B9D2F85C110029F8D00023C2F85C311A
:107210002B696EB9D3F8242152B90122DA612A69A7
:10722000D2F84831002BFBD00023C2F8483109E0E6
:1072300001225A612A69D2F80431002BFBD00023C5
:10724000C2F804312B69D3F824211AB10022C3F803
:1072500024212B69D3F83C052866C0B2BDE8F08133
:1072600010B50446683084F8B01001F01FFB01230C
:10727000637710BDF8B504460020236994F8B02068
:107280006077C3F88825236901271F62236904F109
:107290006806C3F8446530460D4601F019FB2369C2
:1072A000C3F8480523699F60236902E0D3F82421CD
:1072B0001AB9D3F85021002AF8D00022C3F850217F
:1072C000304601F005FB236940BB0022C3F8602172
:1072D000236915B9D3F824212AB301225A612269FE
:1072E000D2F80431002BFBD00023C2F8043123690B
:1072F000D3F8240168B10022C3F824212369D3F80C
:10730000C404C3F8C404022803D0042814BF042012
:107310000320F8BDD3F82421002AD6D1D3F8602168
:10732000002AF7D0D1E70122DA612269D2F8483188
:10733000002BFBD00023C2F84831D8E770B50369B1
:1073400090F8B02000214177C3F888250369012611
:107350001E62036900F168050446C3F844552846D7
:1073600001F0B6FA2369C3F8480523699E602369D2
:1073700002E0D3F824211AB9D3F85021002AF8D01A
:107380000022C3F85021284601F0A2FA236918BB55
:107390000022C3F86021236901225A612269D2F8D0
:1073A0000431002BFBD00021C2F804112369D3F86B
:1073B000240160B1C3F824112369D3F8C404C3F8CD
:1073C000C404022803D0042814BF0420032070BD85
:1073D000D3F82421002ADBD1D3F86021002AF7D08A
:1073E000D6E700BF70B5294C6369D3F86421002A41
:1073F0003AD1D3F86821E2B9D3F8042162B1227FEF
:107400000021C3F804113AB1D4F8B820D3F83C05F0
:1074100020660AB190476369D3F8242142B1002263
:10742000C3F82421D3F8D024C3F8D02401225A6110
:1074300070BD0022C3F868211548227701236377C5
:1074400001F034FAD4F8B43003B1984763691048B6
:10745000C3F844050023637701F03AFA6369012217
:10746000C3F848055A63C7E7002204F12006C3F8B1
:10747000642101253046257701F018FA636940221E
:10748000C3F83465C3F838251D63B2E7803900209E
:10749000E839002038B50E4C0E4A20464FF47A7376
:1074A00040F8202B0025C4E9015301F0E7F904F16D
:1074B000680001F0E3F9084A084B6577D2E9191230
:1074C000032020766176A276C4E9043338BD00BF7C
:1074D00080390020D0FF02007C070300003000400C
:1074E000F0B591B0012400258168019423469222D1
:1074F0000646009504A804F069FF04A804F0DCFF28
:1075000010EA040702D0284611B0F0BDB168234646
:10751000CDE900740AA8802204F058FF0AA93B466E
:10752000224602A805F06CF8214602A805F0DEF814
:10753000204611B0F0BD00BF024A02600022027175
:1075400082607047F4FF0200704700BF2DE9F041F0
:107550000446806890B00E461746984608B103F07E
:107560004BFF102003F028FF3A460546314605F050
:10757000A7F9A5602846012105F0ACF9054618B920
:10758000284610B0BDE8F08123681A4A1B68934270
:107590002AD101260027A16801963346922204A829
:1075A000009704F013FF04A804F086FF10EA060811
:1075B00004D03D46284610B0BDE8F081A1683346AE
:1075C000CDE900860AA8802204F000FF0AA94346FC
:1075D000324602A805F014F8314602A805F086F8F4
:1075E000284610B0BDE8F081414620469847054640
:1075F000C6E700BFE174020000EB410188897047D3
:1076000070B588B0002401250646816801952B4697
:10761000224602A8009404F0D9FE224602A8302196
:1076200004F0E4FEB1682B462A46CDE9004502A8E5
:1076300004F0CCFE2246294602A804F0D7FEB16829
:107640002B46CDE9004502A8022204F0BFFE2246E7
:10765000214602A804F0CAFEB1682B46CDE90045D8
:1076600002A8032204F0B2FE2246214602A804F03A
:10767000BDFEB1682B46CDE9004502A8042204F006
:10768000A5FE2246214602A804F0B0FEB1682B46B2
:10769000CDE9004502A8052204F098FE224602A882
:1076A000422104F0A3FEB1682B46CDE9004502A8B3
:1076B000062204F08BFE2246214602A804F096FE24
:1076C000B1682B46CDE9004502A8072204F07EFEF2
:1076D0002246214602A804F089FEB1682B46CDE976
:1076E000004502A8082204F071FE224602A850219B
:1076F00004F07CFEB1682B46CDE9004502A80922C2
:1077000004F064FE2246214602A804F06FFEB16830
:107710002B46CDE9004502A80A2204F057FE224676
:10772000214602A804F062FEB1682B46CDE900456F
:1077300002A80B2204F04AFE2246214602A804F0C9
:1077400055FEB1682B46CDE9004502A80C2204F095
:107750003DFE224602A8202104F048FEB1682B46D7
:10776000CDE9004502A80D2204F030FE224602A811
:10777000042104F03BFEB1682B46CDE9004502A888
:107780000E2204F023FE2246214602A804F02EFE1B
:10779000B1682B46CDE9004502A80F2204F016FE81
:1077A000224602A8302104F021FEB1682B46CDE923
:1077B000004502A8102204F009FE2246294602A82C
:1077C00004F014FEB1682B46CDE9004502A8112251
:1077D00004F0FCFD224602A8502104F007FEB16827
:1077E0002B46CDE9004502A8122204F0EFFD224607
:1077F000214602A804F0FAFDB1682B46CDE9004508
:1078000002A8132204F0E2FD224602A8062104F099
:10781000EDFD08B070BD00BF70B58AB00124002630
:10782000816880F8246005462346019480220096F2
:1078300004A804F0CBFD2346224604A902A804F0C4
:10784000DFFE314602A804F051FFA9682346CDE9C6
:107850000064AF2204A804F0B9FD0323022204A9A6
:1078600002A804F0CDFE022102A804F03FFF284642
:10787000FFF7C6FEA9682346CDE90064802204A86C
:1078800004F0A4FD224604A9042302A804F0B8FED3
:10789000214602A804F02AFF40F2E93405E0013C49
:1078A0004FF0010006D001F045FB02A804F0B0FE45
:1078B0000028F4D101240022A968009223460194F3
:1078C000802204A804F082FD2346224604A902A8CF
:1078D00004F096FE214602A804F008FF204685F831
:1078E00024400AB070BD00BF70B588B000240125E7
:1078F0000646816801952B46224602A8009404F0B2
:1079000065FD2246214602A804F070FDB1682B46B1
:107910002A46CDE9004502A804F058FD224621463A
:1079200002A804F063FDB1682B46CDE9004502A82A
:10793000022204F04BFD2246214602A804F056FD27
:10794000B1682B46CDE9004502A8032204F03EFDB4
:10795000224602A8402104F049FDB1682B46CDE93A
:10796000004502A8042204F031FD224602A80221AB
:1079700004F03CFDB1682B46CDE9004502A8052284
:1079800004F024FD2246214602A804F02FFDB16830
:107990002B46CDE9004502A8062204F017FD224639
:1079A00002A8102104F022FDB1682B46CDE9004564
:1079B00002A8072204F00AFD224602A8032104F0CF
:1079C00015FDB1682B46CDE9004502A8082204F058
:1079D000FDFC224602A8502104F008FDB1682B46A8
:1079E000CDE9004502A8092204F0F0FC224602A8D5
:1079F000102104F0FBFCB1682B46CDE9004502A83C
:107A00000A2204F0E3FC224602A8032104F0EEFC63
:107A1000B1682B46CDE9004502A80B2204F0D6FC44
:107A20002246214602A804F0E1FCB1682B46CDE9CC
:107A3000004502A80C2204F0C9FC2246214602A8F7
:107A400004F0D4FCB1682B46CDE9004502A80D2214
:107A500004F0BCFC2246214602A804F0C7FCB16831
:107A60002B46CDE9004502A80E2204F0AFFC2246C9
:107A700002A8242104F0BAFCB1682B46CDE90045E8
:107A800002A80F2204F0A2FC2246214602A804F01C
:107A9000ADFCB1682B46CDE9004502A8102204F0E8
:107AA00095FC2246214602A804F0A0FCB1682B46B2
:107AB000CDE9004502A8112204F088FC224602A864
:107AC000502104F093FCB1682B46CDE9004502A893
:107AD000122204F07BFC2246214602A804F086FC18
:107AE000B1682B46CDE9004502A8132204F06EFCD4
:107AF000224602A8062104F079FC08B070BD00BF40
:107B00002DE9F041836890B00124002705460194D7
:107B100080220E460AA819460097234604F056FC18
:107B2000234622460AA904A804F06AFD394604A89F
:107B300004F0DCFDA9682346CDE90074AF220AA851
:107B400004F044FC032302220AA904A804F058FD0F
:107B5000022104A804F0CAFD2846FFF751FDA968D8
:107B60002346CDE9007480220AA804F02FFC2246A7
:107B70000AA9042304A804F043FD214604A804F044
:107B8000B5FD40F2E93405E0013C4FF0010006D0BC
:107B900001F0D0F904A804F03BFD0028F4D1012441
:107BA0000027A96801942346802200970AA804F0C0
:107BB0000DFC234622460AA904A804F021FD214613
:107BC00004A804F093FDB84602E0012001F0B2F9E8
:107BD000A9680123A322CDE900840AA804F0F6FBDA
:107BE000062301220AA904A804F00AFD04A804F04F
:107BF0000FFD0028E9D0A9680223CDE90084952271
:107C000004A804F0E3FB0C22314604A804F0BCFCF9
:107C1000A9680123CDE90084802207460AA804F060
:107C2000D5FB01231A460AA902A804F0E9FC0021A9
:107C300002A804F05BFDA9680123CDE90084AF220E
:107C40000AA804F0C3FB032302220AA902A804F035
:107C5000D7FC022102A804F049FD2846FFF744FEA4
:107C6000A9680123CDE9008480220AA804F0AEFBB4
:107C7000042301220AA902A804F0C2FC02A80121DF
:107C800004F034FD40F2E93405E0013C4FF001001E
:107C900006D001F04FF902A804F0BAFC0028F4D194
:107CA00001244FF00008A96801942346CDF8008014
:107CB00080220AA804F08AFB0AA92346224602A8C9
:107CC00004F09EFC214602A804F010FD02E0012011
:107CD00001F030F9A9680123A322CDE900840AA8A4
:107CE00004F074FB062301220AA902A804F088FC10
:107CF00002A804F08DFC0028E9D037B106F10C0190
:107D000004A80C2204F040FC0746384610B0BDE839
:107D1000F08100BF00F10C01FFF7F2BE30B58268C0
:107D200089B0012300240D46CDE90043114602A885
:107D3000812204F04BFB2246294602A804F056FBA0
:107D400009B030BD30B5826889B0002401230D46EA
:107D5000CDE900431146022302A8CA2204F036FBF3
:107D60002246294602A804F041FB09B030BD00BFFD
:107D700030B5826889B0012300240D46CDE9004367
:107D8000114602A8AA2204F021FB2246294602A895
:107D900004F02CFB09B030BD2DE9F843144C154D0F
:107DA0004FF00009174608468846C4F80895022196
:107DB0001E4604F00DF83846022104F009F855F883
:107DC0002830C4F8203555F82730C4F824354E45FE
:107DD00007DB4946304603F0FBFF55F82630C4F870
:107DE0001C35034B0022C3F82825BDE8F88300BFEB
:107DF000002001407C070300074BD3F804332BB16C
:107E0000064B4FF48022C3F880211A60024B0122F6
:107E1000C3F800251A6070470020014000E100E02F
:107E2000014BC3F82815704700200140084B012280
:107E3000DA60D3F81815D0E90023521AD31A03EBED
:107E4000D3735B10026018BF42601846704700BFD2
:107E500000200140144BD3F80423D20702D5D3F8F5
:107E6000002102B9704770B5104CA268002184B09F
:107E7000C3F80011AAB10126DE60D3F81805D4E9D1
:107E800000532D1AEB1A03EBD37353FA06F0256057
:107E900007D004AB009643F8040D0846656003F074
:107EA00051FD04B070BD00BF002001403C3A0020ED
:107EB000024B0022C3E900229A6070473C3A00203E
:107EC00038B50A29456A90F84D200ED004460B4675
:107ED000083090F84410AD7800F02EF994F84C304A
:107EE0001D4484F84C50012038BDE97800230A4431
:107EF00080F84D2080F84C30012038BD30B5A1F11C
:107F0000280383B00546252B14D8DFE803F05C2A4C
:107F1000272743501313131313131313131313139C
:107F20001313131313131313131313131313131321
:107F3000131330303F295FD901F03F016B1893F8DC
:107F40002C00FF280AD00F2958D910295BD003F044
:107F500093FF003018BF012085F82700012003B0EF
:107F600030BD104600F0E6FF012003B030BD01F047
:107F70003F010D44019295F82C00002A37D10121D0
:107F800003F026FF019A95F82C00114603F062FFDA
:107F90000120E4E7002A14BF01200020DED01C4BA2
:107FA000800143F001039847012003B030BD184B16
:107FB000022A8CBF80204FF4A07043F00103984741
:107FC000012003B030BD2B35002415F8013FFF2BF5
:107FD0004FF00101184605D00F2C84BF184602212E
:107FE00003F0F6FE0134E4B2162CEED1B6E702211E
:107FF00003F0EEFE0120B2E70020B0E7114603F0E7
:1080000029FF0120ABE7019003F0B6FB01989EE742
:108010000000030080F8371080F8382080F83930ED
:10802000704700BF143920B505460C292CD8DFE86D
:1080300001F0122B2B071F0D2B2B2B2B2B2B0B00A7
:1080400019461248FFF708F8012020BD0F48FFF736
:1080500075F9012020BDAB692BB92A680C4B527B06
:1080600003FB02F3AB610948FFF72AF8012020BDAA
:10807000A9690648FFF774F895F8241003484908E1
:10808000FFF7EEF8012020BD002020BD8039002040
:10809000A0860100F0B405689DF810702E78964215
:1080A00002D86C7894420CD20022C3E900220A78EC
:1080B0002AB1D3E90012C943D243C3E90012F0BC8C
:1080C000704795F802C0EC7814FB0CF4961BE2B2F2
:1080D00002FB06F217FA82F292B2D20092B2161D99
:1080E000B6B2541DAD5D1D700668A5B2941D755DD8
:1080F0005D700668A4B2D51D345D9C700668ADB293
:1081000002F10804755DDD700668A4B202F109058C
:10811000345D1C710668ADB202F10A04755D5D71D3
:108120000568A4B20B322C5D9C71006892B2825C2F
:10813000DA71BCE7C16170472DE9F04F82468BB020
:108140000C4607915AF81C1F81468878C978174653
:108150003944224600EB040801329B46CBB25FFA59
:1081600088F8D2B205930346904538BF01230693A1
:1081700009F1230303930023049308AE049D079C95
:10818000009533465A4603995046FFF783FF214630
:108190000134009601233A464846E4B200F0E2F981
:1081A0000135A045EDB2EBD8049B069A1344DBB22F
:1081B00001370493059BFFB2BB42DFD80BB0BDE88B
:1081C000F08F00BF10B404691346A4460A465DF858
:1081D000044B1721604700BF00B583B002AA02F824
:1081E000011D0121FFF7EEFF03B05DF804FB00BFA6
:1081F00010B404690023A4461A4618215DF8044B04
:10820000604700BF10B404690023A4461A46192130
:108210005DF8044B604700BF70B5044616460D4636
:10822000FFF7E6FF20464021FFF7D6FF33462A46F8
:10823000204625691721A8472046BDE87040FFF772
:10824000E1BF00BF10B4C4680A46A446002315214C
:108250005DF8044B604700BF10B4C4680A46A446EA
:10826000002316215DF8044B604700BF10B4C468BA
:108270001346A4460A465DF8044B1721604700BF29
:1082800010B4C4680023A4461A4618215DF8044BB4
:10829000604700BF10B4C4680023A4461A461921E1
:1082A0005DF8044B604700BF70B5064682B00D46CE
:1082B0002C78172C13D01DD90023192C1A462146CF
:1082C000304626D9FE2C4FF0290120D16A788DF84E
:1082D0000720023500F0A2F92C78172CEBD16B782F
:1082E0008DF807300DF10702012130460235FFF706
:1082F000BDFFDDE7152C4FF000032146304606D3C5
:108300006A788DF80720F4680235A047D0E702B0FC
:1083100070BDF4680135A047CAE700BF14392DE9E4
:10832000F041064614461D46052958D8DFE801F0FD
:108330000C1A2E344B032B4F3B78002B49D10023D2
:108340003B700120BDE8F08190F824300469FF2BD8
:1083500004BF782380F82430A4462B461421BDE8BE
:10836000F04160471F4F3B780BB1FFF74BFF3046A2
:10837000FFF73EFF00213046FFF72EFF2146304633
:10838000FFF72AFF01203870BDE8F0811146FFF7A2
:1083900023FF0120BDE8F081124F3B783BB11BE089
:1083A00018213046FFF738FF183CE4B21835182C76
:1083B0002A46F5D830462146FFF72EFF00233B70B2
:1083C0000120BDE8F081074B00221A700120BDE8B2
:1083D000F081FFF717FFB2E7FFF714FFE7E7002090
:1083E000B0E700BF483A0020F8B5A1F10B070646F8
:1083F00014461D46042F04D8DFE807F057034D3E0E
:108400000F00092959D00A2955D100F07BF83046D0
:108410003349FFF749FF0120F8BDFFF731FF6B79C2
:1084200096F8227007EBC30707F0FF07402130469C
:10843000FFF708FF390941F010013046FFF702FF4E
:1084400007F00F013046FFF707FFA979304641F0EA
:10845000B001FFF701FF29792A68C90001F0F8018E
:108460003046013CFFF702FF14F0FF04F3D1304621
:10847000FFF710FF0120F8BDFFF702FF8121304612
:10848000FFF7E0FE21463046FFF7E6FE3046FFF7F5
:1084900001FF0120F8BDD2B91249FFF705FF33688B
:1084A0009B7C86F822300120F8BD5AB90E49FFF7AF
:1084B000FBFE0120F8BD0020F8BD0C4900F01CF8BF
:1084C0000120F8BD0A49FFF7EFFE0120F8BD094978
:1084D000FFF7EAFE3368DB7C86F8223001209BE759
:1084E00018000300080003005000030060000300B0
:1084F000580003001000030001608B7C80F82230DC
:10850000704700BF38B5002304461A464569282144
:10851000A84700231A46E56820461421A8472046AC
:1085200001224B2100F07AF8236820461A7929218C
:1085300000F074F8204600224B2100F06FF8236809
:1085400020461A79292100F069F8204601224B21A2
:1085500000F064F8236820465A792921BDE83840A4
:1085600000F05CB830B583B002AC069D44F8085DFD
:108570008DF805108DF806208DF8043085682346A7
:1085800001220F21A84703B030BD00BF10B484689A
:108590000023A4461A4609215DF8044B604700BF3A
:1085A00010B484680023A4461A460A215DF8044BDF
:1085B000604700BF10B484680A46A44600230B211C
:1085C0005DF8044B604700BF70B582B001220368BC
:1085D000ADF804200022044600915E7C8DF8062050
:1085E00000E023681A7CA5686B460F212046A84747
:1085F0009DF806300133DBB2B3428DF80630F0D37C
:1086000002B070BD00B583B000236946CDE90033E8
:10861000FFF7DAFF03B05DF804FB00BF10B4446954
:108620000023A4465DF8044B604700BFF0B4FF2769
:10863000002580F8247080F82870049F056080F879
:10864000235080F8265085614FF0FF35C5620563E1
:1086500045638563C563A0F84050C0E90437C0E9AD
:108660000212F0BCFFF792BF08B50121112003F000
:10867000AFFB112003F01AFC1320012103F0A8FB2B
:108680001320BDE8084003F011BC00BF69B170B50C
:10869000054608460C4606F05DF82B680246214662
:1086A00028465B68BDE8704018470846704700BF21
:1086B000F0B50F468BB00568002A3DD00A2A044663
:1086C0001ED100293DDB0AAE00232F4806F8043DE9
:1086D0000B46A0FB0312D20802EB8201A3EB41037D
:1086E000303306F8013D1346002AF2D1304606F039
:1086F00031F86B6802463146204698470BB0F0BD12
:108700000AAED2B20023022A06F8043D2CBF10465E
:108710000A200A46B2FBF0F100FB1127FBB2092F39
:1087200003F130078ABF3733FBB2DBB20A4606F8E3
:10873000013D0029EED1D9E72B68C9B298470BB0AB
:10874000F0BD2B682D2198470AAD002306460E4840
:1087500005F8043D7B42A0FB0321C90801EB81021F
:10876000A3EB4203303305F8013D0B460029F2D15B
:10877000284605F0EFFF2368024629465B6820463D
:10878000984730440BB0F0BDCDCCCCCCF0B50668EA
:108790008BB022B93368C9B298470BB0F0BD0AACB0
:1087A000D2B20023022A04F8043D05462CBF10462D
:1087B0000A20B1FBF0F200FB1217FBB2092F03F104
:1087C00030078ABF3733FBB2DBB2114604F8013DF4
:1087D000002AEED1204605F0BDFF7368024621460F
:1087E000284698470BB0F0BD10B5C2B00446CBB2D6
:1087F0008DED000B02A8064A4FF4807105F076FF5C
:108800002368024602A95B682046984742B010BD23
:10881000FC070300036870B505460C465E6849B165
:10882000084605F097FF214602462846B0472B68C8
:108830005E680446284602220149B047204470BDC4
:10884000040803000EB430B5C2B045A9054651F87E
:10885000042B01910B4602A84FF4807105F0AEFF86
:108860002B68044602A95B682846224698472046A2
:1088700042B0BDE8304003B0704700BF08B54022A9
:10888000002105F016FA0022C0E9102208BD00BF41
:1088900010B4D0E91024531C03F03F039C4218BFCE
:1088A00081545DF8044B18BF036470470023C0E98E
:1088B00010337047D0E91023934206D05A1CC35C92
:1088C00002F03F024264184670474FF0FF30704795
:1088D000D0E91030181A48BF40307047D0E9102353
:1088E000934214BFC05C4FF0FF307047D0E91030A6
:1088F000013303F03F03181AB0FA80F040097047C3
:1089000090F8A300704700BF38B590F99D30002B58
:1089100004460DDB5A09203201211A4803F01F03D7
:1089200001FA03F340F82230BFF34F8FBFF36F8F8C
:1089300023694FF48872C3F8082322690123536026
:108940002269D36023690025C3F8005522694FF0DE
:10895000FF33C2F80C352269C2F814352269C2F817
:108960000835226904F11400C2F81035FFF79EFFA4
:10897000D4F8A40001F050F9C4F8A45084F8A3502E
:1089800038BD00BF00E100E01430FFF7A1BF00BF19
:108990001430FFF7A3BF00BF1430FFF78BBF00BF39
:1089A00090F8A33003B9704710B54FF0FF3104467B
:1089B000D0F8A40000F084FF0023D4F8A4001A46E5
:1089C0001946BDE8104000F031BB00BF10B5036888
:1089D000104A5B6882B093428DF8071013D10446A9
:1089E0004FF0FF31D0F8A40000F06AFF22699DF833
:1089F000073084F85D300123C2F8483522691846F3
:108A0000936002B010BD01220DF10701984702B03A
:108A100010BD00BF198A02002DE9F0471AB31746AE
:108A20008846064600F15D0A00254FF001097C1BCF
:108A3000402C28BF40244FF0FF31D6F8A40000F0AE
:108A40003FFF08EB05012246504605F027F9336940
:108A5000C3F8484533692544AF42C3F80890E6D8C7
:108A60002846BDE8F08715462846BDE8F08700BFD8
:108A700070B50468724A246A944240F0A58090F868
:108A8000A3200346002A40F09E800D46016990F81D
:108A90009F00C1F80C05196993F89E00C1F81405F0
:108AA00093F8A210012900F09E801969C1F86C2585
:108AB000B5F5966F3BD9B5F5166F40F28A80B5F5DE
:108AC000965F40F29E80B5F5165F40F29C80B5F54A
:108AD000615F40F29A80B5F5964F40F29880B5F507
:108AE000E14F40F29680B5F5164F40F29480B5F50F
:108AF000614F40F29380B5F5963F40F29280B5F514
:108B0000E13F40F29080B5F5613F40F28F804D4AE1
:108B1000954240F29180B5F5E12F40F28A80B5F59B
:108B2000612F8CBF4FF080524FF0706201E04FF424
:108B30009E221969C1F824251A690821C2F8001576
:108B40001A6903F15D01C2F844151A690021C2F8DF
:108B500020111A6903F15C01C2F834151A69012168
:108B6000C2F838151A6911601A694FF48870C2F892
:108B7000040393F99D20002A2EDB5409603402F08F
:108B80001F02314801FA02F240F8242093F99D2097
:108B9000002A21DB0244602182F8001393F99D2012
:108BA000002A07DB284802F01F0401215209A140D6
:108BB00040F8221001201C4600F012FC0123C4F8EA
:108BC000A40084F8A33070BD23460022BDE87040A5
:108BD00018474FF41D22ACE71C4902F00F02114464
:108BE00060220A76DAE71A6993F8A000C2F8100545
:108BF0001A6993F8A100C2F808051A69C2F86C1541
:108C000056E7134A95E7134A93E7134A91E7134A45
:108C10008FE7134A8DE74FF41D028AE74FF46B028A
:108C200087E7104A85E74FF0EB7282E74FF06C72EE
:108C30007FE74FF0E8627CE74FF0806279E700BFA2
:108C4000698C020090D0030000E100E0FCEC00E041
:108C500000B013000050270000F03A0000A04E00C2
:108C600000C0750000903A0190F8A330002B51D15C
:108C700010B5036990F89F40C3F80C45036990F85C
:108C80009E40C3F8144590F8A230012B036900F010
:108C90008F80C3F86C25B1F5966F3CD9B1F5166F8E
:108CA00040F29580B1F5965F40F29B80B1F5165F7A
:108CB00040F29980B1F5615F40F29780B1F5964F2F
:108CC00040F29580B1F5E14F40F29380B1F5164F37
:108CD00040F29180B1F5614F40F29080B1F5963F3E
:108CE00040F28F80B1F5E13F40F28D80B1F5613FF8
:108CF00040F28C804A4B994240F28E80B1F5E12FD0
:108D000040F28780B1F5612F8CBF4FF080534FF058
:108D1000706302E070474FF49E230269C2F8243565
:108D200003690822C3F80025036900F15D02C3F856
:108D3000442503690022C3F82021036900F15C0285
:108D4000C3F8342503690122C3F8382503691A6082
:108D500003694FF48871C3F8041390F99D30002B18
:108D600038DB5C09603403F01F032E4902FA03F379
:108D700041F8243090F99D30002B2BDB0B4460220E
:108D800083F8002390F99D30002B07DB254903F081
:108D90001F0401225B09A24041F823200446012060
:108DA00000F01EFB0123C4F8A40084F8A33010BD1A
:108DB00090F8A040C3F81045036990F8A140C3F8AB
:108DC0000845036942F00102C3F86C2563E74FF4DC
:108DD0001D23A2E7144A03F00F031A4460231376FD
:108DE000D0E7124B99E7124B97E7124B95E7124BDE
:108DF00093E7124B91E74FF41D038EE74FF46B039B
:108E00008BE70F4B89E74FF0EB7386E74FF06C73FE
:108E100083E74FF0E86380E74FF080637DE700BFB2
:108E200090D0030000E100E0FCEC00E000B0130093
:108E30000050270000F03A0000A04E0000C075006E
:108E400000903A0108B5054B1BB10548FFF740FDFE
:108E500000B908BDAFF3008008BD00BF00000000EE
:108E6000603A002010B5114C2369D3F810213AB1B3
:108E70000022C3F81021D3F83C2572B901221A60F0
:108E8000D3F8202102B910BD0021D4F8A400C3F802
:108E90002011BDE8104000F055BB94F85C1004F1BF
:108EA0001400FFF7F5FC2369E8E700BF4C3A002007
:108EB00038B50F4C0F4A204600254FF47A7340F81E
:108EC000142BC4E90153FFF7D9FC0B4B0B481A6A6A
:108ED0009B6984F8A2500221C4F8A45084F8A350DE
:108EE000206184F89D1084F89E2084F89F3038BD5E
:108EF0004C3A0020100803007C07030000200040CB
:108F000010B4019C401AE41A04FB00F4521A94FBBA
:108F1000F2F05DF8044B1844704700BF08B501F04B
:108F2000F3F94FF47A72A0FB0223900A40EA8350CF
:108F300008BD00BF034B8002A3FB0030800901F095
:108F400007BB00BFD34D621038B51C469DF81050CA
:108F500043B3002908BF1A460123C4E90F01226068
:108F600084F8463002F018F8D4E90F132268A260A2
:108F700001FB03F1CB1A134400200A44FF21A06334
:108F8000E36084F84410626084F8451004F1100036
:108F900003F01EF904F1240003F01AF902F006F8B8
:108FA00084F84C50204638BDF8B5074615460E46A5
:108FB00069B100FB01F0503003F058F9044690B35A
:108FC000002200F1500380F84620036007E05020A3
:108FD00003F04CF9044630B384F846602460C4E9D9
:108FE0000F7601F0D9FFD4E90F132268A26001FBCC
:108FF00003F1CB1A134400200A44FF21A063E3606D
:1090000084F84410626084F8451004F1100003F005
:10901000DFF804F1240003F0DBF801F0C7FF84F867
:109020004C502046F8BD00242046F8BD2DE9F04FF5
:10903000044685B01D460192884601F0ADFFA26B43
:10904000E36BA84F4FF000099A424E46C0F08B8068
:10905000022D00F006810198002800F03081B9F15E
:10906000000F00F0958001F0A1FF01F045F901F03B
:1090700093FF94F84430FF2B08BF84F8446094F8C1
:109080004530FF2B08BF84F8456001F08FFF01A930
:1090900002A801F05FFC002840F0188101F07CFF7D
:1090A000A26BE36B9A4277D001F080FF01F074FF6E
:1090B00094F845304FFA83FABAF1000F1ADD636A6B
:1090C000C3B104F1240907E00AF1FF33DBB24FFA20
:1090D00083FA7BB1636A6BB1484601F0E1FB00287B
:1090E000F2D001F06FFC0AF1FF33DBB24FFA83FAE2
:1090F000002BEFD1FF2384F8453001F057FF01F03A
:109100004BFF94F844304FFA83FABAF1000F1ADD9E
:109110002369C3B104F1100907E00AF1FF33DBB2A0
:109120004FFA83FA7BB123696BB1484601F0B8FB73
:109130000028F2D001F046FC0AF1FF33DBB24FFA0F
:1091400083FA002BEFD1FF2384F8443001F02EFF87
:1091500001F078F901F020FFA26BE36B9A424FF027
:109160000109BFF475AF226CA66B002A40F0FC80A9
:1091700025680136002D00F01881A663636A002B74
:1091800040F08C8001F012FF012005B0BDE8F08FA7
:1091900002A801F0D3FB66E704F1100901F006FF15
:1091A0004846019901F000FB01F0F6FE94F845A055
:1091B0004FFA8AFABAF1000F1CDD636AD3B104F1E9
:1091C000240B08E00AF1FF3A5FFA8AF34FFA83FAB8
:1091D00083B1636A73B1584601F062FB0028F1D095
:1091E0000AF1FF3A01F0EEFB5FFA8AF34FFA83FAD5
:1091F000002BEED1FF2384F8453001F0D7FE01F0BB
:10920000CBFE94F844304FFA83FABAF1000F06DC33
:1092100015E00AF1FF33DBB24FFA83FA7BB1236921
:109220006BB1484601F03CFB0028F2D001F0CAFBCC
:109230000AF1FF33DBB24FFA83FA002BEFD1FF23A1
:1092400084F8443001F0B2FE01F0FCF8002881D12E
:109250004FF080537B6040BFBFF34F8FBFF36F8FE2
:1092600078E7226CA66B002A82D04146E06804F0C1
:1092700015FD236CE26821685B421A448A42E26071
:1092800080F0898062681344E360022D00F08380DF
:109290000136A663636A002B3FF474AF04F1240027
:1092A00001F0FEFA00283FF46DAF0E4B4FF08052F4
:1092B0005A6040BFBFF34F8FBFF36F8F62E70090DC
:1092C00001F074FE009805B0BDE8F08F01F064FE77
:1092D00094F845506DB2002D18DD636AB3B104F106
:1092E000240607E000ED00E0013DEBB25DB26BB19A
:1092F000636A5BB1304601F0D3FA0028F4D0013D37
:1093000001F060FBEBB25DB2002BF1D1FF2384F8DA
:10931000453001F04BFE01F03FFE94F844506DB231
:10932000002D16DD2369A3B104F1100605E0013D0F
:10933000EBB25DB26BB123695BB1304601F0B0FABC
:109340000028F4D0013D01F03DFBEBB25DB2002BF3
:10935000F1D1FF2384F8443001F028FE01F072F8C7
:10936000002005B0BDE8F08F41465DBBA06804F069
:1093700095FCA368216C62680B44934206F10106D8
:10938000A360FFF4FAAEA663636A2268A260002BB2
:109390003FF4F8AE82E7002E7FF4EFAE0123A36323
:1093A000636A002B3FF4EEAE78E7606801F07CFB67
:1093B000A663636A6560002B7FF470AF00287FF4BA
:1093C00074AFDFE6E06804F069FC236CE2682168B2
:1093D0005B421A448A42E260BFF457AF52E700BFD3
:1093E000F8B50646502002F041FF044670B3002550
:1093F00001232060C0E90F3580F8465001F0CCFD14
:10940000D4E90F322168A56303FB02F39A1A0A44D8
:109410000B44FF27C4E90131E26084F8447004F191
:10942000100084F8457002F0D3FE04F1240002F02D
:10943000CFFE01F0BBFDC4E90055E56084F84C6047
:109440002B462A4629462046FFF7F0FD2046F8BD68
:109450002DE9F0418C4682B004461746EFF31186A1
:10946000402282F31188806BE26B904221D3022B61
:1094700005D0002086F3118802B0BDE8F08194F891
:109480004550226CD4F838806DB252BB236808F185
:109490000108002B4FD06B1CC4F8388037D0013541
:1094A0006DB284F84550012086F3118802B0BDE802
:1094B000F08194F84550226CD4F838806DB2002ABF
:1094C000E4D073B9A06804F0E9FBA368216C62687A
:1094D0000B44934208F10108A360DCD32368A36026
:1094E000D9E76146E068019304F0D8FB206CE2689C
:1094F0002168019B404202448A42E26002D26268D3
:109500001044E060022B10D008F10108C3E7636A41
:10951000002BC8D004F1240001F0C2F90028C2D009
:10952000002FC0D001203860A4E7B8F1000F08BFB9
:109530004FF00108AFE76068019301F0B5FA019BB5
:109540006360A8E738B5EFF31184402383F31188F3
:10955000826BC36B93420ED990F8453001325BB2F7
:1095600082635A1C0BD001335BB280F84530012076
:1095700084F3118838BD002084F3118838BD436A14
:10958000002BF4D024300D4601F08AF90028EED0EB
:10959000002DECD001202860EAE700BF2DE9F0475C
:1095A000044684B08846019201F0F6FCD4F8389065
:1095B000B9F1000F40F09380019B002B00F00A816D
:1095C00002A801F0BBF9B34F4E4604F1240501F0A7
:1095D000EDFC00F091FE01F0DFFC94F84430FF2B2D
:1095E00008BF84F8446094F84530FF2B08BF84F826
:1095F000456001F0DBFC01A902A801F0ABF90028ED
:1096000040F0878001F0C8FCA36B002B40F0E8809D
:1096100001F0CCFC0199284601F0C6F801F0BCFC31
:1096200094F845304FFA83F9B9F1000F06DC15E0E4
:1096300009F1FF33DBB24FFA83F97BB1636A6BB197
:10964000284601F02DF90028F2D001F0BBF909F10C
:10965000FF33DBB24FFA83F9002BEFD1FF2384F8FD
:10966000453001F0A3FC01F097FC94F844304FFA28
:1096700083FABAF1000F1ADD2369C3B104F11009AE
:1096800007E00AF1FF33DBB24FFA83FA7BB12369BB
:109690006BB1484601F004F90028F2D001F092F9CC
:1096A0000AF1FF33DBB24FFA83FA002BEFD1FF232D
:1096B00084F8443001F07AFC00F0C4FE00287ED12A
:1096C0004FF080537B6040BFBFF34F8FBFF36F8F6E
:1096D00001F062FCD4F83890B9F1000F76D0226C1A
:1096E00052B1E168636811449942E16024BF216886
:1096F000E160404604F0D2FA09F1FF33A363236925
:10970000002B40F0C98001F051FC012004B0BDE8FD
:10971000F08701F041FC94F845304FFA83F9B9F134
:10972000000F06DC15E009F1FF33DBB24FFA83F9D5
:109730007BB1636A6BB1284601F0B2F80028F2D021
:1097400001F040F909F1FF33DBB24FFA83F9002B46
:10975000EFD1FF2384F8453001F028FC01F01CFC18
:1097600094F844304FFA83FABAF1000F1ADD2369F6
:10977000C3B104F1100907E00AF1FF33DBB24FFA7D
:1097800083FA7BB123696BB1484601F089F8002860
:10979000F2D001F017F90AF1FF33DBB24FFA83FA86
:1097A000002BEFD1FF2384F8443001F0FFFB00F0E1
:1097B00049FE01F0F1FBA36B63B101F0F7FB01F08F
:1097C000EBFBD4F83890B9F1000F88D1019B002B46
:1097D0007FF4FDAE01F0EAFB002004B0BDE8F087A5
:1097E00001F0E4FB01F0D8FB94F845304FFA83F91F
:1097F000B9F1000F06DC15E009F1FF33DBB24FFAD7
:1098000083F97BB1636A6BB1284601F049F80028FF
:10981000F2D001F0D7F809F1FF33DBB24FFA83F948
:10982000002BEFD1FF2384F8453001F0BFFB01F09E
:10983000B3FB94F844304FFA83FABAF1000F1ADD03
:109840002369C3B104F1100907E00AF1FF33DBB269
:109850004FFA83FA7BB123696BB1484601F020F8D7
:109860000028F2D001F0AEF80AF1FF33DBB24FFA74
:1098700083FA002BEFD1FF2384F8443001F096FBEC
:1098800000F0E0FD01F088FBD4F83890B9F1000F4A
:109890009CD024E700ED00E004F1100001F000F896
:1098A00000283FF430AF054B4FF080525A6040BF64
:1098B000BFF34F8FBFF36F8F25E700BF00ED00E0D0
:1098C0002DE9F043044685B00026019101F064FBC8
:1098D000A36BB24FB0463546002B40F0F380019B9E
:1098E000002B00F05D81B8F1000F00F0FC8001F06A
:1098F0005DFB00F001FD01F04FFB94F84430FF2BBD
:1099000008BF84F8445094F84530FF2B08BF84F812
:10991000455001F04BFB01A902A801F01BF80028FB
:109920006CD101F039FBA36B002B40F0E08001F01B
:109930003DFB2368002B00F03C8104F124094846DC
:10994000019900F031FF01F027FB94F845304FFA00
:1099500083F8B8F1000F06DC15E008F1FF33DBB245
:109960004FFA83F87BB1636A6BB1484600F098FF09
:109970000028F2D001F026F808F1FF33DBB24FFAED
:1099800083F8002BEFD1FF2384F8453001F00EFB64
:1099900001F002FB94F844304FFA83F8B8F1000F5D
:1099A0001ADD2369C3B104F1100907E008F1FF33A0
:1099B000DBB24FFA83F87BB123696BB1484600F004
:1099C0006FFF0028F2D000F0FDFF08F1FF33DBB29B
:1099D0004FFA83F8002BEFD1FF2384F8443001F0D5
:1099E000E5FA00F02FFD002864D14FF080537B6032
:1099F00040BFBFF34F8FBFF36F8F5BE001F0CCFA36
:109A000094F845304FFA83F8B8F1000F1ADD636A15
:109A1000C3B104F1240907E008F1FF33DBB24FFAC8
:109A200083F87BB1636A6BB1484600F039FF0028C8
:109A3000F2D000F0C7FF08F1FF33DBB24FFA83F832
:109A4000002BEFD1FF2384F8453001F0AFFA01F08D
:109A5000A3FA94F844304FFA83F8B8F1000F1ADDF6
:109A60002369C3B104F1100907E008F1FF33DBB249
:109A70004FFA83F87BB123696BB1484600F010FFC1
:109A80000028F2D000F09EFF08F1FF33DBB24FFA5E
:109A900083F8002BEFD1FF2384F8443001F086FADD
:109AA00000F0D0FC01F078FAA36B002B00F08A8064
:109AB00001F07CFA01F070FAA36B4FF00108002B63
:109AC0003FF40DAF2268013BA363002A00F09E80A3
:109AD0002369002B40F0898001F068FA01263046A6
:109AE00005B0BDE8F08302A800F028FFFFE601F012
:109AF0005DFA01F051FA94F845304FFA83F8B8F165
:109B0000000F1ADD636AC3B104F1240907E008F10C
:109B1000FF33DBB24FFA83F87BB1636A6BB148461F
:109B200000F0BEFE0028F2D000F04CFF08F1FF3339
:109B3000DBB24FFA83F8002BEFD1FF2384F84530D6
:109B400001F034FA01F028FA94F844304FFA83F81F
:109B5000B8F1000F1ADD2369C3B104F1100907E061
:109B600008F1FF33DBB24FFA83F87BB123696BB1A5
:109B7000484600F095FE0028F2D000F023FF08F1DF
:109B8000FF33DBB24FFA83F8002BEFD1FF2384F8C9
:109B9000443001F00BFA00F055FC8BE700ED00E0DB
:109BA000009301F003FA009B1E46304605B0BDE865
:109BB000F08301F0F1F9606800F034FF064601F02F
:109BC000F5F9BAE601F0F2F9002E88D001F0E4F9D7
:109BD000616A19B1236B1968C1F10501606800F071
:109BE0008FFF002601F0E2F979E704F1100000F0A0
:109BF00057FE00283FF470AF064B4FF080525A607A
:109C000040BFBFF34F8FBFF36F8F65E700F0AEFF2C
:109C100060605DE700ED00E0104B5A68904208D0AC
:109C2000DA68904208BF012204D090F8463093B120
:109C300070470022002110B403EBC20443F8321035
:109C400090F84630616013B15DF8044B70475DF8E1
:109C5000044B02F01DBB02F01BBB00BF40450020BF
:109C6000074B1A681AB19A6802B17047012210B402
:109C700003EBC20443F8321060605DF8044B704798
:109C80004045002070B505460C46164601F084F9A3
:109C900095F84430FF2B04BF002385F8443095F835
:109CA0004530FF2B04BF002385F8453001F07EF9D5
:109CB000AB6B2BB93246214605F1240000F0B0FD14
:109CC00001F06AF995F8454064B2002C16DD6B6A24
:109CD000A3B105F1240605E0013CE3B25CB26BB12F
:109CE0006B6A5BB1304600F0DBFD0028F4D0013C2C
:109CF00000F068FEE3B25CB2002BF1D1FF2385F8DF
:109D0000453001F053F901F047F995F8444064B249
:109D1000002C16DD2B69A3B105F1100605E0013C0E
:109D2000E3B25CB26BB12B695BB1304600F0B8FDB9
:109D30000028F4D0013C00F045FEE3B25CB2002BF9
:109D4000F1D1FF2385F84430BDE8704001F02EB911
:109D50002DE9F041044601F01FF9344A344D1368EF
:109D6000013313602B68002B2FD0324EE36A326828
:109D70002AB33148314907680A689F4238BF0360F7
:109D80002F48013203EB83030A6000EB8300E26398
:109D9000211D02F02DFA01F009F933686BB12A6830
:109DA000E36AD26A9A4208D2264B4FF080525A6038
:109DB00040BFBFF34F8FBFF36F8FBDE8F0812A68BC
:109DC000D26A9A4298BF2C60D3E72C601368012BAB
:109DD00002D0E36A174ECCE71948DFF894801A4F97
:109DE000144E02F0F5F9194802F0F2F9184802F0A1
:109DF000EFF9184802F0ECF9174802F0E9F940468B
:109E000002F0E6F9384602F0E3F9144802F0E0F90E
:109E1000134802F0DDF9134802F0DAF9124B134A45
:109E2000C2F800801F60E36AA3E700BF643B002024
:109E3000F43A0020C43B0020783B0020743B002013
:109E4000003B002000ED00E0903B0020143B002090
:109E5000283B00203C3B0020503B0020B03B002032
:109E6000DC3B0020C83B0020FC3A0020F83A0020F0
:109E70007C3B00202DE9F843DDE90964002C60D02B
:109E800016B93046BDE8F8830D4697009846022380
:109E90003A4684F85130814626633046A52103F0C6
:109EA00008FF2A78236B84F83420043F2A781F4463
:109EB00027F0070702B36B7884F835306B78DBB195
:109EC000AB7884F83630AB78B3B1EB7884F83730C0
:109ED000EB788BB12B7984F838302B7963B16B79BF
:109EE00084F839306B793BB1AB7984F83A30AB798F
:109EF00013B1EB7984F83B30089D042D28BF04256D
:109F00000026E5626564201D84F83B60A66402F0CB
:109F10006BF9C5F1050504F1180002F065F9E66476
:109F200042464946A561246184F85060646238461F
:109F300000F0F6FF20602046FFF70AFF2046BDE84C
:109F4000F8832046BDE8F8832DE9F0479600804667
:109F500030460D469946099F02F088F9002869D0DD
:109F60008246542002F082F9044600285BD0002388
:109F7000C0F830A03246504684F85130A52103F095
:109F800098FE2A78236B84F83420043E2A781E44F5
:109F900026F0070A02B36B7884F835306B78DBB1B2
:109FA000AB7884F83630AB78B3B1EB7884F83730DF
:109FB000EB788BB12B7984F838302B7963B16B79DE
:109FC00084F839306B793BB1AB7984F83A30AB79AE
:109FD00013B1EB7984F83B30089D042D28BF04258C
:109FE0000026E5626564201D84F83B60A66402F0EB
:109FF000FBF8C5F1050504F1180002F0F5F8E66478
:10A00000A561246184F8506064624A464146504626
:10A0100000F086FF206007B13C602046FFF798FE05
:10A020000120BDE8F087504602F032F94FF0FF30D2
:10A03000BDE8F0874FF0FF30F3E700BF70B504468E
:10A040004C4E00F0A9FF002C39D0251D284602F007
:10A05000F9F8A36A1BB104F1180002F0F3F82946DD
:10A060004548464D02F0C4F894F85030012B04BF27
:10A07000002384F8503000F099FF2B6893B93368BF
:10A08000A34200D070BD2B68DBB93B493C4A09684C
:10A090001268914226D03B4B1B682BB33A4B0122EE
:10A0A0001A6070BD00F078FF384B1A68126892B9D8
:10A0B000374B4FF0FF321A6000F078FFDFE734686B
:10A0C000C3E7344B4FF080525A6040BFBFF34F8F0D
:10A0D000BFF36F8F70BD1A682D4BD268D26852687B
:10A0E0001A60E9E7336070BD274A1360326833684D
:10A0F00012681B6B9A4236D9274C28492268930074
:10A10000981880000858E0B9551EAB005819800017
:10A11000085830BB951EAB0058198000085800BB8A
:10A12000D51EAB00581980000858D0B9151FAB00D8
:10A13000581980000858A0B9053A93009818800073
:10A14000085813449B00CD1808336868406868605D
:10A150000B44984204BF40686860C3683360226063
:10A1600070BD2A46EDE730683168343101F010FBEC
:10A17000C2E700BFF43A0020C83B0020C43B0020E7
:10A18000643B0020703B0020F43B0020F83A0020A4
:10A19000A83B002000ED00E0783B0020003B0020C1
:10A1A00080B170B51B4D2B6883420AD0044600F085
:10A1B000F3FE194B62699A4205D0BDE8704000F089
:10A1C000F5BE70BD7047A36A144A9342F5D0002BC8
:10A1D000F3D1261D304602F035F8114AE36A1168C2
:10A1E00010488B4288BF136003EB830300EB8300AE
:10A1F000314601F0FDFF2B68E26ADB6A9A42DCD34C
:10A20000094B4FF080525A6040BFBFF34F8FBFF3EE
:10A210006F8FD2E7F43A0020C83B0020B03B00200B
:10A22000783B0020003B002000ED00E070B584B0DA
:10A23000002503AA02A901A8CDE9015501F0ACFA55
:10A24000019C002C46D00298002843D0039E206336
:10A250000223B600A521324684F8513003F029FDCF
:10A26000236B1F4A6263201D84F83850043E84F833
:10A270003B50E562C4E911551E4401F0B5FF04F1FD
:10A28000180001F0B1FF26F007060523A3612A4656
:10A290001449E56430462461646284F8505000F04B
:10A2A0003FFE20602046FFF753FD0F4B1C6000F07F
:10A2B000DBFD012811D1402383F311880B490C4A9F
:10A2C0000C4B4FF0FF340C6010601D6000F03EFE40
:10A2D00004B070BD044B00221A6004B070BD00BF12
:10A2E00049444C45D5A50200A43B0020A83B0020D2
:10A2F000C43B0020F03B0020024A13680133136086
:10A30000704700BF703B0020014B1868704700BFCA
:10A31000F03B0020024A136818441060704700BFE9
:10A32000F03B00202DE9F04F3B4B1B6883B0002B26
:10A3300042D13A4B1F6801371F60002F4AD0384B7B
:10A3400001931B68BB423BD8364EDFF8EC80DFF848
:10A35000ECA0DFF8EC90002525E03368DB68DC68D2
:10A36000636804F1040B9F42584651D301F06AFF21
:10A37000A36A04F118000BB101F064FFE36AD8F896
:10A38000002003EB8300934259460AEB800088BF0C
:10A39000C8F8003001F02CFFD9F80030E26ADB6A1F
:10A3A0009A4228BF012533681B68002BD5D1019A3A
:10A3B0004FF0FF33136004E01B4A1368013313604E
:10A3C00000251A4B1B68002B0CBF2846012003B048
:10A3D000BDE8F08F134E164B3168164A186830608E
:10A3E000196013680133136033681B683BB90C4B69
:10A3F00001931A464FF0FF3313601346A1E7336809
:10A40000074ADB680192DB685B681360134698E7D4
:10A41000019A1360D5E700BF703B0020F03B00209D
:10A42000A83B0020F83A00206C3B0020F43B0020C1
:10A43000FC3A0020AC3B0020783B0020003B002091
:10A44000F43A00202DE9F04700F0A6FD354B1A68DC
:10A45000013A1A601C68002C57D1334B1B68002B43
:10A4600053D0DFF8E0A0314E314FDFF8DC90DFF859
:10A47000DC80336813B3F368DC68251D04F1180031
:10A4800001F0E0FE284601F0DDFEE36A3A6803EBE6
:10A4900083009342294609EB800088BF3B6001F0AE
:10A4A000A7FED8F80030E26ADB6A9A424FF0010357
:10A4B000DFD3CAF800303368002BDCD13CB11D4B30
:10A4C0001A6812683ABB1C4B4FF0FF321A601B4DE2
:10A4D0002C6844B10126FFF725FF08B1CAF80060D7
:10A4E000013CF8D12C60DAF8003073B1144B4FF016
:10A4F00080525A6040BFBFF34F8FBFF36F8F01246C
:10A5000000F054FD2046BDE8F087002400F04EFD29
:10A510002046BDE8F0871A68074BD268D2685268B7
:10A520001A60D4E7703B0020643B0020B03B002061
:10A53000783B0020F83A0020A83B00206C3B00202C
:10A5400000ED00E0F43B0020003B0020F43A002046
:10A5500070B548B9184B4FF080525A6040BFBFF3F6
:10A560004F8FBFF36F8F70BD144A15491368154E96
:10A57000013313600D6804463068043001F062FE58
:10A58000336864195C600FD20F4B1868316804316E
:10A5900001F03EFE0D4B1A68944238BF1C60FFF775
:10A5A00051FF0028D6D070BD094B186831680431BE
:10A5B00001F02EFEF3E700BF00ED00E0703B00204D
:10A5C000F03B0020F43A0020F83A0020A83B00209D
:10A5D000FC3A00202DE9F84F3C4E3D4D3D4CDFF854
:10A5E0000891DFF80881DFF808B14FF0805A23683E
:10A5F000D3B100F0D1FCF368DF68381D01F022FE12
:10A600002B68013B2B602368013B236000F0CEFCEC
:10A6100097F85130002B37D0012BE8D1384601F0A4
:10A6200037FE2368002BE4D12B4B1B68012B06D986
:10A63000CBF804A040BFBFF34F8FBFF36F8F00F084
:10A640003DFED9F8003033BBD8F80030DB6A002B70
:10A65000CDD1214B1B68012BC9D8204B204A1B6848
:10A6600012689B1A012BC2D91E4A1368013313606A
:10A67000D9F80030BBB1D8F80030DB6A0BB9164B03
:10A680001B68FFF7DFFEB2E7386B01F001FE3846CA
:10A6900001F0FEFDABE7D8F80030DB6A002BA6D155
:10A6A0000D4B1B68A3E7D8F80030DB6A002BE8D11C
:10A6B000094B1B68012BE4D8084B1868084B1B6832
:10A6C000C01A0128DDD900F0DDFCDAE7DC3B002010
:10A6D000643B0020683B0020003B0020A83B00209A
:10A6E000F03B0020703B0020783B0020F43A002033
:10A6F00000ED00E0274B1B68002B40D1264A70B5C7
:10A70000264C13602268236812681B6B9A423AD960
:10A71000234D24492A689300981880000858E0B90E
:10A72000561EB30098198000085830BB961EB3001F
:10A7300098198000085800BBD61EB30098198000F5
:10A740000858D0B9161FB300981980000858A0B94E
:10A75000053A930098188000085813449B00CE18BF
:10A7600008337068406870600B44984204BF4068CA
:10A770007060C36823602A6070BD3246EDE7064B07
:10A7800001221A60704720682168343101F000F816
:10A79000BEE700BF703B0020F43B0020F43A0020ED
:10A7A000783B0020003B002070B5174D2B680C460D
:10A7B00003F1180101F02CFD144B1E6828680430C9
:10A7C00001F040FD631C17D02B68A4195C600BD20C
:10A7D0000F4B18682968043101F01AFD0D4B1A68F7
:10A7E000944238BF1C6070BD0B4B18682968BDE8E7
:10A7F0007040043101F00CBD296808480431BDE8FF
:10A80000704001F0F5BC00BFF43A0020F03B00209E
:10A81000F83A0020A83B0020FC3A0020C83B00206A
:10A8200070B5194D2B680C46164603F1180101F05E
:10A83000DFFC164B5EB11B682868043001F002FD96
:10A84000296813480431BDE8704001F0D1BC1E688E
:10A850002868043001F0F6FC2B68A4195C600BD268
:10A860000C4B18682968043101F0D2FC0A4B1A68B5
:10A87000944238BF1C6070BD084B18682968BDE859
:10A880007040043101F0C4BCF43A0020F03B0020D9
:10A89000C83B0020F83A0020A83B0020FC3A0020EA
:10A8A00038B5C368DC6804F11805284601F0CAFC15
:10A8B0001A4B1B682BBB251D284601F0C3FC184A08
:10A8C000E36A116817488B4288BF136003EB830368
:10A8D000294600EB830001F08BFC134BE26A1B68F6
:10A8E000DB6A9A4282BF114B01201860104B1A6834
:10A8F000126898BF00204AB90E4B4FF0FF321A6021
:10A9000038BD29460C4801F073FCE6E71A68094B8C
:10A91000D268D26852681A6038BD00BF703B002010
:10A92000783B0020003B0020F43A0020F43B00205C
:10A93000F83A0020A83B0020B03B0020034A044B1B
:10A9400012681B68C0E90023704700BFAC3B0020C1
:10A95000F03B0020F8B50D46044600F01DFB2B68C7
:10A960001649581C0A6813D0DFF854C0D4E90060B7
:10A97000DCF80070BE4201D090421AD9121A9342FC
:10A980000BD800232B60012500F010FB2846F8BDF2
:10A99000002500F00BFB2846F8BDDCF800009B1AF0
:10A9A0000A682B60C4E90002002500F0FFFA28467F
:10A9B000F8BD012500F0FAFA2846F8BDF03B00206A
:10A9C000AC3B0020014B01221A607047F43B002091
:10A9D000084B186860B9084B1B6853B9074A084B05
:10A9E00010681B68013B984214BF01200220704789
:10A9F00000207047B03B0020F43B0020C83B002003
:10AA0000643B0020054B1B6833B1054B1B68002BD2
:10AA10000CBF02200020704701207047C43B00207B
:10AA2000703B002018B3F8B51C4CC36A2268D26A88
:10AA3000934214D28269002A04DB2268D26AC2F1EE
:10AA400005028261164D426903EB830305EB830324
:10AA50009A420DD02368DB6AC3620120F8BD2368E7
:10AA6000406CDB6A98422CBF00200120F8BD704783
:10AA7000061D0746304601F0E5FB2268094BD06A07
:10AA80001A68F862904200D9186000EB800005EB6C
:10AA90008000314601F0ACFB0120F8BDF43A002003
:10AAA000003B0020783B002050B138B5C16A836C70
:10AAB000426C013B9142836400D01BB1002038BD41
:10AAC00000207047051D0446284601F0BBFB0A4ADA
:10AAD000636C1168E362C3F105008B42A061074813
:10AAE00088BF136003EB830300EB8300294601F06A
:10AAF0007FFB012038BD00BF783B0020003B0020D9
:10AB000048B1426CC36A914238BF11468B4202D0B1
:10AB1000826C012A00D07047826970B5114DC16204
:10AB2000002A03EB83034269A8BFC1F1050105EBCD
:10AB30008303A8BF81619A4200D070BD061D044600
:10AB4000304601F07FFB084BE06A1A68904288BFEC
:10AB5000186000EB800005EB80003146BDE87040D6
:10AB600001F046BB003B0020783B0020044B1A68F4
:10AB70001AB119688A6C01328A641868704700BF7C
:10AB8000F43A00202DE9F04FAD4EDFF8C482AD4D10
:10AB900089B033681C68002C00F08E80DB681C686C
:10ABA000FFF7AAFBFFF7B0FBD8F800309842074642
:10ABB0005DD38442C8F8000040F20B810022E11B03
:10ABC0002868FFF75FF8FFF73DFC88B99E4A4FF011
:10ABD0008053536040BFBFF34F8FBFF36F8F07E0C9
:10ABE000019B039920469847009B002B80F23881F7
:10ABF000286800226946FEF7D1FC0028C9D0009BD6
:10AC0000029C002BECDB636913B1201D01F01AFBE1
:10AC1000FFF77AFBD8F800309842814643D3009B77
:10AC2000C8F80090092BE3D8012202FA03F313F4C9
:10AC3000047F69D113F0C70F40F0A1809B06D7D5E0
:10AC400094F82C30002BD3D1204601F021FBCFE724
:10AC5000DB68DC68D3F800A004F10409484601F081
:10AC6000F1FA636A20469847E369012B36D03368CE
:10AC70001A68002AECD17549C8F800700A68326079
:10AC80000B60FFF7DFFBB3E7DB68DF68D3F800B0EA
:10AC900007F1040A504601F0D5FA7B6A3846984716
:10ACA000FB69012B25D033681A68002AECD167496B
:10ACB0000A6832600B60B2E7FFF71EFBFFF724FB68
:10ACC000D8F8003083420746D1D8604BC8F80070EE
:10ACD0001B681A68B2FA82F2520970E7A3695344FA
:10ACE0009A45494622D263602461306801F090FAA7
:10ACF000BDE7BB695B449B45514627D27B603F6102
:10AD0000306801F085FACEE7019B246103EB09026C
:10AD10004A45A36162602CD8002B3FF469AF4B4BCE
:10AD2000211D186801F074FA286862E72B68002B6F
:10AD30009DD00023CDE9043A0694FFF763FE00237B
:10AD40001A4604A92868FEF771F990E72B68002BD2
:10AD5000A9D00023CDE9043B0697FFF753FE00235B
:10AD60001A4604A92868FEF761F99CE74B4500D90B
:10AD700098B13068211D01F04BFA286839E7019B32
:10AD8000A269246199182CBF012000204945616007
:10AD9000ECD8A9EB03039A42C1D8636A20469847CE
:10ADA000E369012B7FF424AF019BA2692868134457
:10ADB00000283FF41EAF0022CDE904230694FFF7DC
:10ADC00021FE00231A4604A92868FEF72FF92868F7
:10ADD0000FE7FFF737FB3368DB68D3F80C9009F116
:10ADE000040A504601F02EFAD9F81C30012B04D089
:10ADF000D9F8243048469847FAE6D9F81830C9F807
:10AE00001090E218BA42C9F8042004D951463068BB
:10AE100001F0FEF9ECE73F1BBB421BD82B68002B6F
:10AE2000E6D00023CDE90434CDF81890FFF7EAFD11
:10AE300000231A4604A92868FEF7F8F8D8E700BFEF
:10AE4000F83B00207C3E002000ED00E0FC3B0020B1
:10AE5000283E0020034B5146186801F0D9F9C7E796
:10AE6000029CD0E6FC3B0020F0B5204C89B000F0FD
:10AE700093F82568FDB100F099F82068C8B1002466
:10AE800007AA06A905A8CDE9054400F093FCDDE971
:10AE900005300221CDE90010079A029314491548A4
:10AEA0002346FEF7E7FF144A0346001B18BF0120A4
:10AEB000136009B0F0BD114F114E384601F088F90A
:10AEC000304601F085F90F4A0F4900950F4B176086
:10AED0000E600F4A10212020FEF736F8206000286F
:10AEE000C9D00C49FEF7BCFEC5E700BF7C3E002080
:10AEF0004408030085AB0200803E0020003E002095
:10AF0000143E0020F83B0020FC3B00202C3E00209B
:10AF1000003C00203C080300402383F31188FEE737
:10AF200030B46FF002034FF08075074C40F8045CBA
:10AF300040F80C4C40F8081C40F8202C40F8243C09
:10AF400030BC4438704700BF19AF02000F4C08B541
:10AF5000E02384F8223000F077F80D4B0D4A0021F1
:10AF60001960D4F8883043F47003C4F8883053680B
:10AF700043F040435360236943F01003236100F022
:10AF80004BF9402383F31188FEE700BF00ED00E09A
:10AF9000843E002030EF00E0402383F31188024A12
:10AFA0001368013313607047843E0020034A13681E
:10AFB000013B13600BB983F311887047843E002076
:10AFC00041DF704712DF704770B51B4B00251D60D5
:10AFD00082B01B680193019BEFF31186402383F33A
:10AFE0001188164A164BD2F804451D601B68009361
:10AFF000009BFFF789F9241A24F07F44012C0DD817
:10B0000044B1FFF78FF9054625B10E4B4FF0805242
:10B010005A6040BF86F3118802B070BDFFF7F2FCA2
:10B020000228EED1013CFFF77DF9013C631C45EAA3
:10B030000005F8D1E8E700BF4011014000100140D1
:10B040000011014000ED00E00B4B0C4930B41F2013
:10B050000B4DC3F8080501220224E020C3F80423A5
:10B060002A601A60C3F8444381F811034FF4003397
:10B070000B6030BC704700BF0010014000E100E0F1
:10B08000081001402DE9F041804684B0EFF31082B2
:10B0900072B6564CA36883B9554B56480121A1603E
:10B0A000D3F8801001402160C3F88000D3F88410E9
:10B0B00061604FF0FF31C3F8841002B962B64E4EA2
:10B0C000D6F80475FFF784FC00283DD04B4A4C4964
:10B0D000424528BF4246BB1823F07F43012000258C
:10B0E000C6F80803C6F840350D600B6801934FF4AD
:10B0F00080330199C6F80433BFF34F8FB8F1000FC6
:10B1000054D13D4B3E4D3F494FF48030C3F80803C6
:10B11000002028602D680395039D0860096802914E
:10B1200001210298C3F80413D3F804353049DB1B1E
:10B1300023F07F45954228BF15464FF40033012D7B
:10B14000C1F8803111D827D0A3685BB1EFF3108329
:10B1500072B6274A21681160616851600022A260BE
:10B1600003B962B604B0BDE8F081681EFFF7D2F8FB
:10B17000254BDB68DA010FD5244A1368DB070BD5B2
:10B18000234B516803FB05F5A5F57425A5F510754E
:10B19000AD0A01EB85155560FFF7C4F80028D3D040
:10B1A0001C4B4FF080525A6040BFCDE7F1EE103A91
:10B1B00023F09F03E1EE103AF1EE103A0C4B04A895
:10B1C0004021C3F8841100F8045DFFF7FBFE9DF8F1
:10B1D0000C1039B920BFD3F80001D3F80411014392
:10B1E000F8D08EE7FFF7ECFE8BE700BF504500205C
:10B1F00000E100E0FC06FFBD00100140FDFFFF0084
:10B200004011014000110140F0ED00E0001000E0AD
:10B2100040420F0000ED00E00748006880F3088816
:10B2200062B661B6BFF34F8FBFF36F8F4FF0E00090
:10B2300080F3118800DF00BF00600200064B196830
:10B240000868B0E8F04F80F30988BFF36F8F4FF0C4
:10B25000000080F311887047F43A0020EFF3098072
:10B26000BFF36F8F144B1A681EF0100F08BF20ED4C
:10B27000108A20E9F04F10604DF8043D4FF0400077
:10B2800080F31188BFF34F8FBFF36F8FFFF732FA50
:10B290004FF0000080F3118808BC19680868B0E816
:10B2A000F04F1EF0100F08BFB0EC108A80F3098831
:10B2B000BFF36F8F704700BFF43A0020704700BFA4
:10B2C0000A490B4A0B4B9B1A03DD043BC858D0506C
:10B2D000FBDC094809494FF0AD3202600430043903
:10B2E000FBD100F0C3F8FAF7B3FF0000640C0300D1
:10B2F000003600201838002000F800200008000068
:10B30000FEE7FEE7FEE7FEE7FEE7FEE7FEE7FEE715
:10B31000FEE7FEE708B5FBF7EFFA0E4B43B10E4B25
:10B320007BB1FAF7F1FF00F027FAFDF78BFDF8E7A4
:10B33000FAF7EAFF00F020FAFAF7E6FF00F01CFA4D
:10B34000F6E7FAF7E1FF00F017FAFAF7DDFF00F091
:10B3500013FAF6E700000000458E020000B583B046
:10B3600000F07EFBFDF780F90E4B019301234FF4B3
:10B3700080620D4900930D480023FEF7E5FD4FF470
:10B38000407000F049FBFEF751FFBFF34F8F0849B3
:10B39000084BCA6802F4E0621343CB60BFF34F8FDF
:10B3A00000BFFDE7883E00204C08030015B30200F3
:10B3B00000ED00E00400FA0510B50446FFF722FB9B
:10B3C0000128204603D0BDE8104000F04FBFBDE883
:10B3D000104002F053BC00BF10B50446FFF712FB4B
:10B3E0000128204603D0BDE8104000F03FBFBDE873
:10B3F000104002F043BC00BF10B50446FFF702FB4B
:10B400000128204603D0BDE8104000F041BFBDE850
:10B41000104002F03BBC00BF10B50446FFF7F2FA43
:10B420000128204603D0BDE8104000F031BFBDE840
:10B43000104002F02BBC00BF084A094908B5136848
:10B440001844884202D81060184608BD02F0D8FBA4
:10B450000C2303604FF0FF33184608BD0836002068
:10B4600000F80020FEF748BFFEF7ECBFAB4B1B68AF
:10B470005A1C30B400F0D080A94A1268062B00F0A4
:10B48000C080A84B1B78062B00F0B080A34B1B6834
:10B490005D1C00F0A480A24A1268062B00F0948084
:10B4A000A04B1B78062B00F082809C4B1B685C1C19
:10B4B00076D09B4A1268062B65D09A4B1B78062BD8
:10B4C0004CD0964B1A68501C13D0954B062A1B681B
:10B4D00017D0954AD2F8883043F47003C2F8883008
:10B4E000BFF34F8FBFF36F8F904B914A1A6030BC00
:10B4F00070478C498F4B09781B680629C3F30313E7
:10B5000012D1053B012B40F28E80511C40F0F78098
:10B51000844A884B12781B68062AC3F30313D8D1D8
:10B52000033B032B40F2C9807E4B1B78062BD0D106
:10B53000804B1B684FF0FF32C3F30313033B032B15
:10B5400040F2CB80764B1B68062AC2D1062BC0D1B5
:10B55000794A136843F480631360BAE7754B1B683C
:10B56000C3F30313032BACD1744D75482B60754C9A
:10B570007549764A05230360012500203F23256095
:10B58000086013609DE7033A032A96D84FF0804382
:10B590000022C3F80C21C3F81021C3F838258CE72A
:10B5A000644A604B12681B78C2F3031283E7614B55
:10B5B0001B68C3F30313032B7FF477AF644AD3688C
:10B5C00023F08073D36070E7033A032A3FF668AF35
:10B5D000604B614A1B68C3F34233136060E7554A0E
:10B5E000504B12681B78C2F3031256E7514B1B688D
:10B5F000C3F30313032B7FF449AF584B584A1A6027
:10B6000044E7033A032A3FF63CAF564B564A1B68C1
:10B61000C3F30423136034E7464A424B12681B7895
:10B62000C2F303122AE74FF08052504BD2F80414B1
:10B63000C3F82015D2F80814C3F82415D2F80C1456
:10B64000C3F82815D2F81014C3F82C15D2F8141426
:10B65000C3F83015D2F81814C3F83415D2F81C14F6
:10B66000C3F84015D2F82014C3F84415D2F82414B6
:10B67000C3F84815D2F82814C3F84C15D2F82C1486
:10B68000C3F85015D2F83014C3F85415D2F8341456
:10B69000C3F86015D2F83814C3F86415D2F83C1416
:10B6A000C3F86815D2F840141C48C3F86C15D2F8DA
:10B6B00044140268C3F8701527E72D4B174A1B681E
:10B6C00012682C4903F04F030B60531C1FD1154B1C
:10B6D0001B78062B7FF4FDAE2AE74FF08041D1F8AE
:10B6E000003413F0010F0E4B01D11B682CE70B4AFD
:10B6F0001B6812686FF00100C1F8000424E7084BD2
:10B70000062A1B687FF4E5AE033B032BD5D9044B17
:10B71000062A1B687FF4DDAE10E700BF3001001081
:10B7200034010010E00F00F000ED00E00C360020C6
:10B730000090D003E80F00F03C170040A005004047
:10B7400010560040885600401856004014560040DD
:10B75000F0ED00E0440200103C05004074C00740DA
:10B760000DF0ADBA240300104035014000C0004088
:10B7700058020010E40E0040044B4FF080525A6013
:10B7800040BFBFF34F8FBFF36F8F704700ED00E0F6
:10B79000704700BF704700BF044B036010B46423C0
:10B7A000034C0C6013605DF8044B70478C3E002026
:10B7B000E03E0020054B036010B44FF48073044C4E
:10B7C0000C6013605DF8044B704700BF70400020B0
:10B7D000C440002070B5274E84B04FF0FF3203A95B
:10B7E0003068FDF7DBFE0028F7D0039C237A6568FC
:10B7F000052B0CD8DFE803F02F322A241D03D4E9EF
:10B800000523D4E90301E4690094A847039C256853
:10B810003DB1FFF7F7F80128284626D000F038FDA3
:10B82000039CFFF7EFF8012820461BD000F030FD05
:10B83000D3E7D4E90523D4E90301A847039CE6E74D
:10B84000D4E90412E068A847039CE0E7D4E90301C7
:10B85000A847039CDBE7A847039CD8E7E068A84714
:10B86000039CD4E702F012FAB7E702F00FFA039C48
:10B87000D7E700BFC84400202DE9F0432D4B2E4CE4
:10B880005B6885B0C3F30803019001AF2068002B0B
:10B8900044D0002339461A46FDF7DAFD01283AD094
:10B8A000DFF89880D8F80000002240000421FDF75E
:10B8B0007BFB064678B3DFF88890D9F80000FEF7E6
:10B8C000BDFBFFF769FB02E03046FDF7AFFB00224E
:10B8D00003A92068FDF762FE00230546642203A940
:10B8E0000028F1D12068FEF797F92660FFF75EFB8C
:10B8F000D9F80000FEF754FCD8F800300D4A206853
:10B900005B00C8F800305368C3F30803394653B9E5
:10B910006422FDF78BFB05B0BDE8F0833946642255
:10B92000FDF784FBBAE72B462A46FDF791FD05B0EB
:10B93000BDE8F08300ED00E0C8440020C4440020CE
:10B94000CC4400202DE9F8439DF8205006460F46D0
:10B9500091469846F5B1FFF755F8AC000C34012834
:10B9600020461DD000F082FC0446F4B10023C4F848
:10B9700004902572236006B1D7B92DB1AA004146C3
:10B9800004F10C0002F08AF92046FFF775FF012050
:10B99000BDE8F883FFF736F8102401282046E1D1EE
:10B9A00002F06CF90446002CE0D12046BDE8F88393
:10B9B000FFF728F8012838461DD000F057FC8146D3
:10B9C000C4F80090B9F1000F19D03A464846314604
:10B9D00002F064F9002DD7D0691EC9B208EB8101CD
:10B9E000A8F1040353F8042FB24204BF22681A607E
:10B9F0009942F7D1C2E702F041F98146E0E7FFF74B
:10BA000001F80128204603D000F042FC4846BFE779
:10BA100002F03CF94846BBE730B540230B4D83B0FC
:10BA200004460022184604212B60FDF7BDFA084B9E
:10BA3000084918600223CDE90031A2B2002306496B
:10BA40000648FEF781FA03B030BD00BFC4440020B1
:10BA5000C8440020CC44002054080300D5B702009D
:10BA6000134A144BD2F84025134910B41A604FF012
:10BA7000804301224FF40030C3F818259A60C1F8C2
:10BA80008000BFF34F8FBFF36F8F4FF0A04003F5DF
:10BA900088334FF480314FF0FF34C3F84813C3F8B4
:10BAA00008135A609A60C0F808455DF8044B704767
:10BAB00000A00040D044002000E100E02DE9F04764
:10BAC0003E4D3F4FDFF800E1C2B22B4605F10C0CB2
:10BAD00053F8044BBFF35B8F6468BFF35B8FBC42CA
