:020000022000DC
:1060000000000120510303009103030093030300E8
:1060100095030300970303009903030000000000A9
:10602000000000000000000000000000CD0203009E
:106030009D03030000000000ED020300A103030024
:10604000A3030300A303030031DD0200D188020093
:10605000A3030300A3030300A3030300A30303009C
:10606000A3030300A3030300A3030300A30303008C
:10607000A3030300A3030300A3030300A30303007C
:10608000A30303005900030085D20200A303030009
:10609000A3030300A3030300A3030300A30303005C
:1060A000A3030300A3030300A3030300A30303004C
:1060B000A3030300A303030000000000000000008E
:1060C000A3030300A3030300A3030300A30303002C
:1060D000A3030300A3030300A303030000000000C5
:1060E00000000000000000000000000000000000B0
:1060F00000000000000000000000000000000000A0
:10610000000000000000000000000000000000008F
:10611000000000000000000000000000000000007F
:10612000000000000000000000000000000000006F
:10613000000000000000000000000000000000005F
:10614000000000000000000000000000000000004F
:10615000000000000000000000000000000000003F
:10616000000000000000000000000000000000002F
:10617000000000000000000000000000000000001F
:10618000000000000000000000000000000000000F
:1061900000000000000000000000000000000000FF
:1061A00000000000000000000000000000000000EF
:1061B00000000000000000000000000000000000DF
:1061C00000000000000000000000000000000000CF
:1061D00000000000000000000000000000000000BF
:1061E00000000000000000000000000000000000AF
:1061F000000000000000000000000000000000009F
:10620000F1EE103A43F08073E1EE103A704700BFB0
:1062100010B5054C237833B9044B13B10448AFF3E0
:1062200000800123237010BD003E0020000000000C
:106230009075030008B5034B1BB103490348AFF346
:10624000008008BD00000000043E0020907503009F
:10625000154B002B08BF134B9D46A3F5803A002138
:106260008B460F461348144A121A0DF0ADFD0F4B22
:10627000002B00D098470E4B002B00D098470020F1
:10628000002104000D000D48002802D00C48AFF397
:1062900000800DF02FFD200029000AF0A7F80DF076
:1062A00015FD00BF000008000000012000000000F4
:1062B00000000000003E0020604F002000000000B1
:1062C0000000000000207047002070470023437248
:1062D000704700BF0020704743685B6953F8210096
:1062E000704700BF4368B3F910007047807C704767
:1062F000837CD9071CD413F0060F0ED11A0722D4C1
:10630000DB062BD5174AD0F81230126803F0EF03E2
:106310005268C0F81230507A7047124AD0F81230E2
:10632000126803F0F9035268C0F81230D078704751
:106330000C4AD0F81230126803F0FE035268C0F81D
:10634000123050797047074AD0F81230126803F0C3
:10635000F7035268C0F81230D07970474FF0FF3021
:10636000704700BFC83B0020704700BF0020704747
:10637000406A03681B68184730B4012BD0E9094014
:106380009DF8085001EB810106D00A4430F8123024
:10639000E382A38230BC70472A44114400EB4101E0
:1063A0008B88E382A38230BC704700BF2DE9F047A1
:1063B000C4689DF8248024689DF820E034F83250A9
:1063C00004EBC20207469488406AB2F902A0B7F80B
:1063D0001A90B7F91C60D7F828C007680AEB0102C9
:1063E0002C4412FB06F215FB09F514FB09F4B8F175
:1063F000010F29B2FF6B9DF8285012B224B203EBB3
:10640000830309D09E443CF81E30BC46CDE90863A6
:106410002346BDE8F0476047AE449E440CEB4E0C6B
:10642000BCF80430BC46CDE908632346BDE8F0471C
:10643000604700BF2DE9F043C568BDF920602F68B3
:10644000BDF91C5037F931E0044607EBC107406A3B
:10645000B4F81A80B4F81C90D4F828C004680EEB85
:106460000201B7F902209DF82CE0A76C9DF82440AA
:106470001A4411FB08F115FB08F312FB09F216FB95
:1064800009F6BEF1010F12B236B209B21BB29DF885
:1064900028509DF8308004EB840408D02C443CF84C
:1064A0001440BC46CDE90764BDE8F043604745446D
:1064B00025440CEB450CBCF80440BC46CDE9076410
:1064C000BDE8F043604700BF2DE9F043C568BDF962
:1064D00020602F68BDF91C5037F931E0044607EB06
:1064E000C107406AB4F81A80B4F81C90D4F828C0E8
:1064F00004680EEB0201B7F902209DF82CE0E76B6F
:106500009DF824401A4411FB08F115FB08F312FB17
:1065100009F216FB09F6BEF1010F12B236B209B24A
:106520001BB29DF828509DF8308004EB840408D0FD
:106530002C443CF81440BC46CDE90764BDE8F04368
:106540006047454425440CEB450CBCF80440BC4670
:10655000CDE90764BDE8F043604700BFF0B5C2680D
:10656000836A1568B3F804C00E4683B0044635F854
:106570003110406AB4F81CE0076805EBC605AB882B
:106580006A88CDF804C0ED88B4F81AC015FB0EF582
:106590002DB2009512FB0EF213FB0CF311FB0CF164
:1065A000FD6B12B21BB209B2A847E3685B68002218
:1065B00043F8262003B0F0BDF0B4C568078C2D6801
:1065C000848B05EBC30635F93350B6F90260438B73
:1065D000406A3244294414FB027413FB01F34482E1
:1065E0000382F0BC704700BFF0B4C468BDF914501A
:1065F0002768836A466A07EBC50403EB4202B4F9D5
:10660000024037F83550BB88B2F82CC0B0F91C7086
:10661000408B21443468CDF814C00497A46C11FB5E
:1066200007F213FB00F315FB00F1A446304612B24B
:106630001BB209B2F0BC6047024A13680133136011
:10664000704700BFA04000200020704743691868D1
:106650000368DB68184700BF436910B50446186833
:106660000368DB68984758B94FF0FF30074B1A684A
:1066700082421ABF4FF0FF321A604FF0FF3010BD58
:106680006369186803681B699847EFE704360020C0
:106690004369186803689B69184700BF43685B69D2
:1066A00000224272D3E90023C0E90423704700BFEF
:1066B000416810B500220023D1E90C010DF028FA41
:1066C00020B14FF0000404F0010010BD4FF00104B0
:1066D00004F0010010BD00BF2DE9F843466877695A
:1066E000D6E90645D7E9008922462B464046494669
:1066F0000DF018FA40B9D6E9084542464B46204607
:1067000029460DF019FA18B1C7E90045BDE8F8832C
:1067100044464D46C7E90045BDE8F8832DE9F84FEA
:106720002A4B1B681B7A03B14942837AD0F804A034
:1067300003B3DAE90C67DAF814B001230029DBE9C6
:106740000045437223DDDAE9088922462B4640469C
:1067500049460CF0BDFD32463B460DF0E3F960B111
:106760009AF80E30DA0701D5DAE90689CBE9008913
:10677000BDE8F88FDAE90A67DDE722462B463046A6
:1067800039460CF0A7FDCBE90001BDE8F88FDAE946
:106790000689204642464B4629460CF099FD324672
:1067A0003B460DF0BFF930B19AF80E30DB07DDD56E
:1067B000DAE90889DAE732463B46204629460CF0FA
:1067C00087FDCBE90001BDE8F88F00BFC83B002082
:1067D00043685B6900221B684272C360704700BF58
:1067E000437A63B94368D0ED037A5B6993ED007A2D
:1067F000B4EE677AF1EE10FA14BF012300231846B5
:10680000704700BF4368D3ED097AF5EE407AF1EEA8
:1068100010FA14BF01200020704700BF43685A6976
:10682000D3ED067A92ED007AB4EEE77AF1EE10FA43
:1068300008D4D3ED077AF4EEC77AF1EE10FA88BFE8
:10684000F0EE477AC2ED007A704700BF234B1B6819
:106850001B7A10B403B14942827A4368DAB1D3EDAE
:10686000097A5A690124002992ED007A44721CDDEC
:10687000D3ED076A36EEC76AB4EEE76AF1EE10FAB6
:106880000CD5997BC80701D5D3ED066AC2ED006A25
:106890005DF8044B7047D3ED087AE2E777EE877A2C
:1068A0005DF8044BC2ED007A7047D3ED066A37EE0F
:1068B000666AB4EEE76AF1EE10FA07D5997BC9076C
:1068C00048BFD3ED076AC2ED006AE1E777EE677A69
:1068D0005DF8044BC2ED007A704700BFC83B002052
:1068E00043685B6900221B684272C360704700BF47
:1068F000437A33B94368C0685B691B681B1A18BFC9
:1069000001231846704700BF4368586A003018BF1B
:10691000012070474268D2E905130868984203D302
:10692000D369834228BF03460B607047174B1B682F
:106930001B7A70B403B14942827A43688AB15A6AB9
:106940005C69012600292568467210DDD969481B5B
:10695000904208D29A7BD00700D59969216070BC1B
:1069600070471A6AECE72A44226070BC7047996944
:10697000681A904205D29A7BD20748BFD969216034
:10698000EDE7AA1A226070BC704700BFC83B002028
:10699000436800225B6942721B78C372704700BF74
:1069A000437A33B94368C07A5B691B781B1A18BFF6
:1069B00001231846704700BF4368D87E003018BFD7
:1069C0000120704742685169137E0878984203D3CA
:1069D000537E834228BF03460B707047194B1B68D8
:1069E0001B7A30B403B14942827A43688AB10125E7
:1069F0000029DC7E5A69457211DD587E1178451AEE
:106A0000A54217DA997BCC0700D5187E107030BCF0
:106A10007047012500299C7E5A694572EDDC11788A
:106A2000187E0D1AA54209DA997BC90748BF587E1E
:106A30001070ECE70C44147030BC70470C1B1470E1
:106A400030BC7047C83B002043685B6900221B884C
:106A500042728381704700BF437A33B943688089AB
:106A60005B691B881B1A18BF01231846704700BFBB
:106A70004368D88B003018BF0120704742685169C5
:106A8000138B0888984203D3538B834228BF034655
:106A90000B807047174B1B681B7A70B403B14942D7
:106AA000827A43688AB1DA8B5C69012600292588DD
:106AB000467210DD598B481B904208DA9A7BD0074A
:106AC00000D5198B218070BC70479A8BECE72A4463
:106AD000228070BC7047198B681A904205DA9A7B45
:106AE000D20748BF598B2180EDE7AA1A228070BCDB
:106AF000704700BFC83B0020054A08B5137883F0F3
:106B000001031946112013700AF078FA012008BD1C
:106B10002C41002008B50B460A22C168184606F031
:106B2000C3FC00B208BD00BF10B5074C04F118004B
:106B300007F0A8F904F10C0007F0A4F92046BDE81D
:106B4000104007F09FB900BFB43E002038B5054C97
:106B5000A4F1480520460C3C07F094F9AC42F9D169
:106B600038BD00BFA83E002070B505460C4604F0B5
:106B700057FB6B69186803682146DB69BDE8704004
:106B8000184700BF70B50D4A0D49107884B01C46F7
:106B9000BDF924601B6800EB400001EB800101A8F7
:106BA000DD6807F047F9324601992046A8470446B8
:106BB00001A807F067F9204604B070BD9640002098
:106BC0006C3E002010B5C0680C460CF0E1FC41ECB6
:106BD000100B2046022106F095FC00B210BD00BF4C
:106BE00008B50B4690ED040B0221184606F08AFC0E
:106BF00000B208BDF0B52DED028B136883B00546D9
:106C00005B6910460E4614469847C1B22D292DD017
:106C1000344B18680DF03EFE00284DD0237C002B2D
:106C200035D0B7EE008A20460122002106F050FD43
:106C300060EE087A6B6817EE900A5C690CF0A8FCAD
:106C400002238DF804304FF6FF73ADF806302B6841
:106C5000019ADB69C4E900010120A8723146284687
:106C600003B0BDEC028BBDE8F04018472368204616
:106C70001B69984723681B4A5B6917682046984739
:106C8000014638460DF006FE50B3237C8BB9072130
:106C90002B688DF804104FF6FF72ADF80620019AAC
:106CA000DB693146284603B0BDEC028BBDE8F040FD
:106CB0001847BFEE008AB6E723682A681B69D769C0
:106CC00020469847C1B2304605F0CCF9314602461D
:106CD0003B46284603B0BDEC028BBDE8F0401847A8
:106CE0000421D5E7C43B0020F0B52DED028B1368DD
:106CF00083B005465B6910460E4614469847C1B2FC
:106D00002D2928D0324B18680DF0C4FD002848D03A
:106D1000237C8BB3B7EE008A20460122002106F0C7
:106D2000D7FCD5E9003220EE080A5269DB6982ED12
:106D3000000A02204FF6FF718DF80400ADF806102E
:106D40000120019AA8723146284603B0BDEC028B9F
:106D5000BDE8F0401847236820461B699847236820
:106D60001B4A5B69176820469847014638460DF074
:106D700091FD50B3237C8BB907212B688DF804104B
:106D80004FF6FF72ADF80620019ADB6931462846BE
:106D900003B0BDEC028BBDE8F0401847BFEE008A9F
:106DA000BAE723682A681B69D76920469847C1B2A9
:106DB000304605F057F9314602463B46284603B0B7
:106DC000BDEC028BBDE8F04018470421D5E700BFB9
:106DD000C43B0020F0B52DED028B136883B005464F
:106DE0005B6910460E4614469847C1B22D292BD038
:106DF000334B18680DF04EFD00284BD0237C002B40
:106E000033D0B7EE008A20460122002106F060FC54
:106E1000D5E9003220EE080A022152698DF80410EB
:106E2000BCEEC00A4FF6FF71ADF80610DB6982EDCB
:106E3000000A0120019AA8723146284603B0BDEC31
:106E4000028BBDE8F0401847236820461B6998472D
:106E500023681B4A5B6917682046984701463846F5
:106E60000DF018FD50B3237C8BB907212B688DF8EA
:106E700004104FF6FF72ADF80620019ADB69314627
:106E8000284603B0BDEC028BBDE8F0401847BFEECA
:106E9000008AB8E723682A681B69D76920469847A3
:106EA000C1B2304605F0DEF8314602463B46284680
:106EB00003B0BDEC028BBDE8F04018470421D5E7D4
:106EC000C43B0020F0B52DED028B136883B005465E
:106ED0005B6910460E4614469847C1B22D292CD046
:106EE000344B18680DF0D6FC00284CD0237C002BC6
:106EF00034D0B7EE008A20460122002106F0E8FBDC
:106F000020EE080A6B68FCEEC07A596917EE903AD9
:106F100002220B708DF804202B684FF6FF72ADF83B
:106F200006200120DB69019AA8723146284603B089
:106F3000BDEC028BBDE8F0401847236820461B6972
:106F4000984723681B4A5B691768204698470146A3
:106F500038460DF09FFC50B3237C8BB907212B687A
:106F60008DF804104FF6FF72ADF80620019ADB6928
:106F70003146284603B0BDEC028BBDE8F04018470F
:106F8000BFEE008AB7E723682A681B69D7692046E5
:106F90009847C1B2304605F065F8314602463B4697
:106FA000284603B0BDEC028BBDE8F0401847042131
:106FB000D5E700BFC43B0020F0B52DED028B136870
:106FC00083B005465B6910460E4614469847C1B229
:106FD0002D292CD0344B18680DF05CFC00284CD0C7
:106FE000237C002B34D0B7EE008A204601220021FA
:106FF00006F06EFB20EE080AD5E90032BCEEC00AAE
:10700000022152698DF8041010EE104A4FF6FF71FC
:10701000ADF80610DB6914800120019AA872314690
:10702000284603B0BDEC028BBDE8F040184723684A
:1070300020461B69984723681B4A5B6917682046EE
:107040009847014638460DF025FC50B3237C8BB998
:1070500007212B688DF804104FF6FF72ADF806205B
:10706000019ADB693146284603B0BDEC028BBDE8CE
:10707000F0401847BFEE008AB7E723682A681B690B
:10708000D76920469847C1B2304604F0EBFF31463D
:1070900002463B46284603B0BDEC028BBDE8F040FB
:1070A00018470421D5E700BFC43B0020F0B4466870
:1070B000BDF910507669D6E900670495BDF9145002
:1070C0000595BDF918500695C0E90467F0BC03F0BA
:1070D0008BBC00BF70B44668BDF90C507669BDF931
:1070E000144036680395BDF91050C660CDE90454CC
:1070F00070BC03F079BC00BFF0B44568BDF9106006
:107100006F69BDF914503F68BDF91840C760CDE9FB
:1071100004650694F0BC03F067BC00BFF0B445689A
:10712000BDF910606F69BDF914503F78C772BDF9A1
:1071300018400694CDE90465F0BC03F055BC00BFCF
:10714000F0B44568BDF910606F69BDF914503F880F
:10715000BDF918408781CDE904650694F0BC03F0C1
:1071600043BC00BF08B50B460A22C17A184606F098
:10717000FDF800B208BD00BF08B50B460A228189A0
:10718000184606F023F900B208BD00BF436910B5E8
:10719000044618680368DB68984730B1636918686B
:1071A0000368BDE810405B6918474FF0FF3010BD21
:1071B000F0B589B0BDF93850BDF93C60BDF94070FB
:1071C000002D17DB1C46104B10491B78226803EB7F
:1071D000430301EB830105A8D56806F02BFE324678
:1071E00005992046A847044605A806F04BFE204610
:1071F00009B0F0BDCDE90167009503F0C3FB04467B
:10720000204609B0F0BD00BF2C410020B43E002054
:10721000032914D004290AD0022900D070470C4A4F
:10722000D2F8123043F00103C2F812307047084A16
:10723000D2F8123043F00403C2F812307047044A07
:10724000D2F8123043F00203C2F81230704700BF88
:107250001843002038B5447A5CB943685969D0E9CD
:107260000423D1E900014FF001050CF051FC10B9E5
:10727000ECB2204638BD2546FAE700BF0268074950
:1072800052698A4208B504D1807C003018BF0120C1
:1072900008BD9047003018BF012008BDED62020014
:1072A000F0B50021044683B0C06804F0CDFED4E9F7
:1072B0000902036891881B6C98472368174A1D6A66
:1072C000954218D1E268658B1268A78B51881288A5
:1072D000268C606A12FB05F25D6A114B028211FB7B
:1072E00007619D42418210D1D4E90932D289DA8204
:1072F0009A8203B0F0BD00231A4619462046A847DB
:1073000023685D6A064B9D42EED000220123204691
:1073100000921946A84703B0F0BD00BFB96502004E
:1073200079630200000000002DE9F843B44CB54D2C
:1073300023782DED028B2BB1B34B2A881B889A4200
:10734000C0F0A5800021B148B14FB24E01F0CAFB98
:10735000B14809F025FCB14BB149B24A4FF00008E1
:107360004FF00009C3E9008900230B7013200121AD
:1073700023702B803B603360136009F03FFEAA4905
:10738000AA4806F0D5F8AA4D2C4605F12806042097
:1073900009F026FD44F8040BB442F8D1D5ED017A8A
:1073A00095ED066AD5ED076A95ED087A9FEDA14A3D
:1073B000A14CB8EEE75AD5ED007AF8EEE74AD5EDE4
:1073C000027A35EE245AF8EEE75AD5ED037A75EED7
:1073D000855AF8EEE74AD5ED047A74EEA54AB8EE80
:1073E000E75AD5ED055AD5ED097A35EE245AF8EE6F
:1073F000E55AB8EEC66A75EE855AF8EEE66A36EEDC
:10740000256AB8EEC77A76EE866AF8EEE77A37EE46
:10741000267AB7EE008A77EE877A84EE270A30EE76
:10742000480A88EE000A0BF08BFEDFED847A60EEEE
:10743000277A17EE900A0CF0ABF86DA3D3E900237E
:107440000BF048FF0CF0DEFB07EE900AC8EE277A3F
:1074500017EE900A0CF09CF867A3D3E900230BF019
:1074600037FF0CF0CFFB0CF093F8C4E9000174482F
:1074700005F074FD734BD3E900010CF0A3FBBDECE8
:10748000028B0146BDE8F843102009F0EBBB0C214C
:107490005E486D4F614C624E01F07CFB01215B4800
:1074A00001F020FB38880CF051F8C4E9000167496D
:1074B0005E4805F045FF347814BB654A654B554D71
:1074C00012881B683A802A68514993420B6026D281
:1074D00061495648534F06F02BF82146132009F016
:1074E0008DFD4D4809F05CFB337850482C6001332A
:1074F000DBB219460A2233703C6006F031F842E7ED
:10750000012C45D0022C1ED0032C62D0042C00F09C
:10751000C7802B88002201332B80327033E74F4B1A
:107520004F4A1888118800F007F90146132009F026
:1075300065FD29683D480A2205F0B6FF49493B48E8
:1075400005F0F6FF1FE7434B314A324C9B68404938
:107550001360226889883980934280F08D80424987
:107560003248304D05F0E4FF0021132009F046FDBC
:10757000294809F015FB33782C480133DBB2194652
:1075800033700A2200232B60236005F0E9FFFAE63E
:10759000304B1F4A1F4C5B682D4913602268498895
:1075A0003980934201D23149DAE72C4B2C4A1888B2
:1075B000118800F0C1F80146132009F01FFD216871
:1075C0001A480A2205F070FF2949184805F0B0FF53
:1075D000D9E6204B0E4A0F4CDB681D491360226828
:1075E000C9883980934268D22249B9E7AFF3008055
:1075F00083DBB5DCE1796B3F6666666666127140D7
:107600002C410020944000207C3B00204C40002076
:10761000A4400020A04000206C430020583E0020E1
:1076200096400020144300209C6203004C4400203C
:107630002C43002000D81F46403E00202CBB84393C
:1076400040410020483E00207E3B0020E8610300CE
:10765000A03B0020B03B0020F8610300AC3B0020C1
:10766000AA3B002008620300406203001C62030082
:107670002C6203005C620300244B254A18881188A1
:1076800000F05AF80146132009F0B8FC216821489F
:107690000A2205F009FF20491E4805F049FF72E65D
:1076A0001E4B1F4A1F4C1B691F4913602268098922
:1076B0003980934215D21D4952E7144B144A188859
:1076C000118800F039F80146132009F097FC216871
:1076D00010480A2205F0E8FE15490E4805F028FF7B
:1076E00051E60A4B0A4A1888118800F025F801462D
:1076F000132009F083FC216806480A2205F0D4FE15
:107700000C49044805F014FF3DE600BFAC3B0020E7
:10771000AA3B00204C4400204C620300B03B0020F8
:10772000A4400020A0400020A03B00208062030075
:107730006C6203008C62030038B505460C4606F007
:10774000ABFB2919B0FBF1F303FB1100A8422CBFDE
:107750000020012038BD00BF2DE9F0472DED028B40
:10776000DFF88C83CE4F82B0D8E900010CF002FA2A
:107770000023642219460092FF2206F027FBC94B22
:107780001870FFF7D1FDC84B5B685B69D3E9005403
:10779000D3E902011A6901236B723E4663723D46CA
:1077A000437207F128044B725372042009F018FB4E
:1077B00045F8040BAC42F8D1D6ED007A9FEDBB6AD8
:1077C000DFF830A3DFF830939FEDB98AB8EEE77A9F
:1077D000D6ED017AF8EEE76AD6ED027A37EE267A30
:1077E000F8EEE77AD6ED036A77EE877AF8EEE66A86
:1077F00096ED047A76EEA76AB8EEC77AD6ED057AEA
:1078000077EE266AB8EEE77AD6ED067A37EE267A74
:10781000F8EEE77AD6ED076A77EE877AF8EEE66A51
:1078200096ED087A76EEA76AB8EEC77AD6ED097AB1
:1078300037EE267AF8EEE77AF7EE008A77EE877A67
:10784000142486EE270A30EE680A88EE800A0BF0D0
:1078500077FCDFED987A60EE277A17EE900A0BF04E
:1078600097FE8BA3D3E900230BF034FD0CF0CAF98B
:1078700007EE900AC8EEA77A17EE900A0BF088FE82
:1078800085A3D3E900230BF023FD0CF0BBF907EE31
:10789000900AFCEEE77A17EE900AAAF8000006F0CC
:1078A000FBFAC9F80000022009F06AFA0C2009F07E
:1078B00061FA1F2009F094FA07EE900A601EF8EEB4
:1078C000677A10F0FF0438EE278AF2D1204609F0DB
:1078D00057FA0A2009F04EFA7749D9F800300A68B9
:1078E000764CDFED777A77489A1AB2F5FA7F2268FC
:1078F00028BF0B6028EE278A9B1A4A2B80ED008A4E
:1079000000F2AF80704B1B78EBB9704870490022D1
:107910000023C0E90023C1E900236E4C6E4805F046
:107920004BFA6168204604F04DFC23685B682046F2
:10793000196805F01DF8002840F0888002B0BDEC01
:10794000028BBDE8F087042009F04AFA47F8040BDF
:10795000AF42F8D1D6ED017A96ED007AD6ED026A03
:10796000DFED525A594D5A4CB8EEC77AF8EEE77A25
:10797000F8EEE66A77EE877A96ED037A76EEA76AF6
:10798000B8EEC77AD6ED047A77EE266AB8EEE77AD3
:10799000D6ED057A37EE267AF8EEE77AD6ED066A66
:1079A00077EE877AB8EEE66A96ED077A36EE276AC2
:1079B000F8EEC76A96ED087AD6ED097A76EE866A11
:1079C000B8EEC77AF8EEE77A37EE267AB7EE008A95
:1079D00077EE877A85EEA70A30EE480A88EE000A2D
:1079E0000BF0AEFBDFED337A60EE277A17EE900AEC
:1079F0000BF0CEFD26A3D3E900230BF06BFC0CF0BB
:107A000001F907EE900AC8EE277A17EE900A0BF0FC
:107A1000BFFD21A3D3E900230BF05AFC0CF0F2F8D0
:107A20000BF0B6FD2D4BC5E9000118880BF08EFD5B
:107A3000C4E900012A4805F091FAD8E900010CF0E8
:107A4000C1F80146102009F00DF966E7204604F060
:107A500005FC244802B0BDEC028BBDE8F04702F003
:107A60000DBD214805F0FAFB40B2002809D01F4A9D
:107A7000D2F81230CCBF43F0080343F01003C2F831
:107A80001230D9F8003023603CE700BFAFF300802C
:107A900083DBB5DCE1796B3F666666666612714032
:107AA0002C430020503E00200043002000D81F46F9
:107AB000000000002CBB84390C4300201043002040
:107AC00035805738744000202C410020403E002073
:107AD000583E0020B8410020784000207E3B002026
:107AE00040410020A84000204044002018430020CE
:107AF000483E0020984000209C4000202DE9F04F97
:107B0000DD4CDE4DDFF83894DFF838B4DC4EDFF8BA
:107B10003884DFF838A485B0204600F083FF204683
:107B2000D84AD949D94C0BF005FB002301221B216F
:107B3000D74805F02DF8DFF818E4DFF818C4D54B66
:107B4000CCF800B09EED002B95ED001B94ED000BE2
:107B5000002501244FF01F0E4FF47A770095CE4A8E
:107B60008CF811E0CCF80450CCF808708CF8104078
:107B7000CA49CB48CB4F05F073F9484608F0C0FF1F
:107B8000C04AC94948460BF0D5FAC84BC84A0293C7
:107B90004FF0FF33CDE900328021C64BC648DFF8F5
:107BA000B893402202F0EAF8B64AC449C2480BF042
:107BB000C1FA3046C24906F017F906F10C00C14976
:107BC00006F012F906F11800BF4906F00DF906F1AA
:107BD0002400BE4906F008F906F13000BC4906F061
:107BE00003F906F13C00BB49BB4E06F0FDF8A54A7F
:107BF000BA4928460BF09EFA4046B94906F0F4F817
:107C000008F10C00B74906F0EFF808F11800B64982
:107C1000DFF8488306F0E8F89A4AB44928460BF0A2
:107C200089FADFF83CC3B24BB24ACCF80430B24B0D
:107C30008CF808408CF80940CCF80030AF49DFF8E8
:107C400024C3C2F804C04FF0030BDFF81CC3DFF8F5
:107C50001CE3AB48136014725472C9F8041081F825
:107C600004B0A84A89F80840062189F80940C9F8F3
:107C7000002088F80410DFF8F892A34ACCF80480BA
:107C8000DFF8F082CEF8040001718CF808409F48BC
:107C90008CF809408CF80A50CCF800804FF0170C93
:107CA0008EF808408EF809408EF80A50CEF8000091
:107CB00031717E603C727C72BD72386082F804C0A3
:107CC000C9F80420924AC9F8002089F8084089F8C8
:107CD0000940904FDFF8A0928F4EDFF8A0E2397193
:107CE000C9F8047089F8084089F8094089F80A50F1
:107CF000C9F80000894FDFF888928EF80410C6F8A2
:107D000004E0347274723060B572DFF878E2844E49
:107D10003971C9F80470834F32608EF804C0C6F818
:107D200004E034727472DFF860E27F4E89F8084034
:107D300089F8094089F80A50C9F80070DFF84C92B8
:107D40008EF80410C6F804E03472DFF844E274726E
:107D5000B572376089F804C0DFF838C2CEF8008009
:107D6000CCF80020CCF804908CF808408CF809403E
:107D7000DFF82482DFF824C26C4E8EF808408EF8BB
:107D800009408EF80A50CEF80480DFF81492DFF82C
:107D900014E288F804103171CCF80460DFF808822E
:107DA000634E89F80410CEF80490DFF800928CF846
:107DB00008408CF80940CCF800008CF80A508EF886
:107DC0000840DFF8ECC18EF809408EF80A50CEF872
:107DD000009088F80410DFF8DC91DFF8DCE1C6F8E9
:107DE0000480DFF8D88134727472B572C6F80080EE
:107DF000504ECCF800308CF808408CF80940CCF894
:107E00000460DFF8BC818EF804B04B4EC9F804E082
:107E1000DFF8B0C1DFF8B0E189F8084089F809401F
:107E2000C9F800208CF80410C6F804C088F80410C3
:107E3000DFF898C1CEF80480DFF89491DFF89481E0
:107E400034727472B57230603C4E89F804108EF84A
:107E500008408EF809408EF80A50CEF80000CCF8A1
:107E60000490DFF874E1DFF874918CF808408CF826
:107E700009408CF80A50B3E04C400020F83900204B
:107E80006C3E002000360020358A0200003A0020B7
:107E900078400020583E0020483E0020403E002010
:107EA0004041002020400020B10A0300A0860100CC
:107EB000801A060074430020A8400020D59D0200CF
:107EC0005C6103006C6103007C6103008C61030052
:107ED000A0610300B0610300B03900204D6B0200C7
:107EE000C0610300D4610300F46A0300296B02003F
:107EF000E03A0020AC420020A06A0300803B002052
:107F000090390020F45F0300483600202060030011
:107F1000345F0300F8360020D83E002018370020D8
:107F20001C3E002090600300083F002068370020BE
:107F3000483F0020303A0020603F00206838002091
:107F40006C430020605F0300B43E0020EC42002040
:107F5000F03900201843002060430020D039002071
:107F6000A0420020F03A00203040002010400020C5
:107F7000603E002058600300E83E0020D836002014
:107F8000F83E002008360020403700202036002030
:107F9000383F0020283E0020B0370020183F002046
:107FA00088370020283F0020D0370020C860030019
:107FB0001C42002088400020AC36002000610300F5
:107FC0002838002008380020703F0020803F002023
:107FD00048380020903F002088380020A03F002033
:107FE000CCF800003171DFF820C3C8F80460AE4E51
:107FF00088F8084088F8094088F80A50C8F8000056
:108000008EF80410DFF80483C9F804E089F808400A
:10801000DFF8FCE289F8094089F80A508CF804106E
:10802000C6F804C0C9F80000DFF8E8C2DFF8E8923B
:1080300088F80410CEF804808EF80840DFF8DC825F
:108040008EF809408EF80A50CEF8007089F80410B6
:10805000DFF8CCE2CCF8049034727472B5723760F9
:10806000DFF8C092914E8CF808408CF809408CF8EB
:108070000A50CCF800703171DFF8ACC2C8F8046067
:10808000CEF804908A4E89F80410DFF8A092C8F860
:108090000070CEF800708EF80840864F8EF80940C8
:1080A0008EF80A50DFF888E288F8084088F809401E
:1080B00088F80A508CF80410C6F804C0DFF874C2BF
:1080C000C9F80020C9F8047089F8084089F8094007
:1080D000DFF86492DFF864823060CEF800307648D2
:1080E0008EF808408EF80940CEF80490DFF850E290
:1080F000724934727472B572CCF804E0704EDFF8D5
:1081000044E2C8F8003088F80840C8F8046088F8ED
:1081100009406C4EDFF8308287F804B0CCF80030AC
:10812000694F8CF808408CF809400360DFF81CC2E6
:1081300004724472C0F804E064480B600C724C7224
:10814000486063496348DFF808E2C8F8003088F8FF
:108150000840C8F8041088F809405F493B60336064
:10816000CCF80030DFF8EC815C4BC6F804808CF86A
:1081700008408CF80940CCF80430DFF8DC81DFF8E7
:10818000DCC13C727C72C7F80480554BDFF8D081AB
:10819000544F347274728EF804B0534EC0F804E039
:1081A000C1F804C0DFF8BCE1DFF8BCC1DFF8BC9166
:1081B00002603A60C8F8002083F804B0C8F80430C0
:1081C000047244720C724C72C1F8009050462946F9
:1081D00086F804B07E603C727C7288F8084088F8AB
:1081E0000940CAE900ECCAF8084003F02DFF3F4BF4
:1081F0003F4E40484049414A414FDFF874C15962FF
:10820000C3F80CA041469860DFF86891DFF868E198
:108210003C485D604FF001184FF0020A5D611D7629
:1082200083F810A0C3F81A90C3F81E80C3F800E0CA
:108230009862DFF848E1DFF848A1DFF84891DFF8FD
:108240004881147430464FF47A73C2E90153C2F87E
:1082500000A0C2F814907260CCF80040C6F800C0CC
:10826000CCF804E0C6F80CB034747574C6E9065551
:1082700086F82050C6F814803D80BD813D83BD84C2
:10828000B76086F8214086F82250B484C6E90A55C2
:1082900086F8304003F086FF5946304605B0BDE809
:1082A000F04F03F06DBF00BFB03F00202039002029
:1082B00000400020343B00204C4200205842002067
:1082C000403A0020704200207C420020803A00208A
:1082D000903A00204040002088420020D03A002000
:1082E000083A002000430020043B0020C042002048
:1082F000B8410020F8420020A8400020144100208E
:10830000EC41002044640300A8380020D03800204D
:10831000C03F0020D03F0020F8380020E03F002080
:10832000F03F0020483900207039002054430020DD
:108330003442002040420020503A002028420020D1
:10834000603A0020703A00206442002094420020ED
:1083500078360020A03A0020B03A0020C03A002031
:1083600030410020703600203C400020D45F0300E4
:10837000B8420020050009008C5F0300003B00208C
:10838000386103006C360020D5B102000000000007
:108390002DE9F0432DED028B4B4FDFF85891DFF8BC
:1083A00058814A4C4A4E4B4D9FED438B83B0384623
:1083B0004FF4E13105F0C2FAB0EE480AF0EE680A77
:1083C0009FED3F1B484604F081FE4846012104F022
:1083D000C7FE414B41490020C3E900014046392115
:1083E00000F0B4F9424600232046392100F024FB76
:1083F0002046642100F08EFD204640F2E73100F077
:108400009DFD0921204600F0AFFD204600F01AFD39
:108410002046002100F066FB0121112008F0ACFD90
:108420000121132008F0A8FD2D4B2E491A68DFF812
:10843000CC8013895160C3F30E0343F49B7343F064
:108440000103138102211B2008F096FD4FF0FF333A
:108450000B2230461E2104F0B7FE3046012104F005
:10846000F7FE0124304604F0DFFE234621463C227D
:108470002846009401F072FD284601F0EFFF6420C9
:1084800005F016FD2846184D01F0F8FF384617494B
:1084900004F056FF009440460023154A4FF47A71C9
:1084A00085ED008B08F034FB404603B0BDEC028B39
:1084B000BDE8F04308F040BB0000000000000000F1
:1084C0000000000000E06F404C4400204C400020C1
:1084D00040440020A8400020583E002000003940C1
:1084E0007840002011720200383E002034650300FD
:1084F0003966020040410020744300206C43002094
:10850000704700BF203005F08FB800BF203005F065
:108510007DB800BF203005F08DB800BF38B5437F6F
:108520000BB9002038BD00F1680420460D4605F067
:1085300089F80028F5D12046294605F055F8012094
:1085400038BD00BF2DE9F0475AB30646DFF8588022
:1085500033681B684D1E434517464FF0000400F179
:10856000680915F801AF16D1737F13B92046BDE82D
:10857000F087484605F066F80028F7D1514648468E
:1085800005F032F80134A742F0D0336815F801AF96
:108590001B684345E8D05146304698470028F1D142
:1085A000E4E71446E2E700BF1D85020030B4827E96
:1085B0004FF0A04302F5E07240F20C640121C17655
:1085C00043F82240427E02F5E0724FF0CC7543F84A
:1085D00022400369C3F8245503690622C3F8002525
:1085E0000369827EC3F808250369427EC3F80C251F
:1085F00090F91830002B13DA124A03F00F031A44D3
:108600006023137690F91830002B07DB0E4903F036
:108610001F0001225B09824041F8232030BC7047D3
:108620005C09603403F01F03074A01FA03F342F8C0
:10863000243090F91830002BDEDB1344602283F8DD
:108640000023DFE7FCEC00E000E100E0C37EE3B1E3
:108650000E4B026910B499424FF00004C2F8004575
:1086600010D90B4B994294BF4FF080614FF0C86115
:1086700003695DF8044BC3F8241503690622C3F8A7
:10868000002570474FF0CC71F2E77047A0860100DB
:1086900090D003000AB9104670472DE9F041054615
:1086A00000F12008404614461E460F4604F0AAFF7B
:1086B0002B69C3F888752A69012313622A69C2F8F5
:1086C00034852A69C2F838452A6913602A6902E0AC
:1086D000D2F824311BB9D2F84C110029F8D000236C
:1086E000C2F84C312A6902E0D2F8241119B9D2F843
:1086F0005C110029F8D00023C2F85C312B696EB9F7
:10870000D3F8242152B90122DA612A69D2F848311A
:10871000002BFBD00023C2F8483109E001225A6146
:108720002A69D2F80431002BFBD00023C2F80431AF
:108730002B69D3F824211AB10022C3F824212B6914
:10874000D3F83C052866C0B2BDE8F08110B50446F8
:10875000683084F8B01004F055FF0123637710BD32
:10876000F8B504460020236994F8B0206077C3F878
:108770008825236901271F62236904F16806C3F86D
:10878000446530460D4604F04FFF2369C3F84805A1
:1087900023699F60236902E0D3F824211AB9D3F832
:1087A0005021002AF8D00022C3F85021304604F0AE
:1087B0003BFF236940BB0022C3F86021236915B940
:1087C000D3F824212AB301225A612269D2F8043154
:1087D000002BFBD00023C2F804312369D3F8240115
:1087E00068B10022C3F824212369D3F8C404C3F874
:1087F000C404022803D0042814BF04200320F8BDB9
:10880000D3F82421002AD6D1D3F86021002AF7D04A
:10881000D1E70122DA612269D2F84831002BFBD07E
:108820000023C2F84831D8E770B5036990F8B0204A
:1088300000214177C3F88825036901261E62036978
:1088400000F168050446C3F84455284604F0ECFEE0
:108850002369C3F8480523699E60236902E0D3F8C1
:1088600024211AB9D3F85021002AF8D00022C3F8E5
:108870005021284604F0D8FE236918BB0022C3F813
:108880006021236901225A612269D2F80431002B48
:10889000FBD00021C2F804112369D3F8240160B190
:1088A000C3F824112369D3F8C404C3F8C40402280C
:1088B00003D0042814BF0420032070BDD3F8242162
:1088C000002ADBD1D3F86021002AF7D0D6E700BF19
:1088D00070B5294C6369D3F86421002A3AD1D3F8E2
:1088E0006821E2B9D3F8042162B1227F0021C3F8E4
:1088F00004113AB1D4F8B820D3F83C0520660AB187
:1089000090476369D3F8242142B10022C3F824219F
:10891000D3F8D024C3F8D02401225A6170BD0022BC
:10892000C3F86821154822770123637704F06AFEB3
:10893000D4F8B43003B1984763691048C3F84405CC
:108940000023637704F070FE63690122C3F84805D1
:108950005A63C7E7002204F12006C3F86421012509
:108960003046257704F04EFE63694022C3F8346533
:10897000C3F838251D63B2E774430020DC430020B0
:1089800038B50E4C0E4A20464FF47A7340F8202B2F
:108990000025C4E9015304F01DFE04F1680004F051
:1089A00019FE084A084B6577D2E919120320207690
:1089B0006176A276C4E9043338BD00BF7443002059
:1089C00050650300446B030000300040F0B591B0E7
:1089D00001240025816801942346922206460095D1
:1089E00004A808F02DFE04A808F0A0FE10EA040771
:1089F00002D0284611B0F0BDB1682346CDE900741D
:108A00000AA8802208F01CFE0AA93B46224602A8BA
:108A100008F0F4FE214602A808F066FF204611B0D7
:108A2000F0BD00BF024A02600022027182607047FE
:108A300074650300704700BF2DE9F041044680686B
:108A400090B00E461746984608B107F00DFD10206D
:108A500007F0FAFC3A460546314609F02FF8A560C2
:108A60002846012109F034F8054618B9284610B007
:108A7000BDE8F08123681A4A1B6893422AD1012677
:108A80000027A16801963346922204A8009708F0B7
:108A9000D7FD04A808F04AFE10EA060804D03D46B7
:108AA000284610B0BDE8F081A1683346CDE90086C4
:108AB0000AA8802208F0C4FD0AA94346324602A84B
:108AC00008F09CFE314602A808F00EFF284610B0C0
:108AD000BDE8F0814146204698470546C6E700BFFD
:108AE000CD890200F0B583689BB0012400260546BD
:108AF0000F467022194608A823460194009608F0F4
:108B00009FFD08A92246032302A808F077FEA96862
:108B100023467422CDE900640EA808F091FD0EA949
:108B20002246072304A808F069FEA9682346A92263
:108B3000CDE9006414A808F083FD224614A904239B
:108B400006A808F05BFE214606A808F0CDFE3946CF
:108B500002A808F0C9FEB8B90646A9680124002594
:108B6000234601940095A92214A808F069FD224625
:108B700014A9042306A808F041FE294606A808F017
:108B8000B3FE30461BB0F0BD394604A808F0ACFE79
:108B90000646E2E7F0B5B1F5817F93B042D80125F2
:108BA000002706460C462B46816801950CA80097C5
:108BB000A92208F045FD2A460CA9042306A808F0BE
:108BC0001DFE294606A808F08FFEB1682B46CDE9A8
:108BD000007506A8742208F033FD3B4606A907225B
:108BE00002A808F00BFE042C214638BF04210439EA
:108BF000294102A808F078FEB16804462B46CDE969
:108C000000750CA8A92208F01BFD2A460CA9042314
:108C100004A808F0F3FD394604A808F065FE2046D4
:108C200013B0F0BD0024204613B0F0BD70B588B07D
:108C3000002401250646816801952B46224602A89C
:108C4000009408F0FDFC224602A8302108F008FD3F
:108C5000B1682B462A46CDE9004502A808F0F0FC91
:108C60002246294602A808F0FBFCB1682B46CDE954
:108C7000004502A8022208F0E3FC2246214602A891
:108C800008F0EEFCB1682B46CDE9004502A80322AE
:108C900008F0D6FC2246214602A808F0E1FCB168A3
:108CA0002B46CDE9004502A8042208F0C9FC224663
:108CB000214602A808F0D4FCB1682B46CDE9004556
:108CC00002A8052208F0BCFC224602A8422108F0B6
:108CD000C7FCB1682B46CDE9004502A8062208F082
:108CE000AFFC2246214602A808F0BAFCB1682B4628
:108CF000CDE9004502A8072208F0A2FC2246214641
:108D000002A808F0ADFCB1682B46CDE9004502A8E9
:108D1000082208F095FC224602A8502108F0A0FC89
:108D2000B1682B46CDE9004502A8092208F088FC6D
:108D30002246214602A808F093FCB1682B46CDE9F3
:108D4000004502A80A2208F07BFC2246214602A820
:108D500008F086FCB1682B46CDE9004502A80B223D
:108D600008F06EFC2246214602A808F079FCB168A2
:108D70002B46CDE9004502A80C2208F061FC2246F2
:108D800002A8202108F06CFCB1682B46CDE9004513
:108D900002A80D2208F054FC224602A8042108F083
:108DA0005FFCB1682B46CDE9004502A80E2208F011
:108DB00047FC2246214602A808F052FCB1682B4627
:108DC000CDE9004502A80F2208F03AFC224602A88D
:108DD000302108F045FCB1682B46CDE9004502A8DA
:108DE000102208F02DFC2246294602A808F038FC83
:108DF000B1682B46CDE9004502A8112208F020FCFD
:108E0000224602A8502108F02BFCB1682B46CDE980
:108E1000004502A8122208F013FC2246214602A8AF
:108E200008F01EFCB1682B46CDE9004502A81322CC
:108E300008F006FC224602A8062108F011FC08B042
:108E400070BD00BF70B58AB001240026816880F82B
:108E500024600546234601948022009604A808F069
:108E6000EFFB2346224604A902A808F0C7FC3146BE
:108E700002A808F039FDA9682346CDE90064AF22B5
:108E800004A808F0DDFB0323022204A902A808F0CD
:108E9000B5FC022102A808F027FD2846FFF7C6FE10
:108EA000A9682346CDE90064802204A808F0C8FB25
:108EB000224604A9042302A808F0A0FC214602A827
:108EC00008F012FD40F2E93405E0013C4FF00100EA
:108ED00006D004F0EDFF02A808F098FC0028F4D1B9
:108EE00001240022A968009223460194802204A84C
:108EF00008F0A6FB2346224604A902A808F07EFC3F
:108F0000214602A808F0F0FC204685F824400AB06B
:108F100070BD00BF30B5826889B0012300240D46C2
:108F2000CDE90043114602A8812208F089FB2246C0
:108F3000294602A808F094FB09B030BD30B582681C
:108F400089B0002401230D46CDE9004311460223D8
:108F500002A8CA2208F074FB2246294602A808F09B
:108F60007FFB09B030BD00BF30B5826889B00123F6
:108F700000240D46CDE90043114602A8AA2208F0BC
:108F80005FFB2246294602A808F06AFB09B030BD03
:108F9000002929DB30B4B0F90C408C4222DD002AD4
:108FA00020DBB0F90E4094421CDD847E022C4BD0B5
:108FB000032C43D0012C18D0012B2ED01BD3022B15
:108FC00010D1002A0489C06A1346B8BFD31DDB1034
:108FD00013FB041102F00702445C012303FA02F2BE
:108FE0006240425430BC704770470489D2431444F5
:108FF0000A4621B2E0E7002A0489C06A1346B8BFD6
:10900000D31DDB1013FB041102F00704435C0122A3
:10901000A24023EA02034354E4E7002A0489C06A19
:109020001346B8BFD31DDB1013FB041102F0070277
:10903000445C0123934023434354D3E74489013CD8
:10904000641A114622B2B7E704894589D243013C2C
:109050002A44611A12B209B2AEE700BFF8B504465D
:10906000806A0D4668B394F83010FFF76FFBA06A72
:10907000036800211B689847A36A2F1D01261A6800
:1090800015F8011B1268184690470136BD42B6B26A
:1090900012D0A36A3F2E1846F1D1FFF7C5FB94F812
:1090A0003010A06AFFF752FBA06A036800211B681A
:1090B00098470126A36AE2E7A06ABDE8F840FFF7F7
:1090C000B3BB226C216D136823EA010313602E1DCC
:1090D00004E008F06BFAB54200F09A80606A15F877
:1090E000011B0028F5D1D4E90E23A06C176811F0FC
:1090F000800F0CBF27EA0000384310601868E76C47
:10910000384318601868E76C20EA07001860176891
:10911000A06C11F0400F0CBF27EA0000384310602C
:109120001868E76C384318601868E76C20EA070095
:1091300018601768A06C11F0200F0CBF27EA000020
:10914000384310601868E76C384318601868E76C9B
:1091500020EA070018601768A06C11F0100F0CBF10
:1091600027EA0000384310601868E76C384318603D
:109170001868E76C20EA070018601768A06C11F007
:10918000080F0CBF27EA0000384310601868E76C2E
:10919000384318601868E76C20EA07001860176801
:1091A000A06C11F0040F0CBF27EA000038431060D8
:1091B0001868E76C384318601868E76C20EA070005
:1091C00018601768A06C11F0020F0CBF27EA0000AE
:1091D000384310601868E76C384318601868E76C0B
:1091E00020EA0700186011F0010FA06C116814BF8D
:1091F000084321EA000010601A68E16C0A431A6013
:109200001A68E16CB54222EA01021A607FF466AF87
:10921000F8BD00BF2DE9F041847EBDF81850022C46
:109220007AD0032C73D0012C07D0002A03DBB0F9CD
:109230000A4094427BDCBDE8F0810489D243224499
:1092400012B2002AF7DBB0F908609642F3DD00297C
:10925000BEBF5B1800211BB2B0F90A700C461C445B
:10926000BC42C4BF7B1A1BB2002BE4DDC9B2CC08E0
:10927000D0F82CC016FB042211F00701DBB20CEB76
:10928000020721D0C1F10801CCB2C349A342095D54
:1092900080F07681A4EB030EFF2646FA0EF6012D30
:1092A00001EA060100F0FC81C0F00082022DC2D16B
:1092B0001CF8026071400CF80210A342BBD3B0F955
:1092C00008201B1BDBB21744072B11D9022D00F01D
:1092D000F481002D14BFFF2400241A463C70083A84
:1092E000B0F90810D2B2072A0F44F7D803F00703E9
:1092F000002BA0D0A94A012DD35C00F0F581C0F06D
:10930000EE81022D97D13A7853403B7093E7448920
:109310001944611A09B294E746890489D243324458
:10932000194412B2611A002A09B280DA83E70029CF
:10933000BEBF5B181BB20021B0F908405E18A64200
:10934000C4BF631A1BB2002B8E467FF774AF002A8E
:109350001646B8BFD61DF1104FF0010CC76A02F0D7
:10936000070214FB01E60CFA02F26545D2B207EBE4
:10937000060100F01581C0F08380022D7FF45BAF01
:109380009BB24C425D1E04F00304ADB2E01C85426A
:109390000FFA85FC48D3002C00F0AA81B85DA3F138
:1093A000020C5040012CB8550FFA8CFC01F1010859
:1093B00013D04878A3F1030C5040032C48700FFAE7
:1093C0008CFC01F1020808D18878A3F1040C50400C
:1093D000887001F103080FFA8CFC4FF0000E62F365
:1093E000070E181BA11962F30F2E86B27B1862F3C9
:1093F000174E62F31F6EB7081C1F002054F8041F9D
:10940000013085B28EEA0101AF4243F8041BF5D862
:1094100026F003039BB2ACEB030C9E420FFA8CFCCC
:1094200008EB03013FF407AF0B781FFA8CF05340B1
:10943000441E0B70A4B2BCF1000F3FF4FCAE4D789B
:10944000831E55404D709BB2002C3FF4F4AE8D78D6
:10945000C41E55408D70A4B2002B3FF4ECAECB7807
:109460005340CB70002C3FF4E6AE0B79042883EA1E
:1094700002030B713FF4DFAE4B795A404A71DAE6D2
:109480009BB248425C1E00F00300A4B2C51CD2434C
:10949000AC425FFA82FC22B243D3002800F02C8158
:1094A000BC5D9A1E0CEA04040128BC5512B201F1FD
:1094B000010E11D04C78DA1E0CEA040403284C701B
:1094C00012B201F1020E07D18C781A1F0CEA0404C3
:1094D0008C7001F1030E12B24FF000086CF3070814
:1094E00081191B1A6CF30F2839449EB26CF317488C
:1094F0006CF31F68B7080C1F002054F8043F0130BC
:1095000085B208EA0303AF4241F8043BF5D826F0E0
:1095100003039BB2D21AB34212B20EEB03013FF423
:109520008AAE0B7890B20CEA0303441E0B70A4B20F
:10953000002A3FF480AE4A78831E0CEA02024A7089
:109540009BB2002C3FF477AE8C78C21E0CEA040468
:109550008C7092B2002B3FF46EAECB780CEA030312
:10956000CB70002A3FF467AE0B7904280CEA0303A2
:109570000B713FF460AE4B790CEA03034B715AE672
:10958000012D00F08D80C0F09180022D3FF490AE4F
:109590001B1BDBB2374497E66C6A0300746A030056
:1095A0009BB24C42581E04F0030480B2E51C854275
:1095B0000FFA80FC48D8002C00F09C80B85DA3F125
:1095C000020C1043012CB8550FFA8CFC01F1010E6E
:1095D00013D04878A3F1030C1043032C48700FFA02
:1095E0008CFC01F1020E08D18878A3F1040C104321
:1095F000887001F1030E0FFA8CFC4FF0000862F343
:109600000708A1191B1B62F30F2839449EB262F3AD
:10961000174862F31F68B7080C1F002054F8043F76
:10962000013085B248EA0303AF4241F8043BF5D864
:1096300026F003039BB2ACEB030C9E420FFA8CFCAA
:109640000EEB03013FF4F7AD0B781FFA8CF01343D8
:10965000441E0B70A4B2BCF1000F3FF4ECAD4D788A
:10966000831E15434D709BB2002C3FF4E4AD8D7802
:10967000C41E15438D70A4B2002B3FF4DCADCB7833
:109680001343CB70002C3FF4D6AD0B79042843EA8A
:1096900002030B713FF4CFAD4B791A434A71CAE50F
:1096A0001CF8026031430CF8021006E61CF8026058
:1096B00026EA01010CF80210FFE51A463978C94381
:1096C0003970083AB0F90810D2B2072A0F44F5D819
:1096D00013F007033FF4AFAD084AD35C13E63A78C2
:1096E00022EA03033B70A6E53A7813433B70A2E5F8
:1096F000884672E68E4680E78E46EDE6746A030081
:1097000038B50446806A0D46002800F0B580A16D8A
:10971000FEF79CFFA06A002D0CBFA625A7250028F8
:1097200040F08A80226C216D1368606A23EA01038D
:109730001360002876D1A26BA06C1168E36B014323
:1097400011601968E06C014319601968E06C21EA46
:10975000000119601168A06C21EA0001116019680C
:10976000E06C014319601968E06C21EA000119609E
:109770001168A06C014311601968E06C0143196025
:109780001968E06C21EA000119601168A06C21EAF7
:10979000000111601968E06C014319601968E06C00
:1097A00021EA000119601168A06C21EA0001116032
:1097B0001968E06C014319601968E06C21EA000146
:1097C00019601168A06C014311601968E06C0143D5
:1097D00019601968E06C21EA000119601168A06C39
:1097E000014311601968E06C014319601968E06C6D
:1097F00021EA000119601068A16CA62D14BF014375
:1098000020EA010111601A68E06C616C02431A6081
:109810001A68E06C22EA00021A60626D0B6813435A
:109820000B6038BD294607F0C1FEA06AC0B1E16DEA
:10983000BDE83840FEF70ABF94F83010FEF786FF07
:10984000A06A036800211B689847A06A036829463C
:109850001B689847A06AFEF7E7FFA06A0028E6D1D8
:10986000626C616D1368606A0B4313600028D8D086
:10987000BDE8384007F094BE626A3AB104F164036F
:10988000104693E8060007F03DFEA06A626C616D29
:10989000136823EA010313603DE700BF2DE9F0419F
:1098A000857EBDF81860022D00F00B81032D00F0BD
:1098B0000381012D54D0002950DBB0F908708F428C
:1098C0004CDD002ABEBF9B1800221BB2B0F90A5023
:1098D00014461C44AC42C4BFAB1A1BB2002B3DDD86
:1098E000D2B2D408D0F82CC017FB041112F0070232
:1098F000DBB20CEB010521D0C2F10802D4B2C64A9A
:10990000A342125D80F07B81A4EB030EFF2747FA90
:109910000EF7012E02EA070200F0FF81C0F0038279
:10992000022E1BD11CF801707A400CF80120A342D2
:1099300014D3B0F908201B1BDBB21544072B00F22F
:10994000CC805BB1B54A012ED35C00F00A82C0F036
:109950000382022E02D12A7853402B70BDE8F08199
:1099600004891A44A21A12B20029F7DBB0F90A409E
:109970008C42F3DD002ABEBF9B181BB20022B0F957
:1099800008409F18A7421546C4BFA21A13B2002B65
:10999000E4DD0029C76A0846B8BFC81DC21001F03F
:1099A00007000121814014FB0252012EC9B207EBCE
:1099B000020000F03581C0F0A380022ECED11FFA44
:1099C00083F8444208F1FF3504F00304ADB2E31C10
:1099D0009D422EB246D3002C00F0CB81BB5CA8F197
:1099E00002064B40012CBB5436B200F1010E11D0DF
:1099F0004378A8F103064B40032C437036B200F1C4
:109A0000020E07D18378A8F104064B40837000F161
:109A1000030E36B24FF0000C61F3070CA8EB0408FC
:109A2000224461F30F2CBB181FFA88F861F3174C1E
:109A300061F31F6C4FEA98071C1F002054F8042F95
:109A4000013085B28CEA0202AF4243F8042BF5D80C
:109A500028F003039BB2F61A984536B20EEB0300CA
:109A60003FF47CAF0378B4B24B40621E037092B2F5
:109A7000002E3FF473AF4578A31E4D4045709BB256
:109A8000002A3FF46BAF8578E21E4D40857092B29C
:109A9000002B3FF463AFC3784B40C370002A3FF400
:109AA0005DAF0379042C83EA010303713FF456AFE1
:109AB00043795940417151E74489C943214409B26E
:109AC00052E704894589C94321441A4409B2AA1AB4
:109AD000002912B2BFF6F1AE40E7022E00F02A8153
:109AE000002E14BFFF24002419462C700839B0F949
:109AF0000820C9B207291544F7D803F0070320E767
:109B00001FFA83F8444208F1FF3504F00304ADB2B4
:109B1000E31CC9439D42C9B22EB246D3002C00F0CB
:109B20002481BB5CA8F102060B40012CBB5436B269
:109B300000F1010C11D04378A8F103060B40032C6F
:109B4000437036B200F1020C07D18378A8F1040605
:109B50000B40837000F1030C36B24FF0000E61F33E
:109B6000070EA8EB0408224461F30F2E3A441FFAB3
:109B700088F861F3174E61F31F6E4FEA9807141FC0
:109B8000002054F8043F013085B20EEA0303AF42CF
:109B900042F8043BF5D828F003039BB2F61A43457C
:109BA00036B20CEB03003FF4D9AE0378B4B20B40ED
:109BB000621E037092B2002E3FF4D0AE4578A31E11
:109BC0000D4045709BB2002A3FF4C8AE8578E21E76
:109BD0000D40857092B2002B3FF4C0AEC3780B40AD
:109BE000C370002A3FF4BAAE0379042C03EA0103E0
:109BF00003713FF4B3AE437919404171AEE6012ED3
:109C000000F08B80C0F08F80022E3FF48BAE1B1BC8
:109C1000DBB23D4492E600BF6C6A0300746A030045
:109C20001FFA83F8454208F1FF3405F00305A4B29A
:109C3000EB1C9C4226B246D3002D00F09880BB5C02
:109C4000A8F102060B43012DBB5436B200F1010C02
:109C500011D04378A8F103060B43032D437036B2AD
:109C600000F1020C07D18378A8F104060B4383703E
:109C700000F1030C36B24FF0000E61F3070EA8EBB3
:109C800005082A4461F30F2E3A441FFA88F861F35D
:109C9000174E61F31F6E4FEA9807141F002054F807
:109CA000043F013085B24EEA0303AF4242F8043B61
:109CB000F5D828F003039BB2F61A984536B20CEBA0
:109CC00003003FF44BAE0378B4B20B43621E037043
:109CD00092B2002E3FF442AE4578A31E0D4345706C
:109CE0009BB2002A3FF43AAE8578E21E0D438570A0
:109CF00092B2002B3FF432AEC3780B43C370002AFC
:109D00003FF42CAE0379042C43EA010303713FF4C2
:109D100025AE43791943417120E61CF801703A439E
:109D20000CF8012003E61CF8017027EA02020CF887
:109D30000120FCE51A462978C9432970083AB0F990
:109D40000810D2B2072A0D44F5D813F007033FF4E8
:109D500005AE094AD35CFEE52A7822EA03032B709C
:109D6000FCE52A7813432B70F8E58446F5E6844633
:109D700081E786464EE600BF746A03002DE9F04194
:109D8000079F9DF91880104E04461D4608F0E2FD1D
:109D90000E4B0F49A7654FF0FF304FF48072002D36
:109DA00008BF1D46089FC4F83300002384F837809D
:109DB0006166A4F86820E765A56226606362E362D5
:109DC0002046BDE8F08100BF206A030074430020F4
:109DD00000093D0010B50446C06A034B236008B17A
:109DE00009F0B4FF204610BD206A0300836A70B5F5
:109DF0000A46002B40F09B80046C066D2368456A80
:109E000023EA06032360002D40F08C80D0E90E1376
:109E1000846C0D68160654BF25EA04042C430C60BC
:109E20001C68C56C2C431C601C68C56C24EA0504C6
:109E30001C600D68846C560654BF25EA04042C434C
:109E40000C601C68C56C2C431C601C68C56C24EA43
:109E500005041C600D68846C960654BF25EA040452
:109E60002C430C601C68C56C2C431C601C68C56CC2
:109E700024EA05041C600D68846CD60654BF25EAEC
:109E800004042C430C601C68C56C2C431C601C68CB
:109E9000C56C24EA05041C600D68846C160754BF69
:109EA00025EA04042C430C601C68C56C2C431C6020
:109EB0001C68C56C24EA05041C600D68846C560798
:109EC00054BF25EA04042C430C601C68C56C2C4369
:109ED0001C601C68C56C24EA05041C600D68846C59
:109EE000960754BF25EA04042C430C601C68C56C1B
:109EF0002C431C601C68C56C24EA05041C6012F02D
:109F0000010F846C0A6814BF144322EA04040C6035
:109F10001A68C16C0A431A60C16C1A6822EA01020D
:109F20001A6070BD2846BDE8704007F03FBB04468C
:109F30000D46184694F83010FEF708FCA06A036836
:109F400000211B689847A06A036829461B68984748
:109F5000A06ABDE87040FEF767BC00BF2DE9F04382
:109F60000E46B0F90A1004461F46CB1D85B048BF07
:109F700001F10E03B4F90890C06A9DF83080DB103F
:109F8000154609FB03F9002800F015824A46002116
:109F900009F01AFFB4F90A20B4F90810202A00F3D6
:109FA000D3800120203A73394FF0200C029002EB4D
:109FB000D272732001EBD171CDE9000C9F4B20468A
:109FC00042F34F0241F34F0108F0E0FCA06A84F82D
:109FD0003160002800F0D380002D40F0DF81B4F91B
:109FE0000A30202B14BF3D253C2584F83050B8F1B1
:109FF000000F40F0DA81002F00F0F88094F937006C
:10A00000002817DB012106F0B7FF012194F9370082
:10A0100006F0F4FF012003F04BFF002194F9370014
:10A0200006F0ECFF0A2003F043FF012194F937000A
:10A0300006F0E4FFA06A002840F0D880606A28B1EA
:10A0400004F1640393E8060007F05CFA626C616D4A
:10A05000136823EA0103136079492046FEF7FEFFE7
:10A06000A17A0139C9B22046FFF7C0FE75492046E2
:10A07000FEF7F4FF94F93130012B14BF14211021A5
:10A080002046FFF7B3FE70492046FEF7E7FFA368BE
:10A090006E4A8F21934284F8601008D002F50012B6
:10A0A000934200F090816A4A934200F09A8102251F
:10A0B000DA212046FFF79AFE29462046FFF796FE52
:10A0C00081212046FFF792FE94F860102046FFF7AA
:10A0D0008DFED9212046FFF789FE94F93130012BFE
:10A0E000204614BFF1212221FFF780FEA06A00283C
:10A0F00000F09B8094F83010564FFEF727FBA06AC3
:10A10000036800211B689847A36ABE1D01251A68D1
:10A1100017F8011B1268184690470135B742ADB2D7
:10A1200068D0A36A3F2D1846F1D1FEF77DFB94F865
:10A130003010A06AFEF70AFBA06A036800211B68C2
:10A1400098470125A36AE2E70120403A52394FF0CF
:10A15000400C029002EBD272522001EBD171CDE99A
:10A16000000C3D4B204642F34F0241F34F0108F0F3
:10A170000DFCA06A84F8316000287FF42DAF012126
:10A1800094F93500354D364E06F0F6FE94F936005A
:10A19000012106F0F1FE94F93530314A55F82330AB
:10A1A00022641F2B88BF203B012202FA03F394F99B
:10A1B0003620236555F82220294B63641F2A88BF67
:10A1C000203A0123934063653268606A1343336029
:10A1D000002800F01681B8F1000F40F00C81002F2C
:10A1E0007FF40CAFA06A00283FF428AFA16DFEF702
:10A1F0002DFA31E7A06AFEF717FBA06A30B1E16DD6
:10A20000FEF724FA012005B0BDE8F083626C616DB1
:10A210001368606A0B431360002800F0DE8007F0CB
:10A22000BFF9012005B0BDE8F083226C216D1368F1
:10A23000084D23EA01031360AE1D17E038680300E0
:10A240007C6A0300806A0300846A030080002000A7
:10A2500060001000886A030078650300446B030007
:10A260000405005007F0A2F9B542C6D0606A15F89F
:10A27000011B0028F6D1D4E90E23A06C176811F059
:10A28000800F0CBF27EA0000384310601868E76CA5
:10A29000384318601868E76C20EA070018601768F0
:10A2A000A06C11F0400F0CBF27EA0000384310608B
:10A2B0001868E76C384318601868E76C20EA0700F4
:10A2C00018601768A06C11F0200F0CBF27EA00007F
:10A2D000384310601868E76C384318601868E76CFA
:10A2E00020EA070018601768A06C11F0100F0CBF6F
:10A2F00027EA0000384310601868E76C384318609C
:10A300001868E76C20EA070018601768A06C11F065
:10A31000080F0CBF27EA0000384310601868E76C8C
:10A32000384318601868E76C20EA0700186017685F
:10A33000A06C11F0040F0CBF27EA00003843106036
:10A340001868E76C384318601868E76C20EA070063
:10A3500018601768A06C11F0020F0CBF27EA00000C
:10A36000384310601868E76C384318601868E76C69
:10A3700020EA0700186011F0010FA06C116814BFEB
:10A38000084321EA000010601A68E16C0A431A6071
:10A390001A68E16C22EA01021A6065E76DB284F87E
:10A3A0003050B8F1000F3FF426AEFEF7FFF8002F53
:10A3B0003FF418AF22E6484609F0C0FCE0620028EE
:10A3C0007FF4E4AD1FE794F93130012B14BFCF23A4
:10A3D0009F2384F8603012256AE6012005B0BDE8AD
:10A3E000F08394F93130012B14BFAF23102384F88C
:10A3F000603002255CE607F02DF8002F3FF4F2AE46
:10A40000FCE5012194F9330006F0B6FD012194F931
:10A41000340006F0B1FD94F933300F4955F823208C
:10A42000A6631F2A88BF203A0123934094F9342061
:10A43000A36455F82220084BE3631F2A88BF203A03
:10A4400001239340E3640A6822EA03030B60002FB0
:10A450003FF4C8AED2E500BF04050050B0F90A20B1
:10A46000D31D48BF02F10E03B0F90820C06ADB100B
:10A4700002FB03F2002109F0A7BC00BFF8B50446B7
:10A48000806A002800F08A80A16DFEF7DFF8A06ADC
:10A49000002800F0978094F830109F4FFEF756F98F
:10A4A000A06A036800211B689847A36A7E1D0125E6
:10A4B0001A6817F8011B1268184690470135B74211
:10A4C000ADB212D0A36A3F2D1846F1D1FEF7ACF918
:10A4D00094F83010A06AFEF739F9A06A03680021E9
:10A4E0001B6898470125A36AE2E7A06AFEF79CF97A
:10A4F000217A01392046C9B2FFF778FCB4F90A2065
:10A500002689D31D48BF02F10E03D4E90A05DB10EA
:10A5100016FB03F6B6B2002856D094F83010FEF7BA
:10A5200015F9A06A036840211B68771E9847BFB2DF
:10A53000F6B10137A06A2F440126036815F8011B04
:10A540001B6898470136BD42B6B211D03F2EA06AB3
:10A55000F3D1FEF769F994F83010A06AFEF7F6F827
:10A56000A06A036840211B6898470126A06AE4E7B7
:10A57000A06AFEF759F9A06A58B9626C616D136858
:10A58000606A0B43136018B1BDE8F84007F008B8E3
:10A59000F8BDE16DBDE8F840FEF758B8606A0028E4
:10A5A00000F0BC8004F1640393E8060006F0AAFF03
:10A5B000626C616D1368A06A23EA010313600028CE
:10A5C0007FF469AF606AAFE0226C216D13680B43C2
:10A5D0002E441360B542CED0606A15F8011B40B11D
:10A5E00006F0E4FFB542C6D0606A15F8011B0028EA
:10A5F000F6D1D4E90E23A06C176811F0800F0CBFC0
:10A6000027EA0000384310601868E76C3843186088
:10A610001868E76C20EA070018601768A06C11F052
:10A62000400F0CBF27EA0000384310601868E76C41
:10A63000384318601868E76C20EA0700186017684C
:10A64000A06C11F0200F0CBF27EA00003843106007
:10A650001868E76C384318601868E76C20EA070050
:10A6600018601768A06C11F0100F0CBF27EA0000EB
:10A67000384310601868E76C384318601868E76C56
:10A6800020EA070018601768A06C11F0080F0CBFD3
:10A6900027EA0000384310601868E76C38431860F8
:10A6A0001868E76C20EA070018601768A06C11F0C2
:10A6B000040F0CBF27EA0000384310601868E76CED
:10A6C000384318601868E76C20EA070018601768BC
:10A6D000A06C11F0020F0CBF27EA00003843106095
:10A6E0001868E76C384318601868E76C20EA0700C0
:10A6F000186011F0010FA06C116814BF084321EA23
:10A70000000010601A68E16C0A431A601A68E16C74
:10A7100022EA01021A605DE7906A0300626C616DD3
:10A72000136823EA01031360226C216D1368514DF5
:10A7300023EA010313606E1D05E006F037FFB54202
:10A740003FF4D6AE606A15F8011B0028F5D1D4E9B4
:10A750000E23A06C176811F0800F0CBF27EA0000D1
:10A76000384310601868E76C384318601868E76C65
:10A7700020EA070018601768A06C11F0400F0CBFAA
:10A7800027EA0000384310601868E76C3843186007
:10A790001868E76C20EA070018601768A06C11F0D1
:10A7A000200F0CBF27EA0000384310601868E76CE0
:10A7B000384318601868E76C20EA070018601768CB
:10A7C000A06C11F0100F0CBF27EA00003843106096
:10A7D0001868E76C384318601868E76C20EA0700CF
:10A7E00018601768A06C11F0080F0CBF27EA000072
:10A7F000384310601868E76C384318601868E76CD5
:10A8000020EA070018601768A06C11F0040F0CBF55
:10A8100027EA0000384310601868E76C3843186076
:10A820001868E76C20EA070018601768A06C11F040
:10A83000020F0CBF27EA0000384310601868E76C6D
:10A84000384318601868E76C20EA0700186011F0B8
:10A85000010FA06C116814BF084321EA00001060CA
:10A860001A68E16C0A431A601A68E16C22EA010274
:10A870001A6064E7906A0300407A704710B4446835
:10A8800024680346084611461A4623465DF8044BE1
:10A89000184700BF84B008461146019204B001F089
:10A8A000F5BE00BF70B51368044600681B69C66931
:10A8B00082B010460D469847C1B2284601F0D2FB3F
:10A8C000294602463346204602B0BDE8704018478C
:10A8D00030B5D3B285B0013B04460D460192062B3C
:10A8E0000AD8DFE803F0271D42040909270003689E
:10A8F0004FF0FF319B6A9847637A7BB1AB68B5F93B
:10A90000002093F82230002B0CBF02214FF48071FD
:10A91000284605B0BDE8304001F00ABC05B030BDA6
:10A92000827A03683AB98A6892F820201AB91B6AB9
:10A93000984710BB23685B6A00210122A1726272F2
:10A9400020469847AB68B5F9002093F82230002BD9
:10A950000CBF02214FF48071284601F0E9FBA86882
:10A9600005B0BDE8304001F09BBC036801219B6A43
:10A970009847637A002BC1D1D0E70123A372637299
:10A98000BCE700BF2DE9F0411D464368BDF91C201E
:10A99000BDF9208004460E462846996800F02CFC3C
:10A9A00063681B7903F01503152B074602D0384660
:10A9B000BDE8F081B6F90E10B36801EB410103EB7D
:10A9C00081014B689C4208D02846434622463146C6
:10A9D00000F06CFD3846BDE8F0814246284600F0A4
:10A9E000D5FE3846BDE8F0812DE9F04782B0044637
:10A9F000BDF92C704068BDF930A088469146816849
:10AA00003A4618461E4600F0F7FB63681B7903F0D0
:10AA10001503152B05462FD0AF4229DDD8F81CA011
:10AA200054453BD0202101351FFA85F830460FFAF6
:10AA300088F502F097FCAF421ADDA4EB0A0ABAFAD5
:10AA40008AFA3268237A4FEA5A1ACDF800A0556A7A
:10AA500002214A463046A84723683146DB6A204631
:10AA6000984780441FFA88F80FFA88F5AF421EDC39
:10AA7000284602B0BDE8F087B8F90E10D8F80830C3
:10AA800001EB410103EB81014B689C4224D053460A
:10AA900022464146304600F009FDBDE7B9F1000FFE
:10AAA000C0D0A37A002B14BF3E213A21BBE7316806
:10AAB000237ACDF800A04A464D6A30460321A847C4
:10AAC00063683A461969304600F096FB404405B287
:10AAD000284602B0BDE8F0875246304600F056FEE8
:10AAE0009AE700BF2DE9F04F85B0684D9DF838A07A
:10AAF000044688469146667A002E40D161680A79FC
:10AB000012F0140F40D0DFF88CB10296354657464C
:10AB100017E06368B3F91000A8424FF000034A46FB
:10AB200041461ADD2068066A594886421AD1606893
:10AB3000406950F8250006680097F668B047F0B9FC
:10AB4000013523681B685B45E3D020469847A8423F
:10AB50004FF000034A464146E4DC029E304605B011
:10AB6000BDE8F08F29B22046B04703680097D3F8BC
:10AB70000CA04A4600234146D0470028E0D00126D9
:10AB8000304605B0BDE8F08FD8F80400A042F7D1F8
:10AB9000002BF5D0D8F808C0BCF90E00DCF808E0AE
:10ABA00000EB400752074FEA87074DD4D9F80C3025
:10ABB0008A7B1B68B3F806B093075AD50BF1FF3BAD
:10ABC0001FFA8BFB7744D9F808307A6852681279FB
:10ABD00002F01402002A18BF01380FFA8BF2002A83
:10ABE000029233F91070CBDDDFF8A8B00396002590
:10ABF0001BE06368B3F91000B04223DD2368244AE8
:10AC00001B6A93421AD163685B6953F82600026895
:10AC1000CDF800A0D66800234A464146B04701352A
:10AC20000028ACD1029B9D420CD023681B687E1982
:10AC30005B4536B2DDD020469847DDE731462046F9
:10AC40009847E4E7039E9BE70C3F0EEB0708D8F814
:10AC500004402268D668AE423FF44DAF4A464146B2
:10AC600020460123B446CDF838A005B0BDE8F04F2A
:10AC700060479CF81030002BA4D082F00403C3F38B
:10AC80008003ABEB030B1FFA8BFB9BE799AC020035
:10AC9000D9620200E56202002DE9F04F90F80980C8
:10ACA00085B09DF838A0B8F1000F3CD145680E463C
:10ACB000297911F0140F174604463AD0DFF88CB109
:10ACC00045461BE06368B3F91000A8424FF000034B
:10ACD0003A46314629DD2068D0F820905948814510
:10ACE00013D16068406950F82500D0F800C0CDF855
:10ACF00000A0DCF80C90C847A8B9013523681B6890
:10AD00005B45DFD020469847DFE729B22046C84799
:10AD10000368CDF800A0D3F80C903A4600233146E2
:10AD2000C8470028E9D04FF00108404605B0BDE80B
:10AD3000F08F70688442F8D1002BF6D0D6F808C0A6
:10AD4000BCF90E00DCF808E000EB400349074FEACD
:10AD5000830352D4D268A97B1268B2F806B08A077E
:10AD60005BD50BF1FF3B1FFA8BFB7344BA685B6842
:10AD70005B681B7903F01403002B18BF01380FFA2E
:10AD80008BF3002B029332F91020CEDD3B46CDF839
:10AD90000C805746DFF8B4B000259046B1469A467D
:10ADA0001AE06368B3F91000B04223DD2368254A36
:10ADB0001B6A93421AD163685B6953F826000268E4
:10ADC0000097D668002352464946B047013500280F
:10ADD000A9D1029B9D420DD023681B6808EB050694
:10ADE0005B4536B2DDD020469847DDE73146204648
:10ADF0009847E4E7DDF80C8097E70C3B0EEB030186
:10AE0000114B48680468E4689C4213D1CDF800A057
:10AE10000123FFF767FE804687E79CF81020002A91
:10AE2000A3D081F00402C2F38002ABEB020B1FFA45
:10AE30008BFB9AE70123A446CDF838A005B0BDE806
:10AE4000F04F6047D962020099AC0200E56202004F
:10AE50002DE9F04FD0F804E0002587B00446457294
:10AE60009EF804009DF84060039610F0140C0F4605
:10AE7000164629D0DFF89491DFF8948114E06368D6
:10AE8000B3F91000A84217DD23681B6A434517D1A8
:10AE900063685B6953F8250002680023D2F804A0B8
:10AEA000394632460135D04723681B684B45E6D00A
:10AEB00020469847A842E7DC002007B0BDE8F08FA5
:10AEC00029B220469847E7E7D1F808A0BAF90E5012
:10AED000DAF8081005EB4508400799464FEA88085C
:10AEE00069D4F3689EF80E201B689007DB8851D563
:10AEF000013B9BB2B9F1000F59D01BB2002B059357
:10AF000055DD4144B2684B68DFF800915B68DFF8BB
:10AF100000A11B7903F01403002B18BF013D4FF073
:10AF2000000832F91530049329E06368B3F9100082
:10AF3000A8423CDD23681B6A534559D163685B69AD
:10AF400053F8250003683246D3F804B0394600238D
:10AF5000D84723681B6A534546D163685B6953F839
:10AF600025000368039A0092DD68324600233946C3
:10AF7000A847E0B9059B08F10108434517D02368AD
:10AF8000049A1B6802EB08054B452DB2CDD0204634
:10AF90009847CDE79AF810000028ABD082F0040261
:10AFA000C2F380029B1A9BB2B9F1000FA5D1012018
:10AFB00007B0BDE8F08FA8F10C0001EB000BDFF843
:10AFC00054E0DBF804000168D1F804A0F24513D185
:10AFD0005946CDF800C0FFF73BFFD7F808A0D4F8DA
:10AFE00004E0DAF808107CE7294620469847B8E7DD
:10AFF000294620469847A5E75946D047D7F808A0E4
:10B00000D4F804E0DAF808106BE700BFE56202004C
:10B01000D962020019B002002DE9F04FD0F804C047
:10B020000025044645729CF8040010F0140A85B00F
:10B030000F46164628D0DFF88891DFF8888114E0A3
:10B040006368B3F91000A84217DD23681B6A434503
:10B0500016D163685B6953F8250002680023D2F8B3
:10B0600004A0394632460135D04723681B684B455A
:10B07000E6D020469847A842E7DC05B0BDE8F08F4F
:10B0800029B220469847E8E7D1F808E0BEF90E500B
:10B09000DEF8081005EB4508400799464FEA880896
:10B0A00064D4F3689CF80E201B689007DB8852D5A7
:10B0B000013B9BB2B9F1000FDFD01BB2002B039311
:10B0C000DBDD4144B2684B68DFF8F4905B68DFF881
:10B0D000F4A01B7903F01403002B18BF013D4FF0BF
:10B0E000000832F9153002932AE06368B3F91000C2
:10B0F000A842C2DD23681B6A534554D163685B696B
:10B1000053F8250003683246D3F804B039460023CB
:10B11000D84723681B6A534541D163685B6953F87C
:10B120002500036800220092DD6839461346324646
:10B13000A8470028A1D1039B08F1010898459CD09D
:10B140002368029A1B6802EB08054B452DB2CCD050
:10B1500020469847CCE79EF810000028AAD082F03D
:10B160000402C2F380029B1A9BB2A3E7A8F10C0071
:10B1700001EB000EDFF850C0DEF804000168D1F8E2
:10B1800004B0E34513D17146CDF800A0FFF760FE8F
:10B19000D7F808E0D4F804C0DEF8081081E72946A3
:10B1A00020469847BDE7294620469847AAE77146BA
:10B1B000D847D7F808E0D4F804C0DEF8081070E7E4
:10B1C000E5620200D962020019B002000020704757
:10B1D000012070470020704708B5024902F0B0F81E
:10B1E000002008BDB86A0300014B024A1A6070478C
:10B1F00030440020CDB102000368DB68184700BF6F
:10B20000054B064A5A6042F63E5000210122188042
:10B2100019725A72704700BF34440020046B030057
:10B22000704700BF00207047704700BF2DE9F04114
:10B230008846097808F1010479B10546164692B1AD
:10B240006FEA080705E02B681B68984714F8011B94
:10B2500019B1E319B3422846F5DBA4EB0800013825
:10B2600000B2BDE8F0812B6828461B68984714F8A7
:10B27000011B0029F7D1F0E7704700BF704700BFFE
:10B2800003682DE9F04105461C6A0E461346174631
:10B290000A460021A047EB681B68B3F90430002B75
:10B2A0000BDD00242021284602F05CF8EB681B68C7
:10B2B000B3F904300134A342F4DC29680C6A3B463C
:10B2C00032462846A4460021BDE8F041604700BF51
:10B2D00070B586B09DF82840BDF9301014B9002033
:10B2E00006B070BD0468084DE46BAC42F7D0002690
:10B2F0000125013A12B20596CDE902660495CDE921
:10B300000055A047EBE700BF7DB202002DE9F041F8
:10B310000168144F4D6A82B0BD4204469DF820C0BA
:10B320001646984618D10B6886B10F4A1268B8F1D4
:10B33000000F05D01178204602B0BDE8F041184753
:10B340005178204602B0BDE8F04118472021204640
:10B3500002B0BDE8F04118470421CDF800C0A8476D
:10B360002168E0E779B20200C83B002010B502680E
:10B37000074B546A9C4282B002D1002002B010BD3B
:10B38000012300931A461946A047002002B010BDC1
:10B3900079B20200F0B587B09DF83040BDF93410A5
:10B3A00014B9002007B0F0BD04680E4FA66BBE4272
:10B3B00005460AD1646A0C4B9C42F2D0002201235C
:10B3C000284600921946A047EBE701240027013ADE
:10B3D0000494CDE9004412B20597CDE90277B04755
:10B3E0002C68E7E77DB2020079B2020000293BD069
:10B3F0002DE9F04799460368002B32DD8846164652
:10B40000074600240BE01DD3022E05D12846314605
:10B41000C047012822D03B6801349C4221DA7D6874
:10B42000012E55F82450EED12A7CD10704D4B9F16D
:10B43000000FF1D09207EFD5284643460121BDE821
:10B44000F047184700212846C04738B92B7CD80759
:10B45000E1D428460121C0470128DCD10120BDE804
:10B46000F0870020BDE8F0870020704701680029C0
:10B4700009DD4368043B03EB8101002053F8042FEE
:10B4800099425061FAD1704738B50368002B0BDD43
:10B49000054600246B6853F8240003689B699847AD
:10B4A0002B680134A342F5DC38BD00BF2DE9F04F15
:10B4B0000568B14E6F6A89B0B742044607911546D8
:10B4C000984640F052816B681F794FEAC80317F025
:10B4D000100705937FD0A94B06930027A9461A466B
:10B4E0003DE0D9F80430B3F91000B84240DDD9F896
:10B4F0000030A34A1B6A93420FFA87FA3BD1D9F86E
:10B50000043022685B69D2F824B053F82750B34561
:10B510002B7A3AD1D2F828B09A498B4541D1D2F84A
:10B5200024B0B34550D113682021204698472368A2
:10B53000D3F824B0B34540D1E3682A68CDF8088039
:10B540001B6805990B442846B3F904300799CDE9E7
:10B5500000A3234695680022A847069A0137D9F828
:10B5600000301B689342BCD048469847B842BEDCC6
:10B5700009B0BDE8F08F5146484698472268D2F896
:10B5800024B00546B3452B7AC4D000220092012195
:10B590002046D84722687B49D2F828B02B7A8B45C1
:10B5A000BDD00022CDF80480009251462046D847F5
:10B5B0002368D3F824B0B345BED000222B7A009282
:10B5C00001212046D847B7E70022009204212046F7
:10B5D000D8472268A7E723684146DB692046984799
:10B5E00022684346D2F8209039463A462046C8475A
:10B5F000E368059A1B681344B3F90630002BB7DDE6
:10B60000A9465E4B0693D9F80030069A1B68DFF80E
:10B6100070B193427AD1D9F80430B3F91000B8422E
:10B62000A6DDD9F800301B6A5B457CD1D9F804301F
:10B630005B6953F827502368534AD3F814A0924506
:10B6400067D1D3F820A03A46434600212046D04790
:10B65000E3681B68B3F90430002B0DDD4FF0000ADE
:10B660002021204601F07EFEE3681B68B3F9043018
:10B670000AF1010A5345F3DC22684346D2F820A0C0
:10B6800000213A462046D04722684346D2F820A0FF
:10B6900000213A462046D04722682B7AD2F824A0CF
:10B6A000B24553D1D2F828A036498A4547D1D2F8BD
:10B6B00024A0B24552D11368202120469847236820
:10B6C000D3F824A0B24533D1E3682A68CDF80880C6
:10B6D0001B6805990B442846B3F904300799CDE956
:10B6E0000073234695680022A847E36805991B6804
:10B6F0000B440137B3F906303FB2BB427FF738AF96
:10B70000D9F80030069A1B68934284D0484698477F
:10B7100085E7002302932A7A3946CDE90032204694
:10B720004246D047B0E7394648469847054682E743
:10B7300000222B7A009201212046D047C4E7002244
:10B74000CDE9002839462046D047B8E700220092CC
:10B7500001212046D04722682B7AA3E700220092DD
:10B7600004212046D0472268A5E700220123009249
:10B770001946B847A7E600BF79B20200E5620200A9
:10B78000D96202000DB3020081B202002DE9F04F30
:10B790008C688146E06943681B7993B013F0050318
:10B7A0008A46079200F08580B4F90E30002B6DD1E7
:10B7B0009846DAF80400D9F80C7043681A799B7B34
:10B7C00002F0100113F002050491394640F0848024
:10B7D000247C002C7ED1530700F18D80079D3B68AF
:10B7E000D9F8086099F818E036F908B0BAF90020DD
:10B7F0000994ED0003EB050C0E95BCF9063006EB41
:10B800000805BEF1000F00F08180BCF802502B4407
:10B810001BB21B1B92FBF3F503FB1523D31A1BB2C0
:10B8200026F8083099F81020D6070AD49B4508D18D
:10B83000D9F81430834200F0CD82079B0994DB00D5
:10B840000E930B680E9A1344B3F904300F93002C37
:10B8500040F0558203680094DD684A46234651460D
:10B86000A8470446002800F09480049B002B40F079
:10B870009680D9F800300799DB69484698470A94C2
:10B88000D9F8083033F90830069390E04FEA4308BE
:10B89000A26808EB030102EB810252685268127938
:10B8A000550786D503F1FF380FFA88F84FEA4808A4
:10B8B0007FE7154602680093D4684A46A0470028EF
:10B8C00040F00682DAF80400C9F81400002013B032
:10B8D000BDE8F08F5C0717D4049BABB9079C3B68AD
:10B8E00003EBC403B3F90640012CD4BF00240124A8
:10B8F00053077FF573AF99F81020D3079DD4D9F87B
:10B900001430834299D165E2002464E75B44A118B6
:10B910008B4200F370820BF1010189B20BB22B80D4
:10B92000BAF90020BCF9066002EB040E1E44013196
:10B93000B64589B2F2DACDF814B0B64EDDF838B0BB
:10B9400012E04268B2F910C03A685A44ACEB030CFA
:10B95000B2F90620121B9445BE4680F23782013BA5
:10B960001BB22B80BAF900209A42F8DB002B00F0C2
:10B97000288202681268B242E3D09047D9F8085092
:10B98000D9F80C7035F9083084464544DAF80400DB
:10B99000DAE701230A93049B002B00F025820123A0
:10B9A0000A939D49484601F0CBFC00230693079B70
:10B9B000013310934FF000089B001193C34678E0C9
:10B9C000DAF80410BAF900300593091BB1FA81F1D5
:10B9D00049090B910999D9F8002018463944301AC1
:10B9E000B0FA80F00C910499237A4009089000295C
:10B9F00000F0AC80556A894A954240F0E580DAF85B
:10BA0000083093F83030002B00F09280049B002B1C
:10BA100040F0928099F81030580700F136810F9D60
:10BA2000D9F800307E4AD3F82880217A0D919045CC
:10BA300040F01481D3F82480784A904540F01B816F
:10BA4000059A1B68964240F0E380764A0D99126889
:10BA5000002900F00E81117848469847D9F8003047
:10BA6000D3F824806D4B013D98452DB240F0EE8017
:10BA7000002D18DD079A2368DAF808100097CDE941
:10BA8000015220469D68089A4B46A84700280ADDC7
:10BA9000049B43B16449654B059A4846964208BFEA
:10BAA000194601F04DFC059B9E4200F094800BF17D
:10BAB000010B049B0FFA8BF75BB9D9F80C300E9A87
:10BAC0001B681344099AB3F906309B1ABB427FF7EF
:10BAD000F9AEDAF80400069A0368D6191B684D4AD5
